{"contracts/P2PLending.sol":{"P2PLending":{"abi":[{"inputs":[{"internalType":"address","name":"_usdtToken","type":"address"}],"stateMutability":"nonpayable","type":"constructor"},{"inputs":[],"name":"AlreadyPaid","type":"error"},{"inputs":[],"name":"EnforcedPause","type":"error"},{"inputs":[],"name":"ExceedsCreditLimit","type":"error"},{"inputs":[],"name":"ExpectedPause","type":"error"},{"inputs":[],"name":"HasActiveLoan","type":"error"},{"inputs":[],"name":"InsufficientBalance","type":"error"},{"inputs":[],"name":"InvalidAmount","type":"error"},{"inputs":[],"name":"InvalidCreditScore","type":"error"},{"inputs":[],"name":"InvalidDuration","type":"error"},{"inputs":[],"name":"InvalidInterestRate","type":"error"},{"inputs":[],"name":"InvalidWallet","type":"error"},{"inputs":[],"name":"LoanNotActive","type":"error"},{"inputs":[],"name":"LoanNotFound","type":"error"},{"inputs":[],"name":"LoanNotPending","type":"error"},{"inputs":[],"name":"NoInterestToClaim","type":"error"},{"inputs":[],"name":"NotWhitelisted","type":"error"},{"inputs":[{"internalType":"address","name":"owner","type":"address"}],"name":"OwnableInvalidOwner","type":"error"},{"inputs":[{"internalType":"address","name":"account","type":"address"}],"name":"OwnableUnauthorizedAccount","type":"error"},{"inputs":[],"name":"PaymentNotDue","type":"error"},{"inputs":[],"name":"ReentrancyGuardReentrantCall","type":"error"},{"inputs":[{"internalType":"address","name":"token","type":"address"}],"name":"SafeERC20FailedOperation","type":"error"},{"anonymous":false,"inputs":[{"indexed":true,"internalType":"address","name":"user","type":"address"}],"name":"AddressRemoved","type":"event"},{"anonymous":false,"inputs":[{"indexed":true,"internalType":"address","name":"user","type":"address"}],"name":"AddressWhitelisted","type":"event"},{"anonymous":false,"inputs":[{"indexed":true,"internalType":"address","name":"feeWallet","type":"address"},{"indexed":true,"internalType":"address","name":"insuranceWallet","type":"address"},{"indexed":true,"internalType":"address","name":"matchingWallet","type":"address"}],"name":"CompanyWalletsUpdated","type":"event"},{"anonymous":false,"inputs":[{"indexed":true,"internalType":"address","name":"user","type":"address"},{"indexed":false,"internalType":"uint256","name":"creditScore","type":"uint256"},{"indexed":false,"internalType":"uint256","name":"creditLimit","type":"uint256"}],"name":"CreditScoreUpdated","type":"event"},{"anonymous":false,"inputs":[{"indexed":true,"internalType":"uint256","name":"loanId","type":"uint256"},{"indexed":true,"internalType":"address","name":"lender","type":"address"},{"indexed":false,"internalType":"uint256","name":"interestAmount","type":"uint256"},{"indexed":false,"internalType":"uint256","name":"timestamp","type":"uint256"}],"name":"InterestClaimed","type":"event"},{"anonymous":false,"inputs":[{"indexed":true,"internalType":"uint256","name":"loanId","type":"uint256"},{"indexed":false,"internalType":"uint256","name":"totalPaid","type":"uint256"}],"name":"LoanCompleted","type":"event"},{"anonymous":false,"inputs":[{"indexed":true,"internalType":"uint256","name":"loanId","type":"uint256"},{"indexed":false,"internalType":"string","name":"loanIdString","type":"string"},{"indexed":true,"internalType":"address","name":"borrower","type":"address"},{"indexed":false,"internalType":"uint256","name":"amount","type":"uint256"},{"indexed":false,"internalType":"uint256","name":"interestRate","type":"uint256"},{"indexed":false,"internalType":"uint256","name":"duration","type":"uint256"},{"indexed":false,"internalType":"uint256","name":"feePaid","type":"uint256"}],"name":"LoanCreated","type":"event"},{"anonymous":false,"inputs":[{"indexed":true,"internalType":"uint256","name":"loanId","type":"uint256"},{"indexed":true,"internalType":"address","name":"lender","type":"address"},{"indexed":false,"internalType":"uint256","name":"amount","type":"uint256"},{"indexed":false,"internalType":"uint256","name":"insuranceAmount","type":"uint256"},{"indexed":false,"internalType":"uint256","name":"matchingFee","type":"uint256"},{"indexed":false,"internalType":"uint256","name":"disbursedAmount","type":"uint256"}],"name":"LoanFunded","type":"event"},{"anonymous":false,"inputs":[{"indexed":true,"internalType":"address","name":"previousOwner","type":"address"},{"indexed":true,"internalType":"address","name":"newOwner","type":"address"}],"name":"OwnershipTransferred","type":"event"},{"anonymous":false,"inputs":[{"indexed":false,"internalType":"address","name":"account","type":"address"}],"name":"Paused","type":"event"},{"anonymous":false,"inputs":[{"indexed":true,"internalType":"uint256","name":"loanId","type":"uint256"},{"indexed":true,"internalType":"address","name":"payer","type":"address"},{"indexed":false,"internalType":"uint256","name":"totalAmount","type":"uint256"},{"indexed":false,"internalType":"uint256","name":"daysLate","type":"uint256"},{"indexed":false,"internalType":"uint256","name":"timestamp","type":"uint256"}],"name":"PaymentMade","type":"event"},{"anonymous":false,"inputs":[{"indexed":false,"internalType":"address","name":"account","type":"address"}],"name":"Unpaused","type":"event"},{"inputs":[],"name":"BASIS_POINTS","outputs":[{"internalType":"uint256","name":"","type":"uint256"}],"stateMutability":"view","type":"function"},{"inputs":[],"name":"DURATION","outputs":[{"internalType":"uint256","name":"","type":"uint256"}],"stateMutability":"view","type":"function"},{"inputs":[],"name":"INSURANCE_RATE","outputs":[{"internalType":"uint256","name":"","type":"uint256"}],"stateMutability":"view","type":"function"},{"inputs":[],"name":"MATCHING_FEE_RATE","outputs":[{"internalType":"uint256","name":"","type":"uint256"}],"stateMutability":"view","type":"function"},{"inputs":[],"name":"MAX_LOAN_AMOUNT","outputs":[{"internalType":"uint256","name":"","type":"uint256"}],"stateMutability":"view","type":"function"},{"inputs":[],"name":"MIN_LOAN_AMOUNT","outputs":[{"internalType":"uint256","name":"","type":"uint256"}],"stateMutability":"view","type":"function"},{"inputs":[],"name":"ONE_USDT","outputs":[{"internalType":"uint256","name":"","type":"uint256"}],"stateMutability":"view","type":"function"},{"inputs":[{"internalType":"address","name":"user","type":"address"}],"name":"addToWhitelist","outputs":[],"stateMutability":"nonpayable","type":"function"},{"inputs":[{"internalType":"address[]","name":"users","type":"address[]"},{"internalType":"uint256[]","name":"creditScores","type":"uint256[]"},{"internalType":"uint256[]","name":"creditLimits","type":"uint256[]"}],"name":"batchUpdateCreditScore","outputs":[],"stateMutability":"nonpayable","type":"function"},{"inputs":[{"internalType":"address","name":"","type":"address"},{"internalType":"uint256","name":"","type":"uint256"}],"name":"borrowerLoans","outputs":[{"internalType":"uint256","name":"","type":"uint256"}],"stateMutability":"view","type":"function"},{"inputs":[{"internalType":"uint256","name":"loanId","type":"uint256"}],"name":"calculateAvailableInterest","outputs":[{"internalType":"uint256","name":"","type":"uint256"}],"stateMutability":"view","type":"function"},{"inputs":[{"internalType":"uint256","name":"principal","type":"uint256"},{"internalType":"uint256","name":"annualRate","type":"uint256"},{"internalType":"uint256","name":"monthsInLoan","type":"uint256"}],"name":"calculateEMI","outputs":[{"internalType":"uint256","name":"","type":"uint256"}],"stateMutability":"pure","type":"function"},{"inputs":[],"name":"calculateInitiationFee","outputs":[{"internalType":"uint256","name":"","type":"uint256"}],"stateMutability":"pure","type":"function"},{"inputs":[{"internalType":"uint256","name":"loanId","type":"uint256"},{"internalType":"uint256","name":"paymentAmount","type":"uint256"}],"name":"calculateInterestFromEMI","outputs":[{"internalType":"uint256","name":"","type":"uint256"}],"stateMutability":"view","type":"function"},{"inputs":[{"internalType":"uint256","name":"amount","type":"uint256"}],"name":"calculateInterestRate","outputs":[{"internalType":"uint256","name":"","type":"uint256"}],"stateMutability":"pure","type":"function"},{"inputs":[{"internalType":"uint256","name":"loanId","type":"uint256"}],"name":"calculateLoanEMI","outputs":[{"internalType":"uint256","name":"","type":"uint256"}],"stateMutability":"view","type":"function"},{"inputs":[{"internalType":"uint256","name":"loanId","type":"uint256"}],"name":"calculateMonthlyInterest","outputs":[{"internalType":"uint256","name":"","type":"uint256"}],"stateMutability":"view","type":"function"},{"inputs":[{"internalType":"address","name":"user","type":"address"},{"internalType":"uint256","name":"amount","type":"uint256"}],"name":"canCreateLoan","outputs":[{"internalType":"bool","name":"canCreate","type":"bool"},{"internalType":"string","name":"reason","type":"string"}],"stateMutability":"view","type":"function"},{"inputs":[{"internalType":"uint256","name":"loanId","type":"uint256"}],"name":"claimInterest","outputs":[],"stateMutability":"nonpayable","type":"function"},{"inputs":[],"name":"companyWallets","outputs":[{"internalType":"address","name":"feeWallet","type":"address"},{"internalType":"address","name":"insuranceWallet","type":"address"},{"internalType":"address","name":"matchingWallet","type":"address"}],"stateMutability":"view","type":"function"},{"inputs":[{"internalType":"string","name":"loanIdString","type":"string"},{"internalType":"uint256","name":"amount","type":"uint256"},{"internalType":"uint256","name":"duration","type":"uint256"}],"name":"createLoan","outputs":[{"internalType":"uint256","name":"","type":"uint256"}],"stateMutability":"nonpayable","type":"function"},{"inputs":[{"internalType":"uint256","name":"loanId","type":"uint256"}],"name":"fundLoan","outputs":[],"stateMutability":"nonpayable","type":"function"},{"inputs":[{"internalType":"uint256","name":"loanId","type":"uint256"}],"name":"getAvailableWithdrawal","outputs":[{"internalType":"uint256","name":"","type":"uint256"}],"stateMutability":"view","type":"function"},{"inputs":[{"internalType":"address","name":"borrower","type":"address"}],"name":"getBorrowerLoans","outputs":[{"internalType":"uint256[]","name":"","type":"uint256[]"}],"stateMutability":"view","type":"function"},{"inputs":[{"internalType":"uint256","name":"loanId","type":"uint256"}],"name":"getFixedEMI","outputs":[{"internalType":"uint256","name":"","type":"uint256"}],"stateMutability":"view","type":"function"},{"inputs":[{"internalType":"address","name":"lender","type":"address"}],"name":"getLenderLoans","outputs":[{"internalType":"uint256[]","name":"","type":"uint256[]"}],"stateMutability":"view","type":"function"},{"inputs":[{"internalType":"uint256","name":"loanId","type":"uint256"}],"name":"getLoan","outputs":[{"components":[{"internalType":"uint256","name":"id","type":"uint256"},{"internalType":"string","name":"loanId","type":"string"},{"internalType":"address","name":"borrower","type":"address"},{"internalType":"address","name":"lender","type":"address"},{"internalType":"uint256","name":"amount","type":"uint256"},{"internalType":"uint256","name":"interestRate","type":"uint256"},{"internalType":"uint256","name":"duration","type":"uint256"},{"internalType":"uint256","name":"fundedAt","type":"uint256"},{"internalType":"uint256","name":"nextPaymentDue","type":"uint256"},{"internalType":"uint256","name":"totalPaid","type":"uint256"},{"internalType":"uint256","name":"availableForWithdrawal","type":"uint256"},{"internalType":"uint256","name":"fixedEMI","type":"uint256"},{"internalType":"enum P2PLending.LoanStatus","name":"status","type":"uint8"}],"internalType":"struct P2PLending.Loan","name":"","type":"tuple"}],"stateMutability":"view","type":"function"},{"inputs":[{"internalType":"uint256","name":"loanId","type":"uint256"}],"name":"getLoanPaymentHistory","outputs":[{"internalType":"uint256[]","name":"","type":"uint256[]"}],"stateMutability":"view","type":"function"},{"inputs":[],"name":"getStats","outputs":[{"internalType":"uint256","name":"_totalLoans","type":"uint256"},{"internalType":"uint256","name":"_totalVolume","type":"uint256"},{"internalType":"uint256","name":"_activeLoans","type":"uint256"}],"stateMutability":"view","type":"function"},{"inputs":[{"internalType":"address","name":"user","type":"address"}],"name":"getUserCreditInfo","outputs":[{"internalType":"uint256","name":"creditScore","type":"uint256"},{"internalType":"uint256","name":"creditLimit","type":"uint256"},{"internalType":"uint256","name":"activeLoanId","type":"uint256"},{"internalType":"bool","name":"hasActiveLoan","type":"bool"}],"stateMutability":"view","type":"function"},{"inputs":[{"internalType":"uint256","name":"loanId","type":"uint256"}],"name":"isFinalPayment","outputs":[{"internalType":"bool","name":"","type":"bool"}],"stateMutability":"view","type":"function"},{"inputs":[{"internalType":"address","name":"user","type":"address"}],"name":"isWhitelisted","outputs":[{"internalType":"bool","name":"","type":"bool"}],"stateMutability":"view","type":"function"},{"inputs":[{"internalType":"address","name":"","type":"address"},{"internalType":"uint256","name":"","type":"uint256"}],"name":"lenderLoans","outputs":[{"internalType":"uint256","name":"","type":"uint256"}],"stateMutability":"view","type":"function"},{"inputs":[],"name":"loanCounter","outputs":[{"internalType":"uint256","name":"","type":"uint256"}],"stateMutability":"view","type":"function"},{"inputs":[{"internalType":"uint256","name":"","type":"uint256"},{"internalType":"uint256","name":"","type":"uint256"}],"name":"loanPaymentHistory","outputs":[{"internalType":"uint256","name":"","type":"uint256"}],"stateMutability":"view","type":"function"},{"inputs":[{"internalType":"uint256","name":"","type":"uint256"}],"name":"loans","outputs":[{"internalType":"uint256","name":"id","type":"uint256"},{"internalType":"string","name":"loanId","type":"string"},{"internalType":"address","name":"borrower","type":"address"},{"internalType":"address","name":"lender","type":"address"},{"internalType":"uint256","name":"amount","type":"uint256"},{"internalType":"uint256","name":"interestRate","type":"uint256"},{"internalType":"uint256","name":"duration","type":"uint256"},{"internalType":"uint256","name":"fundedAt","type":"uint256"},{"internalType":"uint256","name":"nextPaymentDue","type":"uint256"},{"internalType":"uint256","name":"totalPaid","type":"uint256"},{"internalType":"uint256","name":"availableForWithdrawal","type":"uint256"},{"internalType":"uint256","name":"fixedEMI","type":"uint256"},{"internalType":"enum P2PLending.LoanStatus","name":"status","type":"uint8"}],"stateMutability":"view","type":"function"},{"inputs":[{"internalType":"uint256","name":"loanId","type":"uint256"}],"name":"makePayment","outputs":[],"stateMutability":"nonpayable","type":"function"},{"inputs":[],"name":"owner","outputs":[{"internalType":"address","name":"","type":"address"}],"stateMutability":"view","type":"function"},{"inputs":[],"name":"pause","outputs":[],"stateMutability":"nonpayable","type":"function"},{"inputs":[],"name":"paused","outputs":[{"internalType":"bool","name":"","type":"bool"}],"stateMutability":"view","type":"function"},{"inputs":[{"internalType":"address","name":"user","type":"address"}],"name":"removeFromWhitelist","outputs":[],"stateMutability":"nonpayable","type":"function"},{"inputs":[],"name":"renounceOwnership","outputs":[],"stateMutability":"nonpayable","type":"function"},{"inputs":[],"name":"totalLoans","outputs":[{"internalType":"uint256","name":"","type":"uint256"}],"stateMutability":"view","type":"function"},{"inputs":[],"name":"totalVolume","outputs":[{"internalType":"uint256","name":"","type":"uint256"}],"stateMutability":"view","type":"function"},{"inputs":[{"internalType":"address","name":"newOwner","type":"address"}],"name":"transferOwnership","outputs":[],"stateMutability":"nonpayable","type":"function"},{"inputs":[],"name":"unpause","outputs":[],"stateMutability":"nonpayable","type":"function"},{"inputs":[{"internalType":"address","name":"_feeWallet","type":"address"},{"internalType":"address","name":"_insuranceWallet","type":"address"},{"internalType":"address","name":"_matchingWallet","type":"address"}],"name":"updateCompanyWallets","outputs":[],"stateMutability":"nonpayable","type":"function"},{"inputs":[{"internalType":"address","name":"user","type":"address"},{"internalType":"uint256","name":"creditScore","type":"uint256"},{"internalType":"uint256","name":"creditLimit","type":"uint256"}],"name":"updateCreditScore","outputs":[],"stateMutability":"nonpayable","type":"function"},{"inputs":[],"name":"usdtToken","outputs":[{"internalType":"contract IERC20","name":"","type":"address"}],"stateMutability":"view","type":"function"},{"inputs":[{"internalType":"address","name":"","type":"address"}],"name":"userActiveLoan","outputs":[{"internalType":"uint256","name":"","type":"uint256"}],"stateMutability":"view","type":"function"},{"inputs":[{"internalType":"address","name":"","type":"address"}],"name":"userCreditLimit","outputs":[{"internalType":"uint256","name":"","type":"uint256"}],"stateMutability":"view","type":"function"},{"inputs":[{"internalType":"address","name":"","type":"address"}],"name":"userCreditScore","outputs":[{"internalType":"uint256","name":"","type":"uint256"}],"stateMutability":"view","type":"function"},{"inputs":[{"internalType":"address","name":"","type":"address"}],"name":"whitelisted","outputs":[{"internalType":"bool","name":"","type":"bool"}],"stateMutability":"view","type":"function"}],"evm":{"bytecode":{"linkReferences":{},"object":"60a0346200013b57601f62002c0238819003918201601f19168301916001600160401b0383118484101762000140578084926020946040528339810103126200013b57516001600160a01b03808216918290036200013b57331562000122576000543360018060a01b0319821617600055604051913391167f8be0079c531659141344cd1fd0a4f28419497f9722a3daafe3b4186f6b6457e0600080a3600180558115620000e05750608052604051612aab90816200015782396080518181816103b701528181610ed901528181611085015281816117510152611e0b0152f35b62461bcd60e51b815260206004820152601a60248201527f496e76616c6964205553445420746f6b656e20616464726573730000000000006044820152606490fd5b604051631e4fbdf760e01b815260006004820152602490fd5b600080fd5b634e487b7160e01b600052604160045260246000fdfe608080604052600436101561001357600080fd5b60003560e01c90816307ac9d5a14611f9e575080631892cdba14611f8257806319a68bcf14611f485780631be0528914611f2a5780632371d65014611ef057806328e202b114611ebf5780632acd329e14611e855780632eb375ea14611d8457806334d9289e14611d665780633af32abf14610b635780633cdb72f114611d1c5780633f4ba83a14611cb25780633f506dd614611b2d578063481bea1514611ae9578063504006ca146119075780635114cb521461169257806352577bb5146115eb57806359b6bf0514610e635780635c975abb146115c85780635f81a57c146115aa57806364da064c146113e5578063655540b514610e81578063715018a61461138c578063727336ee1461134f578063734c7d0b146113275780637ad782541461124f578063803039d91461122c57806382626d6b146112105780638456cb59146111b6578063846b909a14610fd95780638ab1d68114610f735780638da5cb5b14610f4a57806390d3b37914610f2c57806396fa212f14610f08578063a98ad46c14610ec3578063b4dc940514610e9f578063ba510a3314610e81578063bba55c2014610e63578063bd7ea41314610d5d578063bf0597e014610d3a578063c59d484714610ca4578063cc952b5714610c86578063ceba179414610c61578063d112abeb14610ba2578063d936547e14610b63578063e1ec3c6814610a82578063e1f1c4a714610a65578063e3ed190214610a0d578063e43252d714610966578063eee8b7ff146108eb578063eeeb0c1714610860578063f2fde38b146107d75763f5afe0d31461026657600080fd5b346107d25760603660031901126107d25760043567ffffffffffffffff81116107d257366023820112156107d257806004013567ffffffffffffffff811161070557604051916102c0601f8301601f1916602001846121be565b81835236602483830101116107d2578160009260246020930183860137830101526102e961290e565b6102f161292c565b33600052600a60205260ff60406000205416156107c05733600052601060205260406000205480610771575b5033600052600f602052604060002054801561073957602435116107605768056bc75e2d6310000060243510801561074b575b61073957600160443510801561072d575b61071b576103706024356126db565b6103db60018060a01b0360035416604051906323b872dd60e01b60208301523360248301526044820152674563918244f400006064820152606481526103b581612186565b7f0000000000000000000000000000000000000000000000000000000000000000612a0d565b6103e66006546128ff565b90816006556103fa6044358260243561275b565b6040519061040782612169565b8382528460208301523360408301526000606083015260243560808301528260a083015260443560c0830152600060e08301526000610100830152600061012083015260006101408301526101608201526000610180820152826000526009602052604060002081518155602082015180519067ffffffffffffffff821161070557610496600184015461212f565b601f81116106be575b50602090601f83116001146106485791806101809492600c9460009261063d575b50508160011b916000199060031b1c19161760018201555b6002810160018060a01b03604086015116906001600160601b0360a01b9182825416179055600382019060018060a01b03606087015116908254161790556080840151600482015560a0840151600582015560c0840151600682015560e0840151600782015561010084015160088201556101208401516009820155610140840151600a820155610160840151600b8201550191015160048110156106275760209484927f062a04d2deece759bba6dad813939034a38529cef958ca35832b19ccbf3956f69260ff8019835416911617905533600052600b86526105c083604060002061248f565b6105cb6007546128ff565b6007553360005260108652826040600020556105f26040519160a0835260a083019061209e565b936024358783015260408201526044356060820152674563918244f4000060808201528033940390a360018055604051908152f35b634e487b7160e01b600052602160045260246000fd5b0151905038806104c0565b906001840160005260206000209160005b601f19851681106106a65750926101809492600192600c9583601f1981161061068d575b505050811b0160018201556104d8565b015160001960f88460031b161c1916905538808061067d565b91926020600181928685015181550194019201610659565b600184016000526020600020601f840160051c8101602085106106fe575b601f830160051c820181106106f257505061049f565b600081556001016106dc565b50806106dc565b634e487b7160e01b600052604160045260246000fd5b604051637616640160e01b8152600490fd5b50602460443511610361565b60405163162908e360e11b8152600490fd5b5069152d02c7e14af680000060243511610350565b604051622e1ceb60e01b8152600490fd5b600052600960205260ff600c6040600020015416600481101561062757600181149081156107b7575b506107a5573861031d565b6040516313f177c160e21b8152600490fd5b9050153861079a565b604051630b094f2760e31b8152600490fd5b600080fd5b346107d25760203660031901126107d2576107f0612044565b6107f861299f565b6001600160a01b0390811690811561084757600054826001600160601b0360a01b821617600055167f8be0079c531659141344cd1fd0a4f28419497f9722a3daafe3b4186f6b6457e0600080a3005b604051631e4fbdf760e01b815260006004820152602490fd5b346107d2576020806003193601126107d2576001600160a01b03610882612044565b16600052600c6020526040600020906040519081602084549182815201936000526020600020916000905b8282106108d4576108d0856108c4818903826121be565b60405191829182612008565b0390f35b8354865294850194600193840193909101906108ad565b346107d2576020806003193601126107d2576001600160a01b0361090d612044565b16600052600b6020526040600020906040519081602084549182815201936000526020600020916000905b82821061094f576108d0856108c4818903826121be565b835486529485019460019384019390910190610938565b346107d25760203660031901126107d25761097f612044565b61098761299f565b6001600160a01b031680156109d65780600052600a6020526040600020600160ff198254161790557f4f783c179409b4127238bc9c990bc99b9a651666a0d20b51d6c42849eb88466d600080a2005b60405162461bcd60e51b815260206004820152600f60248201526e496e76616c6964206164647265737360881b6044820152606490fd5b346107d25760403660031901126107d257610a26612044565b6001600160a01b03166000908152600b60205260409020805460243591908210156107d257602091610a5791612070565b90546040519160031b1c8152f35b346107d25760003660031901126107d25760206040516127108152f35b346107d25760203660031901126107d25760043560005260096020526040600020805460018201610ab2906121e0565b91600160a01b60019003908160028201541691600382015416906004810154600582015460068301546007840154600885015491600986015493600a87015495600b88015497600c015460ff16986040519c8d809d6101a09182918152602001528d01610b1e9161209e565b9a60408d015260608c015260808b015260a08a015260c089015260e088015261010087015261012086015261014085015261016084015261018083016108d0916120de565b346107d25760203660031901126107d2576001600160a01b03610b84612044565b16600052600a602052602060ff604060002054166040519015158152f35b346107d2576020806003193601126107d2576001600160a01b03610bc4612044565b16600052600e8152604060002054600f825260406000205491601081526040600020548015159182610c0c575b93608094604051948552840152604083015215156060820152f35b9150806000526009825260ff600c60406000200154166004811015610627576001148015610c3b575b91610bf1565b50806000526009825260ff600c6040600020015416936004851015610627579315610c35565b346107d25760003660031901126107d257602060405169152d02c7e14af68000008152f35b346107d25760003660031901126107d2576020600754604051908152f35b346107d25760003660031901126107d257600754600854906000600180600654905b81811115610cf2575050506108d090604051938493846040919493926060820195825260208201520152565b80600052600960205260ff600c60406000200154166004811015610627578314610d25575b610d20906128ff565b610cc6565b92610d32610d20916128ff565b939050610d17565b346107d25760003660031901126107d2576020604051674563918244f400008152f35b346107d2576020610d6d3661205a565b9060005260098252612710610e496040600020600c610e4060405192610d9284612169565b80548452610da2600182016121e0565b8489015260028101546001600160a01b0390811660408601526003820154166060850152600481015460808501908152600582015460a08601908152600683015460c0870152600783015460e0870152600883015461010087015260098301546101208701908152600a840154610140880152600b840154610160880152928501549095610e379160ff169061018001612449565b51905190612455565b9151049061211c565b0481811115610e5c57505b604051908152f35b9050610e54565b346107d25760203660031901126107d2576020610e54600435612834565b346107d25760203660031901126107d2576020610e54600435612531565b346107d25760603660031901126107d2576020610e5460443560243560043561275b565b346107d25760003660031901126107d2576040517f00000000000000000000000000000000000000000000000000000000000000006001600160a01b03168152602090f35b346107d25760003660031901126107d257602060405168056bc75e2d631000008152f35b346107d25760203660031901126107d2576020610e546004356126db565b346107d25760003660031901126107d2576000546040516001600160a01b039091168152602090f35b346107d25760203660031901126107d257610f8c612044565b610f9461299f565b6001600160a01b03166000818152600a60205260408120805460ff191690557f24a12366c02e13fe4a9e03d86a8952e85bb74a456c16e4a18b6d8295700b74bb9080a2005b346107d25760203660031901126107d257600435610ff561290e565b610ffd61292c565b33600052600a60205260ff60406000205416156107c0578060005260096020526040600020908154156111a457600c820160ff815416600481101561062757611192576003830180546001600160a01b039290831661118057600485015494600a8602868104600a148715171561116a576127109004926110cc6110818589612455565b80967f0000000000000000000000000000000000000000000000000000000000000000906110b18b3033856129cb565b6110c08882600554168461294f565b6002860154169061294f565b336001600160601b0360a01b82541617905542600782015562278d0042019081421161116a5760080155600160ff1982541617905533600052600c60205261111883604060002061248f565b61112484600854612482565b60085560405193845260006020850152604084015260608301527f1d42c734a02cbb87afc90f61e8af2ad261cfcd62b567bfa805bc93bcd9ceeb9560803393a360018055005b634e487b7160e01b600052601160045260246000fd5b604051630d70a0e360e41b8152600490fd5b604051630151630960e31b8152600490fd5b604051630e7e621d60e01b8152600490fd5b346107d25760003660031901126107d2576111cf61299f565b6111d761290e565b600160ff1960025416176002557f62e78cea01bee320cd4e420270b5ea74000d11b0c9f74754ebdbfc544b05a2586020604051338152a1005b346107d25760003660031901126107d257602060405160c88152f35b346107d25760003660031901126107d2576020604051670de0b6b3a76400008152f35b346107d25760203660031901126107d25760043560005260096020526020604060002061131e60405161128181612169565b82548152611291600184016121e0565b8185015260028301546001600160a01b039081166040830152600384015416606082015260048301546080820152600583015460a0820152600683015460c0820152600783015460e082015260088301546101008201526009830154610120820152600a830154610140820152600b8301546101608201908152600c9093015460ff169061018001612449565b51604051908152f35b346107d25760203660031901126107d25760206113456004356125ef565b6040519015158152f35b346107d25760003660031901126107d257606060018060a01b03806003541690806004541690600554169060405192835260208301526040820152f35b346107d25760003660031901126107d2576113a561299f565b600080546001600160a01b0319811682556001600160a01b03167f8be0079c531659141344cd1fd0a4f28419497f9722a3daafe3b4186f6b6457e08280a3005b346107d25760603660031901126107d25767ffffffffffffffff6004358181116107d2576114179036906004016120eb565b6024358381116107d25761142f9036906004016120eb565b90936044359081116107d2576114499036906004016120eb565b939061145361299f565b61145e8385146124c9565b6114698585146124c9565b60005b84811061147557005b6103e861148382868a61250d565b35116115985768056bc75e2d6310000061149e82888561250d565b3510801561157a575b610739576114b681858961250d565b356001600160a01b03806114cb84898861250d565b6114d49061251d565b16600052602091600e83526040600020556114f083898661250d565b35816114fd858a8961250d565b6115069061251d565b16600052600f835260406000205561151f83888761250d565b6115289061251d565b61153384888c61250d565b3592611540858b8861250d565b3590604051948552840152169060407f4f43648f37bc26ee5bc39c60c1c1e2481a9fb9feb9f86419c91b4645585ff3bc91a260010161146c565b5069152d02c7e14af680000061159182888561250d565b35116114a7565b6040516301069b4760e21b8152600490fd5b346107d25760003660031901126107d2576020600854604051908152f35b346107d25760003660031901126107d257602060ff600254166040519015158152f35b346107d25760603660031901126107d257611604612044565b6024356044359161161361299f565b6103e882116115985768056bc75e2d6310000083106107395769152d02c7e14af68000008311610739577f4f43648f37bc26ee5bc39c60c1c1e2481a9fb9feb9f86419c91b4645585ff3bc9160409160018060a01b03169384600052600e602052818360002055600f60205280836000205582519182526020820152a2005b346107d25760203660031901126107d2576116ab61290e565b6116b361292c565b600435600052600960205260406000208054156111a45760ff600c820154166004811015610627576001036118f55760028101546001600160a01b031633036107c05760088101548042106118ca575b50600b8101549061171d6004820154600983015490612455565b908282116118c45781925b60c8840284810460c8148515171561116a5761271061178b910461174c8187612482565b6117797f0000000000000000000000000000000000000000000000000000000000000000913033846129cb565b6004546001600160a01b03169061294f565b611799846009840154612482565b6009830155600a82016117ad858254612482565b905560009260088301548042116118ab575b50600435600052600d6020526117d985604060002061248f565b1161188f57600990600260ff19600c8301541617600c82015560018060a01b0360028201541660005260106020526000604081205501546040519081527f03d7f456a773b484d2552719bd744b62049588737d6a02948eba3dcae1b0d77f602060043592a25b7f2144ed2980d83d1b3c2d4c4ffbaf398ded900d0e5e18fcc085a686569beb9673604051806118863395600435954291846040919493926060820195825260208201520152565b0390a360018055005b60088101549062278d00820180921161116a576008015561183f565b620151809194506118bc9042612455565b0492856117bf565b82611728565b6118d962015180914290612455565b116118e45781611703565b60405162a71fbb60e01b8152600490fd5b604051630417bc2360e11b8152600490fd5b346107d25760203660031901126107d257600061018060405161192981612169565b828152606060208201528260408201528260608201528260808201528260a08201528260c08201528260e082015282610100820152826101208201528261014082015282610160820152015260043560005260096020526040600020611a2f60ff600c6040519361199985612169565b805485526119a9600182016121e0565b602086015260028101546001600160a01b039081166040870152600382015416606086015260048101546080860152600581015460a0860152600681015460c0860152600781015460e086015260088101546101008601526009810154610120860152600a810154610140860152600b8101546101608601520154166101808301612449565b604051809160208252805160208301526108d0610180611a6060208401516101a060408701526101c086019061209e565b9260018060a01b03604082015116606086015260018060a01b036060820151166080860152608081015160a086015260a081015160c086015260c081015160e086015260e08101516101008601526101008101516101208601526101208101516101408601526101408101516101608601526101608101518286015201516101a08401906120de565b346107d25760403660031901126107d257611b0e611b05612044565b60243590612285565b906108d06040519283921515835260406020840152604083019061209e565b346107d25760603660031901126107d257611b46612044565b6024356001600160a01b03818116918290036107d257604435928184168094036107d257611b7261299f565b168015611c78578115611c33578215611bee5760405167ffffffffffffffff6060820191821091111761070557826001600160601b0360a01b828160035416176003558381600454161760045560055416176005557f1f63de24e6765b53f3bf31b690265dc5373fcf3c359eab0d14c3b303731c08c1600080a4005b60405162461bcd60e51b815260206004820152601760248201527f496e76616c6964206d61746368696e672077616c6c65740000000000000000006044820152606490fd5b60405162461bcd60e51b815260206004820152601860248201527f496e76616c696420696e737572616e63652077616c6c657400000000000000006044820152606490fd5b60405162461bcd60e51b8152602060048201526012602482015271125b9d985b1a5908199959481dd85b1b195d60721b6044820152606490fd5b346107d25760003660031901126107d257611ccb61299f565b60025460ff811615611d0a5760ff19166002557f5db9ee0a495bf2e6ff9c91a7834c1ba4fdd244a5e8aa4e537bd38aeae4b073aa6020604051338152a1005b604051638dfc202b60e01b8152600490fd5b346107d25760403660031901126107d257611d35612044565b6001600160a01b03166000908152600c60205260409020805460243591908210156107d257602091610a5791612070565b346107d25760003660031901126107d2576020600654604051908152f35b346107d25760203660031901126107d257600435611da061290e565b611da861292c565b80600052600960205260406000208054156111a45760ff600c8201541660048110156106275760018114159081611e79575b506118f55760038101546001600160a01b031633036107c057600a01908154918215611e675760009055611e2f82337f000000000000000000000000000000000000000000000000000000000000000061294f565b6040519182524260208301527f94db06301dc32995467bb8625d03e4dd74879e0cbee91569723822a9030cf7d560403393a360018055005b60405163aad5627b60e01b8152600490fd5b60029150141583611dda565b346107d25760203660031901126107d2576001600160a01b03611ea6612044565b16600052600f6020526020604060002054604051908152f35b346107d257611ecd3661205a565b90600052600d602052604060002080548210156107d257602091610a5791612070565b346107d25760203660031901126107d2576001600160a01b03611f11612044565b16600052600e6020526020604060002054604051908152f35b346107d25760003660031901126107d257602060405162278d008152f35b346107d25760203660031901126107d2576001600160a01b03611f69612044565b1660005260106020526020604060002054604051908152f35b346107d25760003660031901126107d2576020604051600a8152f35b346107d25760209060206003193601126107d257600435600052600d602052604060002091825480835260208301936000526020600020916000905b828210611ff1576108d0856108c4818903826121be565b835486529485019460019384019390910190611fda565b602090602060408183019282815285518094520193019160005b828110612030575050505090565b835185529381019392810192600101612022565b600435906001600160a01b03821682036107d257565b60409060031901126107d2576004359060243590565b80548210156120885760005260206000200190600090565b634e487b7160e01b600052603260045260246000fd5b919082519283825260005b8481106120ca575050826000602080949584010152601f8019910116010190565b6020818301810151848301820152016120a9565b9060048210156106275752565b9181601f840112156107d25782359167ffffffffffffffff83116107d2576020808501948460051b0101116107d257565b8181029291811591840414171561116a57565b90600182811c9216801561215f575b602083101461214957565b634e487b7160e01b600052602260045260246000fd5b91607f169161213e565b6101a0810190811067ffffffffffffffff82111761070557604052565b60a0810190811067ffffffffffffffff82111761070557604052565b6040810190811067ffffffffffffffff82111761070557604052565b90601f8019910116810190811067ffffffffffffffff82111761070557604052565b906040519182600082546121f38161212f565b908184526020946001916001811690816000146122635750600114612224575b505050612222925003836121be565b565b600090815285812095935091905b81831061224b5750506122229350820101388080612213565b85548884018501529485019487945091830191612232565b9250505061222294925060ff191682840152151560051b820101388080612213565b6001600160a01b03166000818152600a602090815260408083205490959491939060ff1615612427578083526010845285832054806123b8575b508252600f83528482205480156123885781116123585768056bc75e2d631000008110908115612344575b5061231b57506e21b0b71031b932b0ba32903637b0b760891b6001935191612311836121a2565b600f835282015290565b6d125b9d985b1a5908185b5bdd5b9d60921b9093519161233a836121a2565b600e835282015290565b69152d02c7e14af6800000915011386122ea565b5073115e18d959591cc818dc99591a5d081b1a5b5a5d60621b9093519161237e836121a2565b6014835282015290565b505072139bc818dc99591a5d081b1a5b5a5d081cd95d606a1b909351916123ae836121a2565b6013835282015290565b83526009845260ff600c8785200154166004811015612413576001811490811561240a575b506123e857386122bf565b50506e2430b99030b1ba34bb32903637b0b760891b90935191612311836121a2565b905015386123dd565b634e487b7160e01b84526021600452602484fd5b50506e139bdd081dda1a5d195b1a5cdd1959608a1b90935191612311836121a2565b60048210156106275752565b9190820391821161116a57565b811561246c570490565b634e487b7160e01b600052601260045260246000fd5b9190820180921161116a57565b805468010000000000000000811015610705576124b191600182018155612070565b819291549060031b91821b91600019901b1916179055565b156124d057565b60405162461bcd60e51b8152602060048201526015602482015274082e4e4c2f240d8cadccee8d040dad2e6dac2e8c6d605b1b6044820152606490fd5b91908110156120885760051b0190565b356001600160a01b03811681036107d25790565b600052600960205260406000206125eb60405161254d81612169565b8254815261255d600184016121e0565b602082015260028301546001600160a01b039081166040830152600384015416606082015260048301546080820152600583015460a0820152600683015460c0820152600783015460e082015260088301546101008201526009830154610120820152600a8301546101408201908152600b840154610160830152600c9093015460ff169061018001612449565b5190565b6000526009602052604060002060405161260881612169565b81548152612618600183016121e0565b602082015260018060a01b03806002840154166040830152600383015416606082015260048201549060808101918252600583015460a0820152600683015460c0820152600783015460e082015260088301546101008201526009830154906101208101918252600a8401546101408201526126ae61018060ff600c600b88015497610160860198895201541692019182612449565b516004811015610627576001036126d3576126cc9151905190612455565b9051101590565b505050600090565b683635c9adc5dea000008111156127545769010f0cf064dd5920000081111561274d5769021e19e0c9bab24000008111156127465769054b40b1f852bda0000081111561273f57690a968163f0a57b4000001015612739576108ca90565b61070890565b506105dc90565b506104b090565b5061038490565b5061025890565b9190801561282a57600c900490670de0b6b3a7640000918281029080820484149015171561116a576127109004918281019283821161116a5782938483958692915b6127ea5750506127b06127b5928761211c565b61211c565b0490670de0b6b3a763ffff19830192831161116a5782156127de57506127db9250612462565b90565b9150506127db91612462565b60019250908282168314612810575b61280481869261211c565b04911c9081869261279d565b956128048561282089829461211c565b04979150506127f9565b506127db91612462565b60005260096020526127db60406000206040519061285182612169565b80548252612861600182016121e0565b602083015260018060a01b0380600283015416604084015260038201541660608301526004810154608083019081526128f460058301549360a0810194855261018060ff600c60068701549660c08501978852600781015460e086015260088101546101008601526009810154610120860152600a810154610140860152600b8101546101608601520154169101612449565b51915190519161275b565b600019811461116a5760010190565b60ff6002541661291a57565b60405163d93c066560e01b8152600490fd5b60026001541461293d576002600155565b604051633ee5aeb560e01b8152600490fd5b60405163a9059cbb60e01b60208201526001600160a01b039092166024830152604480830193909352918152608081019167ffffffffffffffff8311828410176107055761222292604052612a0d565b6000546001600160a01b031633036129b357565b60405163118cdaa760e01b8152336004820152602490fd5b6040516323b872dd60e01b60208201526001600160a01b03928316602482015292909116604483015260648083019390935291815261222291612a0d82612186565b906000602091828151910182855af115612a69576000513d612a6057506001600160a01b0381163b155b612a3e5750565b604051635274afe760e01b81526001600160a01b039091166004820152602490fd5b60011415612a37565b6040513d6000823e3d90fdfea2646970667358221220d21bee6f7612ed9b6e3efc007b7d445485d506fad6aeec72fc73625032fd3ccb64736f6c63430008180033","opcodes":"PUSH1 0xA0 CALLVALUE PUSH3 0x13B JUMPI PUSH1 0x1F PUSH3 0x2C02 CODESIZE DUP2 SWAP1 SUB SWAP2 DUP3 ADD PUSH1 0x1F NOT AND DUP4 ADD SWAP2 PUSH1 0x1 PUSH1 0x1 PUSH1 0x40 SHL SUB DUP4 GT DUP5 DUP5 LT OR PUSH3 0x140 JUMPI DUP1 DUP5 SWAP3 PUSH1 0x20 SWAP5 PUSH1 0x40 MSTORE DUP4 CODECOPY DUP2 ADD SUB SLT PUSH3 0x13B JUMPI MLOAD PUSH1 0x1 PUSH1 0x1 PUSH1 0xA0 SHL SUB DUP1 DUP3 AND SWAP2 DUP3 SWAP1 SUB PUSH3 0x13B JUMPI CALLER ISZERO PUSH3 0x122 JUMPI PUSH1 0x0 SLOAD CALLER PUSH1 0x1 DUP1 PUSH1 0xA0 SHL SUB NOT DUP3 AND OR PUSH1 0x0 SSTORE PUSH1 0x40 MLOAD SWAP2 CALLER SWAP2 AND PUSH32 0x8BE0079C531659141344CD1FD0A4F28419497F9722A3DAAFE3B4186F6B6457E0 PUSH1 0x0 DUP1 LOG3 PUSH1 0x1 DUP1 SSTORE DUP2 ISZERO PUSH3 0xE0 JUMPI POP PUSH1 0x80 MSTORE PUSH1 0x40 MLOAD PUSH2 0x2AAB SWAP1 DUP2 PUSH3 0x157 DUP3 CODECOPY PUSH1 0x80 MLOAD DUP2 DUP2 DUP2 PUSH2 0x3B7 ADD MSTORE DUP2 DUP2 PUSH2 0xED9 ADD MSTORE DUP2 DUP2 PUSH2 0x1085 ADD MSTORE DUP2 DUP2 PUSH2 0x1751 ADD MSTORE PUSH2 0x1E0B ADD MSTORE RETURN JUMPDEST PUSH3 0x461BCD PUSH1 0xE5 SHL DUP2 MSTORE PUSH1 0x20 PUSH1 0x4 DUP3 ADD MSTORE PUSH1 0x1A PUSH1 0x24 DUP3 ADD MSTORE PUSH32 0x496E76616C6964205553445420746F6B656E2061646472657373000000000000 PUSH1 0x44 DUP3 ADD MSTORE PUSH1 0x64 SWAP1 REVERT JUMPDEST PUSH1 0x40 MLOAD PUSH4 0x1E4FBDF7 PUSH1 0xE0 SHL DUP2 MSTORE PUSH1 0x0 PUSH1 0x4 DUP3 ADD MSTORE PUSH1 0x24 SWAP1 REVERT JUMPDEST PUSH1 0x0 DUP1 REVERT JUMPDEST PUSH4 0x4E487B71 PUSH1 0xE0 SHL PUSH1 0x0 MSTORE PUSH1 0x41 PUSH1 0x4 MSTORE PUSH1 0x24 PUSH1 0x0 REVERT INVALID PUSH1 0x80 DUP1 PUSH1 0x40 MSTORE PUSH1 0x4 CALLDATASIZE LT ISZERO PUSH2 0x13 JUMPI PUSH1 0x0 DUP1 REVERT JUMPDEST PUSH1 0x0 CALLDATALOAD PUSH1 0xE0 SHR SWAP1 DUP2 PUSH4 0x7AC9D5A EQ PUSH2 0x1F9E JUMPI POP DUP1 PUSH4 0x1892CDBA EQ PUSH2 0x1F82 JUMPI DUP1 PUSH4 0x19A68BCF EQ PUSH2 0x1F48 JUMPI DUP1 PUSH4 0x1BE05289 EQ PUSH2 0x1F2A JUMPI DUP1 PUSH4 0x2371D650 EQ PUSH2 0x1EF0 JUMPI DUP1 PUSH4 0x28E202B1 EQ PUSH2 0x1EBF JUMPI DUP1 PUSH4 0x2ACD329E EQ PUSH2 0x1E85 JUMPI DUP1 PUSH4 0x2EB375EA EQ PUSH2 0x1D84 JUMPI DUP1 PUSH4 0x34D9289E EQ PUSH2 0x1D66 JUMPI DUP1 PUSH4 0x3AF32ABF EQ PUSH2 0xB63 JUMPI DUP1 PUSH4 0x3CDB72F1 EQ PUSH2 0x1D1C JUMPI DUP1 PUSH4 0x3F4BA83A EQ PUSH2 0x1CB2 JUMPI DUP1 PUSH4 0x3F506DD6 EQ PUSH2 0x1B2D JUMPI DUP1 PUSH4 0x481BEA15 EQ PUSH2 0x1AE9 JUMPI DUP1 PUSH4 0x504006CA EQ PUSH2 0x1907 JUMPI DUP1 PUSH4 0x5114CB52 EQ PUSH2 0x1692 JUMPI DUP1 PUSH4 0x52577BB5 EQ PUSH2 0x15EB JUMPI DUP1 PUSH4 0x59B6BF05 EQ PUSH2 0xE63 JUMPI DUP1 PUSH4 0x5C975ABB EQ PUSH2 0x15C8 JUMPI DUP1 PUSH4 0x5F81A57C EQ PUSH2 0x15AA JUMPI DUP1 PUSH4 0x64DA064C EQ PUSH2 0x13E5 JUMPI DUP1 PUSH4 0x655540B5 EQ PUSH2 0xE81 JUMPI DUP1 PUSH4 0x715018A6 EQ PUSH2 0x138C JUMPI DUP1 PUSH4 0x727336EE EQ PUSH2 0x134F JUMPI DUP1 PUSH4 0x734C7D0B EQ PUSH2 0x1327 JUMPI DUP1 PUSH4 0x7AD78254 EQ PUSH2 0x124F JUMPI DUP1 PUSH4 0x803039D9 EQ PUSH2 0x122C JUMPI DUP1 PUSH4 0x82626D6B EQ PUSH2 0x1210 JUMPI DUP1 PUSH4 0x8456CB59 EQ PUSH2 0x11B6 JUMPI DUP1 PUSH4 0x846B909A EQ PUSH2 0xFD9 JUMPI DUP1 PUSH4 0x8AB1D681 EQ PUSH2 0xF73 JUMPI DUP1 PUSH4 0x8DA5CB5B EQ PUSH2 0xF4A JUMPI DUP1 PUSH4 0x90D3B379 EQ PUSH2 0xF2C JUMPI DUP1 PUSH4 0x96FA212F EQ PUSH2 0xF08 JUMPI DUP1 PUSH4 0xA98AD46C EQ PUSH2 0xEC3 JUMPI DUP1 PUSH4 0xB4DC9405 EQ PUSH2 0xE9F JUMPI DUP1 PUSH4 0xBA510A33 EQ PUSH2 0xE81 JUMPI DUP1 PUSH4 0xBBA55C20 EQ PUSH2 0xE63 JUMPI DUP1 PUSH4 0xBD7EA413 EQ PUSH2 0xD5D JUMPI DUP1 PUSH4 0xBF0597E0 EQ PUSH2 0xD3A JUMPI DUP1 PUSH4 0xC59D4847 EQ PUSH2 0xCA4 JUMPI DUP1 PUSH4 0xCC952B57 EQ PUSH2 0xC86 JUMPI DUP1 PUSH4 0xCEBA1794 EQ PUSH2 0xC61 JUMPI DUP1 PUSH4 0xD112ABEB EQ PUSH2 0xBA2 JUMPI DUP1 PUSH4 0xD936547E EQ PUSH2 0xB63 JUMPI DUP1 PUSH4 0xE1EC3C68 EQ PUSH2 0xA82 JUMPI DUP1 PUSH4 0xE1F1C4A7 EQ PUSH2 0xA65 JUMPI DUP1 PUSH4 0xE3ED1902 EQ PUSH2 0xA0D JUMPI DUP1 PUSH4 0xE43252D7 EQ PUSH2 0x966 JUMPI DUP1 PUSH4 0xEEE8B7FF EQ PUSH2 0x8EB JUMPI DUP1 PUSH4 0xEEEB0C17 EQ PUSH2 0x860 JUMPI DUP1 PUSH4 0xF2FDE38B EQ PUSH2 0x7D7 JUMPI PUSH4 0xF5AFE0D3 EQ PUSH2 0x266 JUMPI PUSH1 0x0 DUP1 REVERT JUMPDEST CALLVALUE PUSH2 0x7D2 JUMPI PUSH1 0x60 CALLDATASIZE PUSH1 0x3 NOT ADD SLT PUSH2 0x7D2 JUMPI PUSH1 0x4 CALLDATALOAD PUSH8 0xFFFFFFFFFFFFFFFF DUP2 GT PUSH2 0x7D2 JUMPI CALLDATASIZE PUSH1 0x23 DUP3 ADD SLT ISZERO PUSH2 0x7D2 JUMPI DUP1 PUSH1 0x4 ADD CALLDATALOAD PUSH8 0xFFFFFFFFFFFFFFFF DUP2 GT PUSH2 0x705 JUMPI PUSH1 0x40 MLOAD SWAP2 PUSH2 0x2C0 PUSH1 0x1F DUP4 ADD PUSH1 0x1F NOT AND PUSH1 0x20 ADD DUP5 PUSH2 0x21BE JUMP JUMPDEST DUP2 DUP4 MSTORE CALLDATASIZE PUSH1 0x24 DUP4 DUP4 ADD ADD GT PUSH2 0x7D2 JUMPI DUP2 PUSH1 0x0 SWAP3 PUSH1 0x24 PUSH1 0x20 SWAP4 ADD DUP4 DUP7 ADD CALLDATACOPY DUP4 ADD ADD MSTORE PUSH2 0x2E9 PUSH2 0x290E JUMP JUMPDEST PUSH2 0x2F1 PUSH2 0x292C JUMP JUMPDEST CALLER PUSH1 0x0 MSTORE PUSH1 0xA PUSH1 0x20 MSTORE PUSH1 0xFF PUSH1 0x40 PUSH1 0x0 KECCAK256 SLOAD AND ISZERO PUSH2 0x7C0 JUMPI CALLER PUSH1 0x0 MSTORE PUSH1 0x10 PUSH1 0x20 MSTORE PUSH1 0x40 PUSH1 0x0 KECCAK256 SLOAD DUP1 PUSH2 0x771 JUMPI JUMPDEST POP CALLER PUSH1 0x0 MSTORE PUSH1 0xF PUSH1 0x20 MSTORE PUSH1 0x40 PUSH1 0x0 KECCAK256 SLOAD DUP1 ISZERO PUSH2 0x739 JUMPI PUSH1 0x24 CALLDATALOAD GT PUSH2 0x760 JUMPI PUSH9 0x56BC75E2D63100000 PUSH1 0x24 CALLDATALOAD LT DUP1 ISZERO PUSH2 0x74B JUMPI JUMPDEST PUSH2 0x739 JUMPI PUSH1 0x1 PUSH1 0x44 CALLDATALOAD LT DUP1 ISZERO PUSH2 0x72D JUMPI JUMPDEST PUSH2 0x71B JUMPI PUSH2 0x370 PUSH1 0x24 CALLDATALOAD PUSH2 0x26DB JUMP JUMPDEST PUSH2 0x3DB PUSH1 0x1 DUP1 PUSH1 0xA0 SHL SUB PUSH1 0x3 SLOAD AND PUSH1 0x40 MLOAD SWAP1 PUSH4 0x23B872DD PUSH1 0xE0 SHL PUSH1 0x20 DUP4 ADD MSTORE CALLER PUSH1 0x24 DUP4 ADD MSTORE PUSH1 0x44 DUP3 ADD MSTORE PUSH8 0x4563918244F40000 PUSH1 0x64 DUP3 ADD MSTORE PUSH1 0x64 DUP2 MSTORE PUSH2 0x3B5 DUP2 PUSH2 0x2186 JUMP JUMPDEST PUSH32 0x0 PUSH2 0x2A0D JUMP JUMPDEST PUSH2 0x3E6 PUSH1 0x6 SLOAD PUSH2 0x28FF JUMP JUMPDEST SWAP1 DUP2 PUSH1 0x6 SSTORE PUSH2 0x3FA PUSH1 0x44 CALLDATALOAD DUP3 PUSH1 0x24 CALLDATALOAD PUSH2 0x275B JUMP JUMPDEST PUSH1 0x40 MLOAD SWAP1 PUSH2 0x407 DUP3 PUSH2 0x2169 JUMP JUMPDEST DUP4 DUP3 MSTORE DUP5 PUSH1 0x20 DUP4 ADD MSTORE CALLER PUSH1 0x40 DUP4 ADD MSTORE PUSH1 0x0 PUSH1 0x60 DUP4 ADD MSTORE PUSH1 0x24 CALLDATALOAD PUSH1 0x80 DUP4 ADD MSTORE DUP3 PUSH1 0xA0 DUP4 ADD MSTORE PUSH1 0x44 CALLDATALOAD PUSH1 0xC0 DUP4 ADD MSTORE PUSH1 0x0 PUSH1 0xE0 DUP4 ADD MSTORE PUSH1 0x0 PUSH2 0x100 DUP4 ADD MSTORE PUSH1 0x0 PUSH2 0x120 DUP4 ADD MSTORE PUSH1 0x0 PUSH2 0x140 DUP4 ADD MSTORE PUSH2 0x160 DUP3 ADD MSTORE PUSH1 0x0 PUSH2 0x180 DUP3 ADD MSTORE DUP3 PUSH1 0x0 MSTORE PUSH1 0x9 PUSH1 0x20 MSTORE PUSH1 0x40 PUSH1 0x0 KECCAK256 DUP2 MLOAD DUP2 SSTORE PUSH1 0x20 DUP3 ADD MLOAD DUP1 MLOAD SWAP1 PUSH8 0xFFFFFFFFFFFFFFFF DUP3 GT PUSH2 0x705 JUMPI PUSH2 0x496 PUSH1 0x1 DUP5 ADD SLOAD PUSH2 0x212F JUMP JUMPDEST PUSH1 0x1F DUP2 GT PUSH2 0x6BE JUMPI JUMPDEST POP PUSH1 0x20 SWAP1 PUSH1 0x1F DUP4 GT PUSH1 0x1 EQ PUSH2 0x648 JUMPI SWAP2 DUP1 PUSH2 0x180 SWAP5 SWAP3 PUSH1 0xC SWAP5 PUSH1 0x0 SWAP3 PUSH2 0x63D JUMPI JUMPDEST POP POP DUP2 PUSH1 0x1 SHL SWAP2 PUSH1 0x0 NOT SWAP1 PUSH1 0x3 SHL SHR NOT AND OR PUSH1 0x1 DUP3 ADD SSTORE JUMPDEST PUSH1 0x2 DUP2 ADD PUSH1 0x1 DUP1 PUSH1 0xA0 SHL SUB PUSH1 0x40 DUP7 ADD MLOAD AND SWAP1 PUSH1 0x1 PUSH1 0x1 PUSH1 0x60 SHL SUB PUSH1 0xA0 SHL SWAP2 DUP3 DUP3 SLOAD AND OR SWAP1 SSTORE PUSH1 0x3 DUP3 ADD SWAP1 PUSH1 0x1 DUP1 PUSH1 0xA0 SHL SUB PUSH1 0x60 DUP8 ADD MLOAD AND SWAP1 DUP3 SLOAD AND OR SWAP1 SSTORE PUSH1 0x80 DUP5 ADD MLOAD PUSH1 0x4 DUP3 ADD SSTORE PUSH1 0xA0 DUP5 ADD MLOAD PUSH1 0x5 DUP3 ADD SSTORE PUSH1 0xC0 DUP5 ADD MLOAD PUSH1 0x6 DUP3 ADD SSTORE PUSH1 0xE0 DUP5 ADD MLOAD PUSH1 0x7 DUP3 ADD SSTORE PUSH2 0x100 DUP5 ADD MLOAD PUSH1 0x8 DUP3 ADD SSTORE PUSH2 0x120 DUP5 ADD MLOAD PUSH1 0x9 DUP3 ADD SSTORE PUSH2 0x140 DUP5 ADD MLOAD PUSH1 0xA DUP3 ADD SSTORE PUSH2 0x160 DUP5 ADD MLOAD PUSH1 0xB DUP3 ADD SSTORE ADD SWAP2 ADD MLOAD PUSH1 0x4 DUP2 LT ISZERO PUSH2 0x627 JUMPI PUSH1 0x20 SWAP5 DUP5 SWAP3 PUSH32 0x62A04D2DEECE759BBA6DAD813939034A38529CEF958CA35832B19CCBF3956F6 SWAP3 PUSH1 0xFF DUP1 NOT DUP4 SLOAD AND SWAP2 AND OR SWAP1 SSTORE CALLER PUSH1 0x0 MSTORE PUSH1 0xB DUP7 MSTORE PUSH2 0x5C0 DUP4 PUSH1 0x40 PUSH1 0x0 KECCAK256 PUSH2 0x248F JUMP JUMPDEST PUSH2 0x5CB PUSH1 0x7 SLOAD PUSH2 0x28FF JUMP JUMPDEST PUSH1 0x7 SSTORE CALLER PUSH1 0x0 MSTORE PUSH1 0x10 DUP7 MSTORE DUP3 PUSH1 0x40 PUSH1 0x0 KECCAK256 SSTORE PUSH2 0x5F2 PUSH1 0x40 MLOAD SWAP2 PUSH1 0xA0 DUP4 MSTORE PUSH1 0xA0 DUP4 ADD SWAP1 PUSH2 0x209E JUMP JUMPDEST SWAP4 PUSH1 0x24 CALLDATALOAD DUP8 DUP4 ADD MSTORE PUSH1 0x40 DUP3 ADD MSTORE PUSH1 0x44 CALLDATALOAD PUSH1 0x60 DUP3 ADD MSTORE PUSH8 0x4563918244F40000 PUSH1 0x80 DUP3 ADD MSTORE DUP1 CALLER SWAP5 SUB SWAP1 LOG3 PUSH1 0x1 DUP1 SSTORE PUSH1 0x40 MLOAD SWAP1 DUP2 MSTORE RETURN JUMPDEST PUSH4 0x4E487B71 PUSH1 0xE0 SHL PUSH1 0x0 MSTORE PUSH1 0x21 PUSH1 0x4 MSTORE PUSH1 0x24 PUSH1 0x0 REVERT JUMPDEST ADD MLOAD SWAP1 POP CODESIZE DUP1 PUSH2 0x4C0 JUMP JUMPDEST SWAP1 PUSH1 0x1 DUP5 ADD PUSH1 0x0 MSTORE PUSH1 0x20 PUSH1 0x0 KECCAK256 SWAP2 PUSH1 0x0 JUMPDEST PUSH1 0x1F NOT DUP6 AND DUP2 LT PUSH2 0x6A6 JUMPI POP SWAP3 PUSH2 0x180 SWAP5 SWAP3 PUSH1 0x1 SWAP3 PUSH1 0xC SWAP6 DUP4 PUSH1 0x1F NOT DUP2 AND LT PUSH2 0x68D JUMPI JUMPDEST POP POP POP DUP2 SHL ADD PUSH1 0x1 DUP3 ADD SSTORE PUSH2 0x4D8 JUMP JUMPDEST ADD MLOAD PUSH1 0x0 NOT PUSH1 0xF8 DUP5 PUSH1 0x3 SHL AND SHR NOT AND SWAP1 SSTORE CODESIZE DUP1 DUP1 PUSH2 0x67D JUMP JUMPDEST SWAP2 SWAP3 PUSH1 0x20 PUSH1 0x1 DUP2 SWAP3 DUP7 DUP6 ADD MLOAD DUP2 SSTORE ADD SWAP5 ADD SWAP3 ADD PUSH2 0x659 JUMP JUMPDEST PUSH1 0x1 DUP5 ADD PUSH1 0x0 MSTORE PUSH1 0x20 PUSH1 0x0 KECCAK256 PUSH1 0x1F DUP5 ADD PUSH1 0x5 SHR DUP2 ADD PUSH1 0x20 DUP6 LT PUSH2 0x6FE JUMPI JUMPDEST PUSH1 0x1F DUP4 ADD PUSH1 0x5 SHR DUP3 ADD DUP2 LT PUSH2 0x6F2 JUMPI POP POP PUSH2 0x49F JUMP JUMPDEST PUSH1 0x0 DUP2 SSTORE PUSH1 0x1 ADD PUSH2 0x6DC JUMP JUMPDEST POP DUP1 PUSH2 0x6DC JUMP JUMPDEST PUSH4 0x4E487B71 PUSH1 0xE0 SHL PUSH1 0x0 MSTORE PUSH1 0x41 PUSH1 0x4 MSTORE PUSH1 0x24 PUSH1 0x0 REVERT JUMPDEST PUSH1 0x40 MLOAD PUSH4 0x76166401 PUSH1 0xE0 SHL DUP2 MSTORE PUSH1 0x4 SWAP1 REVERT JUMPDEST POP PUSH1 0x24 PUSH1 0x44 CALLDATALOAD GT PUSH2 0x361 JUMP JUMPDEST PUSH1 0x40 MLOAD PUSH4 0x162908E3 PUSH1 0xE1 SHL DUP2 MSTORE PUSH1 0x4 SWAP1 REVERT JUMPDEST POP PUSH10 0x152D02C7E14AF6800000 PUSH1 0x24 CALLDATALOAD GT PUSH2 0x350 JUMP JUMPDEST PUSH1 0x40 MLOAD PUSH3 0x2E1CEB PUSH1 0xE0 SHL DUP2 MSTORE PUSH1 0x4 SWAP1 REVERT JUMPDEST PUSH1 0x0 MSTORE PUSH1 0x9 PUSH1 0x20 MSTORE PUSH1 0xFF PUSH1 0xC PUSH1 0x40 PUSH1 0x0 KECCAK256 ADD SLOAD AND PUSH1 0x4 DUP2 LT ISZERO PUSH2 0x627 JUMPI PUSH1 0x1 DUP2 EQ SWAP1 DUP2 ISZERO PUSH2 0x7B7 JUMPI JUMPDEST POP PUSH2 0x7A5 JUMPI CODESIZE PUSH2 0x31D JUMP JUMPDEST PUSH1 0x40 MLOAD PUSH4 0x13F177C1 PUSH1 0xE2 SHL DUP2 MSTORE PUSH1 0x4 SWAP1 REVERT JUMPDEST SWAP1 POP ISZERO CODESIZE PUSH2 0x79A JUMP JUMPDEST PUSH1 0x40 MLOAD PUSH4 0xB094F27 PUSH1 0xE3 SHL DUP2 MSTORE PUSH1 0x4 SWAP1 REVERT JUMPDEST PUSH1 0x0 DUP1 REVERT JUMPDEST CALLVALUE PUSH2 0x7D2 JUMPI PUSH1 0x20 CALLDATASIZE PUSH1 0x3 NOT ADD SLT PUSH2 0x7D2 JUMPI PUSH2 0x7F0 PUSH2 0x2044 JUMP JUMPDEST PUSH2 0x7F8 PUSH2 0x299F JUMP JUMPDEST PUSH1 0x1 PUSH1 0x1 PUSH1 0xA0 SHL SUB SWAP1 DUP2 AND SWAP1 DUP2 ISZERO PUSH2 0x847 JUMPI PUSH1 0x0 SLOAD DUP3 PUSH1 0x1 PUSH1 0x1 PUSH1 0x60 SHL SUB PUSH1 0xA0 SHL DUP3 AND OR PUSH1 0x0 SSTORE AND PUSH32 0x8BE0079C531659141344CD1FD0A4F28419497F9722A3DAAFE3B4186F6B6457E0 PUSH1 0x0 DUP1 LOG3 STOP JUMPDEST PUSH1 0x40 MLOAD PUSH4 0x1E4FBDF7 PUSH1 0xE0 SHL DUP2 MSTORE PUSH1 0x0 PUSH1 0x4 DUP3 ADD MSTORE PUSH1 0x24 SWAP1 REVERT JUMPDEST CALLVALUE PUSH2 0x7D2 JUMPI PUSH1 0x20 DUP1 PUSH1 0x3 NOT CALLDATASIZE ADD SLT PUSH2 0x7D2 JUMPI PUSH1 0x1 PUSH1 0x1 PUSH1 0xA0 SHL SUB PUSH2 0x882 PUSH2 0x2044 JUMP JUMPDEST AND PUSH1 0x0 MSTORE PUSH1 0xC PUSH1 0x20 MSTORE PUSH1 0x40 PUSH1 0x0 KECCAK256 SWAP1 PUSH1 0x40 MLOAD SWAP1 DUP2 PUSH1 0x20 DUP5 SLOAD SWAP2 DUP3 DUP2 MSTORE ADD SWAP4 PUSH1 0x0 MSTORE PUSH1 0x20 PUSH1 0x0 KECCAK256 SWAP2 PUSH1 0x0 SWAP1 JUMPDEST DUP3 DUP3 LT PUSH2 0x8D4 JUMPI PUSH2 0x8D0 DUP6 PUSH2 0x8C4 DUP2 DUP10 SUB DUP3 PUSH2 0x21BE JUMP JUMPDEST PUSH1 0x40 MLOAD SWAP2 DUP3 SWAP2 DUP3 PUSH2 0x2008 JUMP JUMPDEST SUB SWAP1 RETURN JUMPDEST DUP4 SLOAD DUP7 MSTORE SWAP5 DUP6 ADD SWAP5 PUSH1 0x1 SWAP4 DUP5 ADD SWAP4 SWAP1 SWAP2 ADD SWAP1 PUSH2 0x8AD JUMP JUMPDEST CALLVALUE PUSH2 0x7D2 JUMPI PUSH1 0x20 DUP1 PUSH1 0x3 NOT CALLDATASIZE ADD SLT PUSH2 0x7D2 JUMPI PUSH1 0x1 PUSH1 0x1 PUSH1 0xA0 SHL SUB PUSH2 0x90D PUSH2 0x2044 JUMP JUMPDEST AND PUSH1 0x0 MSTORE PUSH1 0xB PUSH1 0x20 MSTORE PUSH1 0x40 PUSH1 0x0 KECCAK256 SWAP1 PUSH1 0x40 MLOAD SWAP1 DUP2 PUSH1 0x20 DUP5 SLOAD SWAP2 DUP3 DUP2 MSTORE ADD SWAP4 PUSH1 0x0 MSTORE PUSH1 0x20 PUSH1 0x0 KECCAK256 SWAP2 PUSH1 0x0 SWAP1 JUMPDEST DUP3 DUP3 LT PUSH2 0x94F JUMPI PUSH2 0x8D0 DUP6 PUSH2 0x8C4 DUP2 DUP10 SUB DUP3 PUSH2 0x21BE JUMP JUMPDEST DUP4 SLOAD DUP7 MSTORE SWAP5 DUP6 ADD SWAP5 PUSH1 0x1 SWAP4 DUP5 ADD SWAP4 SWAP1 SWAP2 ADD SWAP1 PUSH2 0x938 JUMP JUMPDEST CALLVALUE PUSH2 0x7D2 JUMPI PUSH1 0x20 CALLDATASIZE PUSH1 0x3 NOT ADD SLT PUSH2 0x7D2 JUMPI PUSH2 0x97F PUSH2 0x2044 JUMP JUMPDEST PUSH2 0x987 PUSH2 0x299F JUMP JUMPDEST PUSH1 0x1 PUSH1 0x1 PUSH1 0xA0 SHL SUB AND DUP1 ISZERO PUSH2 0x9D6 JUMPI DUP1 PUSH1 0x0 MSTORE PUSH1 0xA PUSH1 0x20 MSTORE PUSH1 0x40 PUSH1 0x0 KECCAK256 PUSH1 0x1 PUSH1 0xFF NOT DUP3 SLOAD AND OR SWAP1 SSTORE PUSH32 0x4F783C179409B4127238BC9C990BC99B9A651666A0D20B51D6C42849EB88466D PUSH1 0x0 DUP1 LOG2 STOP JUMPDEST PUSH1 0x40 MLOAD PUSH3 0x461BCD PUSH1 0xE5 SHL DUP2 MSTORE PUSH1 0x20 PUSH1 0x4 DUP3 ADD MSTORE PUSH1 0xF PUSH1 0x24 DUP3 ADD MSTORE PUSH15 0x496E76616C69642061646472657373 PUSH1 0x88 SHL PUSH1 0x44 DUP3 ADD MSTORE PUSH1 0x64 SWAP1 REVERT JUMPDEST CALLVALUE PUSH2 0x7D2 JUMPI PUSH1 0x40 CALLDATASIZE PUSH1 0x3 NOT ADD SLT PUSH2 0x7D2 JUMPI PUSH2 0xA26 PUSH2 0x2044 JUMP JUMPDEST PUSH1 0x1 PUSH1 0x1 PUSH1 0xA0 SHL SUB AND PUSH1 0x0 SWAP1 DUP2 MSTORE PUSH1 0xB PUSH1 0x20 MSTORE PUSH1 0x40 SWAP1 KECCAK256 DUP1 SLOAD PUSH1 0x24 CALLDATALOAD SWAP2 SWAP1 DUP3 LT ISZERO PUSH2 0x7D2 JUMPI PUSH1 0x20 SWAP2 PUSH2 0xA57 SWAP2 PUSH2 0x2070 JUMP JUMPDEST SWAP1 SLOAD PUSH1 0x40 MLOAD SWAP2 PUSH1 0x3 SHL SHR DUP2 MSTORE RETURN JUMPDEST CALLVALUE PUSH2 0x7D2 JUMPI PUSH1 0x0 CALLDATASIZE PUSH1 0x3 NOT ADD SLT PUSH2 0x7D2 JUMPI PUSH1 0x20 PUSH1 0x40 MLOAD PUSH2 0x2710 DUP2 MSTORE RETURN JUMPDEST CALLVALUE PUSH2 0x7D2 JUMPI PUSH1 0x20 CALLDATASIZE PUSH1 0x3 NOT ADD SLT PUSH2 0x7D2 JUMPI PUSH1 0x4 CALLDATALOAD PUSH1 0x0 MSTORE PUSH1 0x9 PUSH1 0x20 MSTORE PUSH1 0x40 PUSH1 0x0 KECCAK256 DUP1 SLOAD PUSH1 0x1 DUP3 ADD PUSH2 0xAB2 SWAP1 PUSH2 0x21E0 JUMP JUMPDEST SWAP2 PUSH1 0x1 PUSH1 0xA0 SHL PUSH1 0x1 SWAP1 SUB SWAP1 DUP2 PUSH1 0x2 DUP3 ADD SLOAD AND SWAP2 PUSH1 0x3 DUP3 ADD SLOAD AND SWAP1 PUSH1 0x4 DUP2 ADD SLOAD PUSH1 0x5 DUP3 ADD SLOAD PUSH1 0x6 DUP4 ADD SLOAD PUSH1 0x7 DUP5 ADD SLOAD PUSH1 0x8 DUP6 ADD SLOAD SWAP2 PUSH1 0x9 DUP7 ADD SLOAD SWAP4 PUSH1 0xA DUP8 ADD SLOAD SWAP6 PUSH1 0xB DUP9 ADD SLOAD SWAP8 PUSH1 0xC ADD SLOAD PUSH1 0xFF AND SWAP9 PUSH1 0x40 MLOAD SWAP13 DUP14 DUP1 SWAP14 PUSH2 0x1A0 SWAP2 DUP3 SWAP2 DUP2 MSTORE PUSH1 0x20 ADD MSTORE DUP14 ADD PUSH2 0xB1E SWAP2 PUSH2 0x209E JUMP JUMPDEST SWAP11 PUSH1 0x40 DUP14 ADD MSTORE PUSH1 0x60 DUP13 ADD MSTORE PUSH1 0x80 DUP12 ADD MSTORE PUSH1 0xA0 DUP11 ADD MSTORE PUSH1 0xC0 DUP10 ADD MSTORE PUSH1 0xE0 DUP9 ADD MSTORE PUSH2 0x100 DUP8 ADD MSTORE PUSH2 0x120 DUP7 ADD MSTORE PUSH2 0x140 DUP6 ADD MSTORE PUSH2 0x160 DUP5 ADD MSTORE PUSH2 0x180 DUP4 ADD PUSH2 0x8D0 SWAP2 PUSH2 0x20DE JUMP JUMPDEST CALLVALUE PUSH2 0x7D2 JUMPI PUSH1 0x20 CALLDATASIZE PUSH1 0x3 NOT ADD SLT PUSH2 0x7D2 JUMPI PUSH1 0x1 PUSH1 0x1 PUSH1 0xA0 SHL SUB PUSH2 0xB84 PUSH2 0x2044 JUMP JUMPDEST AND PUSH1 0x0 MSTORE PUSH1 0xA PUSH1 0x20 MSTORE PUSH1 0x20 PUSH1 0xFF PUSH1 0x40 PUSH1 0x0 KECCAK256 SLOAD AND PUSH1 0x40 MLOAD SWAP1 ISZERO ISZERO DUP2 MSTORE RETURN JUMPDEST CALLVALUE PUSH2 0x7D2 JUMPI PUSH1 0x20 DUP1 PUSH1 0x3 NOT CALLDATASIZE ADD SLT PUSH2 0x7D2 JUMPI PUSH1 0x1 PUSH1 0x1 PUSH1 0xA0 SHL SUB PUSH2 0xBC4 PUSH2 0x2044 JUMP JUMPDEST AND PUSH1 0x0 MSTORE PUSH1 0xE DUP2 MSTORE PUSH1 0x40 PUSH1 0x0 KECCAK256 SLOAD PUSH1 0xF DUP3 MSTORE PUSH1 0x40 PUSH1 0x0 KECCAK256 SLOAD SWAP2 PUSH1 0x10 DUP2 MSTORE PUSH1 0x40 PUSH1 0x0 KECCAK256 SLOAD DUP1 ISZERO ISZERO SWAP2 DUP3 PUSH2 0xC0C JUMPI JUMPDEST SWAP4 PUSH1 0x80 SWAP5 PUSH1 0x40 MLOAD SWAP5 DUP6 MSTORE DUP5 ADD MSTORE PUSH1 0x40 DUP4 ADD MSTORE ISZERO ISZERO PUSH1 0x60 DUP3 ADD MSTORE RETURN JUMPDEST SWAP2 POP DUP1 PUSH1 0x0 MSTORE PUSH1 0x9 DUP3 MSTORE PUSH1 0xFF PUSH1 0xC PUSH1 0x40 PUSH1 0x0 KECCAK256 ADD SLOAD AND PUSH1 0x4 DUP2 LT ISZERO PUSH2 0x627 JUMPI PUSH1 0x1 EQ DUP1 ISZERO PUSH2 0xC3B JUMPI JUMPDEST SWAP2 PUSH2 0xBF1 JUMP JUMPDEST POP DUP1 PUSH1 0x0 MSTORE PUSH1 0x9 DUP3 MSTORE PUSH1 0xFF PUSH1 0xC PUSH1 0x40 PUSH1 0x0 KECCAK256 ADD SLOAD AND SWAP4 PUSH1 0x4 DUP6 LT ISZERO PUSH2 0x627 JUMPI SWAP4 ISZERO PUSH2 0xC35 JUMP JUMPDEST CALLVALUE PUSH2 0x7D2 JUMPI PUSH1 0x0 CALLDATASIZE PUSH1 0x3 NOT ADD SLT PUSH2 0x7D2 JUMPI PUSH1 0x20 PUSH1 0x40 MLOAD PUSH10 0x152D02C7E14AF6800000 DUP2 MSTORE RETURN JUMPDEST CALLVALUE PUSH2 0x7D2 JUMPI PUSH1 0x0 CALLDATASIZE PUSH1 0x3 NOT ADD SLT PUSH2 0x7D2 JUMPI PUSH1 0x20 PUSH1 0x7 SLOAD PUSH1 0x40 MLOAD SWAP1 DUP2 MSTORE RETURN JUMPDEST CALLVALUE PUSH2 0x7D2 JUMPI PUSH1 0x0 CALLDATASIZE PUSH1 0x3 NOT ADD SLT PUSH2 0x7D2 JUMPI PUSH1 0x7 SLOAD PUSH1 0x8 SLOAD SWAP1 PUSH1 0x0 PUSH1 0x1 DUP1 PUSH1 0x6 SLOAD SWAP1 JUMPDEST DUP2 DUP2 GT ISZERO PUSH2 0xCF2 JUMPI POP POP POP PUSH2 0x8D0 SWAP1 PUSH1 0x40 MLOAD SWAP4 DUP5 SWAP4 DUP5 PUSH1 0x40 SWAP2 SWAP5 SWAP4 SWAP3 PUSH1 0x60 DUP3 ADD SWAP6 DUP3 MSTORE PUSH1 0x20 DUP3 ADD MSTORE ADD MSTORE JUMP JUMPDEST DUP1 PUSH1 0x0 MSTORE PUSH1 0x9 PUSH1 0x20 MSTORE PUSH1 0xFF PUSH1 0xC PUSH1 0x40 PUSH1 0x0 KECCAK256 ADD SLOAD AND PUSH1 0x4 DUP2 LT ISZERO PUSH2 0x627 JUMPI DUP4 EQ PUSH2 0xD25 JUMPI JUMPDEST PUSH2 0xD20 SWAP1 PUSH2 0x28FF JUMP JUMPDEST PUSH2 0xCC6 JUMP JUMPDEST SWAP3 PUSH2 0xD32 PUSH2 0xD20 SWAP2 PUSH2 0x28FF JUMP JUMPDEST SWAP4 SWAP1 POP PUSH2 0xD17 JUMP JUMPDEST CALLVALUE PUSH2 0x7D2 JUMPI PUSH1 0x0 CALLDATASIZE PUSH1 0x3 NOT ADD SLT PUSH2 0x7D2 JUMPI PUSH1 0x20 PUSH1 0x40 MLOAD PUSH8 0x4563918244F40000 DUP2 MSTORE RETURN JUMPDEST CALLVALUE PUSH2 0x7D2 JUMPI PUSH1 0x20 PUSH2 0xD6D CALLDATASIZE PUSH2 0x205A JUMP JUMPDEST SWAP1 PUSH1 0x0 MSTORE PUSH1 0x9 DUP3 MSTORE PUSH2 0x2710 PUSH2 0xE49 PUSH1 0x40 PUSH1 0x0 KECCAK256 PUSH1 0xC PUSH2 0xE40 PUSH1 0x40 MLOAD SWAP3 PUSH2 0xD92 DUP5 PUSH2 0x2169 JUMP JUMPDEST DUP1 SLOAD DUP5 MSTORE PUSH2 0xDA2 PUSH1 0x1 DUP3 ADD PUSH2 0x21E0 JUMP JUMPDEST DUP5 DUP10 ADD MSTORE PUSH1 0x2 DUP2 ADD SLOAD PUSH1 0x1 PUSH1 0x1 PUSH1 0xA0 SHL SUB SWAP1 DUP2 AND PUSH1 0x40 DUP7 ADD MSTORE PUSH1 0x3 DUP3 ADD SLOAD AND PUSH1 0x60 DUP6 ADD MSTORE PUSH1 0x4 DUP2 ADD SLOAD PUSH1 0x80 DUP6 ADD SWAP1 DUP2 MSTORE PUSH1 0x5 DUP3 ADD SLOAD PUSH1 0xA0 DUP7 ADD SWAP1 DUP2 MSTORE PUSH1 0x6 DUP4 ADD SLOAD PUSH1 0xC0 DUP8 ADD MSTORE PUSH1 0x7 DUP4 ADD SLOAD PUSH1 0xE0 DUP8 ADD MSTORE PUSH1 0x8 DUP4 ADD SLOAD PUSH2 0x100 DUP8 ADD MSTORE PUSH1 0x9 DUP4 ADD SLOAD PUSH2 0x120 DUP8 ADD SWAP1 DUP2 MSTORE PUSH1 0xA DUP5 ADD SLOAD PUSH2 0x140 DUP9 ADD MSTORE PUSH1 0xB DUP5 ADD SLOAD PUSH2 0x160 DUP9 ADD MSTORE SWAP3 DUP6 ADD SLOAD SWAP1 SWAP6 PUSH2 0xE37 SWAP2 PUSH1 0xFF AND SWAP1 PUSH2 0x180 ADD PUSH2 0x2449 JUMP JUMPDEST MLOAD SWAP1 MLOAD SWAP1 PUSH2 0x2455 JUMP JUMPDEST SWAP2 MLOAD DIV SWAP1 PUSH2 0x211C JUMP JUMPDEST DIV DUP2 DUP2 GT ISZERO PUSH2 0xE5C JUMPI POP JUMPDEST PUSH1 0x40 MLOAD SWAP1 DUP2 MSTORE RETURN JUMPDEST SWAP1 POP PUSH2 0xE54 JUMP JUMPDEST CALLVALUE PUSH2 0x7D2 JUMPI PUSH1 0x20 CALLDATASIZE PUSH1 0x3 NOT ADD SLT PUSH2 0x7D2 JUMPI PUSH1 0x20 PUSH2 0xE54 PUSH1 0x4 CALLDATALOAD PUSH2 0x2834 JUMP JUMPDEST CALLVALUE PUSH2 0x7D2 JUMPI PUSH1 0x20 CALLDATASIZE PUSH1 0x3 NOT ADD SLT PUSH2 0x7D2 JUMPI PUSH1 0x20 PUSH2 0xE54 PUSH1 0x4 CALLDATALOAD PUSH2 0x2531 JUMP JUMPDEST CALLVALUE PUSH2 0x7D2 JUMPI PUSH1 0x60 CALLDATASIZE PUSH1 0x3 NOT ADD SLT PUSH2 0x7D2 JUMPI PUSH1 0x20 PUSH2 0xE54 PUSH1 0x44 CALLDATALOAD PUSH1 0x24 CALLDATALOAD PUSH1 0x4 CALLDATALOAD PUSH2 0x275B JUMP JUMPDEST CALLVALUE PUSH2 0x7D2 JUMPI PUSH1 0x0 CALLDATASIZE PUSH1 0x3 NOT ADD SLT PUSH2 0x7D2 JUMPI PUSH1 0x40 MLOAD PUSH32 0x0 PUSH1 0x1 PUSH1 0x1 PUSH1 0xA0 SHL SUB AND DUP2 MSTORE PUSH1 0x20 SWAP1 RETURN JUMPDEST CALLVALUE PUSH2 0x7D2 JUMPI PUSH1 0x0 CALLDATASIZE PUSH1 0x3 NOT ADD SLT PUSH2 0x7D2 JUMPI PUSH1 0x20 PUSH1 0x40 MLOAD PUSH9 0x56BC75E2D63100000 DUP2 MSTORE RETURN JUMPDEST CALLVALUE PUSH2 0x7D2 JUMPI PUSH1 0x20 CALLDATASIZE PUSH1 0x3 NOT ADD SLT PUSH2 0x7D2 JUMPI PUSH1 0x20 PUSH2 0xE54 PUSH1 0x4 CALLDATALOAD PUSH2 0x26DB JUMP JUMPDEST CALLVALUE PUSH2 0x7D2 JUMPI PUSH1 0x0 CALLDATASIZE PUSH1 0x3 NOT ADD SLT PUSH2 0x7D2 JUMPI PUSH1 0x0 SLOAD PUSH1 0x40 MLOAD PUSH1 0x1 PUSH1 0x1 PUSH1 0xA0 SHL SUB SWAP1 SWAP2 AND DUP2 MSTORE PUSH1 0x20 SWAP1 RETURN JUMPDEST CALLVALUE PUSH2 0x7D2 JUMPI PUSH1 0x20 CALLDATASIZE PUSH1 0x3 NOT ADD SLT PUSH2 0x7D2 JUMPI PUSH2 0xF8C PUSH2 0x2044 JUMP JUMPDEST PUSH2 0xF94 PUSH2 0x299F JUMP JUMPDEST PUSH1 0x1 PUSH1 0x1 PUSH1 0xA0 SHL SUB AND PUSH1 0x0 DUP2 DUP2 MSTORE PUSH1 0xA PUSH1 0x20 MSTORE PUSH1 0x40 DUP2 KECCAK256 DUP1 SLOAD PUSH1 0xFF NOT AND SWAP1 SSTORE PUSH32 0x24A12366C02E13FE4A9E03D86A8952E85BB74A456C16E4A18B6D8295700B74BB SWAP1 DUP1 LOG2 STOP JUMPDEST CALLVALUE PUSH2 0x7D2 JUMPI PUSH1 0x20 CALLDATASIZE PUSH1 0x3 NOT ADD SLT PUSH2 0x7D2 JUMPI PUSH1 0x4 CALLDATALOAD PUSH2 0xFF5 PUSH2 0x290E JUMP JUMPDEST PUSH2 0xFFD PUSH2 0x292C JUMP JUMPDEST CALLER PUSH1 0x0 MSTORE PUSH1 0xA PUSH1 0x20 MSTORE PUSH1 0xFF PUSH1 0x40 PUSH1 0x0 KECCAK256 SLOAD AND ISZERO PUSH2 0x7C0 JUMPI DUP1 PUSH1 0x0 MSTORE PUSH1 0x9 PUSH1 0x20 MSTORE PUSH1 0x40 PUSH1 0x0 KECCAK256 SWAP1 DUP2 SLOAD ISZERO PUSH2 0x11A4 JUMPI PUSH1 0xC DUP3 ADD PUSH1 0xFF DUP2 SLOAD AND PUSH1 0x4 DUP2 LT ISZERO PUSH2 0x627 JUMPI PUSH2 0x1192 JUMPI PUSH1 0x3 DUP4 ADD DUP1 SLOAD PUSH1 0x1 PUSH1 0x1 PUSH1 0xA0 SHL SUB SWAP3 SWAP1 DUP4 AND PUSH2 0x1180 JUMPI PUSH1 0x4 DUP6 ADD SLOAD SWAP5 PUSH1 0xA DUP7 MUL DUP7 DUP2 DIV PUSH1 0xA EQ DUP8 ISZERO OR ISZERO PUSH2 0x116A JUMPI PUSH2 0x2710 SWAP1 DIV SWAP3 PUSH2 0x10CC PUSH2 0x1081 DUP6 DUP10 PUSH2 0x2455 JUMP JUMPDEST DUP1 SWAP7 PUSH32 0x0 SWAP1 PUSH2 0x10B1 DUP12 ADDRESS CALLER DUP6 PUSH2 0x29CB JUMP JUMPDEST PUSH2 0x10C0 DUP9 DUP3 PUSH1 0x5 SLOAD AND DUP5 PUSH2 0x294F JUMP JUMPDEST PUSH1 0x2 DUP7 ADD SLOAD AND SWAP1 PUSH2 0x294F JUMP JUMPDEST CALLER PUSH1 0x1 PUSH1 0x1 PUSH1 0x60 SHL SUB PUSH1 0xA0 SHL DUP3 SLOAD AND OR SWAP1 SSTORE TIMESTAMP PUSH1 0x7 DUP3 ADD SSTORE PUSH3 0x278D00 TIMESTAMP ADD SWAP1 DUP2 TIMESTAMP GT PUSH2 0x116A JUMPI PUSH1 0x8 ADD SSTORE PUSH1 0x1 PUSH1 0xFF NOT DUP3 SLOAD AND OR SWAP1 SSTORE CALLER PUSH1 0x0 MSTORE PUSH1 0xC PUSH1 0x20 MSTORE PUSH2 0x1118 DUP4 PUSH1 0x40 PUSH1 0x0 KECCAK256 PUSH2 0x248F JUMP JUMPDEST PUSH2 0x1124 DUP5 PUSH1 0x8 SLOAD PUSH2 0x2482 JUMP JUMPDEST PUSH1 0x8 SSTORE PUSH1 0x40 MLOAD SWAP4 DUP5 MSTORE PUSH1 0x0 PUSH1 0x20 DUP6 ADD MSTORE PUSH1 0x40 DUP5 ADD MSTORE PUSH1 0x60 DUP4 ADD MSTORE PUSH32 0x1D42C734A02CBB87AFC90F61E8AF2AD261CFCD62B567BFA805BC93BCD9CEEB95 PUSH1 0x80 CALLER SWAP4 LOG3 PUSH1 0x1 DUP1 SSTORE STOP JUMPDEST PUSH4 0x4E487B71 PUSH1 0xE0 SHL PUSH1 0x0 MSTORE PUSH1 0x11 PUSH1 0x4 MSTORE PUSH1 0x24 PUSH1 0x0 REVERT JUMPDEST PUSH1 0x40 MLOAD PUSH4 0xD70A0E3 PUSH1 0xE4 SHL DUP2 MSTORE PUSH1 0x4 SWAP1 REVERT JUMPDEST PUSH1 0x40 MLOAD PUSH4 0x1516309 PUSH1 0xE3 SHL DUP2 MSTORE PUSH1 0x4 SWAP1 REVERT JUMPDEST PUSH1 0x40 MLOAD PUSH4 0xE7E621D PUSH1 0xE0 SHL DUP2 MSTORE PUSH1 0x4 SWAP1 REVERT JUMPDEST CALLVALUE PUSH2 0x7D2 JUMPI PUSH1 0x0 CALLDATASIZE PUSH1 0x3 NOT ADD SLT PUSH2 0x7D2 JUMPI PUSH2 0x11CF PUSH2 0x299F JUMP JUMPDEST PUSH2 0x11D7 PUSH2 0x290E JUMP JUMPDEST PUSH1 0x1 PUSH1 0xFF NOT PUSH1 0x2 SLOAD AND OR PUSH1 0x2 SSTORE PUSH32 0x62E78CEA01BEE320CD4E420270B5EA74000D11B0C9F74754EBDBFC544B05A258 PUSH1 0x20 PUSH1 0x40 MLOAD CALLER DUP2 MSTORE LOG1 STOP JUMPDEST CALLVALUE PUSH2 0x7D2 JUMPI PUSH1 0x0 CALLDATASIZE PUSH1 0x3 NOT ADD SLT PUSH2 0x7D2 JUMPI PUSH1 0x20 PUSH1 0x40 MLOAD PUSH1 0xC8 DUP2 MSTORE RETURN JUMPDEST CALLVALUE PUSH2 0x7D2 JUMPI PUSH1 0x0 CALLDATASIZE PUSH1 0x3 NOT ADD SLT PUSH2 0x7D2 JUMPI PUSH1 0x20 PUSH1 0x40 MLOAD PUSH8 0xDE0B6B3A7640000 DUP2 MSTORE RETURN JUMPDEST CALLVALUE PUSH2 0x7D2 JUMPI PUSH1 0x20 CALLDATASIZE PUSH1 0x3 NOT ADD SLT PUSH2 0x7D2 JUMPI PUSH1 0x4 CALLDATALOAD PUSH1 0x0 MSTORE PUSH1 0x9 PUSH1 0x20 MSTORE PUSH1 0x20 PUSH1 0x40 PUSH1 0x0 KECCAK256 PUSH2 0x131E PUSH1 0x40 MLOAD PUSH2 0x1281 DUP2 PUSH2 0x2169 JUMP JUMPDEST DUP3 SLOAD DUP2 MSTORE PUSH2 0x1291 PUSH1 0x1 DUP5 ADD PUSH2 0x21E0 JUMP JUMPDEST DUP2 DUP6 ADD MSTORE PUSH1 0x2 DUP4 ADD SLOAD PUSH1 0x1 PUSH1 0x1 PUSH1 0xA0 SHL SUB SWAP1 DUP2 AND PUSH1 0x40 DUP4 ADD MSTORE PUSH1 0x3 DUP5 ADD SLOAD AND PUSH1 0x60 DUP3 ADD MSTORE PUSH1 0x4 DUP4 ADD SLOAD PUSH1 0x80 DUP3 ADD MSTORE PUSH1 0x5 DUP4 ADD SLOAD PUSH1 0xA0 DUP3 ADD MSTORE PUSH1 0x6 DUP4 ADD SLOAD PUSH1 0xC0 DUP3 ADD MSTORE PUSH1 0x7 DUP4 ADD SLOAD PUSH1 0xE0 DUP3 ADD MSTORE PUSH1 0x8 DUP4 ADD SLOAD PUSH2 0x100 DUP3 ADD MSTORE PUSH1 0x9 DUP4 ADD SLOAD PUSH2 0x120 DUP3 ADD MSTORE PUSH1 0xA DUP4 ADD SLOAD PUSH2 0x140 DUP3 ADD MSTORE PUSH1 0xB DUP4 ADD SLOAD PUSH2 0x160 DUP3 ADD SWAP1 DUP2 MSTORE PUSH1 0xC SWAP1 SWAP4 ADD SLOAD PUSH1 0xFF AND SWAP1 PUSH2 0x180 ADD PUSH2 0x2449 JUMP JUMPDEST MLOAD PUSH1 0x40 MLOAD SWAP1 DUP2 MSTORE RETURN JUMPDEST CALLVALUE PUSH2 0x7D2 JUMPI PUSH1 0x20 CALLDATASIZE PUSH1 0x3 NOT ADD SLT PUSH2 0x7D2 JUMPI PUSH1 0x20 PUSH2 0x1345 PUSH1 0x4 CALLDATALOAD PUSH2 0x25EF JUMP JUMPDEST PUSH1 0x40 MLOAD SWAP1 ISZERO ISZERO DUP2 MSTORE RETURN JUMPDEST CALLVALUE PUSH2 0x7D2 JUMPI PUSH1 0x0 CALLDATASIZE PUSH1 0x3 NOT ADD SLT PUSH2 0x7D2 JUMPI PUSH1 0x60 PUSH1 0x1 DUP1 PUSH1 0xA0 SHL SUB DUP1 PUSH1 0x3 SLOAD AND SWAP1 DUP1 PUSH1 0x4 SLOAD AND SWAP1 PUSH1 0x5 SLOAD AND SWAP1 PUSH1 0x40 MLOAD SWAP3 DUP4 MSTORE PUSH1 0x20 DUP4 ADD MSTORE PUSH1 0x40 DUP3 ADD MSTORE RETURN JUMPDEST CALLVALUE PUSH2 0x7D2 JUMPI PUSH1 0x0 CALLDATASIZE PUSH1 0x3 NOT ADD SLT PUSH2 0x7D2 JUMPI PUSH2 0x13A5 PUSH2 0x299F JUMP JUMPDEST PUSH1 0x0 DUP1 SLOAD PUSH1 0x1 PUSH1 0x1 PUSH1 0xA0 SHL SUB NOT DUP2 AND DUP3 SSTORE PUSH1 0x1 PUSH1 0x1 PUSH1 0xA0 SHL SUB AND PUSH32 0x8BE0079C531659141344CD1FD0A4F28419497F9722A3DAAFE3B4186F6B6457E0 DUP3 DUP1 LOG3 STOP JUMPDEST CALLVALUE PUSH2 0x7D2 JUMPI PUSH1 0x60 CALLDATASIZE PUSH1 0x3 NOT ADD SLT PUSH2 0x7D2 JUMPI PUSH8 0xFFFFFFFFFFFFFFFF PUSH1 0x4 CALLDATALOAD DUP2 DUP2 GT PUSH2 0x7D2 JUMPI PUSH2 0x1417 SWAP1 CALLDATASIZE SWAP1 PUSH1 0x4 ADD PUSH2 0x20EB JUMP JUMPDEST PUSH1 0x24 CALLDATALOAD DUP4 DUP2 GT PUSH2 0x7D2 JUMPI PUSH2 0x142F SWAP1 CALLDATASIZE SWAP1 PUSH1 0x4 ADD PUSH2 0x20EB JUMP JUMPDEST SWAP1 SWAP4 PUSH1 0x44 CALLDATALOAD SWAP1 DUP2 GT PUSH2 0x7D2 JUMPI PUSH2 0x1449 SWAP1 CALLDATASIZE SWAP1 PUSH1 0x4 ADD PUSH2 0x20EB JUMP JUMPDEST SWAP4 SWAP1 PUSH2 0x1453 PUSH2 0x299F JUMP JUMPDEST PUSH2 0x145E DUP4 DUP6 EQ PUSH2 0x24C9 JUMP JUMPDEST PUSH2 0x1469 DUP6 DUP6 EQ PUSH2 0x24C9 JUMP JUMPDEST PUSH1 0x0 JUMPDEST DUP5 DUP2 LT PUSH2 0x1475 JUMPI STOP JUMPDEST PUSH2 0x3E8 PUSH2 0x1483 DUP3 DUP7 DUP11 PUSH2 0x250D JUMP JUMPDEST CALLDATALOAD GT PUSH2 0x1598 JUMPI PUSH9 0x56BC75E2D63100000 PUSH2 0x149E DUP3 DUP9 DUP6 PUSH2 0x250D JUMP JUMPDEST CALLDATALOAD LT DUP1 ISZERO PUSH2 0x157A JUMPI JUMPDEST PUSH2 0x739 JUMPI PUSH2 0x14B6 DUP2 DUP6 DUP10 PUSH2 0x250D JUMP JUMPDEST CALLDATALOAD PUSH1 0x1 PUSH1 0x1 PUSH1 0xA0 SHL SUB DUP1 PUSH2 0x14CB DUP5 DUP10 DUP9 PUSH2 0x250D JUMP JUMPDEST PUSH2 0x14D4 SWAP1 PUSH2 0x251D JUMP JUMPDEST AND PUSH1 0x0 MSTORE PUSH1 0x20 SWAP2 PUSH1 0xE DUP4 MSTORE PUSH1 0x40 PUSH1 0x0 KECCAK256 SSTORE PUSH2 0x14F0 DUP4 DUP10 DUP7 PUSH2 0x250D JUMP JUMPDEST CALLDATALOAD DUP2 PUSH2 0x14FD DUP6 DUP11 DUP10 PUSH2 0x250D JUMP JUMPDEST PUSH2 0x1506 SWAP1 PUSH2 0x251D JUMP JUMPDEST AND PUSH1 0x0 MSTORE PUSH1 0xF DUP4 MSTORE PUSH1 0x40 PUSH1 0x0 KECCAK256 SSTORE PUSH2 0x151F DUP4 DUP9 DUP8 PUSH2 0x250D JUMP JUMPDEST PUSH2 0x1528 SWAP1 PUSH2 0x251D JUMP JUMPDEST PUSH2 0x1533 DUP5 DUP9 DUP13 PUSH2 0x250D JUMP JUMPDEST CALLDATALOAD SWAP3 PUSH2 0x1540 DUP6 DUP12 DUP9 PUSH2 0x250D JUMP JUMPDEST CALLDATALOAD SWAP1 PUSH1 0x40 MLOAD SWAP5 DUP6 MSTORE DUP5 ADD MSTORE AND SWAP1 PUSH1 0x40 PUSH32 0x4F43648F37BC26EE5BC39C60C1C1E2481A9FB9FEB9F86419C91B4645585FF3BC SWAP2 LOG2 PUSH1 0x1 ADD PUSH2 0x146C JUMP JUMPDEST POP PUSH10 0x152D02C7E14AF6800000 PUSH2 0x1591 DUP3 DUP9 DUP6 PUSH2 0x250D JUMP JUMPDEST CALLDATALOAD GT PUSH2 0x14A7 JUMP JUMPDEST PUSH1 0x40 MLOAD PUSH4 0x1069B47 PUSH1 0xE2 SHL DUP2 MSTORE PUSH1 0x4 SWAP1 REVERT JUMPDEST CALLVALUE PUSH2 0x7D2 JUMPI PUSH1 0x0 CALLDATASIZE PUSH1 0x3 NOT ADD SLT PUSH2 0x7D2 JUMPI PUSH1 0x20 PUSH1 0x8 SLOAD PUSH1 0x40 MLOAD SWAP1 DUP2 MSTORE RETURN JUMPDEST CALLVALUE PUSH2 0x7D2 JUMPI PUSH1 0x0 CALLDATASIZE PUSH1 0x3 NOT ADD SLT PUSH2 0x7D2 JUMPI PUSH1 0x20 PUSH1 0xFF PUSH1 0x2 SLOAD AND PUSH1 0x40 MLOAD SWAP1 ISZERO ISZERO DUP2 MSTORE RETURN JUMPDEST CALLVALUE PUSH2 0x7D2 JUMPI PUSH1 0x60 CALLDATASIZE PUSH1 0x3 NOT ADD SLT PUSH2 0x7D2 JUMPI PUSH2 0x1604 PUSH2 0x2044 JUMP JUMPDEST PUSH1 0x24 CALLDATALOAD PUSH1 0x44 CALLDATALOAD SWAP2 PUSH2 0x1613 PUSH2 0x299F JUMP JUMPDEST PUSH2 0x3E8 DUP3 GT PUSH2 0x1598 JUMPI PUSH9 0x56BC75E2D63100000 DUP4 LT PUSH2 0x739 JUMPI PUSH10 0x152D02C7E14AF6800000 DUP4 GT PUSH2 0x739 JUMPI PUSH32 0x4F43648F37BC26EE5BC39C60C1C1E2481A9FB9FEB9F86419C91B4645585FF3BC SWAP2 PUSH1 0x40 SWAP2 PUSH1 0x1 DUP1 PUSH1 0xA0 SHL SUB AND SWAP4 DUP5 PUSH1 0x0 MSTORE PUSH1 0xE PUSH1 0x20 MSTORE DUP2 DUP4 PUSH1 0x0 KECCAK256 SSTORE PUSH1 0xF PUSH1 0x20 MSTORE DUP1 DUP4 PUSH1 0x0 KECCAK256 SSTORE DUP3 MLOAD SWAP2 DUP3 MSTORE PUSH1 0x20 DUP3 ADD MSTORE LOG2 STOP JUMPDEST CALLVALUE PUSH2 0x7D2 JUMPI PUSH1 0x20 CALLDATASIZE PUSH1 0x3 NOT ADD SLT PUSH2 0x7D2 JUMPI PUSH2 0x16AB PUSH2 0x290E JUMP JUMPDEST PUSH2 0x16B3 PUSH2 0x292C JUMP JUMPDEST PUSH1 0x4 CALLDATALOAD PUSH1 0x0 MSTORE PUSH1 0x9 PUSH1 0x20 MSTORE PUSH1 0x40 PUSH1 0x0 KECCAK256 DUP1 SLOAD ISZERO PUSH2 0x11A4 JUMPI PUSH1 0xFF PUSH1 0xC DUP3 ADD SLOAD AND PUSH1 0x4 DUP2 LT ISZERO PUSH2 0x627 JUMPI PUSH1 0x1 SUB PUSH2 0x18F5 JUMPI PUSH1 0x2 DUP2 ADD SLOAD PUSH1 0x1 PUSH1 0x1 PUSH1 0xA0 SHL SUB AND CALLER SUB PUSH2 0x7C0 JUMPI PUSH1 0x8 DUP2 ADD SLOAD DUP1 TIMESTAMP LT PUSH2 0x18CA JUMPI JUMPDEST POP PUSH1 0xB DUP2 ADD SLOAD SWAP1 PUSH2 0x171D PUSH1 0x4 DUP3 ADD SLOAD PUSH1 0x9 DUP4 ADD SLOAD SWAP1 PUSH2 0x2455 JUMP JUMPDEST SWAP1 DUP3 DUP3 GT PUSH2 0x18C4 JUMPI DUP2 SWAP3 JUMPDEST PUSH1 0xC8 DUP5 MUL DUP5 DUP2 DIV PUSH1 0xC8 EQ DUP6 ISZERO OR ISZERO PUSH2 0x116A JUMPI PUSH2 0x2710 PUSH2 0x178B SWAP2 DIV PUSH2 0x174C DUP2 DUP8 PUSH2 0x2482 JUMP JUMPDEST PUSH2 0x1779 PUSH32 0x0 SWAP2 ADDRESS CALLER DUP5 PUSH2 0x29CB JUMP JUMPDEST PUSH1 0x4 SLOAD PUSH1 0x1 PUSH1 0x1 PUSH1 0xA0 SHL SUB AND SWAP1 PUSH2 0x294F JUMP JUMPDEST PUSH2 0x1799 DUP5 PUSH1 0x9 DUP5 ADD SLOAD PUSH2 0x2482 JUMP JUMPDEST PUSH1 0x9 DUP4 ADD SSTORE PUSH1 0xA DUP3 ADD PUSH2 0x17AD DUP6 DUP3 SLOAD PUSH2 0x2482 JUMP JUMPDEST SWAP1 SSTORE PUSH1 0x0 SWAP3 PUSH1 0x8 DUP4 ADD SLOAD DUP1 TIMESTAMP GT PUSH2 0x18AB JUMPI JUMPDEST POP PUSH1 0x4 CALLDATALOAD PUSH1 0x0 MSTORE PUSH1 0xD PUSH1 0x20 MSTORE PUSH2 0x17D9 DUP6 PUSH1 0x40 PUSH1 0x0 KECCAK256 PUSH2 0x248F JUMP JUMPDEST GT PUSH2 0x188F JUMPI PUSH1 0x9 SWAP1 PUSH1 0x2 PUSH1 0xFF NOT PUSH1 0xC DUP4 ADD SLOAD AND OR PUSH1 0xC DUP3 ADD SSTORE PUSH1 0x1 DUP1 PUSH1 0xA0 SHL SUB PUSH1 0x2 DUP3 ADD SLOAD AND PUSH1 0x0 MSTORE PUSH1 0x10 PUSH1 0x20 MSTORE PUSH1 0x0 PUSH1 0x40 DUP2 KECCAK256 SSTORE ADD SLOAD PUSH1 0x40 MLOAD SWAP1 DUP2 MSTORE PUSH32 0x3D7F456A773B484D2552719BD744B62049588737D6A02948EBA3DCAE1B0D77F PUSH1 0x20 PUSH1 0x4 CALLDATALOAD SWAP3 LOG2 JUMPDEST PUSH32 0x2144ED2980D83D1B3C2D4C4FFBAF398DED900D0E5E18FCC085A686569BEB9673 PUSH1 0x40 MLOAD DUP1 PUSH2 0x1886 CALLER SWAP6 PUSH1 0x4 CALLDATALOAD SWAP6 TIMESTAMP SWAP2 DUP5 PUSH1 0x40 SWAP2 SWAP5 SWAP4 SWAP3 PUSH1 0x60 DUP3 ADD SWAP6 DUP3 MSTORE PUSH1 0x20 DUP3 ADD MSTORE ADD MSTORE JUMP JUMPDEST SUB SWAP1 LOG3 PUSH1 0x1 DUP1 SSTORE STOP JUMPDEST PUSH1 0x8 DUP2 ADD SLOAD SWAP1 PUSH3 0x278D00 DUP3 ADD DUP1 SWAP3 GT PUSH2 0x116A JUMPI PUSH1 0x8 ADD SSTORE PUSH2 0x183F JUMP JUMPDEST PUSH3 0x15180 SWAP2 SWAP5 POP PUSH2 0x18BC SWAP1 TIMESTAMP PUSH2 0x2455 JUMP JUMPDEST DIV SWAP3 DUP6 PUSH2 0x17BF JUMP JUMPDEST DUP3 PUSH2 0x1728 JUMP JUMPDEST PUSH2 0x18D9 PUSH3 0x15180 SWAP2 TIMESTAMP SWAP1 PUSH2 0x2455 JUMP JUMPDEST GT PUSH2 0x18E4 JUMPI DUP2 PUSH2 0x1703 JUMP JUMPDEST PUSH1 0x40 MLOAD PUSH3 0xA71FBB PUSH1 0xE0 SHL DUP2 MSTORE PUSH1 0x4 SWAP1 REVERT JUMPDEST PUSH1 0x40 MLOAD PUSH4 0x417BC23 PUSH1 0xE1 SHL DUP2 MSTORE PUSH1 0x4 SWAP1 REVERT JUMPDEST CALLVALUE PUSH2 0x7D2 JUMPI PUSH1 0x20 CALLDATASIZE PUSH1 0x3 NOT ADD SLT PUSH2 0x7D2 JUMPI PUSH1 0x0 PUSH2 0x180 PUSH1 0x40 MLOAD PUSH2 0x1929 DUP2 PUSH2 0x2169 JUMP JUMPDEST DUP3 DUP2 MSTORE PUSH1 0x60 PUSH1 0x20 DUP3 ADD MSTORE DUP3 PUSH1 0x40 DUP3 ADD MSTORE DUP3 PUSH1 0x60 DUP3 ADD MSTORE DUP3 PUSH1 0x80 DUP3 ADD MSTORE DUP3 PUSH1 0xA0 DUP3 ADD MSTORE DUP3 PUSH1 0xC0 DUP3 ADD MSTORE DUP3 PUSH1 0xE0 DUP3 ADD MSTORE DUP3 PUSH2 0x100 DUP3 ADD MSTORE DUP3 PUSH2 0x120 DUP3 ADD MSTORE DUP3 PUSH2 0x140 DUP3 ADD MSTORE DUP3 PUSH2 0x160 DUP3 ADD MSTORE ADD MSTORE PUSH1 0x4 CALLDATALOAD PUSH1 0x0 MSTORE PUSH1 0x9 PUSH1 0x20 MSTORE PUSH1 0x40 PUSH1 0x0 KECCAK256 PUSH2 0x1A2F PUSH1 0xFF PUSH1 0xC PUSH1 0x40 MLOAD SWAP4 PUSH2 0x1999 DUP6 PUSH2 0x2169 JUMP JUMPDEST DUP1 SLOAD DUP6 MSTORE PUSH2 0x19A9 PUSH1 0x1 DUP3 ADD PUSH2 0x21E0 JUMP JUMPDEST PUSH1 0x20 DUP7 ADD MSTORE PUSH1 0x2 DUP2 ADD SLOAD PUSH1 0x1 PUSH1 0x1 PUSH1 0xA0 SHL SUB SWAP1 DUP2 AND PUSH1 0x40 DUP8 ADD MSTORE PUSH1 0x3 DUP3 ADD SLOAD AND PUSH1 0x60 DUP7 ADD MSTORE PUSH1 0x4 DUP2 ADD SLOAD PUSH1 0x80 DUP7 ADD MSTORE PUSH1 0x5 DUP2 ADD SLOAD PUSH1 0xA0 DUP7 ADD MSTORE PUSH1 0x6 DUP2 ADD SLOAD PUSH1 0xC0 DUP7 ADD MSTORE PUSH1 0x7 DUP2 ADD SLOAD PUSH1 0xE0 DUP7 ADD MSTORE PUSH1 0x8 DUP2 ADD SLOAD PUSH2 0x100 DUP7 ADD MSTORE PUSH1 0x9 DUP2 ADD SLOAD PUSH2 0x120 DUP7 ADD MSTORE PUSH1 0xA DUP2 ADD SLOAD PUSH2 0x140 DUP7 ADD MSTORE PUSH1 0xB DUP2 ADD SLOAD PUSH2 0x160 DUP7 ADD MSTORE ADD SLOAD AND PUSH2 0x180 DUP4 ADD PUSH2 0x2449 JUMP JUMPDEST PUSH1 0x40 MLOAD DUP1 SWAP2 PUSH1 0x20 DUP3 MSTORE DUP1 MLOAD PUSH1 0x20 DUP4 ADD MSTORE PUSH2 0x8D0 PUSH2 0x180 PUSH2 0x1A60 PUSH1 0x20 DUP5 ADD MLOAD PUSH2 0x1A0 PUSH1 0x40 DUP8 ADD MSTORE PUSH2 0x1C0 DUP7 ADD SWAP1 PUSH2 0x209E JUMP JUMPDEST SWAP3 PUSH1 0x1 DUP1 PUSH1 0xA0 SHL SUB PUSH1 0x40 DUP3 ADD MLOAD AND PUSH1 0x60 DUP7 ADD MSTORE PUSH1 0x1 DUP1 PUSH1 0xA0 SHL SUB PUSH1 0x60 DUP3 ADD MLOAD AND PUSH1 0x80 DUP7 ADD MSTORE PUSH1 0x80 DUP2 ADD MLOAD PUSH1 0xA0 DUP7 ADD MSTORE PUSH1 0xA0 DUP2 ADD MLOAD PUSH1 0xC0 DUP7 ADD MSTORE PUSH1 0xC0 DUP2 ADD MLOAD PUSH1 0xE0 DUP7 ADD MSTORE PUSH1 0xE0 DUP2 ADD MLOAD PUSH2 0x100 DUP7 ADD MSTORE PUSH2 0x100 DUP2 ADD MLOAD PUSH2 0x120 DUP7 ADD MSTORE PUSH2 0x120 DUP2 ADD MLOAD PUSH2 0x140 DUP7 ADD MSTORE PUSH2 0x140 DUP2 ADD MLOAD PUSH2 0x160 DUP7 ADD MSTORE PUSH2 0x160 DUP2 ADD MLOAD DUP3 DUP7 ADD MSTORE ADD MLOAD PUSH2 0x1A0 DUP5 ADD SWAP1 PUSH2 0x20DE JUMP JUMPDEST CALLVALUE PUSH2 0x7D2 JUMPI PUSH1 0x40 CALLDATASIZE PUSH1 0x3 NOT ADD SLT PUSH2 0x7D2 JUMPI PUSH2 0x1B0E PUSH2 0x1B05 PUSH2 0x2044 JUMP JUMPDEST PUSH1 0x24 CALLDATALOAD SWAP1 PUSH2 0x2285 JUMP JUMPDEST SWAP1 PUSH2 0x8D0 PUSH1 0x40 MLOAD SWAP3 DUP4 SWAP3 ISZERO ISZERO DUP4 MSTORE PUSH1 0x40 PUSH1 0x20 DUP5 ADD MSTORE PUSH1 0x40 DUP4 ADD SWAP1 PUSH2 0x209E JUMP JUMPDEST CALLVALUE PUSH2 0x7D2 JUMPI PUSH1 0x60 CALLDATASIZE PUSH1 0x3 NOT ADD SLT PUSH2 0x7D2 JUMPI PUSH2 0x1B46 PUSH2 0x2044 JUMP JUMPDEST PUSH1 0x24 CALLDATALOAD PUSH1 0x1 PUSH1 0x1 PUSH1 0xA0 SHL SUB DUP2 DUP2 AND SWAP2 DUP3 SWAP1 SUB PUSH2 0x7D2 JUMPI PUSH1 0x44 CALLDATALOAD SWAP3 DUP2 DUP5 AND DUP1 SWAP5 SUB PUSH2 0x7D2 JUMPI PUSH2 0x1B72 PUSH2 0x299F JUMP JUMPDEST AND DUP1 ISZERO PUSH2 0x1C78 JUMPI DUP2 ISZERO PUSH2 0x1C33 JUMPI DUP3 ISZERO PUSH2 0x1BEE JUMPI PUSH1 0x40 MLOAD PUSH8 0xFFFFFFFFFFFFFFFF PUSH1 0x60 DUP3 ADD SWAP2 DUP3 LT SWAP2 GT OR PUSH2 0x705 JUMPI DUP3 PUSH1 0x1 PUSH1 0x1 PUSH1 0x60 SHL SUB PUSH1 0xA0 SHL DUP3 DUP2 PUSH1 0x3 SLOAD AND OR PUSH1 0x3 SSTORE DUP4 DUP2 PUSH1 0x4 SLOAD AND OR PUSH1 0x4 SSTORE PUSH1 0x5 SLOAD AND OR PUSH1 0x5 SSTORE PUSH32 0x1F63DE24E6765B53F3BF31B690265DC5373FCF3C359EAB0D14C3B303731C08C1 PUSH1 0x0 DUP1 LOG4 STOP JUMPDEST PUSH1 0x40 MLOAD PUSH3 0x461BCD PUSH1 0xE5 SHL DUP2 MSTORE PUSH1 0x20 PUSH1 0x4 DUP3 ADD MSTORE PUSH1 0x17 PUSH1 0x24 DUP3 ADD MSTORE PUSH32 0x496E76616C6964206D61746368696E672077616C6C6574000000000000000000 PUSH1 0x44 DUP3 ADD MSTORE PUSH1 0x64 SWAP1 REVERT JUMPDEST PUSH1 0x40 MLOAD PUSH3 0x461BCD PUSH1 0xE5 SHL DUP2 MSTORE PUSH1 0x20 PUSH1 0x4 DUP3 ADD MSTORE PUSH1 0x18 PUSH1 0x24 DUP3 ADD MSTORE PUSH32 0x496E76616C696420696E737572616E63652077616C6C65740000000000000000 PUSH1 0x44 DUP3 ADD MSTORE PUSH1 0x64 SWAP1 REVERT JUMPDEST PUSH1 0x40 MLOAD PUSH3 0x461BCD PUSH1 0xE5 SHL DUP2 MSTORE PUSH1 0x20 PUSH1 0x4 DUP3 ADD MSTORE PUSH1 0x12 PUSH1 0x24 DUP3 ADD MSTORE PUSH18 0x125B9D985B1A5908199959481DD85B1B195D PUSH1 0x72 SHL PUSH1 0x44 DUP3 ADD MSTORE PUSH1 0x64 SWAP1 REVERT JUMPDEST CALLVALUE PUSH2 0x7D2 JUMPI PUSH1 0x0 CALLDATASIZE PUSH1 0x3 NOT ADD SLT PUSH2 0x7D2 JUMPI PUSH2 0x1CCB PUSH2 0x299F JUMP JUMPDEST PUSH1 0x2 SLOAD PUSH1 0xFF DUP2 AND ISZERO PUSH2 0x1D0A JUMPI PUSH1 0xFF NOT AND PUSH1 0x2 SSTORE PUSH32 0x5DB9EE0A495BF2E6FF9C91A7834C1BA4FDD244A5E8AA4E537BD38AEAE4B073AA PUSH1 0x20 PUSH1 0x40 MLOAD CALLER DUP2 MSTORE LOG1 STOP JUMPDEST PUSH1 0x40 MLOAD PUSH4 0x8DFC202B PUSH1 0xE0 SHL DUP2 MSTORE PUSH1 0x4 SWAP1 REVERT JUMPDEST CALLVALUE PUSH2 0x7D2 JUMPI PUSH1 0x40 CALLDATASIZE PUSH1 0x3 NOT ADD SLT PUSH2 0x7D2 JUMPI PUSH2 0x1D35 PUSH2 0x2044 JUMP JUMPDEST PUSH1 0x1 PUSH1 0x1 PUSH1 0xA0 SHL SUB AND PUSH1 0x0 SWAP1 DUP2 MSTORE PUSH1 0xC PUSH1 0x20 MSTORE PUSH1 0x40 SWAP1 KECCAK256 DUP1 SLOAD PUSH1 0x24 CALLDATALOAD SWAP2 SWAP1 DUP3 LT ISZERO PUSH2 0x7D2 JUMPI PUSH1 0x20 SWAP2 PUSH2 0xA57 SWAP2 PUSH2 0x2070 JUMP JUMPDEST CALLVALUE PUSH2 0x7D2 JUMPI PUSH1 0x0 CALLDATASIZE PUSH1 0x3 NOT ADD SLT PUSH2 0x7D2 JUMPI PUSH1 0x20 PUSH1 0x6 SLOAD PUSH1 0x40 MLOAD SWAP1 DUP2 MSTORE RETURN JUMPDEST CALLVALUE PUSH2 0x7D2 JUMPI PUSH1 0x20 CALLDATASIZE PUSH1 0x3 NOT ADD SLT PUSH2 0x7D2 JUMPI PUSH1 0x4 CALLDATALOAD PUSH2 0x1DA0 PUSH2 0x290E JUMP JUMPDEST PUSH2 0x1DA8 PUSH2 0x292C JUMP JUMPDEST DUP1 PUSH1 0x0 MSTORE PUSH1 0x9 PUSH1 0x20 MSTORE PUSH1 0x40 PUSH1 0x0 KECCAK256 DUP1 SLOAD ISZERO PUSH2 0x11A4 JUMPI PUSH1 0xFF PUSH1 0xC DUP3 ADD SLOAD AND PUSH1 0x4 DUP2 LT ISZERO PUSH2 0x627 JUMPI PUSH1 0x1 DUP2 EQ ISZERO SWAP1 DUP2 PUSH2 0x1E79 JUMPI JUMPDEST POP PUSH2 0x18F5 JUMPI PUSH1 0x3 DUP2 ADD SLOAD PUSH1 0x1 PUSH1 0x1 PUSH1 0xA0 SHL SUB AND CALLER SUB PUSH2 0x7C0 JUMPI PUSH1 0xA ADD SWAP1 DUP2 SLOAD SWAP2 DUP3 ISZERO PUSH2 0x1E67 JUMPI PUSH1 0x0 SWAP1 SSTORE PUSH2 0x1E2F DUP3 CALLER PUSH32 0x0 PUSH2 0x294F JUMP JUMPDEST PUSH1 0x40 MLOAD SWAP2 DUP3 MSTORE TIMESTAMP PUSH1 0x20 DUP4 ADD MSTORE PUSH32 0x94DB06301DC32995467BB8625D03E4DD74879E0CBEE91569723822A9030CF7D5 PUSH1 0x40 CALLER SWAP4 LOG3 PUSH1 0x1 DUP1 SSTORE STOP JUMPDEST PUSH1 0x40 MLOAD PUSH4 0xAAD5627B PUSH1 0xE0 SHL DUP2 MSTORE PUSH1 0x4 SWAP1 REVERT JUMPDEST PUSH1 0x2 SWAP2 POP EQ ISZERO DUP4 PUSH2 0x1DDA JUMP JUMPDEST CALLVALUE PUSH2 0x7D2 JUMPI PUSH1 0x20 CALLDATASIZE PUSH1 0x3 NOT ADD SLT PUSH2 0x7D2 JUMPI PUSH1 0x1 PUSH1 0x1 PUSH1 0xA0 SHL SUB PUSH2 0x1EA6 PUSH2 0x2044 JUMP JUMPDEST AND PUSH1 0x0 MSTORE PUSH1 0xF PUSH1 0x20 MSTORE PUSH1 0x20 PUSH1 0x40 PUSH1 0x0 KECCAK256 SLOAD PUSH1 0x40 MLOAD SWAP1 DUP2 MSTORE RETURN JUMPDEST CALLVALUE PUSH2 0x7D2 JUMPI PUSH2 0x1ECD CALLDATASIZE PUSH2 0x205A JUMP JUMPDEST SWAP1 PUSH1 0x0 MSTORE PUSH1 0xD PUSH1 0x20 MSTORE PUSH1 0x40 PUSH1 0x0 KECCAK256 DUP1 SLOAD DUP3 LT ISZERO PUSH2 0x7D2 JUMPI PUSH1 0x20 SWAP2 PUSH2 0xA57 SWAP2 PUSH2 0x2070 JUMP JUMPDEST CALLVALUE PUSH2 0x7D2 JUMPI PUSH1 0x20 CALLDATASIZE PUSH1 0x3 NOT ADD SLT PUSH2 0x7D2 JUMPI PUSH1 0x1 PUSH1 0x1 PUSH1 0xA0 SHL SUB PUSH2 0x1F11 PUSH2 0x2044 JUMP JUMPDEST AND PUSH1 0x0 MSTORE PUSH1 0xE PUSH1 0x20 MSTORE PUSH1 0x20 PUSH1 0x40 PUSH1 0x0 KECCAK256 SLOAD PUSH1 0x40 MLOAD SWAP1 DUP2 MSTORE RETURN JUMPDEST CALLVALUE PUSH2 0x7D2 JUMPI PUSH1 0x0 CALLDATASIZE PUSH1 0x3 NOT ADD SLT PUSH2 0x7D2 JUMPI PUSH1 0x20 PUSH1 0x40 MLOAD PUSH3 0x278D00 DUP2 MSTORE RETURN JUMPDEST CALLVALUE PUSH2 0x7D2 JUMPI PUSH1 0x20 CALLDATASIZE PUSH1 0x3 NOT ADD SLT PUSH2 0x7D2 JUMPI PUSH1 0x1 PUSH1 0x1 PUSH1 0xA0 SHL SUB PUSH2 0x1F69 PUSH2 0x2044 JUMP JUMPDEST AND PUSH1 0x0 MSTORE PUSH1 0x10 PUSH1 0x20 MSTORE PUSH1 0x20 PUSH1 0x40 PUSH1 0x0 KECCAK256 SLOAD PUSH1 0x40 MLOAD SWAP1 DUP2 MSTORE RETURN JUMPDEST CALLVALUE PUSH2 0x7D2 JUMPI PUSH1 0x0 CALLDATASIZE PUSH1 0x3 NOT ADD SLT PUSH2 0x7D2 JUMPI PUSH1 0x20 PUSH1 0x40 MLOAD PUSH1 0xA DUP2 MSTORE RETURN JUMPDEST CALLVALUE PUSH2 0x7D2 JUMPI PUSH1 0x20 SWAP1 PUSH1 0x20 PUSH1 0x3 NOT CALLDATASIZE ADD SLT PUSH2 0x7D2 JUMPI PUSH1 0x4 CALLDATALOAD PUSH1 0x0 MSTORE PUSH1 0xD PUSH1 0x20 MSTORE PUSH1 0x40 PUSH1 0x0 KECCAK256 SWAP2 DUP3 SLOAD DUP1 DUP4 MSTORE PUSH1 0x20 DUP4 ADD SWAP4 PUSH1 0x0 MSTORE PUSH1 0x20 PUSH1 0x0 KECCAK256 SWAP2 PUSH1 0x0 SWAP1 JUMPDEST DUP3 DUP3 LT PUSH2 0x1FF1 JUMPI PUSH2 0x8D0 DUP6 PUSH2 0x8C4 DUP2 DUP10 SUB DUP3 PUSH2 0x21BE JUMP JUMPDEST DUP4 SLOAD DUP7 MSTORE SWAP5 DUP6 ADD SWAP5 PUSH1 0x1 SWAP4 DUP5 ADD SWAP4 SWAP1 SWAP2 ADD SWAP1 PUSH2 0x1FDA JUMP JUMPDEST PUSH1 0x20 SWAP1 PUSH1 0x20 PUSH1 0x40 DUP2 DUP4 ADD SWAP3 DUP3 DUP2 MSTORE DUP6 MLOAD DUP1 SWAP5 MSTORE ADD SWAP4 ADD SWAP2 PUSH1 0x0 JUMPDEST DUP3 DUP2 LT PUSH2 0x2030 JUMPI POP POP POP POP SWAP1 JUMP JUMPDEST DUP4 MLOAD DUP6 MSTORE SWAP4 DUP2 ADD SWAP4 SWAP3 DUP2 ADD SWAP3 PUSH1 0x1 ADD PUSH2 0x2022 JUMP JUMPDEST PUSH1 0x4 CALLDATALOAD SWAP1 PUSH1 0x1 PUSH1 0x1 PUSH1 0xA0 SHL SUB DUP3 AND DUP3 SUB PUSH2 0x7D2 JUMPI JUMP JUMPDEST PUSH1 0x40 SWAP1 PUSH1 0x3 NOT ADD SLT PUSH2 0x7D2 JUMPI PUSH1 0x4 CALLDATALOAD SWAP1 PUSH1 0x24 CALLDATALOAD SWAP1 JUMP JUMPDEST DUP1 SLOAD DUP3 LT ISZERO PUSH2 0x2088 JUMPI PUSH1 0x0 MSTORE PUSH1 0x20 PUSH1 0x0 KECCAK256 ADD SWAP1 PUSH1 0x0 SWAP1 JUMP JUMPDEST PUSH4 0x4E487B71 PUSH1 0xE0 SHL PUSH1 0x0 MSTORE PUSH1 0x32 PUSH1 0x4 MSTORE PUSH1 0x24 PUSH1 0x0 REVERT JUMPDEST SWAP2 SWAP1 DUP3 MLOAD SWAP3 DUP4 DUP3 MSTORE PUSH1 0x0 JUMPDEST DUP5 DUP2 LT PUSH2 0x20CA JUMPI POP POP DUP3 PUSH1 0x0 PUSH1 0x20 DUP1 SWAP5 SWAP6 DUP5 ADD ADD MSTORE PUSH1 0x1F DUP1 NOT SWAP2 ADD AND ADD ADD SWAP1 JUMP JUMPDEST PUSH1 0x20 DUP2 DUP4 ADD DUP2 ADD MLOAD DUP5 DUP4 ADD DUP3 ADD MSTORE ADD PUSH2 0x20A9 JUMP JUMPDEST SWAP1 PUSH1 0x4 DUP3 LT ISZERO PUSH2 0x627 JUMPI MSTORE JUMP JUMPDEST SWAP2 DUP2 PUSH1 0x1F DUP5 ADD SLT ISZERO PUSH2 0x7D2 JUMPI DUP3 CALLDATALOAD SWAP2 PUSH8 0xFFFFFFFFFFFFFFFF DUP4 GT PUSH2 0x7D2 JUMPI PUSH1 0x20 DUP1 DUP6 ADD SWAP5 DUP5 PUSH1 0x5 SHL ADD ADD GT PUSH2 0x7D2 JUMPI JUMP JUMPDEST DUP2 DUP2 MUL SWAP3 SWAP2 DUP2 ISZERO SWAP2 DUP5 DIV EQ OR ISZERO PUSH2 0x116A JUMPI JUMP JUMPDEST SWAP1 PUSH1 0x1 DUP3 DUP2 SHR SWAP3 AND DUP1 ISZERO PUSH2 0x215F JUMPI JUMPDEST PUSH1 0x20 DUP4 LT EQ PUSH2 0x2149 JUMPI JUMP JUMPDEST PUSH4 0x4E487B71 PUSH1 0xE0 SHL PUSH1 0x0 MSTORE PUSH1 0x22 PUSH1 0x4 MSTORE PUSH1 0x24 PUSH1 0x0 REVERT JUMPDEST SWAP2 PUSH1 0x7F AND SWAP2 PUSH2 0x213E JUMP JUMPDEST PUSH2 0x1A0 DUP2 ADD SWAP1 DUP2 LT PUSH8 0xFFFFFFFFFFFFFFFF DUP3 GT OR PUSH2 0x705 JUMPI PUSH1 0x40 MSTORE JUMP JUMPDEST PUSH1 0xA0 DUP2 ADD SWAP1 DUP2 LT PUSH8 0xFFFFFFFFFFFFFFFF DUP3 GT OR PUSH2 0x705 JUMPI PUSH1 0x40 MSTORE JUMP JUMPDEST PUSH1 0x40 DUP2 ADD SWAP1 DUP2 LT PUSH8 0xFFFFFFFFFFFFFFFF DUP3 GT OR PUSH2 0x705 JUMPI PUSH1 0x40 MSTORE JUMP JUMPDEST SWAP1 PUSH1 0x1F DUP1 NOT SWAP2 ADD AND DUP2 ADD SWAP1 DUP2 LT PUSH8 0xFFFFFFFFFFFFFFFF DUP3 GT OR PUSH2 0x705 JUMPI PUSH1 0x40 MSTORE JUMP JUMPDEST SWAP1 PUSH1 0x40 MLOAD SWAP2 DUP3 PUSH1 0x0 DUP3 SLOAD PUSH2 0x21F3 DUP2 PUSH2 0x212F JUMP JUMPDEST SWAP1 DUP2 DUP5 MSTORE PUSH1 0x20 SWAP5 PUSH1 0x1 SWAP2 PUSH1 0x1 DUP2 AND SWAP1 DUP2 PUSH1 0x0 EQ PUSH2 0x2263 JUMPI POP PUSH1 0x1 EQ PUSH2 0x2224 JUMPI JUMPDEST POP POP POP PUSH2 0x2222 SWAP3 POP SUB DUP4 PUSH2 0x21BE JUMP JUMPDEST JUMP JUMPDEST PUSH1 0x0 SWAP1 DUP2 MSTORE DUP6 DUP2 KECCAK256 SWAP6 SWAP4 POP SWAP2 SWAP1 JUMPDEST DUP2 DUP4 LT PUSH2 0x224B JUMPI POP POP PUSH2 0x2222 SWAP4 POP DUP3 ADD ADD CODESIZE DUP1 DUP1 PUSH2 0x2213 JUMP JUMPDEST DUP6 SLOAD DUP9 DUP5 ADD DUP6 ADD MSTORE SWAP5 DUP6 ADD SWAP5 DUP8 SWAP5 POP SWAP2 DUP4 ADD SWAP2 PUSH2 0x2232 JUMP JUMPDEST SWAP3 POP POP POP PUSH2 0x2222 SWAP5 SWAP3 POP PUSH1 0xFF NOT AND DUP3 DUP5 ADD MSTORE ISZERO ISZERO PUSH1 0x5 SHL DUP3 ADD ADD CODESIZE DUP1 DUP1 PUSH2 0x2213 JUMP JUMPDEST PUSH1 0x1 PUSH1 0x1 PUSH1 0xA0 SHL SUB AND PUSH1 0x0 DUP2 DUP2 MSTORE PUSH1 0xA PUSH1 0x20 SWAP1 DUP2 MSTORE PUSH1 0x40 DUP1 DUP4 KECCAK256 SLOAD SWAP1 SWAP6 SWAP5 SWAP2 SWAP4 SWAP1 PUSH1 0xFF AND ISZERO PUSH2 0x2427 JUMPI DUP1 DUP4 MSTORE PUSH1 0x10 DUP5 MSTORE DUP6 DUP4 KECCAK256 SLOAD DUP1 PUSH2 0x23B8 JUMPI JUMPDEST POP DUP3 MSTORE PUSH1 0xF DUP4 MSTORE DUP5 DUP3 KECCAK256 SLOAD DUP1 ISZERO PUSH2 0x2388 JUMPI DUP2 GT PUSH2 0x2358 JUMPI PUSH9 0x56BC75E2D63100000 DUP2 LT SWAP1 DUP2 ISZERO PUSH2 0x2344 JUMPI JUMPDEST POP PUSH2 0x231B JUMPI POP PUSH15 0x21B0B71031B932B0BA32903637B0B7 PUSH1 0x89 SHL PUSH1 0x1 SWAP4 MLOAD SWAP2 PUSH2 0x2311 DUP4 PUSH2 0x21A2 JUMP JUMPDEST PUSH1 0xF DUP4 MSTORE DUP3 ADD MSTORE SWAP1 JUMP JUMPDEST PUSH14 0x125B9D985B1A5908185B5BDD5B9D PUSH1 0x92 SHL SWAP1 SWAP4 MLOAD SWAP2 PUSH2 0x233A DUP4 PUSH2 0x21A2 JUMP JUMPDEST PUSH1 0xE DUP4 MSTORE DUP3 ADD MSTORE SWAP1 JUMP JUMPDEST PUSH10 0x152D02C7E14AF6800000 SWAP2 POP GT CODESIZE PUSH2 0x22EA JUMP JUMPDEST POP PUSH20 0x115E18D959591CC818DC99591A5D081B1A5B5A5D PUSH1 0x62 SHL SWAP1 SWAP4 MLOAD SWAP2 PUSH2 0x237E DUP4 PUSH2 0x21A2 JUMP JUMPDEST PUSH1 0x14 DUP4 MSTORE DUP3 ADD MSTORE SWAP1 JUMP JUMPDEST POP POP PUSH19 0x139BC818DC99591A5D081B1A5B5A5D081CD95D PUSH1 0x6A SHL SWAP1 SWAP4 MLOAD SWAP2 PUSH2 0x23AE DUP4 PUSH2 0x21A2 JUMP JUMPDEST PUSH1 0x13 DUP4 MSTORE DUP3 ADD MSTORE SWAP1 JUMP JUMPDEST DUP4 MSTORE PUSH1 0x9 DUP5 MSTORE PUSH1 0xFF PUSH1 0xC DUP8 DUP6 KECCAK256 ADD SLOAD AND PUSH1 0x4 DUP2 LT ISZERO PUSH2 0x2413 JUMPI PUSH1 0x1 DUP2 EQ SWAP1 DUP2 ISZERO PUSH2 0x240A JUMPI JUMPDEST POP PUSH2 0x23E8 JUMPI CODESIZE PUSH2 0x22BF JUMP JUMPDEST POP POP PUSH15 0x2430B99030B1BA34BB32903637B0B7 PUSH1 0x89 SHL SWAP1 SWAP4 MLOAD SWAP2 PUSH2 0x2311 DUP4 PUSH2 0x21A2 JUMP JUMPDEST SWAP1 POP ISZERO CODESIZE PUSH2 0x23DD JUMP JUMPDEST PUSH4 0x4E487B71 PUSH1 0xE0 SHL DUP5 MSTORE PUSH1 0x21 PUSH1 0x4 MSTORE PUSH1 0x24 DUP5 REVERT JUMPDEST POP POP PUSH15 0x139BDD081DDA1A5D195B1A5CDD1959 PUSH1 0x8A SHL SWAP1 SWAP4 MLOAD SWAP2 PUSH2 0x2311 DUP4 PUSH2 0x21A2 JUMP JUMPDEST PUSH1 0x4 DUP3 LT ISZERO PUSH2 0x627 JUMPI MSTORE JUMP JUMPDEST SWAP2 SWAP1 DUP3 SUB SWAP2 DUP3 GT PUSH2 0x116A JUMPI JUMP JUMPDEST DUP2 ISZERO PUSH2 0x246C JUMPI DIV SWAP1 JUMP JUMPDEST PUSH4 0x4E487B71 PUSH1 0xE0 SHL PUSH1 0x0 MSTORE PUSH1 0x12 PUSH1 0x4 MSTORE PUSH1 0x24 PUSH1 0x0 REVERT JUMPDEST SWAP2 SWAP1 DUP3 ADD DUP1 SWAP3 GT PUSH2 0x116A JUMPI JUMP JUMPDEST DUP1 SLOAD PUSH9 0x10000000000000000 DUP2 LT ISZERO PUSH2 0x705 JUMPI PUSH2 0x24B1 SWAP2 PUSH1 0x1 DUP3 ADD DUP2 SSTORE PUSH2 0x2070 JUMP JUMPDEST DUP2 SWAP3 SWAP2 SLOAD SWAP1 PUSH1 0x3 SHL SWAP2 DUP3 SHL SWAP2 PUSH1 0x0 NOT SWAP1 SHL NOT AND OR SWAP1 SSTORE JUMP JUMPDEST ISZERO PUSH2 0x24D0 JUMPI JUMP JUMPDEST PUSH1 0x40 MLOAD PUSH3 0x461BCD PUSH1 0xE5 SHL DUP2 MSTORE PUSH1 0x20 PUSH1 0x4 DUP3 ADD MSTORE PUSH1 0x15 PUSH1 0x24 DUP3 ADD MSTORE PUSH21 0x82E4E4C2F240D8CADCCEE8D040DAD2E6DAC2E8C6D PUSH1 0x5B SHL PUSH1 0x44 DUP3 ADD MSTORE PUSH1 0x64 SWAP1 REVERT JUMPDEST SWAP2 SWAP1 DUP2 LT ISZERO PUSH2 0x2088 JUMPI PUSH1 0x5 SHL ADD SWAP1 JUMP JUMPDEST CALLDATALOAD PUSH1 0x1 PUSH1 0x1 PUSH1 0xA0 SHL SUB DUP2 AND DUP2 SUB PUSH2 0x7D2 JUMPI SWAP1 JUMP JUMPDEST PUSH1 0x0 MSTORE PUSH1 0x9 PUSH1 0x20 MSTORE PUSH1 0x40 PUSH1 0x0 KECCAK256 PUSH2 0x25EB PUSH1 0x40 MLOAD PUSH2 0x254D DUP2 PUSH2 0x2169 JUMP JUMPDEST DUP3 SLOAD DUP2 MSTORE PUSH2 0x255D PUSH1 0x1 DUP5 ADD PUSH2 0x21E0 JUMP JUMPDEST PUSH1 0x20 DUP3 ADD MSTORE PUSH1 0x2 DUP4 ADD SLOAD PUSH1 0x1 PUSH1 0x1 PUSH1 0xA0 SHL SUB SWAP1 DUP2 AND PUSH1 0x40 DUP4 ADD MSTORE PUSH1 0x3 DUP5 ADD SLOAD AND PUSH1 0x60 DUP3 ADD MSTORE PUSH1 0x4 DUP4 ADD SLOAD PUSH1 0x80 DUP3 ADD MSTORE PUSH1 0x5 DUP4 ADD SLOAD PUSH1 0xA0 DUP3 ADD MSTORE PUSH1 0x6 DUP4 ADD SLOAD PUSH1 0xC0 DUP3 ADD MSTORE PUSH1 0x7 DUP4 ADD SLOAD PUSH1 0xE0 DUP3 ADD MSTORE PUSH1 0x8 DUP4 ADD SLOAD PUSH2 0x100 DUP3 ADD MSTORE PUSH1 0x9 DUP4 ADD SLOAD PUSH2 0x120 DUP3 ADD MSTORE PUSH1 0xA DUP4 ADD SLOAD PUSH2 0x140 DUP3 ADD SWAP1 DUP2 MSTORE PUSH1 0xB DUP5 ADD SLOAD PUSH2 0x160 DUP4 ADD MSTORE PUSH1 0xC SWAP1 SWAP4 ADD SLOAD PUSH1 0xFF AND SWAP1 PUSH2 0x180 ADD PUSH2 0x2449 JUMP JUMPDEST MLOAD SWAP1 JUMP JUMPDEST PUSH1 0x0 MSTORE PUSH1 0x9 PUSH1 0x20 MSTORE PUSH1 0x40 PUSH1 0x0 KECCAK256 PUSH1 0x40 MLOAD PUSH2 0x2608 DUP2 PUSH2 0x2169 JUMP JUMPDEST DUP2 SLOAD DUP2 MSTORE PUSH2 0x2618 PUSH1 0x1 DUP4 ADD PUSH2 0x21E0 JUMP JUMPDEST PUSH1 0x20 DUP3 ADD MSTORE PUSH1 0x1 DUP1 PUSH1 0xA0 SHL SUB DUP1 PUSH1 0x2 DUP5 ADD SLOAD AND PUSH1 0x40 DUP4 ADD MSTORE PUSH1 0x3 DUP4 ADD SLOAD AND PUSH1 0x60 DUP3 ADD MSTORE PUSH1 0x4 DUP3 ADD SLOAD SWAP1 PUSH1 0x80 DUP2 ADD SWAP2 DUP3 MSTORE PUSH1 0x5 DUP4 ADD SLOAD PUSH1 0xA0 DUP3 ADD MSTORE PUSH1 0x6 DUP4 ADD SLOAD PUSH1 0xC0 DUP3 ADD MSTORE PUSH1 0x7 DUP4 ADD SLOAD PUSH1 0xE0 DUP3 ADD MSTORE PUSH1 0x8 DUP4 ADD SLOAD PUSH2 0x100 DUP3 ADD MSTORE PUSH1 0x9 DUP4 ADD SLOAD SWAP1 PUSH2 0x120 DUP2 ADD SWAP2 DUP3 MSTORE PUSH1 0xA DUP5 ADD SLOAD PUSH2 0x140 DUP3 ADD MSTORE PUSH2 0x26AE PUSH2 0x180 PUSH1 0xFF PUSH1 0xC PUSH1 0xB DUP9 ADD SLOAD SWAP8 PUSH2 0x160 DUP7 ADD SWAP9 DUP10 MSTORE ADD SLOAD AND SWAP3 ADD SWAP2 DUP3 PUSH2 0x2449 JUMP JUMPDEST MLOAD PUSH1 0x4 DUP2 LT ISZERO PUSH2 0x627 JUMPI PUSH1 0x1 SUB PUSH2 0x26D3 JUMPI PUSH2 0x26CC SWAP2 MLOAD SWAP1 MLOAD SWAP1 PUSH2 0x2455 JUMP JUMPDEST SWAP1 MLOAD LT ISZERO SWAP1 JUMP JUMPDEST POP POP POP PUSH1 0x0 SWAP1 JUMP JUMPDEST PUSH9 0x3635C9ADC5DEA00000 DUP2 GT ISZERO PUSH2 0x2754 JUMPI PUSH10 0x10F0CF064DD59200000 DUP2 GT ISZERO PUSH2 0x274D JUMPI PUSH10 0x21E19E0C9BAB2400000 DUP2 GT ISZERO PUSH2 0x2746 JUMPI PUSH10 0x54B40B1F852BDA00000 DUP2 GT ISZERO PUSH2 0x273F JUMPI PUSH10 0xA968163F0A57B400000 LT ISZERO PUSH2 0x2739 JUMPI PUSH2 0x8CA SWAP1 JUMP JUMPDEST PUSH2 0x708 SWAP1 JUMP JUMPDEST POP PUSH2 0x5DC SWAP1 JUMP JUMPDEST POP PUSH2 0x4B0 SWAP1 JUMP JUMPDEST POP PUSH2 0x384 SWAP1 JUMP JUMPDEST POP PUSH2 0x258 SWAP1 JUMP JUMPDEST SWAP2 SWAP1 DUP1 ISZERO PUSH2 0x282A JUMPI PUSH1 0xC SWAP1 DIV SWAP1 PUSH8 0xDE0B6B3A7640000 SWAP2 DUP3 DUP2 MUL SWAP1 DUP1 DUP3 DIV DUP5 EQ SWAP1 ISZERO OR ISZERO PUSH2 0x116A JUMPI PUSH2 0x2710 SWAP1 DIV SWAP2 DUP3 DUP2 ADD SWAP3 DUP4 DUP3 GT PUSH2 0x116A JUMPI DUP3 SWAP4 DUP5 DUP4 SWAP6 DUP7 SWAP3 SWAP2 JUMPDEST PUSH2 0x27EA JUMPI POP POP PUSH2 0x27B0 PUSH2 0x27B5 SWAP3 DUP8 PUSH2 0x211C JUMP JUMPDEST PUSH2 0x211C JUMP JUMPDEST DIV SWAP1 PUSH8 0xDE0B6B3A763FFFF NOT DUP4 ADD SWAP3 DUP4 GT PUSH2 0x116A JUMPI DUP3 ISZERO PUSH2 0x27DE JUMPI POP PUSH2 0x27DB SWAP3 POP PUSH2 0x2462 JUMP JUMPDEST SWAP1 JUMP JUMPDEST SWAP2 POP POP PUSH2 0x27DB SWAP2 PUSH2 0x2462 JUMP JUMPDEST PUSH1 0x1 SWAP3 POP SWAP1 DUP3 DUP3 AND DUP4 EQ PUSH2 0x2810 JUMPI JUMPDEST PUSH2 0x2804 DUP2 DUP7 SWAP3 PUSH2 0x211C JUMP JUMPDEST DIV SWAP2 SHR SWAP1 DUP2 DUP7 SWAP3 PUSH2 0x279D JUMP JUMPDEST SWAP6 PUSH2 0x2804 DUP6 PUSH2 0x2820 DUP10 DUP3 SWAP5 PUSH2 0x211C JUMP JUMPDEST DIV SWAP8 SWAP2 POP POP PUSH2 0x27F9 JUMP JUMPDEST POP PUSH2 0x27DB SWAP2 PUSH2 0x2462 JUMP JUMPDEST PUSH1 0x0 MSTORE PUSH1 0x9 PUSH1 0x20 MSTORE PUSH2 0x27DB PUSH1 0x40 PUSH1 0x0 KECCAK256 PUSH1 0x40 MLOAD SWAP1 PUSH2 0x2851 DUP3 PUSH2 0x2169 JUMP JUMPDEST DUP1 SLOAD DUP3 MSTORE PUSH2 0x2861 PUSH1 0x1 DUP3 ADD PUSH2 0x21E0 JUMP JUMPDEST PUSH1 0x20 DUP4 ADD MSTORE PUSH1 0x1 DUP1 PUSH1 0xA0 SHL SUB DUP1 PUSH1 0x2 DUP4 ADD SLOAD AND PUSH1 0x40 DUP5 ADD MSTORE PUSH1 0x3 DUP3 ADD SLOAD AND PUSH1 0x60 DUP4 ADD MSTORE PUSH1 0x4 DUP2 ADD SLOAD PUSH1 0x80 DUP4 ADD SWAP1 DUP2 MSTORE PUSH2 0x28F4 PUSH1 0x5 DUP4 ADD SLOAD SWAP4 PUSH1 0xA0 DUP2 ADD SWAP5 DUP6 MSTORE PUSH2 0x180 PUSH1 0xFF PUSH1 0xC PUSH1 0x6 DUP8 ADD SLOAD SWAP7 PUSH1 0xC0 DUP6 ADD SWAP8 DUP9 MSTORE PUSH1 0x7 DUP2 ADD SLOAD PUSH1 0xE0 DUP7 ADD MSTORE PUSH1 0x8 DUP2 ADD SLOAD PUSH2 0x100 DUP7 ADD MSTORE PUSH1 0x9 DUP2 ADD SLOAD PUSH2 0x120 DUP7 ADD MSTORE PUSH1 0xA DUP2 ADD SLOAD PUSH2 0x140 DUP7 ADD MSTORE PUSH1 0xB DUP2 ADD SLOAD PUSH2 0x160 DUP7 ADD MSTORE ADD SLOAD AND SWAP2 ADD PUSH2 0x2449 JUMP JUMPDEST MLOAD SWAP2 MLOAD SWAP1 MLOAD SWAP2 PUSH2 0x275B JUMP JUMPDEST PUSH1 0x0 NOT DUP2 EQ PUSH2 0x116A JUMPI PUSH1 0x1 ADD SWAP1 JUMP JUMPDEST PUSH1 0xFF PUSH1 0x2 SLOAD AND PUSH2 0x291A JUMPI JUMP JUMPDEST PUSH1 0x40 MLOAD PUSH4 0xD93C0665 PUSH1 0xE0 SHL DUP2 MSTORE PUSH1 0x4 SWAP1 REVERT JUMPDEST PUSH1 0x2 PUSH1 0x1 SLOAD EQ PUSH2 0x293D JUMPI PUSH1 0x2 PUSH1 0x1 SSTORE JUMP JUMPDEST PUSH1 0x40 MLOAD PUSH4 0x3EE5AEB5 PUSH1 0xE0 SHL DUP2 MSTORE PUSH1 0x4 SWAP1 REVERT JUMPDEST PUSH1 0x40 MLOAD PUSH4 0xA9059CBB PUSH1 0xE0 SHL PUSH1 0x20 DUP3 ADD MSTORE PUSH1 0x1 PUSH1 0x1 PUSH1 0xA0 SHL SUB SWAP1 SWAP3 AND PUSH1 0x24 DUP4 ADD MSTORE PUSH1 0x44 DUP1 DUP4 ADD SWAP4 SWAP1 SWAP4 MSTORE SWAP2 DUP2 MSTORE PUSH1 0x80 DUP2 ADD SWAP2 PUSH8 0xFFFFFFFFFFFFFFFF DUP4 GT DUP3 DUP5 LT OR PUSH2 0x705 JUMPI PUSH2 0x2222 SWAP3 PUSH1 0x40 MSTORE PUSH2 0x2A0D JUMP JUMPDEST PUSH1 0x0 SLOAD PUSH1 0x1 PUSH1 0x1 PUSH1 0xA0 SHL SUB AND CALLER SUB PUSH2 0x29B3 JUMPI JUMP JUMPDEST PUSH1 0x40 MLOAD PUSH4 0x118CDAA7 PUSH1 0xE0 SHL DUP2 MSTORE CALLER PUSH1 0x4 DUP3 ADD MSTORE PUSH1 0x24 SWAP1 REVERT JUMPDEST PUSH1 0x40 MLOAD PUSH4 0x23B872DD PUSH1 0xE0 SHL PUSH1 0x20 DUP3 ADD MSTORE PUSH1 0x1 PUSH1 0x1 PUSH1 0xA0 SHL SUB SWAP3 DUP4 AND PUSH1 0x24 DUP3 ADD MSTORE SWAP3 SWAP1 SWAP2 AND PUSH1 0x44 DUP4 ADD MSTORE PUSH1 0x64 DUP1 DUP4 ADD SWAP4 SWAP1 SWAP4 MSTORE SWAP2 DUP2 MSTORE PUSH2 0x2222 SWAP2 PUSH2 0x2A0D DUP3 PUSH2 0x2186 JUMP JUMPDEST SWAP1 PUSH1 0x0 PUSH1 0x20 SWAP2 DUP3 DUP2 MLOAD SWAP2 ADD DUP3 DUP6 GAS CALL ISZERO PUSH2 0x2A69 JUMPI PUSH1 0x0 MLOAD RETURNDATASIZE PUSH2 0x2A60 JUMPI POP PUSH1 0x1 PUSH1 0x1 PUSH1 0xA0 SHL SUB DUP2 AND EXTCODESIZE ISZERO JUMPDEST PUSH2 0x2A3E JUMPI POP JUMP JUMPDEST PUSH1 0x40 MLOAD PUSH4 0x5274AFE7 PUSH1 0xE0 SHL DUP2 MSTORE PUSH1 0x1 PUSH1 0x1 PUSH1 0xA0 SHL SUB SWAP1 SWAP2 AND PUSH1 0x4 DUP3 ADD MSTORE PUSH1 0x24 SWAP1 REVERT JUMPDEST PUSH1 0x1 EQ ISZERO PUSH2 0x2A37 JUMP JUMPDEST PUSH1 0x40 MLOAD RETURNDATASIZE PUSH1 0x0 DUP3 RETURNDATACOPY RETURNDATASIZE SWAP1 REVERT INVALID LOG2 PUSH5 0x6970667358 0x22 SLT KECCAK256 0xD2 SHL 0xEE PUSH16 0x7612ED9B6E3EFC007B7D445485D506FA 0xD6 0xAE 0xEC PUSH19 0xFC73625032FD3CCB64736F6C63430008180033 "},"methodIdentifiers":{"BASIS_POINTS()":"e1f1c4a7","DURATION()":"1be05289","INSURANCE_RATE()":"82626d6b","MATCHING_FEE_RATE()":"1892cdba","MAX_LOAN_AMOUNT()":"ceba1794","MIN_LOAN_AMOUNT()":"96fa212f","ONE_USDT()":"803039d9","addToWhitelist(address)":"e43252d7","batchUpdateCreditScore(address[],uint256[],uint256[])":"64da064c","borrowerLoans(address,uint256)":"e3ed1902","calculateAvailableInterest(uint256)":"655540b5","calculateEMI(uint256,uint256,uint256)":"b4dc9405","calculateInitiationFee()":"bf0597e0","calculateInterestFromEMI(uint256,uint256)":"bd7ea413","calculateInterestRate(uint256)":"90d3b379","calculateLoanEMI(uint256)":"bba55c20","calculateMonthlyInterest(uint256)":"59b6bf05","canCreateLoan(address,uint256)":"481bea15","claimInterest(uint256)":"2eb375ea","companyWallets()":"727336ee","createLoan(string,uint256,uint256)":"f5afe0d3","fundLoan(uint256)":"846b909a","getAvailableWithdrawal(uint256)":"ba510a33","getBorrowerLoans(address)":"eee8b7ff","getFixedEMI(uint256)":"7ad78254","getLenderLoans(address)":"eeeb0c17","getLoan(uint256)":"504006ca","getLoanPaymentHistory(uint256)":"07ac9d5a","getStats()":"c59d4847","getUserCreditInfo(address)":"d112abeb","isFinalPayment(uint256)":"734c7d0b","isWhitelisted(address)":"3af32abf","lenderLoans(address,uint256)":"3cdb72f1","loanCounter()":"34d9289e","loanPaymentHistory(uint256,uint256)":"28e202b1","loans(uint256)":"e1ec3c68","makePayment(uint256)":"5114cb52","owner()":"8da5cb5b","pause()":"8456cb59","paused()":"5c975abb","removeFromWhitelist(address)":"8ab1d681","renounceOwnership()":"715018a6","totalLoans()":"cc952b57","totalVolume()":"5f81a57c","transferOwnership(address)":"f2fde38b","unpause()":"3f4ba83a","updateCompanyWallets(address,address,address)":"3f506dd6","updateCreditScore(address,uint256,uint256)":"52577bb5","usdtToken()":"a98ad46c","userActiveLoan(address)":"19a68bcf","userCreditLimit(address)":"2acd329e","userCreditScore(address)":"2371d650","whitelisted(address)":"d936547e"}}}}}