{"contracts/P2PLending.sol":{"P2PLending":{"abi":[{"inputs":[{"internalType":"address","name":"_usdtToken","type":"address"}],"stateMutability":"nonpayable","type":"constructor"},{"inputs":[],"name":"AlreadyPaid","type":"error"},{"inputs":[],"name":"EnforcedPause","type":"error"},{"inputs":[],"name":"ExceedsMaxAmount","type":"error"},{"inputs":[],"name":"ExpectedPause","type":"error"},{"inputs":[],"name":"HasActiveLoan","type":"error"},{"inputs":[],"name":"InsufficientBalance","type":"error"},{"inputs":[],"name":"InvalidAmount","type":"error"},{"inputs":[],"name":"InvalidDuration","type":"error"},{"inputs":[],"name":"InvalidInterestRate","type":"error"},{"inputs":[],"name":"InvalidWallet","type":"error"},{"inputs":[],"name":"LoanNotActive","type":"error"},{"inputs":[],"name":"LoanNotApproved","type":"error"},{"inputs":[],"name":"LoanNotFound","type":"error"},{"inputs":[],"name":"LoanNotPending","type":"error"},{"inputs":[],"name":"NoInterestToClaim","type":"error"},{"inputs":[],"name":"NotWhitelisted","type":"error"},{"inputs":[{"internalType":"address","name":"owner","type":"address"}],"name":"OwnableInvalidOwner","type":"error"},{"inputs":[{"internalType":"address","name":"account","type":"address"}],"name":"OwnableUnauthorizedAccount","type":"error"},{"inputs":[],"name":"PaymentNotDue","type":"error"},{"inputs":[],"name":"ReentrancyGuardReentrantCall","type":"error"},{"inputs":[{"internalType":"address","name":"token","type":"address"}],"name":"SafeERC20FailedOperation","type":"error"},{"inputs":[],"name":"UnauthorizedBorrower","type":"error"},{"anonymous":false,"inputs":[{"indexed":true,"internalType":"address","name":"user","type":"address"}],"name":"AddressRemoved","type":"event"},{"anonymous":false,"inputs":[{"indexed":true,"internalType":"address","name":"user","type":"address"}],"name":"AddressWhitelisted","type":"event"},{"anonymous":false,"inputs":[{"indexed":true,"internalType":"address","name":"feeWallet","type":"address"},{"indexed":true,"internalType":"address","name":"insuranceWallet","type":"address"},{"indexed":true,"internalType":"address","name":"matchingWallet","type":"address"}],"name":"CompanyWalletsUpdated","type":"event"},{"anonymous":false,"inputs":[{"indexed":true,"internalType":"uint256","name":"loanId","type":"uint256"},{"indexed":false,"internalType":"string","name":"feeType","type":"string"},{"indexed":false,"internalType":"uint256","name":"amount","type":"uint256"},{"indexed":true,"internalType":"address","name":"recipient","type":"address"},{"indexed":false,"internalType":"uint256","name":"timestamp","type":"uint256"}],"name":"FeeCollected","type":"event"},{"anonymous":false,"inputs":[{"indexed":true,"internalType":"uint256","name":"loanId","type":"uint256"},{"indexed":true,"internalType":"address","name":"lender","type":"address"},{"indexed":false,"internalType":"uint256","name":"interestAmount","type":"uint256"},{"indexed":false,"internalType":"uint256","name":"timestamp","type":"uint256"}],"name":"InterestClaimed","type":"event"},{"anonymous":false,"inputs":[{"indexed":true,"internalType":"uint256","name":"loanId","type":"uint256"},{"indexed":false,"internalType":"uint256","name":"lateFeeAmount","type":"uint256"},{"indexed":false,"internalType":"uint256","name":"missedPayments","type":"uint256"},{"indexed":false,"internalType":"uint256","name":"totalDebt","type":"uint256"}],"name":"LateFeeApplied","type":"event"},{"anonymous":false,"inputs":[{"indexed":true,"internalType":"uint256","name":"loanId","type":"uint256"},{"indexed":false,"internalType":"string","name":"loanIdString","type":"string"},{"indexed":true,"internalType":"address","name":"borrower","type":"address"},{"indexed":false,"internalType":"uint256","name":"maxApprovedAmount","type":"uint256"},{"indexed":false,"internalType":"uint256","name":"duration","type":"uint256"}],"name":"LoanApproved","type":"event"},{"anonymous":false,"inputs":[{"indexed":true,"internalType":"uint256","name":"loanId","type":"uint256"},{"indexed":false,"internalType":"uint256","name":"totalPaid","type":"uint256"}],"name":"LoanCompleted","type":"event"},{"anonymous":false,"inputs":[{"indexed":true,"internalType":"uint256","name":"loanId","type":"uint256"},{"indexed":false,"internalType":"string","name":"loanIdString","type":"string"},{"indexed":true,"internalType":"address","name":"borrower","type":"address"},{"indexed":false,"internalType":"uint256","name":"confirmedAmount","type":"uint256"},{"indexed":false,"internalType":"uint256","name":"interestRate","type":"uint256"},{"indexed":false,"internalType":"uint256","name":"fixedEMI","type":"uint256"}],"name":"LoanConfirmed","type":"event"},{"anonymous":false,"inputs":[{"indexed":true,"internalType":"uint256","name":"loanId","type":"uint256"},{"indexed":true,"internalType":"address","name":"lender","type":"address"},{"indexed":false,"internalType":"uint256","name":"amount","type":"uint256"},{"indexed":false,"internalType":"uint256","name":"insuranceAmount","type":"uint256"},{"indexed":false,"internalType":"uint256","name":"matchingFee","type":"uint256"},{"indexed":false,"internalType":"uint256","name":"disbursedAmount","type":"uint256"},{"indexed":false,"internalType":"uint256","name":"nextPaymentDue","type":"uint256"}],"name":"LoanFunded","type":"event"},{"anonymous":false,"inputs":[{"indexed":true,"internalType":"uint256","name":"loanId","type":"uint256"},{"indexed":false,"internalType":"string","name":"loanIdString","type":"string"},{"indexed":true,"internalType":"address","name":"borrower","type":"address"},{"indexed":false,"internalType":"uint256","name":"feePaid","type":"uint256"},{"indexed":false,"internalType":"uint256","name":"timestamp","type":"uint256"}],"name":"LoanRequested","type":"event"},{"anonymous":false,"inputs":[{"indexed":true,"internalType":"address","name":"previousOwner","type":"address"},{"indexed":true,"internalType":"address","name":"newOwner","type":"address"}],"name":"OwnershipTransferred","type":"event"},{"anonymous":false,"inputs":[{"indexed":false,"internalType":"address","name":"account","type":"address"}],"name":"Paused","type":"event"},{"anonymous":false,"inputs":[{"indexed":true,"internalType":"uint256","name":"loanId","type":"uint256"},{"indexed":true,"internalType":"address","name":"payer","type":"address"},{"indexed":false,"internalType":"uint256","name":"totalAmount","type":"uint256"},{"indexed":false,"internalType":"uint256","name":"lateFee","type":"uint256"},{"indexed":false,"internalType":"bool","name":"isCompleted","type":"bool"}],"name":"PaymentMade","type":"event"},{"anonymous":false,"inputs":[{"indexed":false,"internalType":"address","name":"account","type":"address"}],"name":"Unpaused","type":"event"},{"inputs":[],"name":"BASIS_POINTS","outputs":[{"internalType":"uint256","name":"","type":"uint256"}],"stateMutability":"view","type":"function"},{"inputs":[],"name":"DURATION","outputs":[{"internalType":"uint256","name":"","type":"uint256"}],"stateMutability":"view","type":"function"},{"inputs":[],"name":"DURATION_PAYMENT","outputs":[{"internalType":"uint256","name":"","type":"uint256"}],"stateMutability":"view","type":"function"},{"inputs":[],"name":"HOURS_PER_YEAR","outputs":[{"internalType":"uint256","name":"","type":"uint256"}],"stateMutability":"view","type":"function"},{"inputs":[],"name":"INSURANCE_RATE","outputs":[{"internalType":"uint256","name":"","type":"uint256"}],"stateMutability":"view","type":"function"},{"inputs":[],"name":"LATE_PENALTY_RATE","outputs":[{"internalType":"uint256","name":"","type":"uint256"}],"stateMutability":"view","type":"function"},{"inputs":[],"name":"MATCHING_FEE_RATE","outputs":[{"internalType":"uint256","name":"","type":"uint256"}],"stateMutability":"view","type":"function"},{"inputs":[],"name":"MAX_LOAN_AMOUNT","outputs":[{"internalType":"uint256","name":"","type":"uint256"}],"stateMutability":"view","type":"function"},{"inputs":[],"name":"MIN_LOAN_AMOUNT","outputs":[{"internalType":"uint256","name":"","type":"uint256"}],"stateMutability":"view","type":"function"},{"inputs":[],"name":"ONE_USDT","outputs":[{"internalType":"uint256","name":"","type":"uint256"}],"stateMutability":"view","type":"function"},{"inputs":[],"name":"OVERDUE_INTEREST_MULTIPLIER","outputs":[{"internalType":"uint256","name":"","type":"uint256"}],"stateMutability":"view","type":"function"},{"inputs":[{"internalType":"address","name":"user","type":"address"}],"name":"addToWhitelist","outputs":[],"stateMutability":"nonpayable","type":"function"},{"inputs":[{"internalType":"uint256","name":"loanId","type":"uint256"},{"internalType":"uint256","name":"maxAmount","type":"uint256"},{"internalType":"uint256","name":"duration","type":"uint256"}],"name":"approveLoanRequest","outputs":[],"stateMutability":"nonpayable","type":"function"},{"inputs":[{"internalType":"address","name":"","type":"address"},{"internalType":"uint256","name":"","type":"uint256"}],"name":"borrowerLoans","outputs":[{"internalType":"uint256","name":"","type":"uint256"}],"stateMutability":"view","type":"function"},{"inputs":[{"internalType":"uint256","name":"loanId","type":"uint256"}],"name":"calculateAvailableInterest","outputs":[{"internalType":"uint256","name":"","type":"uint256"}],"stateMutability":"view","type":"function"},{"inputs":[{"internalType":"uint256","name":"principal","type":"uint256"},{"internalType":"uint256","name":"annualRate","type":"uint256"},{"internalType":"uint256","name":"monthsInLoan","type":"uint256"}],"name":"calculateEMI","outputs":[{"internalType":"uint256","name":"","type":"uint256"}],"stateMutability":"pure","type":"function"},{"inputs":[],"name":"calculateInitiationFee","outputs":[{"internalType":"uint256","name":"","type":"uint256"}],"stateMutability":"pure","type":"function"},{"inputs":[{"internalType":"uint256","name":"loanId","type":"uint256"},{"internalType":"uint256","name":"paymentAmount","type":"uint256"}],"name":"calculateInterestFromEMI","outputs":[{"internalType":"uint256","name":"","type":"uint256"}],"stateMutability":"view","type":"function"},{"inputs":[{"internalType":"uint256","name":"amount","type":"uint256"}],"name":"calculateInterestRate","outputs":[{"internalType":"uint256","name":"","type":"uint256"}],"stateMutability":"pure","type":"function"},{"inputs":[{"internalType":"uint256","name":"loanId","type":"uint256"}],"name":"calculateLoanEMI","outputs":[{"internalType":"uint256","name":"","type":"uint256"}],"stateMutability":"view","type":"function"},{"inputs":[{"internalType":"uint256","name":"loanId","type":"uint256"},{"internalType":"uint256","name":"maxAmount","type":"uint256"}],"name":"canApproveLoan","outputs":[{"internalType":"bool","name":"canApprove","type":"bool"},{"internalType":"string","name":"reason","type":"string"}],"stateMutability":"view","type":"function"},{"inputs":[{"internalType":"uint256","name":"loanId","type":"uint256"},{"internalType":"uint256","name":"desiredAmount","type":"uint256"}],"name":"canConfirmLoan","outputs":[{"internalType":"bool","name":"canConfirm","type":"bool"},{"internalType":"string","name":"reason","type":"string"}],"stateMutability":"view","type":"function"},{"inputs":[{"internalType":"address","name":"user","type":"address"}],"name":"canRequestLoan","outputs":[{"internalType":"bool","name":"canRequest","type":"bool"},{"internalType":"string","name":"reason","type":"string"}],"stateMutability":"view","type":"function"},{"inputs":[{"internalType":"uint256","name":"loanId","type":"uint256"}],"name":"claimInterest","outputs":[],"stateMutability":"nonpayable","type":"function"},{"inputs":[],"name":"companyWallets","outputs":[{"internalType":"address","name":"feeWallet","type":"address"},{"internalType":"address","name":"insuranceWallet","type":"address"},{"internalType":"address","name":"matchingWallet","type":"address"}],"stateMutability":"view","type":"function"},{"inputs":[{"internalType":"uint256","name":"loanId","type":"uint256"},{"internalType":"uint256","name":"desiredAmount","type":"uint256"}],"name":"confirmLoan","outputs":[],"stateMutability":"nonpayable","type":"function"},{"inputs":[{"internalType":"uint256","name":"loanId","type":"uint256"}],"name":"fundLoan","outputs":[],"stateMutability":"nonpayable","type":"function"},{"inputs":[{"internalType":"uint256","name":"loanId","type":"uint256"}],"name":"getAvailableWithdrawal","outputs":[{"internalType":"uint256","name":"","type":"uint256"}],"stateMutability":"view","type":"function"},{"inputs":[{"internalType":"address","name":"borrower","type":"address"}],"name":"getBorrowerLoans","outputs":[{"internalType":"uint256[]","name":"","type":"uint256[]"}],"stateMutability":"view","type":"function"},{"inputs":[{"internalType":"uint256","name":"loanId","type":"uint256"}],"name":"getFixedEMI","outputs":[{"internalType":"uint256","name":"","type":"uint256"}],"stateMutability":"view","type":"function"},{"inputs":[{"internalType":"uint256","name":"loanId","type":"uint256"}],"name":"getLateFeeInfo","outputs":[{"internalType":"uint256","name":"lateFeeAccumulated","type":"uint256"},{"internalType":"uint256","name":"missedPayments","type":"uint256"},{"internalType":"uint256","name":"periodsLate","type":"uint256"},{"internalType":"uint256","name":"estimatedLateFee","type":"uint256"}],"stateMutability":"view","type":"function"},{"inputs":[{"internalType":"address","name":"lender","type":"address"}],"name":"getLenderLoans","outputs":[{"internalType":"uint256[]","name":"","type":"uint256[]"}],"stateMutability":"view","type":"function"},{"inputs":[{"internalType":"uint256","name":"loanId","type":"uint256"}],"name":"getLoan","outputs":[{"components":[{"internalType":"address","name":"borrower","type":"address"},{"internalType":"address","name":"lender","type":"address"},{"internalType":"uint256","name":"amount","type":"uint256"},{"internalType":"uint256","name":"interestRate","type":"uint256"},{"internalType":"uint256","name":"nextPaymentDue","type":"uint256"},{"internalType":"uint256","name":"totalPaid","type":"uint256"},{"internalType":"uint256","name":"fixedEMI","type":"uint256"},{"internalType":"uint256","name":"lateFeeAccumulated","type":"uint256"},{"internalType":"uint256","name":"missedPayments","type":"uint256"},{"internalType":"enum P2PLending.LoanStatus","name":"status","type":"uint8"}],"internalType":"struct P2PLending.LoanView","name":"","type":"tuple"}],"stateMutability":"view","type":"function"},{"inputs":[{"internalType":"uint256","name":"loanId","type":"uint256"}],"name":"getLoanDetails","outputs":[{"internalType":"uint256","name":"duration","type":"uint256"},{"internalType":"uint256","name":"missedPayments","type":"uint256"},{"internalType":"uint256","name":"availableForWithdrawal","type":"uint256"},{"internalType":"string","name":"loanIdString","type":"string"},{"internalType":"uint256","name":"maxApprovedAmount","type":"uint256"}],"stateMutability":"view","type":"function"},{"inputs":[{"internalType":"uint256","name":"loanId","type":"uint256"}],"name":"getLoanPaymentHistory","outputs":[{"internalType":"uint256[]","name":"","type":"uint256[]"}],"stateMutability":"view","type":"function"},{"inputs":[],"name":"getStats","outputs":[{"internalType":"uint256","name":"_totalLoans","type":"uint256"},{"internalType":"uint256","name":"_totalVolume","type":"uint256"},{"internalType":"uint256","name":"_activeLoans","type":"uint256"}],"stateMutability":"view","type":"function"},{"inputs":[{"internalType":"address","name":"user","type":"address"}],"name":"getUserActiveLoan","outputs":[{"internalType":"uint256","name":"activeLoanId","type":"uint256"},{"internalType":"bool","name":"hasActiveLoan","type":"bool"},{"internalType":"enum P2PLending.LoanStatus","name":"loanStatus","type":"uint8"}],"stateMutability":"view","type":"function"},{"inputs":[{"internalType":"uint256","name":"loanId","type":"uint256"}],"name":"isFinalPayment","outputs":[{"internalType":"bool","name":"","type":"bool"}],"stateMutability":"view","type":"function"},{"inputs":[{"internalType":"address","name":"user","type":"address"}],"name":"isWhitelisted","outputs":[{"internalType":"bool","name":"","type":"bool"}],"stateMutability":"view","type":"function"},{"inputs":[{"internalType":"address","name":"","type":"address"},{"internalType":"uint256","name":"","type":"uint256"}],"name":"lenderLoans","outputs":[{"internalType":"uint256","name":"","type":"uint256"}],"stateMutability":"view","type":"function"},{"inputs":[],"name":"loanCounter","outputs":[{"internalType":"uint256","name":"","type":"uint256"}],"stateMutability":"view","type":"function"},{"inputs":[{"internalType":"uint256","name":"","type":"uint256"}],"name":"loanExtended","outputs":[{"internalType":"uint256","name":"id","type":"uint256"},{"internalType":"string","name":"loanId","type":"string"},{"internalType":"uint256","name":"maxApprovedAmount","type":"uint256"},{"internalType":"uint256","name":"fixedEMI","type":"uint256"}],"stateMutability":"view","type":"function"},{"inputs":[{"internalType":"uint256","name":"","type":"uint256"},{"internalType":"uint256","name":"","type":"uint256"}],"name":"loanPaymentHistory","outputs":[{"internalType":"uint256","name":"","type":"uint256"}],"stateMutability":"view","type":"function"},{"inputs":[{"internalType":"uint256","name":"","type":"uint256"}],"name":"loans","outputs":[{"internalType":"address","name":"borrower","type":"address"},{"internalType":"address","name":"lender","type":"address"},{"internalType":"uint256","name":"amount","type":"uint256"},{"internalType":"uint256","name":"interestRate","type":"uint256"},{"internalType":"uint256","name":"nextPaymentDue","type":"uint256"},{"internalType":"uint256","name":"totalPaid","type":"uint256"},{"internalType":"uint256","name":"availableForWithdrawal","type":"uint256"},{"internalType":"uint256","name":"lateFeeAccumulated","type":"uint256"},{"internalType":"uint16","name":"duration","type":"uint16"},{"internalType":"uint16","name":"missedPayments","type":"uint16"},{"internalType":"enum P2PLending.LoanStatus","name":"status","type":"uint8"}],"stateMutability":"view","type":"function"},{"inputs":[{"internalType":"uint256","name":"loanId","type":"uint256"}],"name":"makePayment","outputs":[],"stateMutability":"nonpayable","type":"function"},{"inputs":[],"name":"owner","outputs":[{"internalType":"address","name":"","type":"address"}],"stateMutability":"view","type":"function"},{"inputs":[],"name":"pause","outputs":[],"stateMutability":"nonpayable","type":"function"},{"inputs":[],"name":"paused","outputs":[{"internalType":"bool","name":"","type":"bool"}],"stateMutability":"view","type":"function"},{"inputs":[{"internalType":"address","name":"user","type":"address"}],"name":"removeFromWhitelist","outputs":[],"stateMutability":"nonpayable","type":"function"},{"inputs":[],"name":"renounceOwnership","outputs":[],"stateMutability":"nonpayable","type":"function"},{"inputs":[{"internalType":"string","name":"loanIdString","type":"string"}],"name":"requestLoan","outputs":[{"internalType":"uint256","name":"","type":"uint256"}],"stateMutability":"nonpayable","type":"function"},{"inputs":[],"name":"totalLoans","outputs":[{"internalType":"uint256","name":"","type":"uint256"}],"stateMutability":"view","type":"function"},{"inputs":[],"name":"totalVolume","outputs":[{"internalType":"uint256","name":"","type":"uint256"}],"stateMutability":"view","type":"function"},{"inputs":[{"internalType":"address","name":"newOwner","type":"address"}],"name":"transferOwnership","outputs":[],"stateMutability":"nonpayable","type":"function"},{"inputs":[],"name":"unpause","outputs":[],"stateMutability":"nonpayable","type":"function"},{"inputs":[{"internalType":"address","name":"_feeWallet","type":"address"},{"internalType":"address","name":"_insuranceWallet","type":"address"},{"internalType":"address","name":"_matchingWallet","type":"address"}],"name":"updateCompanyWallets","outputs":[],"stateMutability":"nonpayable","type":"function"},{"inputs":[],"name":"usdtToken","outputs":[{"internalType":"contract IERC20","name":"","type":"address"}],"stateMutability":"view","type":"function"},{"inputs":[{"internalType":"address","name":"","type":"address"}],"name":"userActiveLoan","outputs":[{"internalType":"uint256","name":"","type":"uint256"}],"stateMutability":"view","type":"function"},{"inputs":[{"internalType":"address","name":"","type":"address"}],"name":"whitelisted","outputs":[{"internalType":"bool","name":"","type":"bool"}],"stateMutability":"view","type":"function"}],"evm":{"bytecode":{"linkReferences":{},"object":"60a0346200013b57601f6200315238819003918201601f19168301916001600160401b0383118484101762000140578084926020946040528339810103126200013b57516001600160a01b03808216918290036200013b57331562000122576000543360018060a01b0319821617600055604051913391167f8be0079c531659141344cd1fd0a4f28419497f9722a3daafe3b4186f6b6457e0600080a3600180558115620000e05750608052604051612ffb9081620001578239608051818181610c2801528181610f80015281816112500152818161183d0152611fcc0152f35b62461bcd60e51b815260206004820152601a60248201527f496e76616c6964205553445420746f6b656e20616464726573730000000000006044820152606490fd5b604051631e4fbdf760e01b815260006004820152602490fd5b600080fd5b634e487b7160e01b600052604160045260246000fdfe608080604052600436101561001357600080fd5b60003560e01c90816307ac9d5a146121a2575080631892cdba1461218657806319a68bcf1461214c5780631b9addbc146121475780631be052891461214757806320becc811461207757806328e202b1146120465780632eb375ea14611f3957806334d9289e14611f1b5780633af32abf146107d35780633cdb72f114611ed15780633f4ba83a14611e675780633f506dd614611ccc5780634196eb1a14611cb05780634f99cfad14611c99578063504006ca14611b165780635114cb521461174b5780635c975abb146117285780635f562e8c146117075780635f81a57c146116e9578063655540b514610bdb57806366877b8d14611657578063715018a6146115fe578063727336ee146115c1578063734c7d0b146115995780637ad7825414610a32578063803039d91461157657806382626d6b1461155a578063837bab7f146111505780638456cb59146110f6578063846b909a14610ece5780638ab1d68114610e685780638da5cb5b14610e3f57806390d3b37914610e2157806394b2251614610cef57806396fa212f14610ccb578063a6c3b39e14610c57578063a98ad46c14610c12578063b4dc940514610bf9578063ba510a3314610bdb578063ba53055314610a37578063bba55c2014610a32578063bd7ea41314610949578063bf0597e014610926578063c58f722914610909578063c59d48471461087c578063cc952b571461085e578063ceba179414610839578063d317a8e514610812578063d936547e146107d3578063e1ec3c681461071e578063e1f1c4a714610701578063e3ed1902146106a9578063e43252d714610602578063e95e7d5914610459578063e9effdec1461043c578063eee8b7ff146103c1578063eeeb0c17146103365763f2fde38b146102a857600080fd5b34610331576020366003190112610331576102c1612248565b6102c9612cdf565b6001600160a01b0390811690811561031857600054826001600160601b0360a01b821617600055167f8be0079c531659141344cd1fd0a4f28419497f9722a3daafe3b4186f6b6457e0600080a3005b604051631e4fbdf760e01b815260006004820152602490fd5b600080fd5b3461033157602080600319360112610331576001600160a01b03610358612248565b16600052600d6020526040600020906040519081602084549182815201936000526020600020916000905b8282106103aa576103a68561039a818903826123c9565b6040519182918261220c565b0390f35b835486529485019460019384019390910190610383565b3461033157602080600319360112610331576001600160a01b036103e3612248565b16600052600c6020526040600020906040519081602084549182815201936000526020600020916000905b828210610425576103a68561039a818903826123c9565b83548652948501946001938401939091019061040e565b346103315760003660031901126103315760206040516101f48152f35b346103315761046736612288565b90610470612c4c565b610478612c6a565b80600052602091600a835260406000209060038452604060002054156105f0576008820190815460ff81871c1660068110156105da576001036105c95783546001600160a01b031633036105b75768056bc75e2d6310000082106105a5578460005260038652600260406000200154821161059357610534848360027f1b6ee6646e9c02a0c3c5a1dd3df315923b2c8be89110a9bafb6be35d5cbf4cc697015561ffff6003610526866129f7565b920193828555169084612a77565b9085600052600387526040600020936003850192835564020000000064ff00000000198254161790555490549161057960405194608086526001608087019101612452565b96840152604083015260608201528033940390a360018055005b604051630475e88f60e51b8152600490fd5b60405163162908e360e11b8152600490fd5b60405163014776c360e71b8152600490fd5b6040516225836760e31b8152600490fd5b634e487b7160e01b600052602160045260246000fd5b604051630e7e621d60e01b8152600490fd5b346103315760203660031901126103315761061b612248565b610623612cdf565b6001600160a01b031680156106725780600052600b6020526040600020600160ff198254161790557f4f783c179409b4127238bc9c990bc99b9a651666a0d20b51d6c42849eb88466d600080a2005b60405162461bcd60e51b815260206004820152600f60248201526e496e76616c6964206164647265737360881b6044820152606490fd5b34610331576040366003190112610331576106c2612248565b6001600160a01b03166000908152600c6020526040902080546024359190821015610331576020916106f39161229e565b90546040519160031b1c8152f35b346103315760003660031901126103315760206040516127108152f35b3461033157602036600319011261033157600435600052600a60205261016060406000206107d160018060a01b0391828154169260018201541660028201549160038101546004820154600583015490600684015492600860078601549501549661ffff966040519a8b5260208b015260408a01526060890152608088015260a087015260c086015260e08501528082166101008501528160101c1661012084015260ff61014084019160201c1661227b565bf35b34610331576020366003190112610331576001600160a01b036107f4612248565b16600052600b602052602060ff604060002054166040519015158152f35b346103315761082961082336612288565b90612b4d565b906103a66040519283928361230c565b3461033157600036600319011261033157602060405169152d02c7e14af68000008152f35b34610331576000366003190112610331576020600854604051908152f35b3461033157600036600319011261033157600880546009546000906001600754905b818111156108be5750506060935060405192835260208301526040820152f35b8060005260ff6020600a81528760406000200154901c1660068110156105da576003146108f4575b6108ef90612981565b61089e565b926109016108ef91612981565b9390506108e6565b346103315760003660031901126103315760206040516122388152f35b34610331576000366003190112610331576020604051674563918244f400008152f35b3461033157602061095936612288565b90600052600a8252612710610a186040600020600c610a0f6040519261097e84612374565b60018060a01b0380825416855260018201541688850152600281015460408501908152610a06600383015495606081019687526004840154608082015261014060ff600860058701549660a08501978852600681015460c0860152600781015460e0860152015461ffff8082166101008601528160101c166101208501528d1c169101612662565b5190519061266e565b91510490612405565b0481811115610a2b57505b604051908152f35b9050610a23565b612328565b3461033157602080600319360112610331576004359081600052600a8152604060002090604051610a6781612374565b60018060a01b0380845416825260018401541682820152600283015460408201526003830154906060810191825260048401549060808101918252600585015460a0820152600685015460c0820152600860078601549560e08301968752015494610af561ffff9283881661010082015261014060ff610120830199868160101c168b52891c169101612662565b519451169051804211600014610bcb57610b12610e10914261266e565b04916000958215610b99575b60005260038452610b4086610b3b876003604060002001546129ea565b6129ea565b9051958660011b9680880460021490151715610b8357610b6684608098610b6c94612f20565b906129ea565b925b60405194855284015260408301526060820152f35b634e487b7160e01b600052601160045260246000fd5b809650600052600384526003604060002001546101f490818102918183041490151715610b8357612710900495610b1e565b5060809450600092839250610b6e565b34610331576020366003190112610331576020610a23600435612801565b34610331576020610a23610c0c366123eb565b91612a77565b34610331576000366003190112610331576040517f00000000000000000000000000000000000000000000000000000000000000006001600160a01b03168152602090f35b346103315760203660031901126103315760043560005260036020526040600020805460405191610c9683610c8f8160018501612452565b03846123c9565b60036002820154910154610cbc60405194859485526080602086015260808501906122cc565b91604084015260608301520390f35b3461033157600036600319011261033157602060405168056bc75e2d631000008152f35b3461033157610cfd366123eb565b9190610d07612cdf565b610d0f612c4c565b81600052600a60205260406000206003602052604060002054156105f0576008810160ff815460201c1660068110156105da576105a55768056bc75e2d6310000083108015610e0e575b6105a557600185108015610e04575b610df2577f10741b45b4084f3cc3d8e953b55c7951c689da296bb0ee8bf1f2a7f8b2e7d3ad92610de29285600052600360205260406000209282600285015564010000000061ffff891664ff0000ffff198354161717905560018060a01b0390541695604051938493606085526001606086019101612452565b91602084015260408301520390a3005b604051637616640160e01b8152600490fd5b5060248511610d68565b5069152d02c7e14af68000008311610d59565b34610331576020366003190112610331576020610a236004356129f7565b34610331576000366003190112610331576000546040516001600160a01b039091168152602090f35b3461033157602036600319011261033157610e81612248565b610e89612cdf565b6001600160a01b03166000818152600b60205260408120805460ff191690557f24a12366c02e13fe4a9e03d86a8952e85bb74a456c16e4a18b6d8295700b74bb9080a2005b346103315760208060031936011261033157600435610eeb612c4c565b610ef3612c6a565b33600052600b825260ff60406000205416156110e45780600052600a825260406000209160038152604060002054156105f057600883019260ff8454831c1660068110156105da576002036110d2576001810180546001600160a01b03959086166110c0576002830191825496600a8802888104600a1489151715610b8357612710610fcc910498610fa87f000000000000000000000000000000000000000000000000000000000000000091303384612ed9565b610fb78a846006541683612c8d565b82875416610fc68b885461266e565b91612c8d565b6006541686600080516020612fa683398151915260a06040516060815260086060820152676d61746368696e6760c01b60808201528b8a820152426040820152a3336001600160601b0360a01b825416179055610e10420192834211610b835760040192835564030000000064ff000000001982541617905533600052600d835261105b846040600020612990565b61106881546009546129ea565b60095554936000611079828761266e565b9254936040519687528601526040850152606084015260808301527f89b4c8d26a27040061693676eaf8700bcb68e16b808571f7969c464ccfd6ce7060a03393a360018055005b604051630d70a0e360e41b8152600490fd5b604051630151630960e31b8152600490fd5b604051630b094f2760e31b8152600490fd5b346103315760003660031901126103315761110f612cdf565b611117612c4c565b600160ff1960025416176002557f62e78cea01bee320cd4e420270b5ea74000d11b0c9f74754ebdbfc544b05a2586020604051338152a1005b34610331576020806003193601126103315767ffffffffffffffff600435818111610331573660238201121561033157806004013590602483831161149657601f1992604051926111a88786601f85011601856123c9565b8184523683838301011161033157816000928489930183870137840101526111ce612c4c565b6111d6612c6a565b33600052600b855260ff60406000205416156110e45733600052600f8552604060002054806114aa575b506004546040516323b872dd60e01b8782015233838201526001600160a01b039182166044820152671bc16d674ec800006064808301829052825260a0969290916112749061124e81612391565b7f0000000000000000000000000000000000000000000000000000000000000000612f3d565b600080516020612fa683398151915261128e600754612981565b9788928360075560045416936040519060608252600a60608301526934b734ba34b0ba34b7b760b11b60808301528b820152426040820152a36000858152600a8752604080822080546001600160a01b03191633178155600801805464ff0000000019169055600388529020858155835160019591860193909283116114965750819061131b8454612418565b601f8111611443575b508790601f83116001146113e757506000916113dc575b50600019600383901b1c191690841b1790555b33600052600c8452611364836040600020612990565b61136f600854612981565b60085533600052600f845282604060002055827f29d766e674b929bf0c72d668df80a4e09755286ee975f285dbeb8e8ca17082676113b8604051936060855260608501906122cc565b92674563918244f40000878201524260408201528033940390a38055604051908152f35b90508301518761133b565b8693169084600052886000209160005b8a82821061142d5750508311611414575b5050811b01905561134e565b85015160001960f88460031b161c191690558780611408565b83890151855589969094019392830192016113f7565b9091508360005287600020601f840160051c81019189851061148c575b84939291601f89920160051c01915b82811061147d575050611324565b6000815585945088910161146f565b9091508190611460565b634e487b7160e01b60009081526041600452fd5b600052600a855260ff600860406000200154861c166006811015908161153757801591821561154c575b8215611526575b8215611500575b50506114ee5785611200565b6040516313f177c160e21b8152600490fd5b9091506115115760021486806114e2565b50634e487b7160e01b60009081526021600452fd5b8092506115375760038114916114db565b82634e487b7160e01b60005260216004526000fd5b5060018114915060006114d4565b3461033157600036600319011261033157602060405160c88152f35b34610331576000366003190112610331576020604051670de0b6b3a76400008152f35b346103315760203660031901126103315760206115b76004356128a3565b6040519015158152f35b3461033157600036600319011261033157606060018060a01b03806004541690806005541690600654169060405192835260208301526040820152f35b3461033157600036600319011261033157611617612cdf565b600080546001600160a01b0319811682556001600160a01b03167f8be0079c531659141344cd1fd0a4f28419497f9722a3daafe3b4186f6b6457e08280a3005b3461033157602036600319011261033157600435600052600a6020526040600020600360205260406000206008820154906116df6001600661ffff9501546116b56002850154946116ae6040518095819301612452565b03836123c9565b604051958581889716875260101c166020860152604085015260a0606085015260a08401906122cc565b9060808301520390f35b34610331576000366003190112610331576020600954604051908152f35b3461033157602036600319011261033157610829611723612248565b61267b565b3461033157600036600319011261033157602060ff600254166040519015158152f35b3461033157602036600319011261033157611764612c4c565b61176c612c6a565b600435600052600a60205260406000206003602052604060002054156105f05760ff600882015460201c1660068110156105da57600303611b045780546001600160a01b031633036110e4576004810154804210611ada575b506117d9600282015460058301549061266e565b9060043560005260036020526003604060002001548211156117fd60043583612d0b565b9061180c828260043586612e94565b9360c885029085820460c81486151715610b8357816118fd612710926118378461190996048a61266e565b506118807f00000000000000000000000000000000000000000000000000000000000000006118688b303384612ed9565b600554868604916001600160a01b0390911690612c8d565b60018060a01b0360055416604051606081526009606082015268696e737572616e636560b81b60808201528585046020820152426040820152600080516020612fa683398151915260a060043592a386611a92575b600435600052600360205260036040600020015486600014611a8b57505b60058801546129ea565b6005870155048561266e565b611918600685019182546129ea565b905560048301548042119081600014611a8557611935904261266e565b505b801590611a7e575b611a63575b600435600052600e60205261195d846040600020612990565b15611a0b579160059264040000000064ff000000001960088501541617600884015560018060a01b03835416600052600f6020526000604081205560405191825260208201526001604082015233907f773866d0ff2706360a89fd0e6b90537f96b2878eab4a30bbce99629b5022892c606060043592a301546040519081527f03d7f456a773b484d2552719bd744b62049588737d6a02948eba3dcae1b0d77f602060043592a25b60018055005b90600481015490610e108201809211610b83576004015560405191825260208201526000604082015233907f773866d0ff2706360a89fd0e6b90537f96b2878eab4a30bbce99629b5022892c606060043592a3611a05565b6000600784015560088301805463ffff000019169055611944565b508061193f565b50611937565b90506118f3565b6040516060815260086060820152676c6174655f66656560c01b60808201528760208201524260408201523090600080516020612fa683398151915260a060043592a36118d5565b611ae8610e1091429061266e565b11611af357816117c5565b60405162a71fbb60e01b8152600490fd5b604051630417bc2360e11b8152600490fd5b34610331576020366003190112610331576000610120604051611b3881612357565b8281528260208201528260408201528260608201528260808201528260a08201528260c08201528260e0820152826101008201520152600435600052600a6020526101406040600020611c1c60ff60018060a01b038354169260018060a01b036001820154169060028101546003820154600483015460058401549160036020526003604060002001549360086007870154960154966040519a611bdb8c612357565b8b5260208b015260408a01526060890152608088015260a087015260c086015260e085015261ffff8160101c1661010085015260201c166101208301612662565b6107d16101206040519260018060a01b03815116845260018060a01b03602082015116602085015260408101516040850152606081015160608501526080810151608085015260a081015160a085015260c081015160c085015260e081015160e0850152610100810151610100850152015161012083019061227b565b3461033157610829611caa36612288565b90612512565b3461033157600036600319011261033157602060405160028152f35b3461033157606036600319011261033157611ce5612248565b6024356001600160a01b0381811691829003610331576044359281841680940361033157611d11612cdf565b168015611e2d578115611de8578215611da35760405167ffffffffffffffff60608201918210911117611d8d57826001600160601b0360a01b828160045416176004558381600554161760055560065416176006557f1f63de24e6765b53f3bf31b690265dc5373fcf3c359eab0d14c3b303731c08c1600080a4005b634e487b7160e01b600052604160045260246000fd5b60405162461bcd60e51b815260206004820152601760248201527f496e76616c6964206d61746368696e672077616c6c65740000000000000000006044820152606490fd5b60405162461bcd60e51b815260206004820152601860248201527f496e76616c696420696e737572616e63652077616c6c657400000000000000006044820152606490fd5b60405162461bcd60e51b8152602060048201526012602482015271125b9d985b1a5908199959481dd85b1b195d60721b6044820152606490fd5b3461033157600036600319011261033157611e80612cdf565b60025460ff811615611ebf5760ff19166002557f5db9ee0a495bf2e6ff9c91a7834c1ba4fdd244a5e8aa4e537bd38aeae4b073aa6020604051338152a1005b604051638dfc202b60e01b8152600490fd5b3461033157604036600319011261033157611eea612248565b6001600160a01b03166000908152600d6020526040902080546024359190821015610331576020916106f39161229e565b34610331576000366003190112610331576020600754604051908152f35b3461033157602036600319011261033157600435611f55612c4c565b611f5d612c6a565b80600052600a60205260406000206003602052604060002054156105f05760ff600882015460201c1660068110156105da576003811415908161203a575b50611b045760018101546001600160a01b031633036110e4576006019081549182156120285760009055611ff082337f0000000000000000000000000000000000000000000000000000000000000000612c8d565b6040519182524260208301527f94db06301dc32995467bb8625d03e4dd74879e0cbee91569723822a9030cf7d560403393a360018055005b60405163aad5627b60e01b8152600490fd5b60049150141583611f9b565b346103315761205436612288565b90600052600e60205260406000208054821015610331576020916106f39161229e565b3461033157602036600319011261033157612090612248565b6001600160a01b03166000908152600f602052604090205480156121385780600052600a60205260ff60086040600020015460201c16906006821015806105da57821590811561212b575b811561211a575b8115612109575b506060926107d1915b60405193845215156020840152604083019061227b565b90506105da576002821460606120e9565b8091506105da5760038314906120e2565b50506001821460006120db565b6060906107d1600460006120f2565b61225e565b34610331576020366003190112610331576001600160a01b0361216d612248565b16600052600f6020526020604060002054604051908152f35b34610331576000366003190112610331576020604051600a8152f35b3461033157602090602060031936011261033157600435600052600e602052604060002091825480835260208301936000526020600020916000905b8282106121f5576103a68561039a818903826123c9565b8354865294850194600193840193909101906121de565b602090602060408183019282815285518094520193019160005b828110612234575050505090565b835185529381019392810192600101612226565b600435906001600160a01b038216820361033157565b34610331576000366003190112610331576020604051610e108152f35b9060068210156105da5752565b6040906003190112610331576004359060243590565b80548210156122b65760005260206000200190600090565b634e487b7160e01b600052603260045260246000fd5b919082519283825260005b8481106122f8575050826000602080949584010152601f8019910116010190565b6020818301810151848301820152016122d7565b60409061232593921515815281602082015201906122cc565b90565b346103315760203660031901126103315760043560005260036020526020600360406000200154604051908152f35b610140810190811067ffffffffffffffff821117611d8d57604052565b610160810190811067ffffffffffffffff821117611d8d57604052565b60a0810190811067ffffffffffffffff821117611d8d57604052565b6040810190811067ffffffffffffffff821117611d8d57604052565b90601f8019910116810190811067ffffffffffffffff821117611d8d57604052565b606090600319011261033157600435906024359060443590565b81810292918115918404141715610b8357565b90600182811c92168015612448575b602083101461243257565b634e487b7160e01b600052602260045260246000fd5b91607f1691612427565b80546000939261246182612418565b918282526020936001916001811690816000146124c95750600114612488575b5050505050565b90939495506000929192528360002092846000945b8386106124b557505050500101903880808080612481565b80548587018301529401938590820161249d565b60ff19168685015250505090151560051b010191503880808080612481565b604051906124f5826123ad565b600e82526d131bd85b881b9bdd08199bdd5b9960921b6020830152565b91906000838152602091600a83526040948583206003855286842054156126525760080154841c60ff16600681101561263e576001036126045768056bc75e2d6310000082106125d357825260038352600285832001541061259b57506f21b0b71031b7b73334b936903637b0b760811b6001935191612591836123ad565b6010835282015290565b7f416d6f756e742065786365656473206d617820617070726f7665640000000000909351916125c9836123ad565b601b835282015290565b505073416d6f756e742062656c6f77206d696e696d756d60601b909351916125fa836123ad565b6014835282015290565b50507f4c6f616e206973206e6f7420617070726f76656420796574000000000000000090935191612634836123ad565b6018835282015290565b634e487b7160e01b84526021600452602484fd5b50505091925050906123256124e8565b60068210156105da5752565b91908203918211610b8357565b60018060a01b0316906000828152602090600b825260409360ff8583205416156127d6578152600f825283812054806126d3575b50506f21b0b7103932b8bab2b9ba103637b0b760811b6001935191612591836123ad565b8152600a825260ff60088583200154831c16600681101590816127b55780159182156127c9575b82156127a4575b821561277f575b505061271457806126af565b835190939091606083018567ffffffffffffffff82118583101761276b57508252602283527f48617320616374697665206c6f616e206f722070656e64696e6720726571756590830152611cdd60f21b9082015290565b634e487b7160e01b81526041600452602490fd5b909150612790576002143880612708565b634e487b7160e01b82526021600452602482fd5b8092506127b5576003811491612701565b634e487b7160e01b83526021600452602483fd5b50600181149150826126fa565b506e139bdd081dda1a5d195b1a5cdd1959608a1b909351916127f7836123ad565b600f835282015290565b600052600a602052604060002061289f60405161281d81612374565b60018060a01b038084541682526001840154166020820152600283015460408201526003830154606082015260048301546080820152600583015460a082015261014060ff600860068601549560c08501968752600781015460e0860152015461ffff8082166101008601528160101c1661012085015260201c169101612662565b5190565b6000818152600a602052604081206040516128bd81612374565b60018060a01b03808354168252600183015416602082015260028201549060408101918252600383015460608201526004830154608082015261294760ff610140600860058701549660a08601978852600681015460c0870152600781015460e087015201549361ffff8086166101008301528560101c16610120820152019260201c1682612662565b51600681101561263e5760030361297a579161296b6040926003945190519061266e565b93815282602052200154101590565b5050905090565b6000198114610b835760010190565b805468010000000000000000811015611d8d576129b29160018201815561229e565b819291549060031b91821b91600019901b1916179055565b81156129d4570490565b634e487b7160e01b600052601260045260246000fd5b91908201809211610b8357565b683635c9adc5dea00000811115612a705769010f0cf064dd59200000811115612a695769021e19e0c9bab2400000811115612a625769054b40b1f852bda00000811115612a5b57690a968163f0a57b4000001015612a55576108ca90565b61070890565b506105dc90565b506104b090565b5061038490565b5061025890565b91908015612b4357600c900490670de0b6b3a76400009182810290808204841490151715610b835761271090049182810192838211610b835782938483958692915b612b03575050612acc612ad19287612405565b612405565b0490670de0b6b3a763ffff198301928311610b83578215612af7575061232592506129ca565b915050612325916129ca565b60019250908282168314612b29575b612b1d818692612405565b04911c90818692612ab9565b95612b1d85612b39898294612405565b0497915050612b12565b50612325916129ca565b9190916000908152602092600a84526040822060038552604083205415612c3e5760080154841c60ff1660068110156127b557612c045768056bc75e2d631000008110908115612bf0575b50612bc257506001916f21b0b71030b8383937bb32903637b0b760811b60405191612591836123ad565b9171125b9d985b1a59081b585e08185b5bdd5b9d60721b60405191612be6836123ad565b6012835282015290565b69152d02c7e14af680000091501138612b98565b50917f4c6f616e206973206e6f7420696e20726571756573746564207374617475730060405191612c34836123ad565b601f835282015290565b5050909150906123256124e8565b60ff60025416612c5857565b60405163d93c066560e01b8152600490fd5b600260015414612c7b576002600155565b604051633ee5aeb560e01b8152600490fd5b60405163a9059cbb60e01b60208201526001600160a01b039092166024830152604480830193909352918152608081019167ffffffffffffffff831182841017611d8d57612cdd92604052612f3d565b565b6000546001600160a01b03163303612cf357565b60405163118cdaa760e01b8152336004820152602490fd5b90600482015480421115612e8c57612d26610e10914261266e565b04600090828252600360205260036040832001549382600882019384549161ffff94858460101c16918215612e49575b6007860191612d756003612d6c8554809e6129ea565b98015488612405565b8060011b9080820460021490151715612e3557612daf9796959492630538ab80612da560019694612db594612405565b04988980926129ea565b9c6129ea565b90550190858211612e2157509260609492612e079263ffff00007f0ea782eac0f37efa9d900be3baff5ffe90d205f467accd664dc0e686ad63a8a1989660101b169063ffff00001916178095556129ea565b906040519287845260101c1660208301526040820152a290565b634e487b7160e01b81526011600452602490fd5b634e487b7160e01b86526011600452602486fd5b506101f4808a02908a8204148a151715612e7857612710900460078601612e718282546129ea565b9055612d56565b634e487b7160e01b84526011600452602484fd5b505050600090565b9291612eb557612325925060005260036020526003604060002001546129ea565b5050806007612ed0600261232594015460058401549061266e565b910154906129ea565b6040516323b872dd60e01b60208201526001600160a01b039283166024820152929091166044830152606480830193909352918152612cdd91612f1b82612391565b612f3d565b918015612e8c57612acc612f3992630538ab8094612405565b0490565b906000602091828151910182855af115612f99576000513d612f9057506001600160a01b0381163b155b612f6e5750565b604051635274afe760e01b81526001600160a01b039091166004820152602490fd5b60011415612f67565b6040513d6000823e3d90fdfe5d5a71e1da1e159b14c8658cd642bef65e55bf44d97f74749cb7fe3387fc2e99a2646970667358221220b77fb659db770274617426df5db1e498033e92968e8345c6b8e18a04766c057864736f6c63430008180033","opcodes":"PUSH1 0xA0 CALLVALUE PUSH3 0x13B JUMPI PUSH1 0x1F PUSH3 0x3152 CODESIZE DUP2 SWAP1 SUB SWAP2 DUP3 ADD PUSH1 0x1F NOT AND DUP4 ADD SWAP2 PUSH1 0x1 PUSH1 0x1 PUSH1 0x40 SHL SUB DUP4 GT DUP5 DUP5 LT OR PUSH3 0x140 JUMPI DUP1 DUP5 SWAP3 PUSH1 0x20 SWAP5 PUSH1 0x40 MSTORE DUP4 CODECOPY DUP2 ADD SUB SLT PUSH3 0x13B JUMPI MLOAD PUSH1 0x1 PUSH1 0x1 PUSH1 0xA0 SHL SUB DUP1 DUP3 AND SWAP2 DUP3 SWAP1 SUB PUSH3 0x13B JUMPI CALLER ISZERO PUSH3 0x122 JUMPI PUSH1 0x0 SLOAD CALLER PUSH1 0x1 DUP1 PUSH1 0xA0 SHL SUB NOT DUP3 AND OR PUSH1 0x0 SSTORE PUSH1 0x40 MLOAD SWAP2 CALLER SWAP2 AND PUSH32 0x8BE0079C531659141344CD1FD0A4F28419497F9722A3DAAFE3B4186F6B6457E0 PUSH1 0x0 DUP1 LOG3 PUSH1 0x1 DUP1 SSTORE DUP2 ISZERO PUSH3 0xE0 JUMPI POP PUSH1 0x80 MSTORE PUSH1 0x40 MLOAD PUSH2 0x2FFB SWAP1 DUP2 PUSH3 0x157 DUP3 CODECOPY PUSH1 0x80 MLOAD DUP2 DUP2 DUP2 PUSH2 0xC28 ADD MSTORE DUP2 DUP2 PUSH2 0xF80 ADD MSTORE DUP2 DUP2 PUSH2 0x1250 ADD MSTORE DUP2 DUP2 PUSH2 0x183D ADD MSTORE PUSH2 0x1FCC ADD MSTORE RETURN JUMPDEST PUSH3 0x461BCD PUSH1 0xE5 SHL DUP2 MSTORE PUSH1 0x20 PUSH1 0x4 DUP3 ADD MSTORE PUSH1 0x1A PUSH1 0x24 DUP3 ADD MSTORE PUSH32 0x496E76616C6964205553445420746F6B656E2061646472657373000000000000 PUSH1 0x44 DUP3 ADD MSTORE PUSH1 0x64 SWAP1 REVERT JUMPDEST PUSH1 0x40 MLOAD PUSH4 0x1E4FBDF7 PUSH1 0xE0 SHL DUP2 MSTORE PUSH1 0x0 PUSH1 0x4 DUP3 ADD MSTORE PUSH1 0x24 SWAP1 REVERT JUMPDEST PUSH1 0x0 DUP1 REVERT JUMPDEST PUSH4 0x4E487B71 PUSH1 0xE0 SHL PUSH1 0x0 MSTORE PUSH1 0x41 PUSH1 0x4 MSTORE PUSH1 0x24 PUSH1 0x0 REVERT INVALID PUSH1 0x80 DUP1 PUSH1 0x40 MSTORE PUSH1 0x4 CALLDATASIZE LT ISZERO PUSH2 0x13 JUMPI PUSH1 0x0 DUP1 REVERT JUMPDEST PUSH1 0x0 CALLDATALOAD PUSH1 0xE0 SHR SWAP1 DUP2 PUSH4 0x7AC9D5A EQ PUSH2 0x21A2 JUMPI POP DUP1 PUSH4 0x1892CDBA EQ PUSH2 0x2186 JUMPI DUP1 PUSH4 0x19A68BCF EQ PUSH2 0x214C JUMPI DUP1 PUSH4 0x1B9ADDBC EQ PUSH2 0x2147 JUMPI DUP1 PUSH4 0x1BE05289 EQ PUSH2 0x2147 JUMPI DUP1 PUSH4 0x20BECC81 EQ PUSH2 0x2077 JUMPI DUP1 PUSH4 0x28E202B1 EQ PUSH2 0x2046 JUMPI DUP1 PUSH4 0x2EB375EA EQ PUSH2 0x1F39 JUMPI DUP1 PUSH4 0x34D9289E EQ PUSH2 0x1F1B JUMPI DUP1 PUSH4 0x3AF32ABF EQ PUSH2 0x7D3 JUMPI DUP1 PUSH4 0x3CDB72F1 EQ PUSH2 0x1ED1 JUMPI DUP1 PUSH4 0x3F4BA83A EQ PUSH2 0x1E67 JUMPI DUP1 PUSH4 0x3F506DD6 EQ PUSH2 0x1CCC JUMPI DUP1 PUSH4 0x4196EB1A EQ PUSH2 0x1CB0 JUMPI DUP1 PUSH4 0x4F99CFAD EQ PUSH2 0x1C99 JUMPI DUP1 PUSH4 0x504006CA EQ PUSH2 0x1B16 JUMPI DUP1 PUSH4 0x5114CB52 EQ PUSH2 0x174B JUMPI DUP1 PUSH4 0x5C975ABB EQ PUSH2 0x1728 JUMPI DUP1 PUSH4 0x5F562E8C EQ PUSH2 0x1707 JUMPI DUP1 PUSH4 0x5F81A57C EQ PUSH2 0x16E9 JUMPI DUP1 PUSH4 0x655540B5 EQ PUSH2 0xBDB JUMPI DUP1 PUSH4 0x66877B8D EQ PUSH2 0x1657 JUMPI DUP1 PUSH4 0x715018A6 EQ PUSH2 0x15FE JUMPI DUP1 PUSH4 0x727336EE EQ PUSH2 0x15C1 JUMPI DUP1 PUSH4 0x734C7D0B EQ PUSH2 0x1599 JUMPI DUP1 PUSH4 0x7AD78254 EQ PUSH2 0xA32 JUMPI DUP1 PUSH4 0x803039D9 EQ PUSH2 0x1576 JUMPI DUP1 PUSH4 0x82626D6B EQ PUSH2 0x155A JUMPI DUP1 PUSH4 0x837BAB7F EQ PUSH2 0x1150 JUMPI DUP1 PUSH4 0x8456CB59 EQ PUSH2 0x10F6 JUMPI DUP1 PUSH4 0x846B909A EQ PUSH2 0xECE JUMPI DUP1 PUSH4 0x8AB1D681 EQ PUSH2 0xE68 JUMPI DUP1 PUSH4 0x8DA5CB5B EQ PUSH2 0xE3F JUMPI DUP1 PUSH4 0x90D3B379 EQ PUSH2 0xE21 JUMPI DUP1 PUSH4 0x94B22516 EQ PUSH2 0xCEF JUMPI DUP1 PUSH4 0x96FA212F EQ PUSH2 0xCCB JUMPI DUP1 PUSH4 0xA6C3B39E EQ PUSH2 0xC57 JUMPI DUP1 PUSH4 0xA98AD46C EQ PUSH2 0xC12 JUMPI DUP1 PUSH4 0xB4DC9405 EQ PUSH2 0xBF9 JUMPI DUP1 PUSH4 0xBA510A33 EQ PUSH2 0xBDB JUMPI DUP1 PUSH4 0xBA530553 EQ PUSH2 0xA37 JUMPI DUP1 PUSH4 0xBBA55C20 EQ PUSH2 0xA32 JUMPI DUP1 PUSH4 0xBD7EA413 EQ PUSH2 0x949 JUMPI DUP1 PUSH4 0xBF0597E0 EQ PUSH2 0x926 JUMPI DUP1 PUSH4 0xC58F7229 EQ PUSH2 0x909 JUMPI DUP1 PUSH4 0xC59D4847 EQ PUSH2 0x87C JUMPI DUP1 PUSH4 0xCC952B57 EQ PUSH2 0x85E JUMPI DUP1 PUSH4 0xCEBA1794 EQ PUSH2 0x839 JUMPI DUP1 PUSH4 0xD317A8E5 EQ PUSH2 0x812 JUMPI DUP1 PUSH4 0xD936547E EQ PUSH2 0x7D3 JUMPI DUP1 PUSH4 0xE1EC3C68 EQ PUSH2 0x71E JUMPI DUP1 PUSH4 0xE1F1C4A7 EQ PUSH2 0x701 JUMPI DUP1 PUSH4 0xE3ED1902 EQ PUSH2 0x6A9 JUMPI DUP1 PUSH4 0xE43252D7 EQ PUSH2 0x602 JUMPI DUP1 PUSH4 0xE95E7D59 EQ PUSH2 0x459 JUMPI DUP1 PUSH4 0xE9EFFDEC EQ PUSH2 0x43C JUMPI DUP1 PUSH4 0xEEE8B7FF EQ PUSH2 0x3C1 JUMPI DUP1 PUSH4 0xEEEB0C17 EQ PUSH2 0x336 JUMPI PUSH4 0xF2FDE38B EQ PUSH2 0x2A8 JUMPI PUSH1 0x0 DUP1 REVERT JUMPDEST CALLVALUE PUSH2 0x331 JUMPI PUSH1 0x20 CALLDATASIZE PUSH1 0x3 NOT ADD SLT PUSH2 0x331 JUMPI PUSH2 0x2C1 PUSH2 0x2248 JUMP JUMPDEST PUSH2 0x2C9 PUSH2 0x2CDF JUMP JUMPDEST PUSH1 0x1 PUSH1 0x1 PUSH1 0xA0 SHL SUB SWAP1 DUP2 AND SWAP1 DUP2 ISZERO PUSH2 0x318 JUMPI PUSH1 0x0 SLOAD DUP3 PUSH1 0x1 PUSH1 0x1 PUSH1 0x60 SHL SUB PUSH1 0xA0 SHL DUP3 AND OR PUSH1 0x0 SSTORE AND PUSH32 0x8BE0079C531659141344CD1FD0A4F28419497F9722A3DAAFE3B4186F6B6457E0 PUSH1 0x0 DUP1 LOG3 STOP JUMPDEST PUSH1 0x40 MLOAD PUSH4 0x1E4FBDF7 PUSH1 0xE0 SHL DUP2 MSTORE PUSH1 0x0 PUSH1 0x4 DUP3 ADD MSTORE PUSH1 0x24 SWAP1 REVERT JUMPDEST PUSH1 0x0 DUP1 REVERT JUMPDEST CALLVALUE PUSH2 0x331 JUMPI PUSH1 0x20 DUP1 PUSH1 0x3 NOT CALLDATASIZE ADD SLT PUSH2 0x331 JUMPI PUSH1 0x1 PUSH1 0x1 PUSH1 0xA0 SHL SUB PUSH2 0x358 PUSH2 0x2248 JUMP JUMPDEST AND PUSH1 0x0 MSTORE PUSH1 0xD PUSH1 0x20 MSTORE PUSH1 0x40 PUSH1 0x0 KECCAK256 SWAP1 PUSH1 0x40 MLOAD SWAP1 DUP2 PUSH1 0x20 DUP5 SLOAD SWAP2 DUP3 DUP2 MSTORE ADD SWAP4 PUSH1 0x0 MSTORE PUSH1 0x20 PUSH1 0x0 KECCAK256 SWAP2 PUSH1 0x0 SWAP1 JUMPDEST DUP3 DUP3 LT PUSH2 0x3AA JUMPI PUSH2 0x3A6 DUP6 PUSH2 0x39A DUP2 DUP10 SUB DUP3 PUSH2 0x23C9 JUMP JUMPDEST PUSH1 0x40 MLOAD SWAP2 DUP3 SWAP2 DUP3 PUSH2 0x220C JUMP JUMPDEST SUB SWAP1 RETURN JUMPDEST DUP4 SLOAD DUP7 MSTORE SWAP5 DUP6 ADD SWAP5 PUSH1 0x1 SWAP4 DUP5 ADD SWAP4 SWAP1 SWAP2 ADD SWAP1 PUSH2 0x383 JUMP JUMPDEST CALLVALUE PUSH2 0x331 JUMPI PUSH1 0x20 DUP1 PUSH1 0x3 NOT CALLDATASIZE ADD SLT PUSH2 0x331 JUMPI PUSH1 0x1 PUSH1 0x1 PUSH1 0xA0 SHL SUB PUSH2 0x3E3 PUSH2 0x2248 JUMP JUMPDEST AND PUSH1 0x0 MSTORE PUSH1 0xC PUSH1 0x20 MSTORE PUSH1 0x40 PUSH1 0x0 KECCAK256 SWAP1 PUSH1 0x40 MLOAD SWAP1 DUP2 PUSH1 0x20 DUP5 SLOAD SWAP2 DUP3 DUP2 MSTORE ADD SWAP4 PUSH1 0x0 MSTORE PUSH1 0x20 PUSH1 0x0 KECCAK256 SWAP2 PUSH1 0x0 SWAP1 JUMPDEST DUP3 DUP3 LT PUSH2 0x425 JUMPI PUSH2 0x3A6 DUP6 PUSH2 0x39A DUP2 DUP10 SUB DUP3 PUSH2 0x23C9 JUMP JUMPDEST DUP4 SLOAD DUP7 MSTORE SWAP5 DUP6 ADD SWAP5 PUSH1 0x1 SWAP4 DUP5 ADD SWAP4 SWAP1 SWAP2 ADD SWAP1 PUSH2 0x40E JUMP JUMPDEST CALLVALUE PUSH2 0x331 JUMPI PUSH1 0x0 CALLDATASIZE PUSH1 0x3 NOT ADD SLT PUSH2 0x331 JUMPI PUSH1 0x20 PUSH1 0x40 MLOAD PUSH2 0x1F4 DUP2 MSTORE RETURN JUMPDEST CALLVALUE PUSH2 0x331 JUMPI PUSH2 0x467 CALLDATASIZE PUSH2 0x2288 JUMP JUMPDEST SWAP1 PUSH2 0x470 PUSH2 0x2C4C JUMP JUMPDEST PUSH2 0x478 PUSH2 0x2C6A JUMP JUMPDEST DUP1 PUSH1 0x0 MSTORE PUSH1 0x20 SWAP2 PUSH1 0xA DUP4 MSTORE PUSH1 0x40 PUSH1 0x0 KECCAK256 SWAP1 PUSH1 0x3 DUP5 MSTORE PUSH1 0x40 PUSH1 0x0 KECCAK256 SLOAD ISZERO PUSH2 0x5F0 JUMPI PUSH1 0x8 DUP3 ADD SWAP1 DUP2 SLOAD PUSH1 0xFF DUP2 DUP8 SHR AND PUSH1 0x6 DUP2 LT ISZERO PUSH2 0x5DA JUMPI PUSH1 0x1 SUB PUSH2 0x5C9 JUMPI DUP4 SLOAD PUSH1 0x1 PUSH1 0x1 PUSH1 0xA0 SHL SUB AND CALLER SUB PUSH2 0x5B7 JUMPI PUSH9 0x56BC75E2D63100000 DUP3 LT PUSH2 0x5A5 JUMPI DUP5 PUSH1 0x0 MSTORE PUSH1 0x3 DUP7 MSTORE PUSH1 0x2 PUSH1 0x40 PUSH1 0x0 KECCAK256 ADD SLOAD DUP3 GT PUSH2 0x593 JUMPI PUSH2 0x534 DUP5 DUP4 PUSH1 0x2 PUSH32 0x1B6EE6646E9C02A0C3C5A1DD3DF315923B2C8BE89110A9BAFB6BE35D5CBF4CC6 SWAP8 ADD SSTORE PUSH2 0xFFFF PUSH1 0x3 PUSH2 0x526 DUP7 PUSH2 0x29F7 JUMP JUMPDEST SWAP3 ADD SWAP4 DUP3 DUP6 SSTORE AND SWAP1 DUP5 PUSH2 0x2A77 JUMP JUMPDEST SWAP1 DUP6 PUSH1 0x0 MSTORE PUSH1 0x3 DUP8 MSTORE PUSH1 0x40 PUSH1 0x0 KECCAK256 SWAP4 PUSH1 0x3 DUP6 ADD SWAP3 DUP4 SSTORE PUSH5 0x200000000 PUSH5 0xFF00000000 NOT DUP3 SLOAD AND OR SWAP1 SSTORE SLOAD SWAP1 SLOAD SWAP2 PUSH2 0x579 PUSH1 0x40 MLOAD SWAP5 PUSH1 0x80 DUP7 MSTORE PUSH1 0x1 PUSH1 0x80 DUP8 ADD SWAP2 ADD PUSH2 0x2452 JUMP JUMPDEST SWAP7 DUP5 ADD MSTORE PUSH1 0x40 DUP4 ADD MSTORE PUSH1 0x60 DUP3 ADD MSTORE DUP1 CALLER SWAP5 SUB SWAP1 LOG3 PUSH1 0x1 DUP1 SSTORE STOP JUMPDEST PUSH1 0x40 MLOAD PUSH4 0x475E88F PUSH1 0xE5 SHL DUP2 MSTORE PUSH1 0x4 SWAP1 REVERT JUMPDEST PUSH1 0x40 MLOAD PUSH4 0x162908E3 PUSH1 0xE1 SHL DUP2 MSTORE PUSH1 0x4 SWAP1 REVERT JUMPDEST PUSH1 0x40 MLOAD PUSH4 0x14776C3 PUSH1 0xE7 SHL DUP2 MSTORE PUSH1 0x4 SWAP1 REVERT JUMPDEST PUSH1 0x40 MLOAD PUSH3 0x258367 PUSH1 0xE3 SHL DUP2 MSTORE PUSH1 0x4 SWAP1 REVERT JUMPDEST PUSH4 0x4E487B71 PUSH1 0xE0 SHL PUSH1 0x0 MSTORE PUSH1 0x21 PUSH1 0x4 MSTORE PUSH1 0x24 PUSH1 0x0 REVERT JUMPDEST PUSH1 0x40 MLOAD PUSH4 0xE7E621D PUSH1 0xE0 SHL DUP2 MSTORE PUSH1 0x4 SWAP1 REVERT JUMPDEST CALLVALUE PUSH2 0x331 JUMPI PUSH1 0x20 CALLDATASIZE PUSH1 0x3 NOT ADD SLT PUSH2 0x331 JUMPI PUSH2 0x61B PUSH2 0x2248 JUMP JUMPDEST PUSH2 0x623 PUSH2 0x2CDF JUMP JUMPDEST PUSH1 0x1 PUSH1 0x1 PUSH1 0xA0 SHL SUB AND DUP1 ISZERO PUSH2 0x672 JUMPI DUP1 PUSH1 0x0 MSTORE PUSH1 0xB PUSH1 0x20 MSTORE PUSH1 0x40 PUSH1 0x0 KECCAK256 PUSH1 0x1 PUSH1 0xFF NOT DUP3 SLOAD AND OR SWAP1 SSTORE PUSH32 0x4F783C179409B4127238BC9C990BC99B9A651666A0D20B51D6C42849EB88466D PUSH1 0x0 DUP1 LOG2 STOP JUMPDEST PUSH1 0x40 MLOAD PUSH3 0x461BCD PUSH1 0xE5 SHL DUP2 MSTORE PUSH1 0x20 PUSH1 0x4 DUP3 ADD MSTORE PUSH1 0xF PUSH1 0x24 DUP3 ADD MSTORE PUSH15 0x496E76616C69642061646472657373 PUSH1 0x88 SHL PUSH1 0x44 DUP3 ADD MSTORE PUSH1 0x64 SWAP1 REVERT JUMPDEST CALLVALUE PUSH2 0x331 JUMPI PUSH1 0x40 CALLDATASIZE PUSH1 0x3 NOT ADD SLT PUSH2 0x331 JUMPI PUSH2 0x6C2 PUSH2 0x2248 JUMP JUMPDEST PUSH1 0x1 PUSH1 0x1 PUSH1 0xA0 SHL SUB AND PUSH1 0x0 SWAP1 DUP2 MSTORE PUSH1 0xC PUSH1 0x20 MSTORE PUSH1 0x40 SWAP1 KECCAK256 DUP1 SLOAD PUSH1 0x24 CALLDATALOAD SWAP2 SWAP1 DUP3 LT ISZERO PUSH2 0x331 JUMPI PUSH1 0x20 SWAP2 PUSH2 0x6F3 SWAP2 PUSH2 0x229E JUMP JUMPDEST SWAP1 SLOAD PUSH1 0x40 MLOAD SWAP2 PUSH1 0x3 SHL SHR DUP2 MSTORE RETURN JUMPDEST CALLVALUE PUSH2 0x331 JUMPI PUSH1 0x0 CALLDATASIZE PUSH1 0x3 NOT ADD SLT PUSH2 0x331 JUMPI PUSH1 0x20 PUSH1 0x40 MLOAD PUSH2 0x2710 DUP2 MSTORE RETURN JUMPDEST CALLVALUE PUSH2 0x331 JUMPI PUSH1 0x20 CALLDATASIZE PUSH1 0x3 NOT ADD SLT PUSH2 0x331 JUMPI PUSH1 0x4 CALLDATALOAD PUSH1 0x0 MSTORE PUSH1 0xA PUSH1 0x20 MSTORE PUSH2 0x160 PUSH1 0x40 PUSH1 0x0 KECCAK256 PUSH2 0x7D1 PUSH1 0x1 DUP1 PUSH1 0xA0 SHL SUB SWAP2 DUP3 DUP2 SLOAD AND SWAP3 PUSH1 0x1 DUP3 ADD SLOAD AND PUSH1 0x2 DUP3 ADD SLOAD SWAP2 PUSH1 0x3 DUP2 ADD SLOAD PUSH1 0x4 DUP3 ADD SLOAD PUSH1 0x5 DUP4 ADD SLOAD SWAP1 PUSH1 0x6 DUP5 ADD SLOAD SWAP3 PUSH1 0x8 PUSH1 0x7 DUP7 ADD SLOAD SWAP6 ADD SLOAD SWAP7 PUSH2 0xFFFF SWAP7 PUSH1 0x40 MLOAD SWAP11 DUP12 MSTORE PUSH1 0x20 DUP12 ADD MSTORE PUSH1 0x40 DUP11 ADD MSTORE PUSH1 0x60 DUP10 ADD MSTORE PUSH1 0x80 DUP9 ADD MSTORE PUSH1 0xA0 DUP8 ADD MSTORE PUSH1 0xC0 DUP7 ADD MSTORE PUSH1 0xE0 DUP6 ADD MSTORE DUP1 DUP3 AND PUSH2 0x100 DUP6 ADD MSTORE DUP2 PUSH1 0x10 SHR AND PUSH2 0x120 DUP5 ADD MSTORE PUSH1 0xFF PUSH2 0x140 DUP5 ADD SWAP2 PUSH1 0x20 SHR AND PUSH2 0x227B JUMP JUMPDEST RETURN JUMPDEST CALLVALUE PUSH2 0x331 JUMPI PUSH1 0x20 CALLDATASIZE PUSH1 0x3 NOT ADD SLT PUSH2 0x331 JUMPI PUSH1 0x1 PUSH1 0x1 PUSH1 0xA0 SHL SUB PUSH2 0x7F4 PUSH2 0x2248 JUMP JUMPDEST AND PUSH1 0x0 MSTORE PUSH1 0xB PUSH1 0x20 MSTORE PUSH1 0x20 PUSH1 0xFF PUSH1 0x40 PUSH1 0x0 KECCAK256 SLOAD AND PUSH1 0x40 MLOAD SWAP1 ISZERO ISZERO DUP2 MSTORE RETURN JUMPDEST CALLVALUE PUSH2 0x331 JUMPI PUSH2 0x829 PUSH2 0x823 CALLDATASIZE PUSH2 0x2288 JUMP JUMPDEST SWAP1 PUSH2 0x2B4D JUMP JUMPDEST SWAP1 PUSH2 0x3A6 PUSH1 0x40 MLOAD SWAP3 DUP4 SWAP3 DUP4 PUSH2 0x230C JUMP JUMPDEST CALLVALUE PUSH2 0x331 JUMPI PUSH1 0x0 CALLDATASIZE PUSH1 0x3 NOT ADD SLT PUSH2 0x331 JUMPI PUSH1 0x20 PUSH1 0x40 MLOAD PUSH10 0x152D02C7E14AF6800000 DUP2 MSTORE RETURN JUMPDEST CALLVALUE PUSH2 0x331 JUMPI PUSH1 0x0 CALLDATASIZE PUSH1 0x3 NOT ADD SLT PUSH2 0x331 JUMPI PUSH1 0x20 PUSH1 0x8 SLOAD PUSH1 0x40 MLOAD SWAP1 DUP2 MSTORE RETURN JUMPDEST CALLVALUE PUSH2 0x331 JUMPI PUSH1 0x0 CALLDATASIZE PUSH1 0x3 NOT ADD SLT PUSH2 0x331 JUMPI PUSH1 0x8 DUP1 SLOAD PUSH1 0x9 SLOAD PUSH1 0x0 SWAP1 PUSH1 0x1 PUSH1 0x7 SLOAD SWAP1 JUMPDEST DUP2 DUP2 GT ISZERO PUSH2 0x8BE JUMPI POP POP PUSH1 0x60 SWAP4 POP PUSH1 0x40 MLOAD SWAP3 DUP4 MSTORE PUSH1 0x20 DUP4 ADD MSTORE PUSH1 0x40 DUP3 ADD MSTORE RETURN JUMPDEST DUP1 PUSH1 0x0 MSTORE PUSH1 0xFF PUSH1 0x20 PUSH1 0xA DUP2 MSTORE DUP8 PUSH1 0x40 PUSH1 0x0 KECCAK256 ADD SLOAD SWAP1 SHR AND PUSH1 0x6 DUP2 LT ISZERO PUSH2 0x5DA JUMPI PUSH1 0x3 EQ PUSH2 0x8F4 JUMPI JUMPDEST PUSH2 0x8EF SWAP1 PUSH2 0x2981 JUMP JUMPDEST PUSH2 0x89E JUMP JUMPDEST SWAP3 PUSH2 0x901 PUSH2 0x8EF SWAP2 PUSH2 0x2981 JUMP JUMPDEST SWAP4 SWAP1 POP PUSH2 0x8E6 JUMP JUMPDEST CALLVALUE PUSH2 0x331 JUMPI PUSH1 0x0 CALLDATASIZE PUSH1 0x3 NOT ADD SLT PUSH2 0x331 JUMPI PUSH1 0x20 PUSH1 0x40 MLOAD PUSH2 0x2238 DUP2 MSTORE RETURN JUMPDEST CALLVALUE PUSH2 0x331 JUMPI PUSH1 0x0 CALLDATASIZE PUSH1 0x3 NOT ADD SLT PUSH2 0x331 JUMPI PUSH1 0x20 PUSH1 0x40 MLOAD PUSH8 0x4563918244F40000 DUP2 MSTORE RETURN JUMPDEST CALLVALUE PUSH2 0x331 JUMPI PUSH1 0x20 PUSH2 0x959 CALLDATASIZE PUSH2 0x2288 JUMP JUMPDEST SWAP1 PUSH1 0x0 MSTORE PUSH1 0xA DUP3 MSTORE PUSH2 0x2710 PUSH2 0xA18 PUSH1 0x40 PUSH1 0x0 KECCAK256 PUSH1 0xC PUSH2 0xA0F PUSH1 0x40 MLOAD SWAP3 PUSH2 0x97E DUP5 PUSH2 0x2374 JUMP JUMPDEST PUSH1 0x1 DUP1 PUSH1 0xA0 SHL SUB DUP1 DUP3 SLOAD AND DUP6 MSTORE PUSH1 0x1 DUP3 ADD SLOAD AND DUP9 DUP6 ADD MSTORE PUSH1 0x2 DUP2 ADD SLOAD PUSH1 0x40 DUP6 ADD SWAP1 DUP2 MSTORE PUSH2 0xA06 PUSH1 0x3 DUP4 ADD SLOAD SWAP6 PUSH1 0x60 DUP2 ADD SWAP7 DUP8 MSTORE PUSH1 0x4 DUP5 ADD SLOAD PUSH1 0x80 DUP3 ADD MSTORE PUSH2 0x140 PUSH1 0xFF PUSH1 0x8 PUSH1 0x5 DUP8 ADD SLOAD SWAP7 PUSH1 0xA0 DUP6 ADD SWAP8 DUP9 MSTORE PUSH1 0x6 DUP2 ADD SLOAD PUSH1 0xC0 DUP7 ADD MSTORE PUSH1 0x7 DUP2 ADD SLOAD PUSH1 0xE0 DUP7 ADD MSTORE ADD SLOAD PUSH2 0xFFFF DUP1 DUP3 AND PUSH2 0x100 DUP7 ADD MSTORE DUP2 PUSH1 0x10 SHR AND PUSH2 0x120 DUP6 ADD MSTORE DUP14 SHR AND SWAP2 ADD PUSH2 0x2662 JUMP JUMPDEST MLOAD SWAP1 MLOAD SWAP1 PUSH2 0x266E JUMP JUMPDEST SWAP2 MLOAD DIV SWAP1 PUSH2 0x2405 JUMP JUMPDEST DIV DUP2 DUP2 GT ISZERO PUSH2 0xA2B JUMPI POP JUMPDEST PUSH1 0x40 MLOAD SWAP1 DUP2 MSTORE RETURN JUMPDEST SWAP1 POP PUSH2 0xA23 JUMP JUMPDEST PUSH2 0x2328 JUMP JUMPDEST CALLVALUE PUSH2 0x331 JUMPI PUSH1 0x20 DUP1 PUSH1 0x3 NOT CALLDATASIZE ADD SLT PUSH2 0x331 JUMPI PUSH1 0x4 CALLDATALOAD SWAP1 DUP2 PUSH1 0x0 MSTORE PUSH1 0xA DUP2 MSTORE PUSH1 0x40 PUSH1 0x0 KECCAK256 SWAP1 PUSH1 0x40 MLOAD PUSH2 0xA67 DUP2 PUSH2 0x2374 JUMP JUMPDEST PUSH1 0x1 DUP1 PUSH1 0xA0 SHL SUB DUP1 DUP5 SLOAD AND DUP3 MSTORE PUSH1 0x1 DUP5 ADD SLOAD AND DUP3 DUP3 ADD MSTORE PUSH1 0x2 DUP4 ADD SLOAD PUSH1 0x40 DUP3 ADD MSTORE PUSH1 0x3 DUP4 ADD SLOAD SWAP1 PUSH1 0x60 DUP2 ADD SWAP2 DUP3 MSTORE PUSH1 0x4 DUP5 ADD SLOAD SWAP1 PUSH1 0x80 DUP2 ADD SWAP2 DUP3 MSTORE PUSH1 0x5 DUP6 ADD SLOAD PUSH1 0xA0 DUP3 ADD MSTORE PUSH1 0x6 DUP6 ADD SLOAD PUSH1 0xC0 DUP3 ADD MSTORE PUSH1 0x8 PUSH1 0x7 DUP7 ADD SLOAD SWAP6 PUSH1 0xE0 DUP4 ADD SWAP7 DUP8 MSTORE ADD SLOAD SWAP5 PUSH2 0xAF5 PUSH2 0xFFFF SWAP3 DUP4 DUP9 AND PUSH2 0x100 DUP3 ADD MSTORE PUSH2 0x140 PUSH1 0xFF PUSH2 0x120 DUP4 ADD SWAP10 DUP7 DUP2 PUSH1 0x10 SHR AND DUP12 MSTORE DUP10 SHR AND SWAP2 ADD PUSH2 0x2662 JUMP JUMPDEST MLOAD SWAP5 MLOAD AND SWAP1 MLOAD DUP1 TIMESTAMP GT PUSH1 0x0 EQ PUSH2 0xBCB JUMPI PUSH2 0xB12 PUSH2 0xE10 SWAP2 TIMESTAMP PUSH2 0x266E JUMP JUMPDEST DIV SWAP2 PUSH1 0x0 SWAP6 DUP3 ISZERO PUSH2 0xB99 JUMPI JUMPDEST PUSH1 0x0 MSTORE PUSH1 0x3 DUP5 MSTORE PUSH2 0xB40 DUP7 PUSH2 0xB3B DUP8 PUSH1 0x3 PUSH1 0x40 PUSH1 0x0 KECCAK256 ADD SLOAD PUSH2 0x29EA JUMP JUMPDEST PUSH2 0x29EA JUMP JUMPDEST SWAP1 MLOAD SWAP6 DUP7 PUSH1 0x1 SHL SWAP7 DUP1 DUP9 DIV PUSH1 0x2 EQ SWAP1 ISZERO OR ISZERO PUSH2 0xB83 JUMPI PUSH2 0xB66 DUP5 PUSH1 0x80 SWAP9 PUSH2 0xB6C SWAP5 PUSH2 0x2F20 JUMP JUMPDEST SWAP1 PUSH2 0x29EA JUMP JUMPDEST SWAP3 JUMPDEST PUSH1 0x40 MLOAD SWAP5 DUP6 MSTORE DUP5 ADD MSTORE PUSH1 0x40 DUP4 ADD MSTORE PUSH1 0x60 DUP3 ADD MSTORE RETURN JUMPDEST PUSH4 0x4E487B71 PUSH1 0xE0 SHL PUSH1 0x0 MSTORE PUSH1 0x11 PUSH1 0x4 MSTORE PUSH1 0x24 PUSH1 0x0 REVERT JUMPDEST DUP1 SWAP7 POP PUSH1 0x0 MSTORE PUSH1 0x3 DUP5 MSTORE PUSH1 0x3 PUSH1 0x40 PUSH1 0x0 KECCAK256 ADD SLOAD PUSH2 0x1F4 SWAP1 DUP2 DUP2 MUL SWAP2 DUP2 DUP4 DIV EQ SWAP1 ISZERO OR ISZERO PUSH2 0xB83 JUMPI PUSH2 0x2710 SWAP1 DIV SWAP6 PUSH2 0xB1E JUMP JUMPDEST POP PUSH1 0x80 SWAP5 POP PUSH1 0x0 SWAP3 DUP4 SWAP3 POP PUSH2 0xB6E JUMP JUMPDEST CALLVALUE PUSH2 0x331 JUMPI PUSH1 0x20 CALLDATASIZE PUSH1 0x3 NOT ADD SLT PUSH2 0x331 JUMPI PUSH1 0x20 PUSH2 0xA23 PUSH1 0x4 CALLDATALOAD PUSH2 0x2801 JUMP JUMPDEST CALLVALUE PUSH2 0x331 JUMPI PUSH1 0x20 PUSH2 0xA23 PUSH2 0xC0C CALLDATASIZE PUSH2 0x23EB JUMP JUMPDEST SWAP2 PUSH2 0x2A77 JUMP JUMPDEST CALLVALUE PUSH2 0x331 JUMPI PUSH1 0x0 CALLDATASIZE PUSH1 0x3 NOT ADD SLT PUSH2 0x331 JUMPI PUSH1 0x40 MLOAD PUSH32 0x0 PUSH1 0x1 PUSH1 0x1 PUSH1 0xA0 SHL SUB AND DUP2 MSTORE PUSH1 0x20 SWAP1 RETURN JUMPDEST CALLVALUE PUSH2 0x331 JUMPI PUSH1 0x20 CALLDATASIZE PUSH1 0x3 NOT ADD SLT PUSH2 0x331 JUMPI PUSH1 0x4 CALLDATALOAD PUSH1 0x0 MSTORE PUSH1 0x3 PUSH1 0x20 MSTORE PUSH1 0x40 PUSH1 0x0 KECCAK256 DUP1 SLOAD PUSH1 0x40 MLOAD SWAP2 PUSH2 0xC96 DUP4 PUSH2 0xC8F DUP2 PUSH1 0x1 DUP6 ADD PUSH2 0x2452 JUMP JUMPDEST SUB DUP5 PUSH2 0x23C9 JUMP JUMPDEST PUSH1 0x3 PUSH1 0x2 DUP3 ADD SLOAD SWAP2 ADD SLOAD PUSH2 0xCBC PUSH1 0x40 MLOAD SWAP5 DUP6 SWAP5 DUP6 MSTORE PUSH1 0x80 PUSH1 0x20 DUP7 ADD MSTORE PUSH1 0x80 DUP6 ADD SWAP1 PUSH2 0x22CC JUMP JUMPDEST SWAP2 PUSH1 0x40 DUP5 ADD MSTORE PUSH1 0x60 DUP4 ADD MSTORE SUB SWAP1 RETURN JUMPDEST CALLVALUE PUSH2 0x331 JUMPI PUSH1 0x0 CALLDATASIZE PUSH1 0x3 NOT ADD SLT PUSH2 0x331 JUMPI PUSH1 0x20 PUSH1 0x40 MLOAD PUSH9 0x56BC75E2D63100000 DUP2 MSTORE RETURN JUMPDEST CALLVALUE PUSH2 0x331 JUMPI PUSH2 0xCFD CALLDATASIZE PUSH2 0x23EB JUMP JUMPDEST SWAP2 SWAP1 PUSH2 0xD07 PUSH2 0x2CDF JUMP JUMPDEST PUSH2 0xD0F PUSH2 0x2C4C JUMP JUMPDEST DUP2 PUSH1 0x0 MSTORE PUSH1 0xA PUSH1 0x20 MSTORE PUSH1 0x40 PUSH1 0x0 KECCAK256 PUSH1 0x3 PUSH1 0x20 MSTORE PUSH1 0x40 PUSH1 0x0 KECCAK256 SLOAD ISZERO PUSH2 0x5F0 JUMPI PUSH1 0x8 DUP2 ADD PUSH1 0xFF DUP2 SLOAD PUSH1 0x20 SHR AND PUSH1 0x6 DUP2 LT ISZERO PUSH2 0x5DA JUMPI PUSH2 0x5A5 JUMPI PUSH9 0x56BC75E2D63100000 DUP4 LT DUP1 ISZERO PUSH2 0xE0E JUMPI JUMPDEST PUSH2 0x5A5 JUMPI PUSH1 0x1 DUP6 LT DUP1 ISZERO PUSH2 0xE04 JUMPI JUMPDEST PUSH2 0xDF2 JUMPI PUSH32 0x10741B45B4084F3CC3D8E953B55C7951C689DA296BB0EE8BF1F2A7F8B2E7D3AD SWAP3 PUSH2 0xDE2 SWAP3 DUP6 PUSH1 0x0 MSTORE PUSH1 0x3 PUSH1 0x20 MSTORE PUSH1 0x40 PUSH1 0x0 KECCAK256 SWAP3 DUP3 PUSH1 0x2 DUP6 ADD SSTORE PUSH5 0x100000000 PUSH2 0xFFFF DUP10 AND PUSH5 0xFF0000FFFF NOT DUP4 SLOAD AND OR OR SWAP1 SSTORE PUSH1 0x1 DUP1 PUSH1 0xA0 SHL SUB SWAP1 SLOAD AND SWAP6 PUSH1 0x40 MLOAD SWAP4 DUP5 SWAP4 PUSH1 0x60 DUP6 MSTORE PUSH1 0x1 PUSH1 0x60 DUP7 ADD SWAP2 ADD PUSH2 0x2452 JUMP JUMPDEST SWAP2 PUSH1 0x20 DUP5 ADD MSTORE PUSH1 0x40 DUP4 ADD MSTORE SUB SWAP1 LOG3 STOP JUMPDEST PUSH1 0x40 MLOAD PUSH4 0x76166401 PUSH1 0xE0 SHL DUP2 MSTORE PUSH1 0x4 SWAP1 REVERT JUMPDEST POP PUSH1 0x24 DUP6 GT PUSH2 0xD68 JUMP JUMPDEST POP PUSH10 0x152D02C7E14AF6800000 DUP4 GT PUSH2 0xD59 JUMP JUMPDEST CALLVALUE PUSH2 0x331 JUMPI PUSH1 0x20 CALLDATASIZE PUSH1 0x3 NOT ADD SLT PUSH2 0x331 JUMPI PUSH1 0x20 PUSH2 0xA23 PUSH1 0x4 CALLDATALOAD PUSH2 0x29F7 JUMP JUMPDEST CALLVALUE PUSH2 0x331 JUMPI PUSH1 0x0 CALLDATASIZE PUSH1 0x3 NOT ADD SLT PUSH2 0x331 JUMPI PUSH1 0x0 SLOAD PUSH1 0x40 MLOAD PUSH1 0x1 PUSH1 0x1 PUSH1 0xA0 SHL SUB SWAP1 SWAP2 AND DUP2 MSTORE PUSH1 0x20 SWAP1 RETURN JUMPDEST CALLVALUE PUSH2 0x331 JUMPI PUSH1 0x20 CALLDATASIZE PUSH1 0x3 NOT ADD SLT PUSH2 0x331 JUMPI PUSH2 0xE81 PUSH2 0x2248 JUMP JUMPDEST PUSH2 0xE89 PUSH2 0x2CDF JUMP JUMPDEST PUSH1 0x1 PUSH1 0x1 PUSH1 0xA0 SHL SUB AND PUSH1 0x0 DUP2 DUP2 MSTORE PUSH1 0xB PUSH1 0x20 MSTORE PUSH1 0x40 DUP2 KECCAK256 DUP1 SLOAD PUSH1 0xFF NOT AND SWAP1 SSTORE PUSH32 0x24A12366C02E13FE4A9E03D86A8952E85BB74A456C16E4A18B6D8295700B74BB SWAP1 DUP1 LOG2 STOP JUMPDEST CALLVALUE PUSH2 0x331 JUMPI PUSH1 0x20 DUP1 PUSH1 0x3 NOT CALLDATASIZE ADD SLT PUSH2 0x331 JUMPI PUSH1 0x4 CALLDATALOAD PUSH2 0xEEB PUSH2 0x2C4C JUMP JUMPDEST PUSH2 0xEF3 PUSH2 0x2C6A JUMP JUMPDEST CALLER PUSH1 0x0 MSTORE PUSH1 0xB DUP3 MSTORE PUSH1 0xFF PUSH1 0x40 PUSH1 0x0 KECCAK256 SLOAD AND ISZERO PUSH2 0x10E4 JUMPI DUP1 PUSH1 0x0 MSTORE PUSH1 0xA DUP3 MSTORE PUSH1 0x40 PUSH1 0x0 KECCAK256 SWAP2 PUSH1 0x3 DUP2 MSTORE PUSH1 0x40 PUSH1 0x0 KECCAK256 SLOAD ISZERO PUSH2 0x5F0 JUMPI PUSH1 0x8 DUP4 ADD SWAP3 PUSH1 0xFF DUP5 SLOAD DUP4 SHR AND PUSH1 0x6 DUP2 LT ISZERO PUSH2 0x5DA JUMPI PUSH1 0x2 SUB PUSH2 0x10D2 JUMPI PUSH1 0x1 DUP2 ADD DUP1 SLOAD PUSH1 0x1 PUSH1 0x1 PUSH1 0xA0 SHL SUB SWAP6 SWAP1 DUP7 AND PUSH2 0x10C0 JUMPI PUSH1 0x2 DUP4 ADD SWAP2 DUP3 SLOAD SWAP7 PUSH1 0xA DUP9 MUL DUP9 DUP2 DIV PUSH1 0xA EQ DUP10 ISZERO OR ISZERO PUSH2 0xB83 JUMPI PUSH2 0x2710 PUSH2 0xFCC SWAP2 DIV SWAP9 PUSH2 0xFA8 PUSH32 0x0 SWAP2 ADDRESS CALLER DUP5 PUSH2 0x2ED9 JUMP JUMPDEST PUSH2 0xFB7 DUP11 DUP5 PUSH1 0x6 SLOAD AND DUP4 PUSH2 0x2C8D JUMP JUMPDEST DUP3 DUP8 SLOAD AND PUSH2 0xFC6 DUP12 DUP9 SLOAD PUSH2 0x266E JUMP JUMPDEST SWAP2 PUSH2 0x2C8D JUMP JUMPDEST PUSH1 0x6 SLOAD AND DUP7 PUSH1 0x0 DUP1 MLOAD PUSH1 0x20 PUSH2 0x2FA6 DUP4 CODECOPY DUP2 MLOAD SWAP2 MSTORE PUSH1 0xA0 PUSH1 0x40 MLOAD PUSH1 0x60 DUP2 MSTORE PUSH1 0x8 PUSH1 0x60 DUP3 ADD MSTORE PUSH8 0x6D61746368696E67 PUSH1 0xC0 SHL PUSH1 0x80 DUP3 ADD MSTORE DUP12 DUP11 DUP3 ADD MSTORE TIMESTAMP PUSH1 0x40 DUP3 ADD MSTORE LOG3 CALLER PUSH1 0x1 PUSH1 0x1 PUSH1 0x60 SHL SUB PUSH1 0xA0 SHL DUP3 SLOAD AND OR SWAP1 SSTORE PUSH2 0xE10 TIMESTAMP ADD SWAP3 DUP4 TIMESTAMP GT PUSH2 0xB83 JUMPI PUSH1 0x4 ADD SWAP3 DUP4 SSTORE PUSH5 0x300000000 PUSH5 0xFF00000000 NOT DUP3 SLOAD AND OR SWAP1 SSTORE CALLER PUSH1 0x0 MSTORE PUSH1 0xD DUP4 MSTORE PUSH2 0x105B DUP5 PUSH1 0x40 PUSH1 0x0 KECCAK256 PUSH2 0x2990 JUMP JUMPDEST PUSH2 0x1068 DUP2 SLOAD PUSH1 0x9 SLOAD PUSH2 0x29EA JUMP JUMPDEST PUSH1 0x9 SSTORE SLOAD SWAP4 PUSH1 0x0 PUSH2 0x1079 DUP3 DUP8 PUSH2 0x266E JUMP JUMPDEST SWAP3 SLOAD SWAP4 PUSH1 0x40 MLOAD SWAP7 DUP8 MSTORE DUP7 ADD MSTORE PUSH1 0x40 DUP6 ADD MSTORE PUSH1 0x60 DUP5 ADD MSTORE PUSH1 0x80 DUP4 ADD MSTORE PUSH32 0x89B4C8D26A27040061693676EAF8700BCB68E16B808571F7969C464CCFD6CE70 PUSH1 0xA0 CALLER SWAP4 LOG3 PUSH1 0x1 DUP1 SSTORE STOP JUMPDEST PUSH1 0x40 MLOAD PUSH4 0xD70A0E3 PUSH1 0xE4 SHL DUP2 MSTORE PUSH1 0x4 SWAP1 REVERT JUMPDEST PUSH1 0x40 MLOAD PUSH4 0x1516309 PUSH1 0xE3 SHL DUP2 MSTORE PUSH1 0x4 SWAP1 REVERT JUMPDEST PUSH1 0x40 MLOAD PUSH4 0xB094F27 PUSH1 0xE3 SHL DUP2 MSTORE PUSH1 0x4 SWAP1 REVERT JUMPDEST CALLVALUE PUSH2 0x331 JUMPI PUSH1 0x0 CALLDATASIZE PUSH1 0x3 NOT ADD SLT PUSH2 0x331 JUMPI PUSH2 0x110F PUSH2 0x2CDF JUMP JUMPDEST PUSH2 0x1117 PUSH2 0x2C4C JUMP JUMPDEST PUSH1 0x1 PUSH1 0xFF NOT PUSH1 0x2 SLOAD AND OR PUSH1 0x2 SSTORE PUSH32 0x62E78CEA01BEE320CD4E420270B5EA74000D11B0C9F74754EBDBFC544B05A258 PUSH1 0x20 PUSH1 0x40 MLOAD CALLER DUP2 MSTORE LOG1 STOP JUMPDEST CALLVALUE PUSH2 0x331 JUMPI PUSH1 0x20 DUP1 PUSH1 0x3 NOT CALLDATASIZE ADD SLT PUSH2 0x331 JUMPI PUSH8 0xFFFFFFFFFFFFFFFF PUSH1 0x4 CALLDATALOAD DUP2 DUP2 GT PUSH2 0x331 JUMPI CALLDATASIZE PUSH1 0x23 DUP3 ADD SLT ISZERO PUSH2 0x331 JUMPI DUP1 PUSH1 0x4 ADD CALLDATALOAD SWAP1 PUSH1 0x24 DUP4 DUP4 GT PUSH2 0x1496 JUMPI PUSH1 0x1F NOT SWAP3 PUSH1 0x40 MLOAD SWAP3 PUSH2 0x11A8 DUP8 DUP7 PUSH1 0x1F DUP6 ADD AND ADD DUP6 PUSH2 0x23C9 JUMP JUMPDEST DUP2 DUP5 MSTORE CALLDATASIZE DUP4 DUP4 DUP4 ADD ADD GT PUSH2 0x331 JUMPI DUP2 PUSH1 0x0 SWAP3 DUP5 DUP10 SWAP4 ADD DUP4 DUP8 ADD CALLDATACOPY DUP5 ADD ADD MSTORE PUSH2 0x11CE PUSH2 0x2C4C JUMP JUMPDEST PUSH2 0x11D6 PUSH2 0x2C6A JUMP JUMPDEST CALLER PUSH1 0x0 MSTORE PUSH1 0xB DUP6 MSTORE PUSH1 0xFF PUSH1 0x40 PUSH1 0x0 KECCAK256 SLOAD AND ISZERO PUSH2 0x10E4 JUMPI CALLER PUSH1 0x0 MSTORE PUSH1 0xF DUP6 MSTORE PUSH1 0x40 PUSH1 0x0 KECCAK256 SLOAD DUP1 PUSH2 0x14AA JUMPI JUMPDEST POP PUSH1 0x4 SLOAD PUSH1 0x40 MLOAD PUSH4 0x23B872DD PUSH1 0xE0 SHL DUP8 DUP3 ADD MSTORE CALLER DUP4 DUP3 ADD MSTORE PUSH1 0x1 PUSH1 0x1 PUSH1 0xA0 SHL SUB SWAP2 DUP3 AND PUSH1 0x44 DUP3 ADD MSTORE PUSH8 0x1BC16D674EC80000 PUSH1 0x64 DUP1 DUP4 ADD DUP3 SWAP1 MSTORE DUP3 MSTORE PUSH1 0xA0 SWAP7 SWAP3 SWAP1 SWAP2 PUSH2 0x1274 SWAP1 PUSH2 0x124E DUP2 PUSH2 0x2391 JUMP JUMPDEST PUSH32 0x0 PUSH2 0x2F3D JUMP JUMPDEST PUSH1 0x0 DUP1 MLOAD PUSH1 0x20 PUSH2 0x2FA6 DUP4 CODECOPY DUP2 MLOAD SWAP2 MSTORE PUSH2 0x128E PUSH1 0x7 SLOAD PUSH2 0x2981 JUMP JUMPDEST SWAP8 DUP9 SWAP3 DUP4 PUSH1 0x7 SSTORE PUSH1 0x4 SLOAD AND SWAP4 PUSH1 0x40 MLOAD SWAP1 PUSH1 0x60 DUP3 MSTORE PUSH1 0xA PUSH1 0x60 DUP4 ADD MSTORE PUSH10 0x34B734BA34B0BA34B7B7 PUSH1 0xB1 SHL PUSH1 0x80 DUP4 ADD MSTORE DUP12 DUP3 ADD MSTORE TIMESTAMP PUSH1 0x40 DUP3 ADD MSTORE LOG3 PUSH1 0x0 DUP6 DUP2 MSTORE PUSH1 0xA DUP8 MSTORE PUSH1 0x40 DUP1 DUP3 KECCAK256 DUP1 SLOAD PUSH1 0x1 PUSH1 0x1 PUSH1 0xA0 SHL SUB NOT AND CALLER OR DUP2 SSTORE PUSH1 0x8 ADD DUP1 SLOAD PUSH5 0xFF00000000 NOT AND SWAP1 SSTORE PUSH1 0x3 DUP9 MSTORE SWAP1 KECCAK256 DUP6 DUP2 SSTORE DUP4 MLOAD PUSH1 0x1 SWAP6 SWAP2 DUP7 ADD SWAP4 SWAP1 SWAP3 DUP4 GT PUSH2 0x1496 JUMPI POP DUP2 SWAP1 PUSH2 0x131B DUP5 SLOAD PUSH2 0x2418 JUMP JUMPDEST PUSH1 0x1F DUP2 GT PUSH2 0x1443 JUMPI JUMPDEST POP DUP8 SWAP1 PUSH1 0x1F DUP4 GT PUSH1 0x1 EQ PUSH2 0x13E7 JUMPI POP PUSH1 0x0 SWAP2 PUSH2 0x13DC JUMPI JUMPDEST POP PUSH1 0x0 NOT PUSH1 0x3 DUP4 SWAP1 SHL SHR NOT AND SWAP1 DUP5 SHL OR SWAP1 SSTORE JUMPDEST CALLER PUSH1 0x0 MSTORE PUSH1 0xC DUP5 MSTORE PUSH2 0x1364 DUP4 PUSH1 0x40 PUSH1 0x0 KECCAK256 PUSH2 0x2990 JUMP JUMPDEST PUSH2 0x136F PUSH1 0x8 SLOAD PUSH2 0x2981 JUMP JUMPDEST PUSH1 0x8 SSTORE CALLER PUSH1 0x0 MSTORE PUSH1 0xF DUP5 MSTORE DUP3 PUSH1 0x40 PUSH1 0x0 KECCAK256 SSTORE DUP3 PUSH32 0x29D766E674B929BF0C72D668DF80A4E09755286EE975F285DBEB8E8CA1708267 PUSH2 0x13B8 PUSH1 0x40 MLOAD SWAP4 PUSH1 0x60 DUP6 MSTORE PUSH1 0x60 DUP6 ADD SWAP1 PUSH2 0x22CC JUMP JUMPDEST SWAP3 PUSH8 0x4563918244F40000 DUP8 DUP3 ADD MSTORE TIMESTAMP PUSH1 0x40 DUP3 ADD MSTORE DUP1 CALLER SWAP5 SUB SWAP1 LOG3 DUP1 SSTORE PUSH1 0x40 MLOAD SWAP1 DUP2 MSTORE RETURN JUMPDEST SWAP1 POP DUP4 ADD MLOAD DUP8 PUSH2 0x133B JUMP JUMPDEST DUP7 SWAP4 AND SWAP1 DUP5 PUSH1 0x0 MSTORE DUP9 PUSH1 0x0 KECCAK256 SWAP2 PUSH1 0x0 JUMPDEST DUP11 DUP3 DUP3 LT PUSH2 0x142D JUMPI POP POP DUP4 GT PUSH2 0x1414 JUMPI JUMPDEST POP POP DUP2 SHL ADD SWAP1 SSTORE PUSH2 0x134E JUMP JUMPDEST DUP6 ADD MLOAD PUSH1 0x0 NOT PUSH1 0xF8 DUP5 PUSH1 0x3 SHL AND SHR NOT AND SWAP1 SSTORE DUP8 DUP1 PUSH2 0x1408 JUMP JUMPDEST DUP4 DUP10 ADD MLOAD DUP6 SSTORE DUP10 SWAP7 SWAP1 SWAP5 ADD SWAP4 SWAP3 DUP4 ADD SWAP3 ADD PUSH2 0x13F7 JUMP JUMPDEST SWAP1 SWAP2 POP DUP4 PUSH1 0x0 MSTORE DUP8 PUSH1 0x0 KECCAK256 PUSH1 0x1F DUP5 ADD PUSH1 0x5 SHR DUP2 ADD SWAP2 DUP10 DUP6 LT PUSH2 0x148C JUMPI JUMPDEST DUP5 SWAP4 SWAP3 SWAP2 PUSH1 0x1F DUP10 SWAP3 ADD PUSH1 0x5 SHR ADD SWAP2 JUMPDEST DUP3 DUP2 LT PUSH2 0x147D JUMPI POP POP PUSH2 0x1324 JUMP JUMPDEST PUSH1 0x0 DUP2 SSTORE DUP6 SWAP5 POP DUP9 SWAP2 ADD PUSH2 0x146F JUMP JUMPDEST SWAP1 SWAP2 POP DUP2 SWAP1 PUSH2 0x1460 JUMP JUMPDEST PUSH4 0x4E487B71 PUSH1 0xE0 SHL PUSH1 0x0 SWAP1 DUP2 MSTORE PUSH1 0x41 PUSH1 0x4 MSTORE REVERT JUMPDEST PUSH1 0x0 MSTORE PUSH1 0xA DUP6 MSTORE PUSH1 0xFF PUSH1 0x8 PUSH1 0x40 PUSH1 0x0 KECCAK256 ADD SLOAD DUP7 SHR AND PUSH1 0x6 DUP2 LT ISZERO SWAP1 DUP2 PUSH2 0x1537 JUMPI DUP1 ISZERO SWAP2 DUP3 ISZERO PUSH2 0x154C JUMPI JUMPDEST DUP3 ISZERO PUSH2 0x1526 JUMPI JUMPDEST DUP3 ISZERO PUSH2 0x1500 JUMPI JUMPDEST POP POP PUSH2 0x14EE JUMPI DUP6 PUSH2 0x1200 JUMP JUMPDEST PUSH1 0x40 MLOAD PUSH4 0x13F177C1 PUSH1 0xE2 SHL DUP2 MSTORE PUSH1 0x4 SWAP1 REVERT JUMPDEST SWAP1 SWAP2 POP PUSH2 0x1511 JUMPI PUSH1 0x2 EQ DUP7 DUP1 PUSH2 0x14E2 JUMP JUMPDEST POP PUSH4 0x4E487B71 PUSH1 0xE0 SHL PUSH1 0x0 SWAP1 DUP2 MSTORE PUSH1 0x21 PUSH1 0x4 MSTORE REVERT JUMPDEST DUP1 SWAP3 POP PUSH2 0x1537 JUMPI PUSH1 0x3 DUP2 EQ SWAP2 PUSH2 0x14DB JUMP JUMPDEST DUP3 PUSH4 0x4E487B71 PUSH1 0xE0 SHL PUSH1 0x0 MSTORE PUSH1 0x21 PUSH1 0x4 MSTORE PUSH1 0x0 REVERT JUMPDEST POP PUSH1 0x1 DUP2 EQ SWAP2 POP PUSH1 0x0 PUSH2 0x14D4 JUMP JUMPDEST CALLVALUE PUSH2 0x331 JUMPI PUSH1 0x0 CALLDATASIZE PUSH1 0x3 NOT ADD SLT PUSH2 0x331 JUMPI PUSH1 0x20 PUSH1 0x40 MLOAD PUSH1 0xC8 DUP2 MSTORE RETURN JUMPDEST CALLVALUE PUSH2 0x331 JUMPI PUSH1 0x0 CALLDATASIZE PUSH1 0x3 NOT ADD SLT PUSH2 0x331 JUMPI PUSH1 0x20 PUSH1 0x40 MLOAD PUSH8 0xDE0B6B3A7640000 DUP2 MSTORE RETURN JUMPDEST CALLVALUE PUSH2 0x331 JUMPI PUSH1 0x20 CALLDATASIZE PUSH1 0x3 NOT ADD SLT PUSH2 0x331 JUMPI PUSH1 0x20 PUSH2 0x15B7 PUSH1 0x4 CALLDATALOAD PUSH2 0x28A3 JUMP JUMPDEST PUSH1 0x40 MLOAD SWAP1 ISZERO ISZERO DUP2 MSTORE RETURN JUMPDEST CALLVALUE PUSH2 0x331 JUMPI PUSH1 0x0 CALLDATASIZE PUSH1 0x3 NOT ADD SLT PUSH2 0x331 JUMPI PUSH1 0x60 PUSH1 0x1 DUP1 PUSH1 0xA0 SHL SUB DUP1 PUSH1 0x4 SLOAD AND SWAP1 DUP1 PUSH1 0x5 SLOAD AND SWAP1 PUSH1 0x6 SLOAD AND SWAP1 PUSH1 0x40 MLOAD SWAP3 DUP4 MSTORE PUSH1 0x20 DUP4 ADD MSTORE PUSH1 0x40 DUP3 ADD MSTORE RETURN JUMPDEST CALLVALUE PUSH2 0x331 JUMPI PUSH1 0x0 CALLDATASIZE PUSH1 0x3 NOT ADD SLT PUSH2 0x331 JUMPI PUSH2 0x1617 PUSH2 0x2CDF JUMP JUMPDEST PUSH1 0x0 DUP1 SLOAD PUSH1 0x1 PUSH1 0x1 PUSH1 0xA0 SHL SUB NOT DUP2 AND DUP3 SSTORE PUSH1 0x1 PUSH1 0x1 PUSH1 0xA0 SHL SUB AND PUSH32 0x8BE0079C531659141344CD1FD0A4F28419497F9722A3DAAFE3B4186F6B6457E0 DUP3 DUP1 LOG3 STOP JUMPDEST CALLVALUE PUSH2 0x331 JUMPI PUSH1 0x20 CALLDATASIZE PUSH1 0x3 NOT ADD SLT PUSH2 0x331 JUMPI PUSH1 0x4 CALLDATALOAD PUSH1 0x0 MSTORE PUSH1 0xA PUSH1 0x20 MSTORE PUSH1 0x40 PUSH1 0x0 KECCAK256 PUSH1 0x3 PUSH1 0x20 MSTORE PUSH1 0x40 PUSH1 0x0 KECCAK256 PUSH1 0x8 DUP3 ADD SLOAD SWAP1 PUSH2 0x16DF PUSH1 0x1 PUSH1 0x6 PUSH2 0xFFFF SWAP6 ADD SLOAD PUSH2 0x16B5 PUSH1 0x2 DUP6 ADD SLOAD SWAP5 PUSH2 0x16AE PUSH1 0x40 MLOAD DUP1 SWAP6 DUP2 SWAP4 ADD PUSH2 0x2452 JUMP JUMPDEST SUB DUP4 PUSH2 0x23C9 JUMP JUMPDEST PUSH1 0x40 MLOAD SWAP6 DUP6 DUP2 DUP9 SWAP8 AND DUP8 MSTORE PUSH1 0x10 SHR AND PUSH1 0x20 DUP7 ADD MSTORE PUSH1 0x40 DUP6 ADD MSTORE PUSH1 0xA0 PUSH1 0x60 DUP6 ADD MSTORE PUSH1 0xA0 DUP5 ADD SWAP1 PUSH2 0x22CC JUMP JUMPDEST SWAP1 PUSH1 0x80 DUP4 ADD MSTORE SUB SWAP1 RETURN JUMPDEST CALLVALUE PUSH2 0x331 JUMPI PUSH1 0x0 CALLDATASIZE PUSH1 0x3 NOT ADD SLT PUSH2 0x331 JUMPI PUSH1 0x20 PUSH1 0x9 SLOAD PUSH1 0x40 MLOAD SWAP1 DUP2 MSTORE RETURN JUMPDEST CALLVALUE PUSH2 0x331 JUMPI PUSH1 0x20 CALLDATASIZE PUSH1 0x3 NOT ADD SLT PUSH2 0x331 JUMPI PUSH2 0x829 PUSH2 0x1723 PUSH2 0x2248 JUMP JUMPDEST PUSH2 0x267B JUMP JUMPDEST CALLVALUE PUSH2 0x331 JUMPI PUSH1 0x0 CALLDATASIZE PUSH1 0x3 NOT ADD SLT PUSH2 0x331 JUMPI PUSH1 0x20 PUSH1 0xFF PUSH1 0x2 SLOAD AND PUSH1 0x40 MLOAD SWAP1 ISZERO ISZERO DUP2 MSTORE RETURN JUMPDEST CALLVALUE PUSH2 0x331 JUMPI PUSH1 0x20 CALLDATASIZE PUSH1 0x3 NOT ADD SLT PUSH2 0x331 JUMPI PUSH2 0x1764 PUSH2 0x2C4C JUMP JUMPDEST PUSH2 0x176C PUSH2 0x2C6A JUMP JUMPDEST PUSH1 0x4 CALLDATALOAD PUSH1 0x0 MSTORE PUSH1 0xA PUSH1 0x20 MSTORE PUSH1 0x40 PUSH1 0x0 KECCAK256 PUSH1 0x3 PUSH1 0x20 MSTORE PUSH1 0x40 PUSH1 0x0 KECCAK256 SLOAD ISZERO PUSH2 0x5F0 JUMPI PUSH1 0xFF PUSH1 0x8 DUP3 ADD SLOAD PUSH1 0x20 SHR AND PUSH1 0x6 DUP2 LT ISZERO PUSH2 0x5DA JUMPI PUSH1 0x3 SUB PUSH2 0x1B04 JUMPI DUP1 SLOAD PUSH1 0x1 PUSH1 0x1 PUSH1 0xA0 SHL SUB AND CALLER SUB PUSH2 0x10E4 JUMPI PUSH1 0x4 DUP2 ADD SLOAD DUP1 TIMESTAMP LT PUSH2 0x1ADA JUMPI JUMPDEST POP PUSH2 0x17D9 PUSH1 0x2 DUP3 ADD SLOAD PUSH1 0x5 DUP4 ADD SLOAD SWAP1 PUSH2 0x266E JUMP JUMPDEST SWAP1 PUSH1 0x4 CALLDATALOAD PUSH1 0x0 MSTORE PUSH1 0x3 PUSH1 0x20 MSTORE PUSH1 0x3 PUSH1 0x40 PUSH1 0x0 KECCAK256 ADD SLOAD DUP3 GT ISZERO PUSH2 0x17FD PUSH1 0x4 CALLDATALOAD DUP4 PUSH2 0x2D0B JUMP JUMPDEST SWAP1 PUSH2 0x180C DUP3 DUP3 PUSH1 0x4 CALLDATALOAD DUP7 PUSH2 0x2E94 JUMP JUMPDEST SWAP4 PUSH1 0xC8 DUP6 MUL SWAP1 DUP6 DUP3 DIV PUSH1 0xC8 EQ DUP7 ISZERO OR ISZERO PUSH2 0xB83 JUMPI DUP2 PUSH2 0x18FD PUSH2 0x2710 SWAP3 PUSH2 0x1837 DUP5 PUSH2 0x1909 SWAP7 DIV DUP11 PUSH2 0x266E JUMP JUMPDEST POP PUSH2 0x1880 PUSH32 0x0 PUSH2 0x1868 DUP12 ADDRESS CALLER DUP5 PUSH2 0x2ED9 JUMP JUMPDEST PUSH1 0x5 SLOAD DUP7 DUP7 DIV SWAP2 PUSH1 0x1 PUSH1 0x1 PUSH1 0xA0 SHL SUB SWAP1 SWAP2 AND SWAP1 PUSH2 0x2C8D JUMP JUMPDEST PUSH1 0x1 DUP1 PUSH1 0xA0 SHL SUB PUSH1 0x5 SLOAD AND PUSH1 0x40 MLOAD PUSH1 0x60 DUP2 MSTORE PUSH1 0x9 PUSH1 0x60 DUP3 ADD MSTORE PUSH9 0x696E737572616E6365 PUSH1 0xB8 SHL PUSH1 0x80 DUP3 ADD MSTORE DUP6 DUP6 DIV PUSH1 0x20 DUP3 ADD MSTORE TIMESTAMP PUSH1 0x40 DUP3 ADD MSTORE PUSH1 0x0 DUP1 MLOAD PUSH1 0x20 PUSH2 0x2FA6 DUP4 CODECOPY DUP2 MLOAD SWAP2 MSTORE PUSH1 0xA0 PUSH1 0x4 CALLDATALOAD SWAP3 LOG3 DUP7 PUSH2 0x1A92 JUMPI JUMPDEST PUSH1 0x4 CALLDATALOAD PUSH1 0x0 MSTORE PUSH1 0x3 PUSH1 0x20 MSTORE PUSH1 0x3 PUSH1 0x40 PUSH1 0x0 KECCAK256 ADD SLOAD DUP7 PUSH1 0x0 EQ PUSH2 0x1A8B JUMPI POP JUMPDEST PUSH1 0x5 DUP9 ADD SLOAD PUSH2 0x29EA JUMP JUMPDEST PUSH1 0x5 DUP8 ADD SSTORE DIV DUP6 PUSH2 0x266E JUMP JUMPDEST PUSH2 0x1918 PUSH1 0x6 DUP6 ADD SWAP2 DUP3 SLOAD PUSH2 0x29EA JUMP JUMPDEST SWAP1 SSTORE PUSH1 0x4 DUP4 ADD SLOAD DUP1 TIMESTAMP GT SWAP1 DUP2 PUSH1 0x0 EQ PUSH2 0x1A85 JUMPI PUSH2 0x1935 SWAP1 TIMESTAMP PUSH2 0x266E JUMP JUMPDEST POP JUMPDEST DUP1 ISZERO SWAP1 PUSH2 0x1A7E JUMPI JUMPDEST PUSH2 0x1A63 JUMPI JUMPDEST PUSH1 0x4 CALLDATALOAD PUSH1 0x0 MSTORE PUSH1 0xE PUSH1 0x20 MSTORE PUSH2 0x195D DUP5 PUSH1 0x40 PUSH1 0x0 KECCAK256 PUSH2 0x2990 JUMP JUMPDEST ISZERO PUSH2 0x1A0B JUMPI SWAP2 PUSH1 0x5 SWAP3 PUSH5 0x400000000 PUSH5 0xFF00000000 NOT PUSH1 0x8 DUP6 ADD SLOAD AND OR PUSH1 0x8 DUP5 ADD SSTORE PUSH1 0x1 DUP1 PUSH1 0xA0 SHL SUB DUP4 SLOAD AND PUSH1 0x0 MSTORE PUSH1 0xF PUSH1 0x20 MSTORE PUSH1 0x0 PUSH1 0x40 DUP2 KECCAK256 SSTORE PUSH1 0x40 MLOAD SWAP2 DUP3 MSTORE PUSH1 0x20 DUP3 ADD MSTORE PUSH1 0x1 PUSH1 0x40 DUP3 ADD MSTORE CALLER SWAP1 PUSH32 0x773866D0FF2706360A89FD0E6B90537F96B2878EAB4A30BBCE99629B5022892C PUSH1 0x60 PUSH1 0x4 CALLDATALOAD SWAP3 LOG3 ADD SLOAD PUSH1 0x40 MLOAD SWAP1 DUP2 MSTORE PUSH32 0x3D7F456A773B484D2552719BD744B62049588737D6A02948EBA3DCAE1B0D77F PUSH1 0x20 PUSH1 0x4 CALLDATALOAD SWAP3 LOG2 JUMPDEST PUSH1 0x1 DUP1 SSTORE STOP JUMPDEST SWAP1 PUSH1 0x4 DUP2 ADD SLOAD SWAP1 PUSH2 0xE10 DUP3 ADD DUP1 SWAP3 GT PUSH2 0xB83 JUMPI PUSH1 0x4 ADD SSTORE PUSH1 0x40 MLOAD SWAP2 DUP3 MSTORE PUSH1 0x20 DUP3 ADD MSTORE PUSH1 0x0 PUSH1 0x40 DUP3 ADD MSTORE CALLER SWAP1 PUSH32 0x773866D0FF2706360A89FD0E6B90537F96B2878EAB4A30BBCE99629B5022892C PUSH1 0x60 PUSH1 0x4 CALLDATALOAD SWAP3 LOG3 PUSH2 0x1A05 JUMP JUMPDEST PUSH1 0x0 PUSH1 0x7 DUP5 ADD SSTORE PUSH1 0x8 DUP4 ADD DUP1 SLOAD PUSH4 0xFFFF0000 NOT AND SWAP1 SSTORE PUSH2 0x1944 JUMP JUMPDEST POP DUP1 PUSH2 0x193F JUMP JUMPDEST POP PUSH2 0x1937 JUMP JUMPDEST SWAP1 POP PUSH2 0x18F3 JUMP JUMPDEST PUSH1 0x40 MLOAD PUSH1 0x60 DUP2 MSTORE PUSH1 0x8 PUSH1 0x60 DUP3 ADD MSTORE PUSH8 0x6C6174655F666565 PUSH1 0xC0 SHL PUSH1 0x80 DUP3 ADD MSTORE DUP8 PUSH1 0x20 DUP3 ADD MSTORE TIMESTAMP PUSH1 0x40 DUP3 ADD MSTORE ADDRESS SWAP1 PUSH1 0x0 DUP1 MLOAD PUSH1 0x20 PUSH2 0x2FA6 DUP4 CODECOPY DUP2 MLOAD SWAP2 MSTORE PUSH1 0xA0 PUSH1 0x4 CALLDATALOAD SWAP3 LOG3 PUSH2 0x18D5 JUMP JUMPDEST PUSH2 0x1AE8 PUSH2 0xE10 SWAP2 TIMESTAMP SWAP1 PUSH2 0x266E JUMP JUMPDEST GT PUSH2 0x1AF3 JUMPI DUP2 PUSH2 0x17C5 JUMP JUMPDEST PUSH1 0x40 MLOAD PUSH3 0xA71FBB PUSH1 0xE0 SHL DUP2 MSTORE PUSH1 0x4 SWAP1 REVERT JUMPDEST PUSH1 0x40 MLOAD PUSH4 0x417BC23 PUSH1 0xE1 SHL DUP2 MSTORE PUSH1 0x4 SWAP1 REVERT JUMPDEST CALLVALUE PUSH2 0x331 JUMPI PUSH1 0x20 CALLDATASIZE PUSH1 0x3 NOT ADD SLT PUSH2 0x331 JUMPI PUSH1 0x0 PUSH2 0x120 PUSH1 0x40 MLOAD PUSH2 0x1B38 DUP2 PUSH2 0x2357 JUMP JUMPDEST DUP3 DUP2 MSTORE DUP3 PUSH1 0x20 DUP3 ADD MSTORE DUP3 PUSH1 0x40 DUP3 ADD MSTORE DUP3 PUSH1 0x60 DUP3 ADD MSTORE DUP3 PUSH1 0x80 DUP3 ADD MSTORE DUP3 PUSH1 0xA0 DUP3 ADD MSTORE DUP3 PUSH1 0xC0 DUP3 ADD MSTORE DUP3 PUSH1 0xE0 DUP3 ADD MSTORE DUP3 PUSH2 0x100 DUP3 ADD MSTORE ADD MSTORE PUSH1 0x4 CALLDATALOAD PUSH1 0x0 MSTORE PUSH1 0xA PUSH1 0x20 MSTORE PUSH2 0x140 PUSH1 0x40 PUSH1 0x0 KECCAK256 PUSH2 0x1C1C PUSH1 0xFF PUSH1 0x1 DUP1 PUSH1 0xA0 SHL SUB DUP4 SLOAD AND SWAP3 PUSH1 0x1 DUP1 PUSH1 0xA0 SHL SUB PUSH1 0x1 DUP3 ADD SLOAD AND SWAP1 PUSH1 0x2 DUP2 ADD SLOAD PUSH1 0x3 DUP3 ADD SLOAD PUSH1 0x4 DUP4 ADD SLOAD PUSH1 0x5 DUP5 ADD SLOAD SWAP2 PUSH1 0x3 PUSH1 0x20 MSTORE PUSH1 0x3 PUSH1 0x40 PUSH1 0x0 KECCAK256 ADD SLOAD SWAP4 PUSH1 0x8 PUSH1 0x7 DUP8 ADD SLOAD SWAP7 ADD SLOAD SWAP7 PUSH1 0x40 MLOAD SWAP11 PUSH2 0x1BDB DUP13 PUSH2 0x2357 JUMP JUMPDEST DUP12 MSTORE PUSH1 0x20 DUP12 ADD MSTORE PUSH1 0x40 DUP11 ADD MSTORE PUSH1 0x60 DUP10 ADD MSTORE PUSH1 0x80 DUP9 ADD MSTORE PUSH1 0xA0 DUP8 ADD MSTORE PUSH1 0xC0 DUP7 ADD MSTORE PUSH1 0xE0 DUP6 ADD MSTORE PUSH2 0xFFFF DUP2 PUSH1 0x10 SHR AND PUSH2 0x100 DUP6 ADD MSTORE PUSH1 0x20 SHR AND PUSH2 0x120 DUP4 ADD PUSH2 0x2662 JUMP JUMPDEST PUSH2 0x7D1 PUSH2 0x120 PUSH1 0x40 MLOAD SWAP3 PUSH1 0x1 DUP1 PUSH1 0xA0 SHL SUB DUP2 MLOAD AND DUP5 MSTORE PUSH1 0x1 DUP1 PUSH1 0xA0 SHL SUB PUSH1 0x20 DUP3 ADD MLOAD AND PUSH1 0x20 DUP6 ADD MSTORE PUSH1 0x40 DUP2 ADD MLOAD PUSH1 0x40 DUP6 ADD MSTORE PUSH1 0x60 DUP2 ADD MLOAD PUSH1 0x60 DUP6 ADD MSTORE PUSH1 0x80 DUP2 ADD MLOAD PUSH1 0x80 DUP6 ADD MSTORE PUSH1 0xA0 DUP2 ADD MLOAD PUSH1 0xA0 DUP6 ADD MSTORE PUSH1 0xC0 DUP2 ADD MLOAD PUSH1 0xC0 DUP6 ADD MSTORE PUSH1 0xE0 DUP2 ADD MLOAD PUSH1 0xE0 DUP6 ADD MSTORE PUSH2 0x100 DUP2 ADD MLOAD PUSH2 0x100 DUP6 ADD MSTORE ADD MLOAD PUSH2 0x120 DUP4 ADD SWAP1 PUSH2 0x227B JUMP JUMPDEST CALLVALUE PUSH2 0x331 JUMPI PUSH2 0x829 PUSH2 0x1CAA CALLDATASIZE PUSH2 0x2288 JUMP JUMPDEST SWAP1 PUSH2 0x2512 JUMP JUMPDEST CALLVALUE PUSH2 0x331 JUMPI PUSH1 0x0 CALLDATASIZE PUSH1 0x3 NOT ADD SLT PUSH2 0x331 JUMPI PUSH1 0x20 PUSH1 0x40 MLOAD PUSH1 0x2 DUP2 MSTORE RETURN JUMPDEST CALLVALUE PUSH2 0x331 JUMPI PUSH1 0x60 CALLDATASIZE PUSH1 0x3 NOT ADD SLT PUSH2 0x331 JUMPI PUSH2 0x1CE5 PUSH2 0x2248 JUMP JUMPDEST PUSH1 0x24 CALLDATALOAD PUSH1 0x1 PUSH1 0x1 PUSH1 0xA0 SHL SUB DUP2 DUP2 AND SWAP2 DUP3 SWAP1 SUB PUSH2 0x331 JUMPI PUSH1 0x44 CALLDATALOAD SWAP3 DUP2 DUP5 AND DUP1 SWAP5 SUB PUSH2 0x331 JUMPI PUSH2 0x1D11 PUSH2 0x2CDF JUMP JUMPDEST AND DUP1 ISZERO PUSH2 0x1E2D JUMPI DUP2 ISZERO PUSH2 0x1DE8 JUMPI DUP3 ISZERO PUSH2 0x1DA3 JUMPI PUSH1 0x40 MLOAD PUSH8 0xFFFFFFFFFFFFFFFF PUSH1 0x60 DUP3 ADD SWAP2 DUP3 LT SWAP2 GT OR PUSH2 0x1D8D JUMPI DUP3 PUSH1 0x1 PUSH1 0x1 PUSH1 0x60 SHL SUB PUSH1 0xA0 SHL DUP3 DUP2 PUSH1 0x4 SLOAD AND OR PUSH1 0x4 SSTORE DUP4 DUP2 PUSH1 0x5 SLOAD AND OR PUSH1 0x5 SSTORE PUSH1 0x6 SLOAD AND OR PUSH1 0x6 SSTORE PUSH32 0x1F63DE24E6765B53F3BF31B690265DC5373FCF3C359EAB0D14C3B303731C08C1 PUSH1 0x0 DUP1 LOG4 STOP JUMPDEST PUSH4 0x4E487B71 PUSH1 0xE0 SHL PUSH1 0x0 MSTORE PUSH1 0x41 PUSH1 0x4 MSTORE PUSH1 0x24 PUSH1 0x0 REVERT JUMPDEST PUSH1 0x40 MLOAD PUSH3 0x461BCD PUSH1 0xE5 SHL DUP2 MSTORE PUSH1 0x20 PUSH1 0x4 DUP3 ADD MSTORE PUSH1 0x17 PUSH1 0x24 DUP3 ADD MSTORE PUSH32 0x496E76616C6964206D61746368696E672077616C6C6574000000000000000000 PUSH1 0x44 DUP3 ADD MSTORE PUSH1 0x64 SWAP1 REVERT JUMPDEST PUSH1 0x40 MLOAD PUSH3 0x461BCD PUSH1 0xE5 SHL DUP2 MSTORE PUSH1 0x20 PUSH1 0x4 DUP3 ADD MSTORE PUSH1 0x18 PUSH1 0x24 DUP3 ADD MSTORE PUSH32 0x496E76616C696420696E737572616E63652077616C6C65740000000000000000 PUSH1 0x44 DUP3 ADD MSTORE PUSH1 0x64 SWAP1 REVERT JUMPDEST PUSH1 0x40 MLOAD PUSH3 0x461BCD PUSH1 0xE5 SHL DUP2 MSTORE PUSH1 0x20 PUSH1 0x4 DUP3 ADD MSTORE PUSH1 0x12 PUSH1 0x24 DUP3 ADD MSTORE PUSH18 0x125B9D985B1A5908199959481DD85B1B195D PUSH1 0x72 SHL PUSH1 0x44 DUP3 ADD MSTORE PUSH1 0x64 SWAP1 REVERT JUMPDEST CALLVALUE PUSH2 0x331 JUMPI PUSH1 0x0 CALLDATASIZE PUSH1 0x3 NOT ADD SLT PUSH2 0x331 JUMPI PUSH2 0x1E80 PUSH2 0x2CDF JUMP JUMPDEST PUSH1 0x2 SLOAD PUSH1 0xFF DUP2 AND ISZERO PUSH2 0x1EBF JUMPI PUSH1 0xFF NOT AND PUSH1 0x2 SSTORE PUSH32 0x5DB9EE0A495BF2E6FF9C91A7834C1BA4FDD244A5E8AA4E537BD38AEAE4B073AA PUSH1 0x20 PUSH1 0x40 MLOAD CALLER DUP2 MSTORE LOG1 STOP JUMPDEST PUSH1 0x40 MLOAD PUSH4 0x8DFC202B PUSH1 0xE0 SHL DUP2 MSTORE PUSH1 0x4 SWAP1 REVERT JUMPDEST CALLVALUE PUSH2 0x331 JUMPI PUSH1 0x40 CALLDATASIZE PUSH1 0x3 NOT ADD SLT PUSH2 0x331 JUMPI PUSH2 0x1EEA PUSH2 0x2248 JUMP JUMPDEST PUSH1 0x1 PUSH1 0x1 PUSH1 0xA0 SHL SUB AND PUSH1 0x0 SWAP1 DUP2 MSTORE PUSH1 0xD PUSH1 0x20 MSTORE PUSH1 0x40 SWAP1 KECCAK256 DUP1 SLOAD PUSH1 0x24 CALLDATALOAD SWAP2 SWAP1 DUP3 LT ISZERO PUSH2 0x331 JUMPI PUSH1 0x20 SWAP2 PUSH2 0x6F3 SWAP2 PUSH2 0x229E JUMP JUMPDEST CALLVALUE PUSH2 0x331 JUMPI PUSH1 0x0 CALLDATASIZE PUSH1 0x3 NOT ADD SLT PUSH2 0x331 JUMPI PUSH1 0x20 PUSH1 0x7 SLOAD PUSH1 0x40 MLOAD SWAP1 DUP2 MSTORE RETURN JUMPDEST CALLVALUE PUSH2 0x331 JUMPI PUSH1 0x20 CALLDATASIZE PUSH1 0x3 NOT ADD SLT PUSH2 0x331 JUMPI PUSH1 0x4 CALLDATALOAD PUSH2 0x1F55 PUSH2 0x2C4C JUMP JUMPDEST PUSH2 0x1F5D PUSH2 0x2C6A JUMP JUMPDEST DUP1 PUSH1 0x0 MSTORE PUSH1 0xA PUSH1 0x20 MSTORE PUSH1 0x40 PUSH1 0x0 KECCAK256 PUSH1 0x3 PUSH1 0x20 MSTORE PUSH1 0x40 PUSH1 0x0 KECCAK256 SLOAD ISZERO PUSH2 0x5F0 JUMPI PUSH1 0xFF PUSH1 0x8 DUP3 ADD SLOAD PUSH1 0x20 SHR AND PUSH1 0x6 DUP2 LT ISZERO PUSH2 0x5DA JUMPI PUSH1 0x3 DUP2 EQ ISZERO SWAP1 DUP2 PUSH2 0x203A JUMPI JUMPDEST POP PUSH2 0x1B04 JUMPI PUSH1 0x1 DUP2 ADD SLOAD PUSH1 0x1 PUSH1 0x1 PUSH1 0xA0 SHL SUB AND CALLER SUB PUSH2 0x10E4 JUMPI PUSH1 0x6 ADD SWAP1 DUP2 SLOAD SWAP2 DUP3 ISZERO PUSH2 0x2028 JUMPI PUSH1 0x0 SWAP1 SSTORE PUSH2 0x1FF0 DUP3 CALLER PUSH32 0x0 PUSH2 0x2C8D JUMP JUMPDEST PUSH1 0x40 MLOAD SWAP2 DUP3 MSTORE TIMESTAMP PUSH1 0x20 DUP4 ADD MSTORE PUSH32 0x94DB06301DC32995467BB8625D03E4DD74879E0CBEE91569723822A9030CF7D5 PUSH1 0x40 CALLER SWAP4 LOG3 PUSH1 0x1 DUP1 SSTORE STOP JUMPDEST PUSH1 0x40 MLOAD PUSH4 0xAAD5627B PUSH1 0xE0 SHL DUP2 MSTORE PUSH1 0x4 SWAP1 REVERT JUMPDEST PUSH1 0x4 SWAP2 POP EQ ISZERO DUP4 PUSH2 0x1F9B JUMP JUMPDEST CALLVALUE PUSH2 0x331 JUMPI PUSH2 0x2054 CALLDATASIZE PUSH2 0x2288 JUMP JUMPDEST SWAP1 PUSH1 0x0 MSTORE PUSH1 0xE PUSH1 0x20 MSTORE PUSH1 0x40 PUSH1 0x0 KECCAK256 DUP1 SLOAD DUP3 LT ISZERO PUSH2 0x331 JUMPI PUSH1 0x20 SWAP2 PUSH2 0x6F3 SWAP2 PUSH2 0x229E JUMP JUMPDEST CALLVALUE PUSH2 0x331 JUMPI PUSH1 0x20 CALLDATASIZE PUSH1 0x3 NOT ADD SLT PUSH2 0x331 JUMPI PUSH2 0x2090 PUSH2 0x2248 JUMP JUMPDEST PUSH1 0x1 PUSH1 0x1 PUSH1 0xA0 SHL SUB AND PUSH1 0x0 SWAP1 DUP2 MSTORE PUSH1 0xF PUSH1 0x20 MSTORE PUSH1 0x40 SWAP1 KECCAK256 SLOAD DUP1 ISZERO PUSH2 0x2138 JUMPI DUP1 PUSH1 0x0 MSTORE PUSH1 0xA PUSH1 0x20 MSTORE PUSH1 0xFF PUSH1 0x8 PUSH1 0x40 PUSH1 0x0 KECCAK256 ADD SLOAD PUSH1 0x20 SHR AND SWAP1 PUSH1 0x6 DUP3 LT ISZERO DUP1 PUSH2 0x5DA JUMPI DUP3 ISZERO SWAP1 DUP2 ISZERO PUSH2 0x212B JUMPI JUMPDEST DUP2 ISZERO PUSH2 0x211A JUMPI JUMPDEST DUP2 ISZERO PUSH2 0x2109 JUMPI JUMPDEST POP PUSH1 0x60 SWAP3 PUSH2 0x7D1 SWAP2 JUMPDEST PUSH1 0x40 MLOAD SWAP4 DUP5 MSTORE ISZERO ISZERO PUSH1 0x20 DUP5 ADD MSTORE PUSH1 0x40 DUP4 ADD SWAP1 PUSH2 0x227B JUMP JUMPDEST SWAP1 POP PUSH2 0x5DA JUMPI PUSH1 0x2 DUP3 EQ PUSH1 0x60 PUSH2 0x20E9 JUMP JUMPDEST DUP1 SWAP2 POP PUSH2 0x5DA JUMPI PUSH1 0x3 DUP4 EQ SWAP1 PUSH2 0x20E2 JUMP JUMPDEST POP POP PUSH1 0x1 DUP3 EQ PUSH1 0x0 PUSH2 0x20DB JUMP JUMPDEST PUSH1 0x60 SWAP1 PUSH2 0x7D1 PUSH1 0x4 PUSH1 0x0 PUSH2 0x20F2 JUMP JUMPDEST PUSH2 0x225E JUMP JUMPDEST CALLVALUE PUSH2 0x331 JUMPI PUSH1 0x20 CALLDATASIZE PUSH1 0x3 NOT ADD SLT PUSH2 0x331 JUMPI PUSH1 0x1 PUSH1 0x1 PUSH1 0xA0 SHL SUB PUSH2 0x216D PUSH2 0x2248 JUMP JUMPDEST AND PUSH1 0x0 MSTORE PUSH1 0xF PUSH1 0x20 MSTORE PUSH1 0x20 PUSH1 0x40 PUSH1 0x0 KECCAK256 SLOAD PUSH1 0x40 MLOAD SWAP1 DUP2 MSTORE RETURN JUMPDEST CALLVALUE PUSH2 0x331 JUMPI PUSH1 0x0 CALLDATASIZE PUSH1 0x3 NOT ADD SLT PUSH2 0x331 JUMPI PUSH1 0x20 PUSH1 0x40 MLOAD PUSH1 0xA DUP2 MSTORE RETURN JUMPDEST CALLVALUE PUSH2 0x331 JUMPI PUSH1 0x20 SWAP1 PUSH1 0x20 PUSH1 0x3 NOT CALLDATASIZE ADD SLT PUSH2 0x331 JUMPI PUSH1 0x4 CALLDATALOAD PUSH1 0x0 MSTORE PUSH1 0xE PUSH1 0x20 MSTORE PUSH1 0x40 PUSH1 0x0 KECCAK256 SWAP2 DUP3 SLOAD DUP1 DUP4 MSTORE PUSH1 0x20 DUP4 ADD SWAP4 PUSH1 0x0 MSTORE PUSH1 0x20 PUSH1 0x0 KECCAK256 SWAP2 PUSH1 0x0 SWAP1 JUMPDEST DUP3 DUP3 LT PUSH2 0x21F5 JUMPI PUSH2 0x3A6 DUP6 PUSH2 0x39A DUP2 DUP10 SUB DUP3 PUSH2 0x23C9 JUMP JUMPDEST DUP4 SLOAD DUP7 MSTORE SWAP5 DUP6 ADD SWAP5 PUSH1 0x1 SWAP4 DUP5 ADD SWAP4 SWAP1 SWAP2 ADD SWAP1 PUSH2 0x21DE JUMP JUMPDEST PUSH1 0x20 SWAP1 PUSH1 0x20 PUSH1 0x40 DUP2 DUP4 ADD SWAP3 DUP3 DUP2 MSTORE DUP6 MLOAD DUP1 SWAP5 MSTORE ADD SWAP4 ADD SWAP2 PUSH1 0x0 JUMPDEST DUP3 DUP2 LT PUSH2 0x2234 JUMPI POP POP POP POP SWAP1 JUMP JUMPDEST DUP4 MLOAD DUP6 MSTORE SWAP4 DUP2 ADD SWAP4 SWAP3 DUP2 ADD SWAP3 PUSH1 0x1 ADD PUSH2 0x2226 JUMP JUMPDEST PUSH1 0x4 CALLDATALOAD SWAP1 PUSH1 0x1 PUSH1 0x1 PUSH1 0xA0 SHL SUB DUP3 AND DUP3 SUB PUSH2 0x331 JUMPI JUMP JUMPDEST CALLVALUE PUSH2 0x331 JUMPI PUSH1 0x0 CALLDATASIZE PUSH1 0x3 NOT ADD SLT PUSH2 0x331 JUMPI PUSH1 0x20 PUSH1 0x40 MLOAD PUSH2 0xE10 DUP2 MSTORE RETURN JUMPDEST SWAP1 PUSH1 0x6 DUP3 LT ISZERO PUSH2 0x5DA JUMPI MSTORE JUMP JUMPDEST PUSH1 0x40 SWAP1 PUSH1 0x3 NOT ADD SLT PUSH2 0x331 JUMPI PUSH1 0x4 CALLDATALOAD SWAP1 PUSH1 0x24 CALLDATALOAD SWAP1 JUMP JUMPDEST DUP1 SLOAD DUP3 LT ISZERO PUSH2 0x22B6 JUMPI PUSH1 0x0 MSTORE PUSH1 0x20 PUSH1 0x0 KECCAK256 ADD SWAP1 PUSH1 0x0 SWAP1 JUMP JUMPDEST PUSH4 0x4E487B71 PUSH1 0xE0 SHL PUSH1 0x0 MSTORE PUSH1 0x32 PUSH1 0x4 MSTORE PUSH1 0x24 PUSH1 0x0 REVERT JUMPDEST SWAP2 SWAP1 DUP3 MLOAD SWAP3 DUP4 DUP3 MSTORE PUSH1 0x0 JUMPDEST DUP5 DUP2 LT PUSH2 0x22F8 JUMPI POP POP DUP3 PUSH1 0x0 PUSH1 0x20 DUP1 SWAP5 SWAP6 DUP5 ADD ADD MSTORE PUSH1 0x1F DUP1 NOT SWAP2 ADD AND ADD ADD SWAP1 JUMP JUMPDEST PUSH1 0x20 DUP2 DUP4 ADD DUP2 ADD MLOAD DUP5 DUP4 ADD DUP3 ADD MSTORE ADD PUSH2 0x22D7 JUMP JUMPDEST PUSH1 0x40 SWAP1 PUSH2 0x2325 SWAP4 SWAP3 ISZERO ISZERO DUP2 MSTORE DUP2 PUSH1 0x20 DUP3 ADD MSTORE ADD SWAP1 PUSH2 0x22CC JUMP JUMPDEST SWAP1 JUMP JUMPDEST CALLVALUE PUSH2 0x331 JUMPI PUSH1 0x20 CALLDATASIZE PUSH1 0x3 NOT ADD SLT PUSH2 0x331 JUMPI PUSH1 0x4 CALLDATALOAD PUSH1 0x0 MSTORE PUSH1 0x3 PUSH1 0x20 MSTORE PUSH1 0x20 PUSH1 0x3 PUSH1 0x40 PUSH1 0x0 KECCAK256 ADD SLOAD PUSH1 0x40 MLOAD SWAP1 DUP2 MSTORE RETURN JUMPDEST PUSH2 0x140 DUP2 ADD SWAP1 DUP2 LT PUSH8 0xFFFFFFFFFFFFFFFF DUP3 GT OR PUSH2 0x1D8D JUMPI PUSH1 0x40 MSTORE JUMP JUMPDEST PUSH2 0x160 DUP2 ADD SWAP1 DUP2 LT PUSH8 0xFFFFFFFFFFFFFFFF DUP3 GT OR PUSH2 0x1D8D JUMPI PUSH1 0x40 MSTORE JUMP JUMPDEST PUSH1 0xA0 DUP2 ADD SWAP1 DUP2 LT PUSH8 0xFFFFFFFFFFFFFFFF DUP3 GT OR PUSH2 0x1D8D JUMPI PUSH1 0x40 MSTORE JUMP JUMPDEST PUSH1 0x40 DUP2 ADD SWAP1 DUP2 LT PUSH8 0xFFFFFFFFFFFFFFFF DUP3 GT OR PUSH2 0x1D8D JUMPI PUSH1 0x40 MSTORE JUMP JUMPDEST SWAP1 PUSH1 0x1F DUP1 NOT SWAP2 ADD AND DUP2 ADD SWAP1 DUP2 LT PUSH8 0xFFFFFFFFFFFFFFFF DUP3 GT OR PUSH2 0x1D8D JUMPI PUSH1 0x40 MSTORE JUMP JUMPDEST PUSH1 0x60 SWAP1 PUSH1 0x3 NOT ADD SLT PUSH2 0x331 JUMPI PUSH1 0x4 CALLDATALOAD SWAP1 PUSH1 0x24 CALLDATALOAD SWAP1 PUSH1 0x44 CALLDATALOAD SWAP1 JUMP JUMPDEST DUP2 DUP2 MUL SWAP3 SWAP2 DUP2 ISZERO SWAP2 DUP5 DIV EQ OR ISZERO PUSH2 0xB83 JUMPI JUMP JUMPDEST SWAP1 PUSH1 0x1 DUP3 DUP2 SHR SWAP3 AND DUP1 ISZERO PUSH2 0x2448 JUMPI JUMPDEST PUSH1 0x20 DUP4 LT EQ PUSH2 0x2432 JUMPI JUMP JUMPDEST PUSH4 0x4E487B71 PUSH1 0xE0 SHL PUSH1 0x0 MSTORE PUSH1 0x22 PUSH1 0x4 MSTORE PUSH1 0x24 PUSH1 0x0 REVERT JUMPDEST SWAP2 PUSH1 0x7F AND SWAP2 PUSH2 0x2427 JUMP JUMPDEST DUP1 SLOAD PUSH1 0x0 SWAP4 SWAP3 PUSH2 0x2461 DUP3 PUSH2 0x2418 JUMP JUMPDEST SWAP2 DUP3 DUP3 MSTORE PUSH1 0x20 SWAP4 PUSH1 0x1 SWAP2 PUSH1 0x1 DUP2 AND SWAP1 DUP2 PUSH1 0x0 EQ PUSH2 0x24C9 JUMPI POP PUSH1 0x1 EQ PUSH2 0x2488 JUMPI JUMPDEST POP POP POP POP POP JUMP JUMPDEST SWAP1 SWAP4 SWAP5 SWAP6 POP PUSH1 0x0 SWAP3 SWAP2 SWAP3 MSTORE DUP4 PUSH1 0x0 KECCAK256 SWAP3 DUP5 PUSH1 0x0 SWAP5 JUMPDEST DUP4 DUP7 LT PUSH2 0x24B5 JUMPI POP POP POP POP ADD ADD SWAP1 CODESIZE DUP1 DUP1 DUP1 DUP1 PUSH2 0x2481 JUMP JUMPDEST DUP1 SLOAD DUP6 DUP8 ADD DUP4 ADD MSTORE SWAP5 ADD SWAP4 DUP6 SWAP1 DUP3 ADD PUSH2 0x249D JUMP JUMPDEST PUSH1 0xFF NOT AND DUP7 DUP6 ADD MSTORE POP POP POP SWAP1 ISZERO ISZERO PUSH1 0x5 SHL ADD ADD SWAP2 POP CODESIZE DUP1 DUP1 DUP1 DUP1 PUSH2 0x2481 JUMP JUMPDEST PUSH1 0x40 MLOAD SWAP1 PUSH2 0x24F5 DUP3 PUSH2 0x23AD JUMP JUMPDEST PUSH1 0xE DUP3 MSTORE PUSH14 0x131BD85B881B9BDD08199BDD5B99 PUSH1 0x92 SHL PUSH1 0x20 DUP4 ADD MSTORE JUMP JUMPDEST SWAP2 SWAP1 PUSH1 0x0 DUP4 DUP2 MSTORE PUSH1 0x20 SWAP2 PUSH1 0xA DUP4 MSTORE PUSH1 0x40 SWAP5 DUP6 DUP4 KECCAK256 PUSH1 0x3 DUP6 MSTORE DUP7 DUP5 KECCAK256 SLOAD ISZERO PUSH2 0x2652 JUMPI PUSH1 0x8 ADD SLOAD DUP5 SHR PUSH1 0xFF AND PUSH1 0x6 DUP2 LT ISZERO PUSH2 0x263E JUMPI PUSH1 0x1 SUB PUSH2 0x2604 JUMPI PUSH9 0x56BC75E2D63100000 DUP3 LT PUSH2 0x25D3 JUMPI DUP3 MSTORE PUSH1 0x3 DUP4 MSTORE PUSH1 0x2 DUP6 DUP4 KECCAK256 ADD SLOAD LT PUSH2 0x259B JUMPI POP PUSH16 0x21B0B71031B7B73334B936903637B0B7 PUSH1 0x81 SHL PUSH1 0x1 SWAP4 MLOAD SWAP2 PUSH2 0x2591 DUP4 PUSH2 0x23AD JUMP JUMPDEST PUSH1 0x10 DUP4 MSTORE DUP3 ADD MSTORE SWAP1 JUMP JUMPDEST PUSH32 0x416D6F756E742065786365656473206D617820617070726F7665640000000000 SWAP1 SWAP4 MLOAD SWAP2 PUSH2 0x25C9 DUP4 PUSH2 0x23AD JUMP JUMPDEST PUSH1 0x1B DUP4 MSTORE DUP3 ADD MSTORE SWAP1 JUMP JUMPDEST POP POP PUSH20 0x416D6F756E742062656C6F77206D696E696D756D PUSH1 0x60 SHL SWAP1 SWAP4 MLOAD SWAP2 PUSH2 0x25FA DUP4 PUSH2 0x23AD JUMP JUMPDEST PUSH1 0x14 DUP4 MSTORE DUP3 ADD MSTORE SWAP1 JUMP JUMPDEST POP POP PUSH32 0x4C6F616E206973206E6F7420617070726F766564207965740000000000000000 SWAP1 SWAP4 MLOAD SWAP2 PUSH2 0x2634 DUP4 PUSH2 0x23AD JUMP JUMPDEST PUSH1 0x18 DUP4 MSTORE DUP3 ADD MSTORE SWAP1 JUMP JUMPDEST PUSH4 0x4E487B71 PUSH1 0xE0 SHL DUP5 MSTORE PUSH1 0x21 PUSH1 0x4 MSTORE PUSH1 0x24 DUP5 REVERT JUMPDEST POP POP POP SWAP2 SWAP3 POP POP SWAP1 PUSH2 0x2325 PUSH2 0x24E8 JUMP JUMPDEST PUSH1 0x6 DUP3 LT ISZERO PUSH2 0x5DA JUMPI MSTORE JUMP JUMPDEST SWAP2 SWAP1 DUP3 SUB SWAP2 DUP3 GT PUSH2 0xB83 JUMPI JUMP JUMPDEST PUSH1 0x1 DUP1 PUSH1 0xA0 SHL SUB AND SWAP1 PUSH1 0x0 DUP3 DUP2 MSTORE PUSH1 0x20 SWAP1 PUSH1 0xB DUP3 MSTORE PUSH1 0x40 SWAP4 PUSH1 0xFF DUP6 DUP4 KECCAK256 SLOAD AND ISZERO PUSH2 0x27D6 JUMPI DUP2 MSTORE PUSH1 0xF DUP3 MSTORE DUP4 DUP2 KECCAK256 SLOAD DUP1 PUSH2 0x26D3 JUMPI JUMPDEST POP POP PUSH16 0x21B0B7103932B8BAB2B9BA103637B0B7 PUSH1 0x81 SHL PUSH1 0x1 SWAP4 MLOAD SWAP2 PUSH2 0x2591 DUP4 PUSH2 0x23AD JUMP JUMPDEST DUP2 MSTORE PUSH1 0xA DUP3 MSTORE PUSH1 0xFF PUSH1 0x8 DUP6 DUP4 KECCAK256 ADD SLOAD DUP4 SHR AND PUSH1 0x6 DUP2 LT ISZERO SWAP1 DUP2 PUSH2 0x27B5 JUMPI DUP1 ISZERO SWAP2 DUP3 ISZERO PUSH2 0x27C9 JUMPI JUMPDEST DUP3 ISZERO PUSH2 0x27A4 JUMPI JUMPDEST DUP3 ISZERO PUSH2 0x277F JUMPI JUMPDEST POP POP PUSH2 0x2714 JUMPI DUP1 PUSH2 0x26AF JUMP JUMPDEST DUP4 MLOAD SWAP1 SWAP4 SWAP1 SWAP2 PUSH1 0x60 DUP4 ADD DUP6 PUSH8 0xFFFFFFFFFFFFFFFF DUP3 GT DUP6 DUP4 LT OR PUSH2 0x276B JUMPI POP DUP3 MSTORE PUSH1 0x22 DUP4 MSTORE PUSH32 0x48617320616374697665206C6F616E206F722070656E64696E67207265717565 SWAP1 DUP4 ADD MSTORE PUSH2 0x1CDD PUSH1 0xF2 SHL SWAP1 DUP3 ADD MSTORE SWAP1 JUMP JUMPDEST PUSH4 0x4E487B71 PUSH1 0xE0 SHL DUP2 MSTORE PUSH1 0x41 PUSH1 0x4 MSTORE PUSH1 0x24 SWAP1 REVERT JUMPDEST SWAP1 SWAP2 POP PUSH2 0x2790 JUMPI PUSH1 0x2 EQ CODESIZE DUP1 PUSH2 0x2708 JUMP JUMPDEST PUSH4 0x4E487B71 PUSH1 0xE0 SHL DUP3 MSTORE PUSH1 0x21 PUSH1 0x4 MSTORE PUSH1 0x24 DUP3 REVERT JUMPDEST DUP1 SWAP3 POP PUSH2 0x27B5 JUMPI PUSH1 0x3 DUP2 EQ SWAP2 PUSH2 0x2701 JUMP JUMPDEST PUSH4 0x4E487B71 PUSH1 0xE0 SHL DUP4 MSTORE PUSH1 0x21 PUSH1 0x4 MSTORE PUSH1 0x24 DUP4 REVERT JUMPDEST POP PUSH1 0x1 DUP2 EQ SWAP2 POP DUP3 PUSH2 0x26FA JUMP JUMPDEST POP PUSH15 0x139BDD081DDA1A5D195B1A5CDD1959 PUSH1 0x8A SHL SWAP1 SWAP4 MLOAD SWAP2 PUSH2 0x27F7 DUP4 PUSH2 0x23AD JUMP JUMPDEST PUSH1 0xF DUP4 MSTORE DUP3 ADD MSTORE SWAP1 JUMP JUMPDEST PUSH1 0x0 MSTORE PUSH1 0xA PUSH1 0x20 MSTORE PUSH1 0x40 PUSH1 0x0 KECCAK256 PUSH2 0x289F PUSH1 0x40 MLOAD PUSH2 0x281D DUP2 PUSH2 0x2374 JUMP JUMPDEST PUSH1 0x1 DUP1 PUSH1 0xA0 SHL SUB DUP1 DUP5 SLOAD AND DUP3 MSTORE PUSH1 0x1 DUP5 ADD SLOAD AND PUSH1 0x20 DUP3 ADD MSTORE PUSH1 0x2 DUP4 ADD SLOAD PUSH1 0x40 DUP3 ADD MSTORE PUSH1 0x3 DUP4 ADD SLOAD PUSH1 0x60 DUP3 ADD MSTORE PUSH1 0x4 DUP4 ADD SLOAD PUSH1 0x80 DUP3 ADD MSTORE PUSH1 0x5 DUP4 ADD SLOAD PUSH1 0xA0 DUP3 ADD MSTORE PUSH2 0x140 PUSH1 0xFF PUSH1 0x8 PUSH1 0x6 DUP7 ADD SLOAD SWAP6 PUSH1 0xC0 DUP6 ADD SWAP7 DUP8 MSTORE PUSH1 0x7 DUP2 ADD SLOAD PUSH1 0xE0 DUP7 ADD MSTORE ADD SLOAD PUSH2 0xFFFF DUP1 DUP3 AND PUSH2 0x100 DUP7 ADD MSTORE DUP2 PUSH1 0x10 SHR AND PUSH2 0x120 DUP6 ADD MSTORE PUSH1 0x20 SHR AND SWAP2 ADD PUSH2 0x2662 JUMP JUMPDEST MLOAD SWAP1 JUMP JUMPDEST PUSH1 0x0 DUP2 DUP2 MSTORE PUSH1 0xA PUSH1 0x20 MSTORE PUSH1 0x40 DUP2 KECCAK256 PUSH1 0x40 MLOAD PUSH2 0x28BD DUP2 PUSH2 0x2374 JUMP JUMPDEST PUSH1 0x1 DUP1 PUSH1 0xA0 SHL SUB DUP1 DUP4 SLOAD AND DUP3 MSTORE PUSH1 0x1 DUP4 ADD SLOAD AND PUSH1 0x20 DUP3 ADD MSTORE PUSH1 0x2 DUP3 ADD SLOAD SWAP1 PUSH1 0x40 DUP2 ADD SWAP2 DUP3 MSTORE PUSH1 0x3 DUP4 ADD SLOAD PUSH1 0x60 DUP3 ADD MSTORE PUSH1 0x4 DUP4 ADD SLOAD PUSH1 0x80 DUP3 ADD MSTORE PUSH2 0x2947 PUSH1 0xFF PUSH2 0x140 PUSH1 0x8 PUSH1 0x5 DUP8 ADD SLOAD SWAP7 PUSH1 0xA0 DUP7 ADD SWAP8 DUP9 MSTORE PUSH1 0x6 DUP2 ADD SLOAD PUSH1 0xC0 DUP8 ADD MSTORE PUSH1 0x7 DUP2 ADD SLOAD PUSH1 0xE0 DUP8 ADD MSTORE ADD SLOAD SWAP4 PUSH2 0xFFFF DUP1 DUP7 AND PUSH2 0x100 DUP4 ADD MSTORE DUP6 PUSH1 0x10 SHR AND PUSH2 0x120 DUP3 ADD MSTORE ADD SWAP3 PUSH1 0x20 SHR AND DUP3 PUSH2 0x2662 JUMP JUMPDEST MLOAD PUSH1 0x6 DUP2 LT ISZERO PUSH2 0x263E JUMPI PUSH1 0x3 SUB PUSH2 0x297A JUMPI SWAP2 PUSH2 0x296B PUSH1 0x40 SWAP3 PUSH1 0x3 SWAP5 MLOAD SWAP1 MLOAD SWAP1 PUSH2 0x266E JUMP JUMPDEST SWAP4 DUP2 MSTORE DUP3 PUSH1 0x20 MSTORE KECCAK256 ADD SLOAD LT ISZERO SWAP1 JUMP JUMPDEST POP POP SWAP1 POP SWAP1 JUMP JUMPDEST PUSH1 0x0 NOT DUP2 EQ PUSH2 0xB83 JUMPI PUSH1 0x1 ADD SWAP1 JUMP JUMPDEST DUP1 SLOAD PUSH9 0x10000000000000000 DUP2 LT ISZERO PUSH2 0x1D8D JUMPI PUSH2 0x29B2 SWAP2 PUSH1 0x1 DUP3 ADD DUP2 SSTORE PUSH2 0x229E JUMP JUMPDEST DUP2 SWAP3 SWAP2 SLOAD SWAP1 PUSH1 0x3 SHL SWAP2 DUP3 SHL SWAP2 PUSH1 0x0 NOT SWAP1 SHL NOT AND OR SWAP1 SSTORE JUMP JUMPDEST DUP2 ISZERO PUSH2 0x29D4 JUMPI DIV SWAP1 JUMP JUMPDEST PUSH4 0x4E487B71 PUSH1 0xE0 SHL PUSH1 0x0 MSTORE PUSH1 0x12 PUSH1 0x4 MSTORE PUSH1 0x24 PUSH1 0x0 REVERT JUMPDEST SWAP2 SWAP1 DUP3 ADD DUP1 SWAP3 GT PUSH2 0xB83 JUMPI JUMP JUMPDEST PUSH9 0x3635C9ADC5DEA00000 DUP2 GT ISZERO PUSH2 0x2A70 JUMPI PUSH10 0x10F0CF064DD59200000 DUP2 GT ISZERO PUSH2 0x2A69 JUMPI PUSH10 0x21E19E0C9BAB2400000 DUP2 GT ISZERO PUSH2 0x2A62 JUMPI PUSH10 0x54B40B1F852BDA00000 DUP2 GT ISZERO PUSH2 0x2A5B JUMPI PUSH10 0xA968163F0A57B400000 LT ISZERO PUSH2 0x2A55 JUMPI PUSH2 0x8CA SWAP1 JUMP JUMPDEST PUSH2 0x708 SWAP1 JUMP JUMPDEST POP PUSH2 0x5DC SWAP1 JUMP JUMPDEST POP PUSH2 0x4B0 SWAP1 JUMP JUMPDEST POP PUSH2 0x384 SWAP1 JUMP JUMPDEST POP PUSH2 0x258 SWAP1 JUMP JUMPDEST SWAP2 SWAP1 DUP1 ISZERO PUSH2 0x2B43 JUMPI PUSH1 0xC SWAP1 DIV SWAP1 PUSH8 0xDE0B6B3A7640000 SWAP2 DUP3 DUP2 MUL SWAP1 DUP1 DUP3 DIV DUP5 EQ SWAP1 ISZERO OR ISZERO PUSH2 0xB83 JUMPI PUSH2 0x2710 SWAP1 DIV SWAP2 DUP3 DUP2 ADD SWAP3 DUP4 DUP3 GT PUSH2 0xB83 JUMPI DUP3 SWAP4 DUP5 DUP4 SWAP6 DUP7 SWAP3 SWAP2 JUMPDEST PUSH2 0x2B03 JUMPI POP POP PUSH2 0x2ACC PUSH2 0x2AD1 SWAP3 DUP8 PUSH2 0x2405 JUMP JUMPDEST PUSH2 0x2405 JUMP JUMPDEST DIV SWAP1 PUSH8 0xDE0B6B3A763FFFF NOT DUP4 ADD SWAP3 DUP4 GT PUSH2 0xB83 JUMPI DUP3 ISZERO PUSH2 0x2AF7 JUMPI POP PUSH2 0x2325 SWAP3 POP PUSH2 0x29CA JUMP JUMPDEST SWAP2 POP POP PUSH2 0x2325 SWAP2 PUSH2 0x29CA JUMP JUMPDEST PUSH1 0x1 SWAP3 POP SWAP1 DUP3 DUP3 AND DUP4 EQ PUSH2 0x2B29 JUMPI JUMPDEST PUSH2 0x2B1D DUP2 DUP7 SWAP3 PUSH2 0x2405 JUMP JUMPDEST DIV SWAP2 SHR SWAP1 DUP2 DUP7 SWAP3 PUSH2 0x2AB9 JUMP JUMPDEST SWAP6 PUSH2 0x2B1D DUP6 PUSH2 0x2B39 DUP10 DUP3 SWAP5 PUSH2 0x2405 JUMP JUMPDEST DIV SWAP8 SWAP2 POP POP PUSH2 0x2B12 JUMP JUMPDEST POP PUSH2 0x2325 SWAP2 PUSH2 0x29CA JUMP JUMPDEST SWAP2 SWAP1 SWAP2 PUSH1 0x0 SWAP1 DUP2 MSTORE PUSH1 0x20 SWAP3 PUSH1 0xA DUP5 MSTORE PUSH1 0x40 DUP3 KECCAK256 PUSH1 0x3 DUP6 MSTORE PUSH1 0x40 DUP4 KECCAK256 SLOAD ISZERO PUSH2 0x2C3E JUMPI PUSH1 0x8 ADD SLOAD DUP5 SHR PUSH1 0xFF AND PUSH1 0x6 DUP2 LT ISZERO PUSH2 0x27B5 JUMPI PUSH2 0x2C04 JUMPI PUSH9 0x56BC75E2D63100000 DUP2 LT SWAP1 DUP2 ISZERO PUSH2 0x2BF0 JUMPI JUMPDEST POP PUSH2 0x2BC2 JUMPI POP PUSH1 0x1 SWAP2 PUSH16 0x21B0B71030B8383937BB32903637B0B7 PUSH1 0x81 SHL PUSH1 0x40 MLOAD SWAP2 PUSH2 0x2591 DUP4 PUSH2 0x23AD JUMP JUMPDEST SWAP2 PUSH18 0x125B9D985B1A59081B585E08185B5BDD5B9D PUSH1 0x72 SHL PUSH1 0x40 MLOAD SWAP2 PUSH2 0x2BE6 DUP4 PUSH2 0x23AD JUMP JUMPDEST PUSH1 0x12 DUP4 MSTORE DUP3 ADD MSTORE SWAP1 JUMP JUMPDEST PUSH10 0x152D02C7E14AF6800000 SWAP2 POP GT CODESIZE PUSH2 0x2B98 JUMP JUMPDEST POP SWAP2 PUSH32 0x4C6F616E206973206E6F7420696E207265717565737465642073746174757300 PUSH1 0x40 MLOAD SWAP2 PUSH2 0x2C34 DUP4 PUSH2 0x23AD JUMP JUMPDEST PUSH1 0x1F DUP4 MSTORE DUP3 ADD MSTORE SWAP1 JUMP JUMPDEST POP POP SWAP1 SWAP2 POP SWAP1 PUSH2 0x2325 PUSH2 0x24E8 JUMP JUMPDEST PUSH1 0xFF PUSH1 0x2 SLOAD AND PUSH2 0x2C58 JUMPI JUMP JUMPDEST PUSH1 0x40 MLOAD PUSH4 0xD93C0665 PUSH1 0xE0 SHL DUP2 MSTORE PUSH1 0x4 SWAP1 REVERT JUMPDEST PUSH1 0x2 PUSH1 0x1 SLOAD EQ PUSH2 0x2C7B JUMPI PUSH1 0x2 PUSH1 0x1 SSTORE JUMP JUMPDEST PUSH1 0x40 MLOAD PUSH4 0x3EE5AEB5 PUSH1 0xE0 SHL DUP2 MSTORE PUSH1 0x4 SWAP1 REVERT JUMPDEST PUSH1 0x40 MLOAD PUSH4 0xA9059CBB PUSH1 0xE0 SHL PUSH1 0x20 DUP3 ADD MSTORE PUSH1 0x1 PUSH1 0x1 PUSH1 0xA0 SHL SUB SWAP1 SWAP3 AND PUSH1 0x24 DUP4 ADD MSTORE PUSH1 0x44 DUP1 DUP4 ADD SWAP4 SWAP1 SWAP4 MSTORE SWAP2 DUP2 MSTORE PUSH1 0x80 DUP2 ADD SWAP2 PUSH8 0xFFFFFFFFFFFFFFFF DUP4 GT DUP3 DUP5 LT OR PUSH2 0x1D8D JUMPI PUSH2 0x2CDD SWAP3 PUSH1 0x40 MSTORE PUSH2 0x2F3D JUMP JUMPDEST JUMP JUMPDEST PUSH1 0x0 SLOAD PUSH1 0x1 PUSH1 0x1 PUSH1 0xA0 SHL SUB AND CALLER SUB PUSH2 0x2CF3 JUMPI JUMP JUMPDEST PUSH1 0x40 MLOAD PUSH4 0x118CDAA7 PUSH1 0xE0 SHL DUP2 MSTORE CALLER PUSH1 0x4 DUP3 ADD MSTORE PUSH1 0x24 SWAP1 REVERT JUMPDEST SWAP1 PUSH1 0x4 DUP3 ADD SLOAD DUP1 TIMESTAMP GT ISZERO PUSH2 0x2E8C JUMPI PUSH2 0x2D26 PUSH2 0xE10 SWAP2 TIMESTAMP PUSH2 0x266E JUMP JUMPDEST DIV PUSH1 0x0 SWAP1 DUP3 DUP3 MSTORE PUSH1 0x3 PUSH1 0x20 MSTORE PUSH1 0x3 PUSH1 0x40 DUP4 KECCAK256 ADD SLOAD SWAP4 DUP3 PUSH1 0x8 DUP3 ADD SWAP4 DUP5 SLOAD SWAP2 PUSH2 0xFFFF SWAP5 DUP6 DUP5 PUSH1 0x10 SHR AND SWAP2 DUP3 ISZERO PUSH2 0x2E49 JUMPI JUMPDEST PUSH1 0x7 DUP7 ADD SWAP2 PUSH2 0x2D75 PUSH1 0x3 PUSH2 0x2D6C DUP6 SLOAD DUP1 SWAP15 PUSH2 0x29EA JUMP JUMPDEST SWAP9 ADD SLOAD DUP9 PUSH2 0x2405 JUMP JUMPDEST DUP1 PUSH1 0x1 SHL SWAP1 DUP1 DUP3 DIV PUSH1 0x2 EQ SWAP1 ISZERO OR ISZERO PUSH2 0x2E35 JUMPI PUSH2 0x2DAF SWAP8 SWAP7 SWAP6 SWAP5 SWAP3 PUSH4 0x538AB80 PUSH2 0x2DA5 PUSH1 0x1 SWAP7 SWAP5 PUSH2 0x2DB5 SWAP5 PUSH2 0x2405 JUMP JUMPDEST DIV SWAP9 DUP10 DUP1 SWAP3 PUSH2 0x29EA JUMP JUMPDEST SWAP13 PUSH2 0x29EA JUMP JUMPDEST SWAP1 SSTORE ADD SWAP1 DUP6 DUP3 GT PUSH2 0x2E21 JUMPI POP SWAP3 PUSH1 0x60 SWAP5 SWAP3 PUSH2 0x2E07 SWAP3 PUSH4 0xFFFF0000 PUSH32 0xEA782EAC0F37EFA9D900BE3BAFF5FFE90D205F467ACCD664DC0E686AD63A8A1 SWAP9 SWAP7 PUSH1 0x10 SHL AND SWAP1 PUSH4 0xFFFF0000 NOT AND OR DUP1 SWAP6 SSTORE PUSH2 0x29EA JUMP JUMPDEST SWAP1 PUSH1 0x40 MLOAD SWAP3 DUP8 DUP5 MSTORE PUSH1 0x10 SHR AND PUSH1 0x20 DUP4 ADD MSTORE PUSH1 0x40 DUP3 ADD MSTORE LOG2 SWAP1 JUMP JUMPDEST PUSH4 0x4E487B71 PUSH1 0xE0 SHL DUP2 MSTORE PUSH1 0x11 PUSH1 0x4 MSTORE PUSH1 0x24 SWAP1 REVERT JUMPDEST PUSH4 0x4E487B71 PUSH1 0xE0 SHL DUP7 MSTORE PUSH1 0x11 PUSH1 0x4 MSTORE PUSH1 0x24 DUP7 REVERT JUMPDEST POP PUSH2 0x1F4 DUP1 DUP11 MUL SWAP1 DUP11 DUP3 DIV EQ DUP11 ISZERO OR ISZERO PUSH2 0x2E78 JUMPI PUSH2 0x2710 SWAP1 DIV PUSH1 0x7 DUP7 ADD PUSH2 0x2E71 DUP3 DUP3 SLOAD PUSH2 0x29EA JUMP JUMPDEST SWAP1 SSTORE PUSH2 0x2D56 JUMP JUMPDEST PUSH4 0x4E487B71 PUSH1 0xE0 SHL DUP5 MSTORE PUSH1 0x11 PUSH1 0x4 MSTORE PUSH1 0x24 DUP5 REVERT JUMPDEST POP POP POP PUSH1 0x0 SWAP1 JUMP JUMPDEST SWAP3 SWAP2 PUSH2 0x2EB5 JUMPI PUSH2 0x2325 SWAP3 POP PUSH1 0x0 MSTORE PUSH1 0x3 PUSH1 0x20 MSTORE PUSH1 0x3 PUSH1 0x40 PUSH1 0x0 KECCAK256 ADD SLOAD PUSH2 0x29EA JUMP JUMPDEST POP POP DUP1 PUSH1 0x7 PUSH2 0x2ED0 PUSH1 0x2 PUSH2 0x2325 SWAP5 ADD SLOAD PUSH1 0x5 DUP5 ADD SLOAD SWAP1 PUSH2 0x266E JUMP JUMPDEST SWAP2 ADD SLOAD SWAP1 PUSH2 0x29EA JUMP JUMPDEST PUSH1 0x40 MLOAD PUSH4 0x23B872DD PUSH1 0xE0 SHL PUSH1 0x20 DUP3 ADD MSTORE PUSH1 0x1 PUSH1 0x1 PUSH1 0xA0 SHL SUB SWAP3 DUP4 AND PUSH1 0x24 DUP3 ADD MSTORE SWAP3 SWAP1 SWAP2 AND PUSH1 0x44 DUP4 ADD MSTORE PUSH1 0x64 DUP1 DUP4 ADD SWAP4 SWAP1 SWAP4 MSTORE SWAP2 DUP2 MSTORE PUSH2 0x2CDD SWAP2 PUSH2 0x2F1B DUP3 PUSH2 0x2391 JUMP JUMPDEST PUSH2 0x2F3D JUMP JUMPDEST SWAP2 DUP1 ISZERO PUSH2 0x2E8C JUMPI PUSH2 0x2ACC PUSH2 0x2F39 SWAP3 PUSH4 0x538AB80 SWAP5 PUSH2 0x2405 JUMP JUMPDEST DIV SWAP1 JUMP JUMPDEST SWAP1 PUSH1 0x0 PUSH1 0x20 SWAP2 DUP3 DUP2 MLOAD SWAP2 ADD DUP3 DUP6 GAS CALL ISZERO PUSH2 0x2F99 JUMPI PUSH1 0x0 MLOAD RETURNDATASIZE PUSH2 0x2F90 JUMPI POP PUSH1 0x1 PUSH1 0x1 PUSH1 0xA0 SHL SUB DUP2 AND EXTCODESIZE ISZERO JUMPDEST PUSH2 0x2F6E JUMPI POP JUMP JUMPDEST PUSH1 0x40 MLOAD PUSH4 0x5274AFE7 PUSH1 0xE0 SHL DUP2 MSTORE PUSH1 0x1 PUSH1 0x1 PUSH1 0xA0 SHL SUB SWAP1 SWAP2 AND PUSH1 0x4 DUP3 ADD MSTORE PUSH1 0x24 SWAP1 REVERT JUMPDEST PUSH1 0x1 EQ ISZERO PUSH2 0x2F67 JUMP JUMPDEST PUSH1 0x40 MLOAD RETURNDATASIZE PUSH1 0x0 DUP3 RETURNDATACOPY RETURNDATASIZE SWAP1 REVERT INVALID TSTORE GAS PUSH18 0xE1DA1E159B14C8658CD642BEF65E55BF44D9 PUSH32 0x74749CB7FE3387FC2E99A2646970667358221220B77FB659DB770274617426DF TSTORE 0xB1 0xE4 SWAP9 SUB RETURNDATACOPY SWAP3 SWAP7 DUP15 DUP4 GASLIMIT 0xC6 0xB8 0xE1 DUP11 DIV PUSH23 0x6C057864736F6C63430008180033000000000000000000 "},"methodIdentifiers":{"BASIS_POINTS()":"e1f1c4a7","DURATION()":"1be05289","DURATION_PAYMENT()":"1b9addbc","HOURS_PER_YEAR()":"c58f7229","INSURANCE_RATE()":"82626d6b","LATE_PENALTY_RATE()":"e9effdec","MATCHING_FEE_RATE()":"1892cdba","MAX_LOAN_AMOUNT()":"ceba1794","MIN_LOAN_AMOUNT()":"96fa212f","ONE_USDT()":"803039d9","OVERDUE_INTEREST_MULTIPLIER()":"4196eb1a","addToWhitelist(address)":"e43252d7","approveLoanRequest(uint256,uint256,uint256)":"94b22516","borrowerLoans(address,uint256)":"e3ed1902","calculateAvailableInterest(uint256)":"655540b5","calculateEMI(uint256,uint256,uint256)":"b4dc9405","calculateInitiationFee()":"bf0597e0","calculateInterestFromEMI(uint256,uint256)":"bd7ea413","calculateInterestRate(uint256)":"90d3b379","calculateLoanEMI(uint256)":"bba55c20","canApproveLoan(uint256,uint256)":"d317a8e5","canConfirmLoan(uint256,uint256)":"4f99cfad","canRequestLoan(address)":"5f562e8c","claimInterest(uint256)":"2eb375ea","companyWallets()":"727336ee","confirmLoan(uint256,uint256)":"e95e7d59","fundLoan(uint256)":"846b909a","getAvailableWithdrawal(uint256)":"ba510a33","getBorrowerLoans(address)":"eee8b7ff","getFixedEMI(uint256)":"7ad78254","getLateFeeInfo(uint256)":"ba530553","getLenderLoans(address)":"eeeb0c17","getLoan(uint256)":"504006ca","getLoanDetails(uint256)":"66877b8d","getLoanPaymentHistory(uint256)":"07ac9d5a","getStats()":"c59d4847","getUserActiveLoan(address)":"20becc81","isFinalPayment(uint256)":"734c7d0b","isWhitelisted(address)":"3af32abf","lenderLoans(address,uint256)":"3cdb72f1","loanCounter()":"34d9289e","loanExtended(uint256)":"a6c3b39e","loanPaymentHistory(uint256,uint256)":"28e202b1","loans(uint256)":"e1ec3c68","makePayment(uint256)":"5114cb52","owner()":"8da5cb5b","pause()":"8456cb59","paused()":"5c975abb","removeFromWhitelist(address)":"8ab1d681","renounceOwnership()":"715018a6","requestLoan(string)":"837bab7f","totalLoans()":"cc952b57","totalVolume()":"5f81a57c","transferOwnership(address)":"f2fde38b","unpause()":"3f4ba83a","updateCompanyWallets(address,address,address)":"3f506dd6","usdtToken()":"a98ad46c","userActiveLoan(address)":"19a68bcf","whitelisted(address)":"d936547e"}}}}}