{"contracts/P2PLending.sol":{"P2PLending":{"abi":[{"inputs":[{"internalType":"address","name":"_usdtToken","type":"address"}],"stateMutability":"nonpayable","type":"constructor"},{"inputs":[],"name":"AlreadyPaid","type":"error"},{"inputs":[],"name":"EnforcedPause","type":"error"},{"inputs":[],"name":"ExpectedPause","type":"error"},{"inputs":[],"name":"InsufficientBalance","type":"error"},{"inputs":[],"name":"InvalidAmount","type":"error"},{"inputs":[],"name":"InvalidDuration","type":"error"},{"inputs":[],"name":"InvalidInterestRate","type":"error"},{"inputs":[],"name":"InvalidWallet","type":"error"},{"inputs":[],"name":"LoanNotActive","type":"error"},{"inputs":[],"name":"LoanNotFound","type":"error"},{"inputs":[],"name":"LoanNotPending","type":"error"},{"inputs":[],"name":"NoInterestToClaim","type":"error"},{"inputs":[],"name":"NotWhitelisted","type":"error"},{"inputs":[{"internalType":"address","name":"owner","type":"address"}],"name":"OwnableInvalidOwner","type":"error"},{"inputs":[{"internalType":"address","name":"account","type":"address"}],"name":"OwnableUnauthorizedAccount","type":"error"},{"inputs":[],"name":"PaymentNotDue","type":"error"},{"inputs":[],"name":"ReentrancyGuardReentrantCall","type":"error"},{"inputs":[{"internalType":"address","name":"token","type":"address"}],"name":"SafeERC20FailedOperation","type":"error"},{"anonymous":false,"inputs":[{"indexed":true,"internalType":"address","name":"borrower","type":"address"}],"name":"BorrowerRemoved","type":"event"},{"anonymous":false,"inputs":[{"indexed":true,"internalType":"address","name":"borrower","type":"address"}],"name":"BorrowerWhitelisted","type":"event"},{"anonymous":false,"inputs":[{"indexed":true,"internalType":"address","name":"feeWallet","type":"address"},{"indexed":true,"internalType":"address","name":"insuranceWallet","type":"address"},{"indexed":true,"internalType":"address","name":"matchingWallet","type":"address"}],"name":"CompanyWalletsUpdated","type":"event"},{"anonymous":false,"inputs":[{"indexed":true,"internalType":"uint256","name":"loanId","type":"uint256"},{"indexed":true,"internalType":"address","name":"lender","type":"address"},{"indexed":false,"internalType":"uint256","name":"interestAmount","type":"uint256"},{"indexed":false,"internalType":"uint256","name":"timestamp","type":"uint256"}],"name":"InterestClaimed","type":"event"},{"anonymous":false,"inputs":[{"indexed":true,"internalType":"address","name":"lender","type":"address"}],"name":"LenderRemoved","type":"event"},{"anonymous":false,"inputs":[{"indexed":true,"internalType":"address","name":"lender","type":"address"}],"name":"LenderWhitelisted","type":"event"},{"anonymous":false,"inputs":[{"indexed":true,"internalType":"uint256","name":"loanId","type":"uint256"},{"indexed":false,"internalType":"uint256","name":"totalPaid","type":"uint256"},{"indexed":false,"internalType":"uint256","name":"totalInterestPaid","type":"uint256"}],"name":"LoanCompleted","type":"event"},{"anonymous":false,"inputs":[{"indexed":true,"internalType":"uint256","name":"loanId","type":"uint256"},{"indexed":true,"internalType":"address","name":"borrower","type":"address"},{"indexed":false,"internalType":"uint256","name":"amount","type":"uint256"},{"indexed":false,"internalType":"uint256","name":"interestRate","type":"uint256"},{"indexed":false,"internalType":"uint256","name":"duration","type":"uint256"},{"indexed":false,"internalType":"uint256","name":"feePaid","type":"uint256"}],"name":"LoanCreated","type":"event"},{"anonymous":false,"inputs":[{"indexed":true,"internalType":"uint256","name":"loanId","type":"uint256"},{"indexed":true,"internalType":"address","name":"lender","type":"address"},{"indexed":false,"internalType":"uint256","name":"amount","type":"uint256"},{"indexed":false,"internalType":"uint256","name":"insuranceAmount","type":"uint256"},{"indexed":false,"internalType":"uint256","name":"matchingFee","type":"uint256"},{"indexed":false,"internalType":"uint256","name":"disbursedAmount","type":"uint256"}],"name":"LoanFunded","type":"event"},{"anonymous":false,"inputs":[{"indexed":true,"internalType":"address","name":"previousOwner","type":"address"},{"indexed":true,"internalType":"address","name":"newOwner","type":"address"}],"name":"OwnershipTransferred","type":"event"},{"anonymous":false,"inputs":[{"indexed":false,"internalType":"address","name":"account","type":"address"}],"name":"Paused","type":"event"},{"anonymous":false,"inputs":[{"indexed":true,"internalType":"uint256","name":"loanId","type":"uint256"},{"indexed":true,"internalType":"address","name":"payer","type":"address"},{"indexed":false,"internalType":"uint256","name":"principalAmount","type":"uint256"},{"indexed":false,"internalType":"uint256","name":"interestAmount","type":"uint256"},{"indexed":false,"internalType":"uint256","name":"totalAmount","type":"uint256"},{"indexed":false,"internalType":"uint256","name":"daysLate","type":"uint256"},{"indexed":false,"internalType":"uint256","name":"timestamp","type":"uint256"}],"name":"PaymentMade","type":"event"},{"anonymous":false,"inputs":[{"indexed":false,"internalType":"address","name":"account","type":"address"}],"name":"Unpaused","type":"event"},{"inputs":[],"name":"BASIS_POINTS","outputs":[{"internalType":"uint256","name":"","type":"uint256"}],"stateMutability":"view","type":"function"},{"inputs":[],"name":"INSURANCE_RATE","outputs":[{"internalType":"uint256","name":"","type":"uint256"}],"stateMutability":"view","type":"function"},{"inputs":[],"name":"MATCHING_FEE_RATE","outputs":[{"internalType":"uint256","name":"","type":"uint256"}],"stateMutability":"view","type":"function"},{"inputs":[],"name":"MAX_LOAN_AMOUNT","outputs":[{"internalType":"uint256","name":"","type":"uint256"}],"stateMutability":"view","type":"function"},{"inputs":[],"name":"MIN_LOAN_AMOUNT","outputs":[{"internalType":"uint256","name":"","type":"uint256"}],"stateMutability":"view","type":"function"},{"inputs":[{"internalType":"address","name":"borrower","type":"address"}],"name":"addBorrowerToWhitelist","outputs":[],"stateMutability":"nonpayable","type":"function"},{"inputs":[{"internalType":"address","name":"lender","type":"address"}],"name":"addLenderToWhitelist","outputs":[],"stateMutability":"nonpayable","type":"function"},{"inputs":[{"internalType":"address","name":"","type":"address"},{"internalType":"uint256","name":"","type":"uint256"}],"name":"borrowerLoans","outputs":[{"internalType":"uint256","name":"","type":"uint256"}],"stateMutability":"view","type":"function"},{"inputs":[{"internalType":"uint256","name":"loanId","type":"uint256"}],"name":"calculateAvailableInterest","outputs":[{"internalType":"uint256","name":"","type":"uint256"}],"stateMutability":"view","type":"function"},{"inputs":[{"internalType":"uint256","name":"principal","type":"uint256"},{"internalType":"uint256","name":"annualRate","type":"uint256"},{"internalType":"uint256","name":"monthsInLoan","type":"uint256"}],"name":"calculateEMI","outputs":[{"internalType":"uint256","name":"","type":"uint256"}],"stateMutability":"pure","type":"function"},{"inputs":[{"internalType":"uint256","name":"amount","type":"uint256"}],"name":"calculateInitiationFee","outputs":[{"internalType":"uint256","name":"","type":"uint256"}],"stateMutability":"pure","type":"function"},{"inputs":[{"internalType":"uint256","name":"loanId","type":"uint256"},{"internalType":"uint256","name":"paymentAmount","type":"uint256"}],"name":"calculateInterestFromEMI","outputs":[{"internalType":"uint256","name":"","type":"uint256"}],"stateMutability":"view","type":"function"},{"inputs":[{"internalType":"uint256","name":"amount","type":"uint256"}],"name":"calculateInterestRate","outputs":[{"internalType":"uint256","name":"","type":"uint256"}],"stateMutability":"pure","type":"function"},{"inputs":[{"internalType":"uint256","name":"loanId","type":"uint256"}],"name":"calculateLoanEMI","outputs":[{"internalType":"uint256","name":"","type":"uint256"}],"stateMutability":"view","type":"function"},{"inputs":[{"internalType":"uint256","name":"loanId","type":"uint256"}],"name":"calculateMonthlyInterest","outputs":[{"internalType":"uint256","name":"","type":"uint256"}],"stateMutability":"view","type":"function"},{"inputs":[{"internalType":"uint256","name":"loanId","type":"uint256"}],"name":"claimInterest","outputs":[],"stateMutability":"nonpayable","type":"function"},{"inputs":[],"name":"companyWallets","outputs":[{"internalType":"address","name":"feeWallet","type":"address"},{"internalType":"address","name":"insuranceWallet","type":"address"},{"internalType":"address","name":"matchingWallet","type":"address"}],"stateMutability":"view","type":"function"},{"inputs":[{"internalType":"uint256","name":"amount","type":"uint256"},{"internalType":"uint256","name":"duration","type":"uint256"}],"name":"createLoan","outputs":[{"internalType":"uint256","name":"","type":"uint256"}],"stateMutability":"nonpayable","type":"function"},{"inputs":[{"internalType":"uint256","name":"loanId","type":"uint256"}],"name":"fundLoan","outputs":[],"stateMutability":"nonpayable","type":"function"},{"inputs":[{"internalType":"uint256","name":"loanId","type":"uint256"}],"name":"getAvailableWithdrawal","outputs":[{"internalType":"uint256","name":"","type":"uint256"}],"stateMutability":"view","type":"function"},{"inputs":[{"internalType":"address","name":"borrower","type":"address"}],"name":"getBorrowerLoans","outputs":[{"internalType":"uint256[]","name":"","type":"uint256[]"}],"stateMutability":"view","type":"function"},{"inputs":[{"internalType":"uint256","name":"loanId","type":"uint256"}],"name":"getFixedEMI","outputs":[{"internalType":"uint256","name":"","type":"uint256"}],"stateMutability":"view","type":"function"},{"inputs":[{"internalType":"address","name":"lender","type":"address"}],"name":"getLenderLoans","outputs":[{"internalType":"uint256[]","name":"","type":"uint256[]"}],"stateMutability":"view","type":"function"},{"inputs":[{"internalType":"uint256","name":"loanId","type":"uint256"}],"name":"getLoan","outputs":[{"components":[{"internalType":"uint256","name":"id","type":"uint256"},{"internalType":"address","name":"borrower","type":"address"},{"internalType":"address","name":"lender","type":"address"},{"internalType":"uint256","name":"amount","type":"uint256"},{"internalType":"uint256","name":"interestRate","type":"uint256"},{"internalType":"uint256","name":"duration","type":"uint256"},{"internalType":"uint256","name":"createdAt","type":"uint256"},{"internalType":"uint256","name":"fundedAt","type":"uint256"},{"internalType":"uint256","name":"nextPaymentDue","type":"uint256"},{"internalType":"uint256","name":"totalPaid","type":"uint256"},{"internalType":"uint256","name":"totalInterestPaid","type":"uint256"},{"internalType":"uint256","name":"lastPaymentDate","type":"uint256"},{"internalType":"uint256","name":"availableForWithdrawal","type":"uint256"},{"internalType":"uint256","name":"fixedEMI","type":"uint256"},{"internalType":"enum P2PLending.LoanStatus","name":"status","type":"uint8"}],"internalType":"struct P2PLending.Loan","name":"","type":"tuple"}],"stateMutability":"view","type":"function"},{"inputs":[{"internalType":"uint256","name":"loanId","type":"uint256"}],"name":"getLoanPaymentHistory","outputs":[{"internalType":"uint256[]","name":"","type":"uint256[]"}],"stateMutability":"view","type":"function"},{"inputs":[],"name":"getStats","outputs":[{"internalType":"uint256","name":"_totalLoans","type":"uint256"},{"internalType":"uint256","name":"_totalVolume","type":"uint256"},{"internalType":"uint256","name":"_totalInterestEarned","type":"uint256"},{"internalType":"uint256","name":"_activeLoans","type":"uint256"}],"stateMutability":"view","type":"function"},{"inputs":[{"internalType":"uint256","name":"loanId","type":"uint256"}],"name":"isFinalPayment","outputs":[{"internalType":"bool","name":"","type":"bool"}],"stateMutability":"view","type":"function"},{"inputs":[{"internalType":"address","name":"","type":"address"},{"internalType":"uint256","name":"","type":"uint256"}],"name":"lenderLoans","outputs":[{"internalType":"uint256","name":"","type":"uint256"}],"stateMutability":"view","type":"function"},{"inputs":[],"name":"loanCounter","outputs":[{"internalType":"uint256","name":"","type":"uint256"}],"stateMutability":"view","type":"function"},{"inputs":[{"internalType":"uint256","name":"","type":"uint256"},{"internalType":"uint256","name":"","type":"uint256"}],"name":"loanPaymentHistory","outputs":[{"internalType":"uint256","name":"","type":"uint256"}],"stateMutability":"view","type":"function"},{"inputs":[{"internalType":"uint256","name":"","type":"uint256"}],"name":"loans","outputs":[{"internalType":"uint256","name":"id","type":"uint256"},{"internalType":"address","name":"borrower","type":"address"},{"internalType":"address","name":"lender","type":"address"},{"internalType":"uint256","name":"amount","type":"uint256"},{"internalType":"uint256","name":"interestRate","type":"uint256"},{"internalType":"uint256","name":"duration","type":"uint256"},{"internalType":"uint256","name":"createdAt","type":"uint256"},{"internalType":"uint256","name":"fundedAt","type":"uint256"},{"internalType":"uint256","name":"nextPaymentDue","type":"uint256"},{"internalType":"uint256","name":"totalPaid","type":"uint256"},{"internalType":"uint256","name":"totalInterestPaid","type":"uint256"},{"internalType":"uint256","name":"lastPaymentDate","type":"uint256"},{"internalType":"uint256","name":"availableForWithdrawal","type":"uint256"},{"internalType":"uint256","name":"fixedEMI","type":"uint256"},{"internalType":"enum P2PLending.LoanStatus","name":"status","type":"uint8"}],"stateMutability":"view","type":"function"},{"inputs":[{"internalType":"uint256","name":"loanId","type":"uint256"}],"name":"makePayment","outputs":[],"stateMutability":"nonpayable","type":"function"},{"inputs":[],"name":"owner","outputs":[{"internalType":"address","name":"","type":"address"}],"stateMutability":"view","type":"function"},{"inputs":[],"name":"pause","outputs":[],"stateMutability":"nonpayable","type":"function"},{"inputs":[],"name":"paused","outputs":[{"internalType":"bool","name":"","type":"bool"}],"stateMutability":"view","type":"function"},{"inputs":[{"internalType":"address","name":"borrower","type":"address"}],"name":"removeBorrowerFromWhitelist","outputs":[],"stateMutability":"nonpayable","type":"function"},{"inputs":[{"internalType":"address","name":"lender","type":"address"}],"name":"removeLenderFromWhitelist","outputs":[],"stateMutability":"nonpayable","type":"function"},{"inputs":[],"name":"renounceOwnership","outputs":[],"stateMutability":"nonpayable","type":"function"},{"inputs":[],"name":"totalInterestEarned","outputs":[{"internalType":"uint256","name":"","type":"uint256"}],"stateMutability":"view","type":"function"},{"inputs":[],"name":"totalLoans","outputs":[{"internalType":"uint256","name":"","type":"uint256"}],"stateMutability":"view","type":"function"},{"inputs":[],"name":"totalVolume","outputs":[{"internalType":"uint256","name":"","type":"uint256"}],"stateMutability":"view","type":"function"},{"inputs":[{"internalType":"address","name":"newOwner","type":"address"}],"name":"transferOwnership","outputs":[],"stateMutability":"nonpayable","type":"function"},{"inputs":[],"name":"unpause","outputs":[],"stateMutability":"nonpayable","type":"function"},{"inputs":[{"internalType":"address","name":"_feeWallet","type":"address"},{"internalType":"address","name":"_insuranceWallet","type":"address"},{"internalType":"address","name":"_matchingWallet","type":"address"}],"name":"updateCompanyWallets","outputs":[],"stateMutability":"nonpayable","type":"function"},{"inputs":[],"name":"usdtToken","outputs":[{"internalType":"contract IERC20","name":"","type":"address"}],"stateMutability":"view","type":"function"},{"inputs":[{"internalType":"address","name":"","type":"address"}],"name":"whitelistedBorrowers","outputs":[{"internalType":"bool","name":"","type":"bool"}],"stateMutability":"view","type":"function"},{"inputs":[{"internalType":"address","name":"","type":"address"}],"name":"whitelistedLenders","outputs":[{"internalType":"bool","name":"","type":"bool"}],"stateMutability":"view","type":"function"}],"evm":{"bytecode":{"linkReferences":{},"object":"60a03461013557601f6200238638819003918201601f19168301916001600160401b0383118484101761013a5780849260209460405283398101031261013557516001600160a01b038082169182900361013557331561011c576000543360018060a01b0319821617600055604051913391167f8be0079c531659141344cd1fd0a4f28419497f9722a3daafe3b4186f6b6457e0600080a36001805581156100da5750608052604051612235908162000151823960805181818161073d015281816107ea01528181610b61015281816110ba015261180f0152f35b62461bcd60e51b815260206004820152601a60248201527f496e76616c6964205553445420746f6b656e20616464726573730000000000006044820152606490fd5b604051631e4fbdf760e01b815260006004820152602490fd5b600080fd5b634e487b7160e01b600052604160045260246000fdfe608080604052600436101561001357600080fd5b60003560e01c90816307ac9d5a1461194b5750806316b1526c146118d65780631892cdba146118ba57806328e202b1146118895780632eb375ea1461178857806334d9289e1461176a5780633cdb72f1146117205780633f4ba83a146116b65780633f506dd61461151b57806347a2f669146114b5578063504006ca146112b35780635114cb5214610fe157806359b6bf05146106a95780635bc4c7b814610fa25780635c975abb14610f7f5780635dabc82314610f405780635f81a57c14610f22578063655540b5146106c7578063715018a614610ec9578063727336ee14610e8c578063734c7d0b14610e645780637ad7825414610d7d578063821fc0ac14610d0857806382626d6b14610cec5780638456cb5914610c92578063846b909a14610ab55780638da5cb5b14610a8c57806390d3b37914610a6e57806396fa212f14610a4f57806398cd90b51461076c578063a98ad46c14610727578063b4dc940514610703578063b7d93f34146106e5578063ba510a33146106c7578063bba55c20146106a9578063bd7ea41314610690578063c59d4847146105d9578063cc952b57146105bb578063ceba17941461059b578063e1ec3c68146104b9578063e1f1c4a71461049c578063e260885514610436578063e3ed1902146103de578063eee8b7ff14610363578063eeeb0c17146102d8578063f0b08c15146102b25763f2fde38b1461022457600080fd5b346102ad5760203660031901126102ad5761023d6119f1565b610245612083565b6001600160a01b0390811690811561029457600054826001600160601b0360a01b821617600055167f8be0079c531659141344cd1fd0a4f28419497f9722a3daafe3b4186f6b6457e0600080a3005b604051631e4fbdf760e01b815260006004820152602490fd5b600080fd5b346102ad5760203660031901126102ad5760206102d0600435612068565b604051908152f35b346102ad576020806003193601126102ad576001600160a01b036102fa6119f1565b16600052600e6020526040600020906040519081602084549182815201936000526020600020916000905b82821061034c576103488561033c81890382611a75565b604051918291826119b5565b0390f35b835486529485019460019384019390910190610325565b346102ad576020806003193601126102ad576001600160a01b036103856119f1565b16600052600d6020526040600020906040519081602084549182815201936000526020600020916000905b8282106103c7576103488561033c81890382611a75565b8354865294850194600193840193909101906103b0565b346102ad5760403660031901126102ad576103f76119f1565b6001600160a01b03166000908152600d60205260409020805460243591908210156102ad5760209161042891611a1d565b90546040519160031b1c8152f35b346102ad5760203660031901126102ad5761044f6119f1565b610457612083565b6001600160a01b03166000818152600c60205260408120805460ff191690557f503890814436e1b1d481a5ace3c4465fa90d978ebc88ddaf5505d5b6a259a8829080a2005b346102ad5760003660031901126102ad5760206040516127108152f35b346102ad5760203660031901126102ad57600435600052600a60205260406000208054600160a01b6001900391826001820154169260028201541660038201546004830154600584015460068501546007860154600887015491600988015493600a89015495600b8a015497600c8b015499600d8c01549b600e015460ff169c6040519e8f91825260208201526040015260608d015260808c015260a08b015260c08a015260e08901526101008801526101208701526101408601526101608501526101808401526101a08301526101c0820161059591611a4b565b6101e090f35b346102ad5760003660031901126102ad57602060405164174876e8008152f35b346102ad5760003660031901126102ad576020600754604051908152f35b346102ad5760003660031901126102ad5760075460085490600954600090600180600654905b81811115610632575050509061034891604051948594859094939260609260808301968352602083015260408201520152565b80600052600a60205260ff600e6040600020015416600481101561067a578314610665575b61066090611d8d565b6105ff565b9361067261066091611d8d565b949050610657565b634e487b7160e01b600052602160045260246000fd5b346102ad5760206102d06106a336611a07565b90611f6e565b346102ad5760203660031901126102ad5760206102d0600435611e94565b346102ad5760203660031901126102ad5760206102d0600435611b68565b346102ad5760003660031901126102ad576020600954604051908152f35b346102ad5760603660031901126102ad5760206102d0604435602435600435611d9c565b346102ad5760003660031901126102ad576040517f00000000000000000000000000000000000000000000000000000000000000006001600160a01b03168152602090f35b346102ad5761077a36611a07565b6107826120af565b61078a6120cd565b33600052600b60205260ff6040600020541615610a3d576305f5e10082108015610a2f575b610a1d57600181108015610a13575b610a01576107cb82611d26565b916107d581612068565b60035461080e9082906001600160a01b0316337f0000000000000000000000000000000000000000000000000000000000000000612142565b610819600654611d8d565b9283600655610829818685611d9c565b906040519161083783611a58565b858352336020840152600060408401528460608401528660808401528160a08401524260c0840152600060e0840152600061010084015260006101208401526000610140840152600061016084015260006101808401526101a083015260006101c083015284600052600a6020526101c0600e6040600020845181556001810160018060a01b03602087015116906001600160601b0360a01b9182825416179055600282019060018060a01b0360408801511690825416179055606085015160038201556080850151600482015560a0850151600582015560c0850151600682015560e0850151600782015561010085015160088201556101208501516009820155610140850151600a820155610160850151600b820155610180850151600c8201556101a0850151600d8201550192015195600487101561067a576109f286947f2b6e7be0390a80ec9c24c00d1dbf95d0cc27e42970c49fdd9d2d9f8b7a8764669460209960ff8019835416911617905533600052600d89526109bf866040600020611b2e565b6109ca600754611d8d565b6007556040519384933398859094939260609260808301968352602083015260408201520152565b0390a360018055604051908152f35b604051637616640160e01b8152600490fd5b50602481116107be565b60405163162908e360e11b8152600490fd5b5064174876e80082116107af565b604051630b094f2760e31b8152600490fd5b346102ad5760003660031901126102ad5760206040516305f5e1008152f35b346102ad5760203660031901126102ad5760206102d0600435611d26565b346102ad5760003660031901126102ad576000546040516001600160a01b039091168152602090f35b346102ad5760203660031901126102ad57600435610ad16120af565b610ad96120cd565b33600052600c60205260ff6040600020541615610a3d5780600052600a602052604060002090815415610c8057600e820160ff815416600481101561067a57610c6e576002830180546001600160a01b0392908316610c5c57600385015494600a8602868104600a1487151715610c4657612710900492610ba8610b5d8589611ae1565b80967f000000000000000000000000000000000000000000000000000000000000000090610b8d8b303385612142565b610b9c888260055416846120f0565b600186015416906120f0565b336001600160601b0360a01b82541617905542600782015562278d00420190814211610c465760080155600160ff1982541617905533600052600e602052610bf4836040600020611b2e565b610c0084600854611b21565b60085560405193845260006020850152604084015260608301527f1d42c734a02cbb87afc90f61e8af2ad261cfcd62b567bfa805bc93bcd9ceeb9560803393a360018055005b634e487b7160e01b600052601160045260246000fd5b604051630d70a0e360e41b8152600490fd5b604051630151630960e31b8152600490fd5b604051630e7e621d60e01b8152600490fd5b346102ad5760003660031901126102ad57610cab612083565b610cb36120af565b600160ff1960025416176002557f62e78cea01bee320cd4e420270b5ea74000d11b0c9f74754ebdbfc544b05a2586020604051338152a1005b346102ad5760003660031901126102ad57602060405160c88152f35b346102ad5760203660031901126102ad57610d216119f1565b610d29612083565b6001600160a01b0316610d3d811515611a97565b80600052600c6020526040600020600160ff198254161790557feafaba2a6f658ac7632689fd61982a1c5387c8437e5ff730560eb63d3c935ed1600080a2005b346102ad5760203660031901126102ad57600435600052600a60205260206040600020610e5b604051610daf81611a58565b8254815260018301546001600160a01b039081168583015260028401541660408201526003830154606082015260048301546080820152600583015460a0820152600683015460c0820152600783015460e082015260088301546101008201526009830154610120820152600a830154610140820152600b830154610160820152600c830154610180820152600d8301546101a08201908152600e9093015460ff16906101c001611ad5565b51604051908152f35b346102ad5760203660031901126102ad576020610e82600435611c35565b6040519015158152f35b346102ad5760003660031901126102ad57606060018060a01b03806003541690806004541690600554169060405192835260208301526040820152f35b346102ad5760003660031901126102ad57610ee2612083565b600080546001600160a01b0319811682556001600160a01b03167f8be0079c531659141344cd1fd0a4f28419497f9722a3daafe3b4186f6b6457e08280a3005b346102ad5760003660031901126102ad576020600854604051908152f35b346102ad5760203660031901126102ad576001600160a01b03610f616119f1565b16600052600b602052602060ff604060002054166040519015158152f35b346102ad5760003660031901126102ad57602060ff600254166040519015158152f35b346102ad5760203660031901126102ad576001600160a01b03610fc36119f1565b16600052600c602052602060ff604060002054166040519015158152f35b346102ad5760203660031901126102ad57600435610ffd6120af565b6110056120cd565b80600052600a6020526040600020805415610c8057600e810160ff815416600481101561067a576001036112a15760018201546001600160a01b03919082163303610a3d576008830190815480421080611291575b611266575b50600d8401549260038501549361107c6009870195865490611ae1565b9061108688611c35565b1561124e5750905b60c882029082820460c81483151715610c46576127106110ec9204906110b48285611b21565b906110e27f000000000000000000000000000000000000000000000000000000000000000092303385612142565b60045416906120f0565b6110f68187611f6e565b6111008183611ae1565b9161110c818754611b21565b8655600c600a880197611120848a54611b21565b895542600b82015501611134828254611b21565b90556000918554804211611235575b5088600052600f60205261115b826040600020611b2e565b61116489611c35565b61121257855462278d008101809111610c465760ff96555b604051938452602084015260408301526060820152426080820152857f156efd898bf24c8c6af5b216d47176074332f389713e96fec4af716703edb63760a03393a35416600481101561067a576002146111d7575b60018055005b7fc4b7add031aefecd453d38f80b897200b1addff90e8202f136668b2c83f079019160409154905482519182526020820152a28080806111d1565b60ff95506002861986541617855561122d8854600954611b21565b60095561117c565b620151809193506112469042611ae1565b049189611143565b908082101561125f57505b9061108e565b9050611259565b61127562015180914290611ae1565b11611280578561105f565b60405162a71fbb60e01b8152600490fd5b5061129b86611c35565b1561105a565b604051630417bc2360e11b8152600490fd5b346102ad5760203660031901126102ad5760006101c06040516112d581611a58565b8281528260208201528260408201528260608201528260808201528260a08201528260c08201528260e08201528261010082015282610120820152826101408201528261016082015282610180820152826101a08201520152600435600052600a6020526101e060406000206113fa60ff600e6040519361135585611a58565b8054855260018101546001600160a01b03908116602087015260028201541660408601526003810154606086015260048101546080860152600581015460a0860152600681015460c0860152600781015460e086015260088101546101008601526009810154610120860152600a810154610140860152600b810154610160860152600c810154610180860152600d8101546101a08601520154166101c08301611ad5565b6114b36101c0604051928051845260018060a01b03602082015116602085015260018060a01b036040820151166040850152606081015160608501526080810151608085015260a081015160a085015260c081015160c085015260e081015160e08501526101008101516101008501526101208101516101208501526101408101516101408501526101608101516101608501526101808101516101808501526101a08101516101a085015201516101c0830190611a4b565bf35b346102ad5760203660031901126102ad576114ce6119f1565b6114d6612083565b6001600160a01b03166000818152600b60205260408120805460ff191690557feb31998799e9a09df1e8e5fd968bfeb5519b82b1b88d59dec8c860eac02658649080a2005b346102ad5760603660031901126102ad576115346119f1565b6024356001600160a01b03818116918290036102ad57604435928184168094036102ad57611560612083565b16801561167c5781156116375782156115f25760405167ffffffffffffffff606082019182109111176115dc57826001600160601b0360a01b828160035416176003558381600454161760045560055416176005557f1f63de24e6765b53f3bf31b690265dc5373fcf3c359eab0d14c3b303731c08c1600080a4005b634e487b7160e01b600052604160045260246000fd5b60405162461bcd60e51b815260206004820152601760248201527f496e76616c6964206d61746368696e672077616c6c65740000000000000000006044820152606490fd5b60405162461bcd60e51b815260206004820152601860248201527f496e76616c696420696e737572616e63652077616c6c657400000000000000006044820152606490fd5b60405162461bcd60e51b8152602060048201526012602482015271125b9d985b1a5908199959481dd85b1b195d60721b6044820152606490fd5b346102ad5760003660031901126102ad576116cf612083565b60025460ff81161561170e5760ff19166002557f5db9ee0a495bf2e6ff9c91a7834c1ba4fdd244a5e8aa4e537bd38aeae4b073aa6020604051338152a1005b604051638dfc202b60e01b8152600490fd5b346102ad5760403660031901126102ad576117396119f1565b6001600160a01b03166000908152600e60205260409020805460243591908210156102ad5760209161042891611a1d565b346102ad5760003660031901126102ad576020600654604051908152f35b346102ad5760203660031901126102ad576004356117a46120af565b6117ac6120cd565b80600052600a6020526040600020805415610c805760ff600e82015416600481101561067a576001811415908161187d575b506112a15760028101546001600160a01b03163303610a3d57600c0190815491821561186b576000905561183382337f00000000000000000000000000000000000000000000000000000000000000006120f0565b6040519182524260208301527f94db06301dc32995467bb8625d03e4dd74879e0cbee91569723822a9030cf7d560403393a360018055005b60405163aad5627b60e01b8152600490fd5b600291501415836117de565b346102ad5761189736611a07565b90600052600f602052604060002080548210156102ad5760209161042891611a1d565b346102ad5760003660031901126102ad576020604051600a8152f35b346102ad5760203660031901126102ad576118ef6119f1565b6118f7612083565b6001600160a01b031661190b811515611a97565b80600052600b6020526040600020600160ff198254161790557f3df9dd335cae22b62876375e06362e2fbe8ab586f724f378560e1aaa06bc00d7600080a2005b346102ad5760209060206003193601126102ad57600435600052600f602052604060002091825480835260208301936000526020600020916000905b82821061199e576103488561033c81890382611a75565b835486529485019460019384019390910190611987565b602090602060408183019282815285518094520193019160005b8281106119dd575050505090565b8351855293810193928101926001016119cf565b600435906001600160a01b03821682036102ad57565b60409060031901126102ad576004359060243590565b8054821015611a355760005260206000200190600090565b634e487b7160e01b600052603260045260246000fd5b90600482101561067a5752565b6101e0810190811067ffffffffffffffff8211176115dc57604052565b90601f8019910116810190811067ffffffffffffffff8211176115dc57604052565b15611a9e57565b60405162461bcd60e51b815260206004820152600f60248201526e496e76616c6964206164647265737360881b6044820152606490fd5b600482101561067a5752565b91908203918211610c4657565b81810292918115918404141715610c4657565b8115611b0b570490565b634e487b7160e01b600052601260045260246000fd5b91908201809211610c4657565b8054680100000000000000008110156115dc57611b5091600182018155611a1d565b819291549060031b91821b91600019901b1916179055565b600052600a6020526040600020611c31604051611b8481611a58565b8254815260018301546001600160a01b03908116602083015260028401541660408201526003830154606082015260048301546080820152600583015460a0820152600683015460c0820152600783015460e082015260088301546101008201526009830154610120820152600a830154610140820152600b830154610160820152600c8301546101808201908152600d8401546101a0830152600e9093015460ff16906101c001611ad5565b5190565b600052600a602052604060002060405190611c4f82611a58565b8054825260018060a01b0380600183015416602084015260028201541660408301526003810154606083015260048101546080830152611cff60058201549260a08101938452600683015460c08201526101c060ff600e60078601549560e0850196875260088101546101008601526009810154610120860152600a810154610140860152600b810154610160860152600c810154610180860152600d8101546101a08601520154169101611ad5565b51905162278d0090818102918183041490151715610c4657611d2091611b21565b42101590565b633b9aca00811115611d865764012a05f200811115611d7f576402540be400811115611d78576405d21dba00811115611d7157640ba43b74001015611d6b576108ca90565b61070890565b506105dc90565b506104b090565b5061038490565b5061025890565b6000198114610c465760010190565b91908015611e8a5764e8d4a510009182840291848304841485151715610c4657600c9004670de0b6b3a76400009081810290808204831490151715610c4657612710900480820193848311610c465791938492839185805b611e47575050611e0c92611e0791611aee565b611aee565b0490670de0b6b3a763ffff198301928311610c46578215611e375750611e33929350611b01565b0490565b92505050611e4491611b01565b90565b909192506001918280831614611e70575b611e63818792611aee565b04911c9081879392611df4565b96611e6386611e808a8294611aee565b0498915050611e58565b50611e4491611b01565b600052600a602052611e44604060002060405190611eb182611a58565b8054825260018060a01b038060018301541660208401526002820154166040830152600381015460608301908152611f63600483015493608081019485526101c060ff600e60058701549660a08501978852600681015460c0860152600781015460e086015260088101546101008601526009810154610120860152600a810154610140860152600b810154610160860152600c810154610180860152600d8101546101a08601520154169101611ad5565b519151905191611d9c565b600052600a6020526127106120566040600020600c61204d60405192611f9384611a58565b8054845260018060a01b03806001830154166020860152600282015416604085015260038101546060850190815261204460048301549560808101968752600584015460a0820152600684015460c0820152600784015460e082015260088401546101008201526101c060ff600e6009870154966101208501978852600a810154610140860152600b81015461016086015289810154610180860152600d8101546101a08601520154169101611ad5565b51905190611ae1565b91510490611aee565b0481811115612063575090565b905090565b603281029080820460321490151715610c4657612710900490565b6000546001600160a01b0316330361209757565b60405163118cdaa760e01b8152336004820152602490fd5b60ff600254166120bb57565b60405163d93c066560e01b8152600490fd5b6002600154146120de576002600155565b604051633ee5aeb560e01b8152600490fd5b60405163a9059cbb60e01b60208201526001600160a01b039092166024830152604480830193909352918152608081019167ffffffffffffffff8311828410176115dc5761214092604052612197565b565b6040516323b872dd60e01b60208201526001600160a01b03928316602482015292909116604483015260648083019390935291815260a081019181831067ffffffffffffffff8411176115dc57612140926040525b906000602091828151910182855af1156121f3576000513d6121ea57506001600160a01b0381163b155b6121c85750565b604051635274afe760e01b81526001600160a01b039091166004820152602490fd5b600114156121c1565b6040513d6000823e3d90fdfea2646970667358221220f239ad58a55c08a79dda5bb490ca5781cb298c2600fd4c3ba441871110858fc564736f6c63430008180033","opcodes":"PUSH1 0xA0 CALLVALUE PUSH2 0x135 JUMPI PUSH1 0x1F PUSH3 0x2386 CODESIZE DUP2 SWAP1 SUB SWAP2 DUP3 ADD PUSH1 0x1F NOT AND DUP4 ADD SWAP2 PUSH1 0x1 PUSH1 0x1 PUSH1 0x40 SHL SUB DUP4 GT DUP5 DUP5 LT OR PUSH2 0x13A JUMPI DUP1 DUP5 SWAP3 PUSH1 0x20 SWAP5 PUSH1 0x40 MSTORE DUP4 CODECOPY DUP2 ADD SUB SLT PUSH2 0x135 JUMPI MLOAD PUSH1 0x1 PUSH1 0x1 PUSH1 0xA0 SHL SUB DUP1 DUP3 AND SWAP2 DUP3 SWAP1 SUB PUSH2 0x135 JUMPI CALLER ISZERO PUSH2 0x11C JUMPI PUSH1 0x0 SLOAD CALLER PUSH1 0x1 DUP1 PUSH1 0xA0 SHL SUB NOT DUP3 AND OR PUSH1 0x0 SSTORE PUSH1 0x40 MLOAD SWAP2 CALLER SWAP2 AND PUSH32 0x8BE0079C531659141344CD1FD0A4F28419497F9722A3DAAFE3B4186F6B6457E0 PUSH1 0x0 DUP1 LOG3 PUSH1 0x1 DUP1 SSTORE DUP2 ISZERO PUSH2 0xDA JUMPI POP PUSH1 0x80 MSTORE PUSH1 0x40 MLOAD PUSH2 0x2235 SWAP1 DUP2 PUSH3 0x151 DUP3 CODECOPY PUSH1 0x80 MLOAD DUP2 DUP2 DUP2 PUSH2 0x73D ADD MSTORE DUP2 DUP2 PUSH2 0x7EA ADD MSTORE DUP2 DUP2 PUSH2 0xB61 ADD MSTORE DUP2 DUP2 PUSH2 0x10BA ADD MSTORE PUSH2 0x180F ADD MSTORE RETURN JUMPDEST PUSH3 0x461BCD PUSH1 0xE5 SHL DUP2 MSTORE PUSH1 0x20 PUSH1 0x4 DUP3 ADD MSTORE PUSH1 0x1A PUSH1 0x24 DUP3 ADD MSTORE PUSH32 0x496E76616C6964205553445420746F6B656E2061646472657373000000000000 PUSH1 0x44 DUP3 ADD MSTORE PUSH1 0x64 SWAP1 REVERT JUMPDEST PUSH1 0x40 MLOAD PUSH4 0x1E4FBDF7 PUSH1 0xE0 SHL DUP2 MSTORE PUSH1 0x0 PUSH1 0x4 DUP3 ADD MSTORE PUSH1 0x24 SWAP1 REVERT JUMPDEST PUSH1 0x0 DUP1 REVERT JUMPDEST PUSH4 0x4E487B71 PUSH1 0xE0 SHL PUSH1 0x0 MSTORE PUSH1 0x41 PUSH1 0x4 MSTORE PUSH1 0x24 PUSH1 0x0 REVERT INVALID PUSH1 0x80 DUP1 PUSH1 0x40 MSTORE PUSH1 0x4 CALLDATASIZE LT ISZERO PUSH2 0x13 JUMPI PUSH1 0x0 DUP1 REVERT JUMPDEST PUSH1 0x0 CALLDATALOAD PUSH1 0xE0 SHR SWAP1 DUP2 PUSH4 0x7AC9D5A EQ PUSH2 0x194B JUMPI POP DUP1 PUSH4 0x16B1526C EQ PUSH2 0x18D6 JUMPI DUP1 PUSH4 0x1892CDBA EQ PUSH2 0x18BA JUMPI DUP1 PUSH4 0x28E202B1 EQ PUSH2 0x1889 JUMPI DUP1 PUSH4 0x2EB375EA EQ PUSH2 0x1788 JUMPI DUP1 PUSH4 0x34D9289E EQ PUSH2 0x176A JUMPI DUP1 PUSH4 0x3CDB72F1 EQ PUSH2 0x1720 JUMPI DUP1 PUSH4 0x3F4BA83A EQ PUSH2 0x16B6 JUMPI DUP1 PUSH4 0x3F506DD6 EQ PUSH2 0x151B JUMPI DUP1 PUSH4 0x47A2F669 EQ PUSH2 0x14B5 JUMPI DUP1 PUSH4 0x504006CA EQ PUSH2 0x12B3 JUMPI DUP1 PUSH4 0x5114CB52 EQ PUSH2 0xFE1 JUMPI DUP1 PUSH4 0x59B6BF05 EQ PUSH2 0x6A9 JUMPI DUP1 PUSH4 0x5BC4C7B8 EQ PUSH2 0xFA2 JUMPI DUP1 PUSH4 0x5C975ABB EQ PUSH2 0xF7F JUMPI DUP1 PUSH4 0x5DABC823 EQ PUSH2 0xF40 JUMPI DUP1 PUSH4 0x5F81A57C EQ PUSH2 0xF22 JUMPI DUP1 PUSH4 0x655540B5 EQ PUSH2 0x6C7 JUMPI DUP1 PUSH4 0x715018A6 EQ PUSH2 0xEC9 JUMPI DUP1 PUSH4 0x727336EE EQ PUSH2 0xE8C JUMPI DUP1 PUSH4 0x734C7D0B EQ PUSH2 0xE64 JUMPI DUP1 PUSH4 0x7AD78254 EQ PUSH2 0xD7D JUMPI DUP1 PUSH4 0x821FC0AC EQ PUSH2 0xD08 JUMPI DUP1 PUSH4 0x82626D6B EQ PUSH2 0xCEC JUMPI DUP1 PUSH4 0x8456CB59 EQ PUSH2 0xC92 JUMPI DUP1 PUSH4 0x846B909A EQ PUSH2 0xAB5 JUMPI DUP1 PUSH4 0x8DA5CB5B EQ PUSH2 0xA8C JUMPI DUP1 PUSH4 0x90D3B379 EQ PUSH2 0xA6E JUMPI DUP1 PUSH4 0x96FA212F EQ PUSH2 0xA4F JUMPI DUP1 PUSH4 0x98CD90B5 EQ PUSH2 0x76C JUMPI DUP1 PUSH4 0xA98AD46C EQ PUSH2 0x727 JUMPI DUP1 PUSH4 0xB4DC9405 EQ PUSH2 0x703 JUMPI DUP1 PUSH4 0xB7D93F34 EQ PUSH2 0x6E5 JUMPI DUP1 PUSH4 0xBA510A33 EQ PUSH2 0x6C7 JUMPI DUP1 PUSH4 0xBBA55C20 EQ PUSH2 0x6A9 JUMPI DUP1 PUSH4 0xBD7EA413 EQ PUSH2 0x690 JUMPI DUP1 PUSH4 0xC59D4847 EQ PUSH2 0x5D9 JUMPI DUP1 PUSH4 0xCC952B57 EQ PUSH2 0x5BB JUMPI DUP1 PUSH4 0xCEBA1794 EQ PUSH2 0x59B JUMPI DUP1 PUSH4 0xE1EC3C68 EQ PUSH2 0x4B9 JUMPI DUP1 PUSH4 0xE1F1C4A7 EQ PUSH2 0x49C JUMPI DUP1 PUSH4 0xE2608855 EQ PUSH2 0x436 JUMPI DUP1 PUSH4 0xE3ED1902 EQ PUSH2 0x3DE JUMPI DUP1 PUSH4 0xEEE8B7FF EQ PUSH2 0x363 JUMPI DUP1 PUSH4 0xEEEB0C17 EQ PUSH2 0x2D8 JUMPI DUP1 PUSH4 0xF0B08C15 EQ PUSH2 0x2B2 JUMPI PUSH4 0xF2FDE38B EQ PUSH2 0x224 JUMPI PUSH1 0x0 DUP1 REVERT JUMPDEST CALLVALUE PUSH2 0x2AD JUMPI PUSH1 0x20 CALLDATASIZE PUSH1 0x3 NOT ADD SLT PUSH2 0x2AD JUMPI PUSH2 0x23D PUSH2 0x19F1 JUMP JUMPDEST PUSH2 0x245 PUSH2 0x2083 JUMP JUMPDEST PUSH1 0x1 PUSH1 0x1 PUSH1 0xA0 SHL SUB SWAP1 DUP2 AND SWAP1 DUP2 ISZERO PUSH2 0x294 JUMPI PUSH1 0x0 SLOAD DUP3 PUSH1 0x1 PUSH1 0x1 PUSH1 0x60 SHL SUB PUSH1 0xA0 SHL DUP3 AND OR PUSH1 0x0 SSTORE AND PUSH32 0x8BE0079C531659141344CD1FD0A4F28419497F9722A3DAAFE3B4186F6B6457E0 PUSH1 0x0 DUP1 LOG3 STOP JUMPDEST PUSH1 0x40 MLOAD PUSH4 0x1E4FBDF7 PUSH1 0xE0 SHL DUP2 MSTORE PUSH1 0x0 PUSH1 0x4 DUP3 ADD MSTORE PUSH1 0x24 SWAP1 REVERT JUMPDEST PUSH1 0x0 DUP1 REVERT JUMPDEST CALLVALUE PUSH2 0x2AD JUMPI PUSH1 0x20 CALLDATASIZE PUSH1 0x3 NOT ADD SLT PUSH2 0x2AD JUMPI PUSH1 0x20 PUSH2 0x2D0 PUSH1 0x4 CALLDATALOAD PUSH2 0x2068 JUMP JUMPDEST PUSH1 0x40 MLOAD SWAP1 DUP2 MSTORE RETURN JUMPDEST CALLVALUE PUSH2 0x2AD JUMPI PUSH1 0x20 DUP1 PUSH1 0x3 NOT CALLDATASIZE ADD SLT PUSH2 0x2AD JUMPI PUSH1 0x1 PUSH1 0x1 PUSH1 0xA0 SHL SUB PUSH2 0x2FA PUSH2 0x19F1 JUMP JUMPDEST AND PUSH1 0x0 MSTORE PUSH1 0xE PUSH1 0x20 MSTORE PUSH1 0x40 PUSH1 0x0 KECCAK256 SWAP1 PUSH1 0x40 MLOAD SWAP1 DUP2 PUSH1 0x20 DUP5 SLOAD SWAP2 DUP3 DUP2 MSTORE ADD SWAP4 PUSH1 0x0 MSTORE PUSH1 0x20 PUSH1 0x0 KECCAK256 SWAP2 PUSH1 0x0 SWAP1 JUMPDEST DUP3 DUP3 LT PUSH2 0x34C JUMPI PUSH2 0x348 DUP6 PUSH2 0x33C DUP2 DUP10 SUB DUP3 PUSH2 0x1A75 JUMP JUMPDEST PUSH1 0x40 MLOAD SWAP2 DUP3 SWAP2 DUP3 PUSH2 0x19B5 JUMP JUMPDEST SUB SWAP1 RETURN JUMPDEST DUP4 SLOAD DUP7 MSTORE SWAP5 DUP6 ADD SWAP5 PUSH1 0x1 SWAP4 DUP5 ADD SWAP4 SWAP1 SWAP2 ADD SWAP1 PUSH2 0x325 JUMP JUMPDEST CALLVALUE PUSH2 0x2AD JUMPI PUSH1 0x20 DUP1 PUSH1 0x3 NOT CALLDATASIZE ADD SLT PUSH2 0x2AD JUMPI PUSH1 0x1 PUSH1 0x1 PUSH1 0xA0 SHL SUB PUSH2 0x385 PUSH2 0x19F1 JUMP JUMPDEST AND PUSH1 0x0 MSTORE PUSH1 0xD PUSH1 0x20 MSTORE PUSH1 0x40 PUSH1 0x0 KECCAK256 SWAP1 PUSH1 0x40 MLOAD SWAP1 DUP2 PUSH1 0x20 DUP5 SLOAD SWAP2 DUP3 DUP2 MSTORE ADD SWAP4 PUSH1 0x0 MSTORE PUSH1 0x20 PUSH1 0x0 KECCAK256 SWAP2 PUSH1 0x0 SWAP1 JUMPDEST DUP3 DUP3 LT PUSH2 0x3C7 JUMPI PUSH2 0x348 DUP6 PUSH2 0x33C DUP2 DUP10 SUB DUP3 PUSH2 0x1A75 JUMP JUMPDEST DUP4 SLOAD DUP7 MSTORE SWAP5 DUP6 ADD SWAP5 PUSH1 0x1 SWAP4 DUP5 ADD SWAP4 SWAP1 SWAP2 ADD SWAP1 PUSH2 0x3B0 JUMP JUMPDEST CALLVALUE PUSH2 0x2AD JUMPI PUSH1 0x40 CALLDATASIZE PUSH1 0x3 NOT ADD SLT PUSH2 0x2AD JUMPI PUSH2 0x3F7 PUSH2 0x19F1 JUMP JUMPDEST PUSH1 0x1 PUSH1 0x1 PUSH1 0xA0 SHL SUB AND PUSH1 0x0 SWAP1 DUP2 MSTORE PUSH1 0xD PUSH1 0x20 MSTORE PUSH1 0x40 SWAP1 KECCAK256 DUP1 SLOAD PUSH1 0x24 CALLDATALOAD SWAP2 SWAP1 DUP3 LT ISZERO PUSH2 0x2AD JUMPI PUSH1 0x20 SWAP2 PUSH2 0x428 SWAP2 PUSH2 0x1A1D JUMP JUMPDEST SWAP1 SLOAD PUSH1 0x40 MLOAD SWAP2 PUSH1 0x3 SHL SHR DUP2 MSTORE RETURN JUMPDEST CALLVALUE PUSH2 0x2AD JUMPI PUSH1 0x20 CALLDATASIZE PUSH1 0x3 NOT ADD SLT PUSH2 0x2AD JUMPI PUSH2 0x44F PUSH2 0x19F1 JUMP JUMPDEST PUSH2 0x457 PUSH2 0x2083 JUMP JUMPDEST PUSH1 0x1 PUSH1 0x1 PUSH1 0xA0 SHL SUB AND PUSH1 0x0 DUP2 DUP2 MSTORE PUSH1 0xC PUSH1 0x20 MSTORE PUSH1 0x40 DUP2 KECCAK256 DUP1 SLOAD PUSH1 0xFF NOT AND SWAP1 SSTORE PUSH32 0x503890814436E1B1D481A5ACE3C4465FA90D978EBC88DDAF5505D5B6A259A882 SWAP1 DUP1 LOG2 STOP JUMPDEST CALLVALUE PUSH2 0x2AD JUMPI PUSH1 0x0 CALLDATASIZE PUSH1 0x3 NOT ADD SLT PUSH2 0x2AD JUMPI PUSH1 0x20 PUSH1 0x40 MLOAD PUSH2 0x2710 DUP2 MSTORE RETURN JUMPDEST CALLVALUE PUSH2 0x2AD JUMPI PUSH1 0x20 CALLDATASIZE PUSH1 0x3 NOT ADD SLT PUSH2 0x2AD JUMPI PUSH1 0x4 CALLDATALOAD PUSH1 0x0 MSTORE PUSH1 0xA PUSH1 0x20 MSTORE PUSH1 0x40 PUSH1 0x0 KECCAK256 DUP1 SLOAD PUSH1 0x1 PUSH1 0xA0 SHL PUSH1 0x1 SWAP1 SUB SWAP2 DUP3 PUSH1 0x1 DUP3 ADD SLOAD AND SWAP3 PUSH1 0x2 DUP3 ADD SLOAD AND PUSH1 0x3 DUP3 ADD SLOAD PUSH1 0x4 DUP4 ADD SLOAD PUSH1 0x5 DUP5 ADD SLOAD PUSH1 0x6 DUP6 ADD SLOAD PUSH1 0x7 DUP7 ADD SLOAD PUSH1 0x8 DUP8 ADD SLOAD SWAP2 PUSH1 0x9 DUP9 ADD SLOAD SWAP4 PUSH1 0xA DUP10 ADD SLOAD SWAP6 PUSH1 0xB DUP11 ADD SLOAD SWAP8 PUSH1 0xC DUP12 ADD SLOAD SWAP10 PUSH1 0xD DUP13 ADD SLOAD SWAP12 PUSH1 0xE ADD SLOAD PUSH1 0xFF AND SWAP13 PUSH1 0x40 MLOAD SWAP15 DUP16 SWAP2 DUP3 MSTORE PUSH1 0x20 DUP3 ADD MSTORE PUSH1 0x40 ADD MSTORE PUSH1 0x60 DUP14 ADD MSTORE PUSH1 0x80 DUP13 ADD MSTORE PUSH1 0xA0 DUP12 ADD MSTORE PUSH1 0xC0 DUP11 ADD MSTORE PUSH1 0xE0 DUP10 ADD MSTORE PUSH2 0x100 DUP9 ADD MSTORE PUSH2 0x120 DUP8 ADD MSTORE PUSH2 0x140 DUP7 ADD MSTORE PUSH2 0x160 DUP6 ADD MSTORE PUSH2 0x180 DUP5 ADD MSTORE PUSH2 0x1A0 DUP4 ADD MSTORE PUSH2 0x1C0 DUP3 ADD PUSH2 0x595 SWAP2 PUSH2 0x1A4B JUMP JUMPDEST PUSH2 0x1E0 SWAP1 RETURN JUMPDEST CALLVALUE PUSH2 0x2AD JUMPI PUSH1 0x0 CALLDATASIZE PUSH1 0x3 NOT ADD SLT PUSH2 0x2AD JUMPI PUSH1 0x20 PUSH1 0x40 MLOAD PUSH5 0x174876E800 DUP2 MSTORE RETURN JUMPDEST CALLVALUE PUSH2 0x2AD JUMPI PUSH1 0x0 CALLDATASIZE PUSH1 0x3 NOT ADD SLT PUSH2 0x2AD JUMPI PUSH1 0x20 PUSH1 0x7 SLOAD PUSH1 0x40 MLOAD SWAP1 DUP2 MSTORE RETURN JUMPDEST CALLVALUE PUSH2 0x2AD JUMPI PUSH1 0x0 CALLDATASIZE PUSH1 0x3 NOT ADD SLT PUSH2 0x2AD JUMPI PUSH1 0x7 SLOAD PUSH1 0x8 SLOAD SWAP1 PUSH1 0x9 SLOAD PUSH1 0x0 SWAP1 PUSH1 0x1 DUP1 PUSH1 0x6 SLOAD SWAP1 JUMPDEST DUP2 DUP2 GT ISZERO PUSH2 0x632 JUMPI POP POP POP SWAP1 PUSH2 0x348 SWAP2 PUSH1 0x40 MLOAD SWAP5 DUP6 SWAP5 DUP6 SWAP1 SWAP5 SWAP4 SWAP3 PUSH1 0x60 SWAP3 PUSH1 0x80 DUP4 ADD SWAP7 DUP4 MSTORE PUSH1 0x20 DUP4 ADD MSTORE PUSH1 0x40 DUP3 ADD MSTORE ADD MSTORE JUMP JUMPDEST DUP1 PUSH1 0x0 MSTORE PUSH1 0xA PUSH1 0x20 MSTORE PUSH1 0xFF PUSH1 0xE PUSH1 0x40 PUSH1 0x0 KECCAK256 ADD SLOAD AND PUSH1 0x4 DUP2 LT ISZERO PUSH2 0x67A JUMPI DUP4 EQ PUSH2 0x665 JUMPI JUMPDEST PUSH2 0x660 SWAP1 PUSH2 0x1D8D JUMP JUMPDEST PUSH2 0x5FF JUMP JUMPDEST SWAP4 PUSH2 0x672 PUSH2 0x660 SWAP2 PUSH2 0x1D8D JUMP JUMPDEST SWAP5 SWAP1 POP PUSH2 0x657 JUMP JUMPDEST PUSH4 0x4E487B71 PUSH1 0xE0 SHL PUSH1 0x0 MSTORE PUSH1 0x21 PUSH1 0x4 MSTORE PUSH1 0x24 PUSH1 0x0 REVERT JUMPDEST CALLVALUE PUSH2 0x2AD JUMPI PUSH1 0x20 PUSH2 0x2D0 PUSH2 0x6A3 CALLDATASIZE PUSH2 0x1A07 JUMP JUMPDEST SWAP1 PUSH2 0x1F6E JUMP JUMPDEST CALLVALUE PUSH2 0x2AD JUMPI PUSH1 0x20 CALLDATASIZE PUSH1 0x3 NOT ADD SLT PUSH2 0x2AD JUMPI PUSH1 0x20 PUSH2 0x2D0 PUSH1 0x4 CALLDATALOAD PUSH2 0x1E94 JUMP JUMPDEST CALLVALUE PUSH2 0x2AD JUMPI PUSH1 0x20 CALLDATASIZE PUSH1 0x3 NOT ADD SLT PUSH2 0x2AD JUMPI PUSH1 0x20 PUSH2 0x2D0 PUSH1 0x4 CALLDATALOAD PUSH2 0x1B68 JUMP JUMPDEST CALLVALUE PUSH2 0x2AD JUMPI PUSH1 0x0 CALLDATASIZE PUSH1 0x3 NOT ADD SLT PUSH2 0x2AD JUMPI PUSH1 0x20 PUSH1 0x9 SLOAD PUSH1 0x40 MLOAD SWAP1 DUP2 MSTORE RETURN JUMPDEST CALLVALUE PUSH2 0x2AD JUMPI PUSH1 0x60 CALLDATASIZE PUSH1 0x3 NOT ADD SLT PUSH2 0x2AD JUMPI PUSH1 0x20 PUSH2 0x2D0 PUSH1 0x44 CALLDATALOAD PUSH1 0x24 CALLDATALOAD PUSH1 0x4 CALLDATALOAD PUSH2 0x1D9C JUMP JUMPDEST CALLVALUE PUSH2 0x2AD JUMPI PUSH1 0x0 CALLDATASIZE PUSH1 0x3 NOT ADD SLT PUSH2 0x2AD JUMPI PUSH1 0x40 MLOAD PUSH32 0x0 PUSH1 0x1 PUSH1 0x1 PUSH1 0xA0 SHL SUB AND DUP2 MSTORE PUSH1 0x20 SWAP1 RETURN JUMPDEST CALLVALUE PUSH2 0x2AD JUMPI PUSH2 0x77A CALLDATASIZE PUSH2 0x1A07 JUMP JUMPDEST PUSH2 0x782 PUSH2 0x20AF JUMP JUMPDEST PUSH2 0x78A PUSH2 0x20CD JUMP JUMPDEST CALLER PUSH1 0x0 MSTORE PUSH1 0xB PUSH1 0x20 MSTORE PUSH1 0xFF PUSH1 0x40 PUSH1 0x0 KECCAK256 SLOAD AND ISZERO PUSH2 0xA3D JUMPI PUSH4 0x5F5E100 DUP3 LT DUP1 ISZERO PUSH2 0xA2F JUMPI JUMPDEST PUSH2 0xA1D JUMPI PUSH1 0x1 DUP2 LT DUP1 ISZERO PUSH2 0xA13 JUMPI JUMPDEST PUSH2 0xA01 JUMPI PUSH2 0x7CB DUP3 PUSH2 0x1D26 JUMP JUMPDEST SWAP2 PUSH2 0x7D5 DUP2 PUSH2 0x2068 JUMP JUMPDEST PUSH1 0x3 SLOAD PUSH2 0x80E SWAP1 DUP3 SWAP1 PUSH1 0x1 PUSH1 0x1 PUSH1 0xA0 SHL SUB AND CALLER PUSH32 0x0 PUSH2 0x2142 JUMP JUMPDEST PUSH2 0x819 PUSH1 0x6 SLOAD PUSH2 0x1D8D JUMP JUMPDEST SWAP3 DUP4 PUSH1 0x6 SSTORE PUSH2 0x829 DUP2 DUP7 DUP6 PUSH2 0x1D9C JUMP JUMPDEST SWAP1 PUSH1 0x40 MLOAD SWAP2 PUSH2 0x837 DUP4 PUSH2 0x1A58 JUMP JUMPDEST DUP6 DUP4 MSTORE CALLER PUSH1 0x20 DUP5 ADD MSTORE PUSH1 0x0 PUSH1 0x40 DUP5 ADD MSTORE DUP5 PUSH1 0x60 DUP5 ADD MSTORE DUP7 PUSH1 0x80 DUP5 ADD MSTORE DUP2 PUSH1 0xA0 DUP5 ADD MSTORE TIMESTAMP PUSH1 0xC0 DUP5 ADD MSTORE PUSH1 0x0 PUSH1 0xE0 DUP5 ADD MSTORE PUSH1 0x0 PUSH2 0x100 DUP5 ADD MSTORE PUSH1 0x0 PUSH2 0x120 DUP5 ADD MSTORE PUSH1 0x0 PUSH2 0x140 DUP5 ADD MSTORE PUSH1 0x0 PUSH2 0x160 DUP5 ADD MSTORE PUSH1 0x0 PUSH2 0x180 DUP5 ADD MSTORE PUSH2 0x1A0 DUP4 ADD MSTORE PUSH1 0x0 PUSH2 0x1C0 DUP4 ADD MSTORE DUP5 PUSH1 0x0 MSTORE PUSH1 0xA PUSH1 0x20 MSTORE PUSH2 0x1C0 PUSH1 0xE PUSH1 0x40 PUSH1 0x0 KECCAK256 DUP5 MLOAD DUP2 SSTORE PUSH1 0x1 DUP2 ADD PUSH1 0x1 DUP1 PUSH1 0xA0 SHL SUB PUSH1 0x20 DUP8 ADD MLOAD AND SWAP1 PUSH1 0x1 PUSH1 0x1 PUSH1 0x60 SHL SUB PUSH1 0xA0 SHL SWAP2 DUP3 DUP3 SLOAD AND OR SWAP1 SSTORE PUSH1 0x2 DUP3 ADD SWAP1 PUSH1 0x1 DUP1 PUSH1 0xA0 SHL SUB PUSH1 0x40 DUP9 ADD MLOAD AND SWAP1 DUP3 SLOAD AND OR SWAP1 SSTORE PUSH1 0x60 DUP6 ADD MLOAD PUSH1 0x3 DUP3 ADD SSTORE PUSH1 0x80 DUP6 ADD MLOAD PUSH1 0x4 DUP3 ADD SSTORE PUSH1 0xA0 DUP6 ADD MLOAD PUSH1 0x5 DUP3 ADD SSTORE PUSH1 0xC0 DUP6 ADD MLOAD PUSH1 0x6 DUP3 ADD SSTORE PUSH1 0xE0 DUP6 ADD MLOAD PUSH1 0x7 DUP3 ADD SSTORE PUSH2 0x100 DUP6 ADD MLOAD PUSH1 0x8 DUP3 ADD SSTORE PUSH2 0x120 DUP6 ADD MLOAD PUSH1 0x9 DUP3 ADD SSTORE PUSH2 0x140 DUP6 ADD MLOAD PUSH1 0xA DUP3 ADD SSTORE PUSH2 0x160 DUP6 ADD MLOAD PUSH1 0xB DUP3 ADD SSTORE PUSH2 0x180 DUP6 ADD MLOAD PUSH1 0xC DUP3 ADD SSTORE PUSH2 0x1A0 DUP6 ADD MLOAD PUSH1 0xD DUP3 ADD SSTORE ADD SWAP3 ADD MLOAD SWAP6 PUSH1 0x4 DUP8 LT ISZERO PUSH2 0x67A JUMPI PUSH2 0x9F2 DUP7 SWAP5 PUSH32 0x2B6E7BE0390A80EC9C24C00D1DBF95D0CC27E42970C49FDD9D2D9F8B7A876466 SWAP5 PUSH1 0x20 SWAP10 PUSH1 0xFF DUP1 NOT DUP4 SLOAD AND SWAP2 AND OR SWAP1 SSTORE CALLER PUSH1 0x0 MSTORE PUSH1 0xD DUP10 MSTORE PUSH2 0x9BF DUP7 PUSH1 0x40 PUSH1 0x0 KECCAK256 PUSH2 0x1B2E JUMP JUMPDEST PUSH2 0x9CA PUSH1 0x7 SLOAD PUSH2 0x1D8D JUMP JUMPDEST PUSH1 0x7 SSTORE PUSH1 0x40 MLOAD SWAP4 DUP5 SWAP4 CALLER SWAP9 DUP6 SWAP1 SWAP5 SWAP4 SWAP3 PUSH1 0x60 SWAP3 PUSH1 0x80 DUP4 ADD SWAP7 DUP4 MSTORE PUSH1 0x20 DUP4 ADD MSTORE PUSH1 0x40 DUP3 ADD MSTORE ADD MSTORE JUMP JUMPDEST SUB SWAP1 LOG3 PUSH1 0x1 DUP1 SSTORE PUSH1 0x40 MLOAD SWAP1 DUP2 MSTORE RETURN JUMPDEST PUSH1 0x40 MLOAD PUSH4 0x76166401 PUSH1 0xE0 SHL DUP2 MSTORE PUSH1 0x4 SWAP1 REVERT JUMPDEST POP PUSH1 0x24 DUP2 GT PUSH2 0x7BE JUMP JUMPDEST PUSH1 0x40 MLOAD PUSH4 0x162908E3 PUSH1 0xE1 SHL DUP2 MSTORE PUSH1 0x4 SWAP1 REVERT JUMPDEST POP PUSH5 0x174876E800 DUP3 GT PUSH2 0x7AF JUMP JUMPDEST PUSH1 0x40 MLOAD PUSH4 0xB094F27 PUSH1 0xE3 SHL DUP2 MSTORE PUSH1 0x4 SWAP1 REVERT JUMPDEST CALLVALUE PUSH2 0x2AD JUMPI PUSH1 0x0 CALLDATASIZE PUSH1 0x3 NOT ADD SLT PUSH2 0x2AD JUMPI PUSH1 0x20 PUSH1 0x40 MLOAD PUSH4 0x5F5E100 DUP2 MSTORE RETURN JUMPDEST CALLVALUE PUSH2 0x2AD JUMPI PUSH1 0x20 CALLDATASIZE PUSH1 0x3 NOT ADD SLT PUSH2 0x2AD JUMPI PUSH1 0x20 PUSH2 0x2D0 PUSH1 0x4 CALLDATALOAD PUSH2 0x1D26 JUMP JUMPDEST CALLVALUE PUSH2 0x2AD JUMPI PUSH1 0x0 CALLDATASIZE PUSH1 0x3 NOT ADD SLT PUSH2 0x2AD JUMPI PUSH1 0x0 SLOAD PUSH1 0x40 MLOAD PUSH1 0x1 PUSH1 0x1 PUSH1 0xA0 SHL SUB SWAP1 SWAP2 AND DUP2 MSTORE PUSH1 0x20 SWAP1 RETURN JUMPDEST CALLVALUE PUSH2 0x2AD JUMPI PUSH1 0x20 CALLDATASIZE PUSH1 0x3 NOT ADD SLT PUSH2 0x2AD JUMPI PUSH1 0x4 CALLDATALOAD PUSH2 0xAD1 PUSH2 0x20AF JUMP JUMPDEST PUSH2 0xAD9 PUSH2 0x20CD JUMP JUMPDEST CALLER PUSH1 0x0 MSTORE PUSH1 0xC PUSH1 0x20 MSTORE PUSH1 0xFF PUSH1 0x40 PUSH1 0x0 KECCAK256 SLOAD AND ISZERO PUSH2 0xA3D JUMPI DUP1 PUSH1 0x0 MSTORE PUSH1 0xA PUSH1 0x20 MSTORE PUSH1 0x40 PUSH1 0x0 KECCAK256 SWAP1 DUP2 SLOAD ISZERO PUSH2 0xC80 JUMPI PUSH1 0xE DUP3 ADD PUSH1 0xFF DUP2 SLOAD AND PUSH1 0x4 DUP2 LT ISZERO PUSH2 0x67A JUMPI PUSH2 0xC6E JUMPI PUSH1 0x2 DUP4 ADD DUP1 SLOAD PUSH1 0x1 PUSH1 0x1 PUSH1 0xA0 SHL SUB SWAP3 SWAP1 DUP4 AND PUSH2 0xC5C JUMPI PUSH1 0x3 DUP6 ADD SLOAD SWAP5 PUSH1 0xA DUP7 MUL DUP7 DUP2 DIV PUSH1 0xA EQ DUP8 ISZERO OR ISZERO PUSH2 0xC46 JUMPI PUSH2 0x2710 SWAP1 DIV SWAP3 PUSH2 0xBA8 PUSH2 0xB5D DUP6 DUP10 PUSH2 0x1AE1 JUMP JUMPDEST DUP1 SWAP7 PUSH32 0x0 SWAP1 PUSH2 0xB8D DUP12 ADDRESS CALLER DUP6 PUSH2 0x2142 JUMP JUMPDEST PUSH2 0xB9C DUP9 DUP3 PUSH1 0x5 SLOAD AND DUP5 PUSH2 0x20F0 JUMP JUMPDEST PUSH1 0x1 DUP7 ADD SLOAD AND SWAP1 PUSH2 0x20F0 JUMP JUMPDEST CALLER PUSH1 0x1 PUSH1 0x1 PUSH1 0x60 SHL SUB PUSH1 0xA0 SHL DUP3 SLOAD AND OR SWAP1 SSTORE TIMESTAMP PUSH1 0x7 DUP3 ADD SSTORE PUSH3 0x278D00 TIMESTAMP ADD SWAP1 DUP2 TIMESTAMP GT PUSH2 0xC46 JUMPI PUSH1 0x8 ADD SSTORE PUSH1 0x1 PUSH1 0xFF NOT DUP3 SLOAD AND OR SWAP1 SSTORE CALLER PUSH1 0x0 MSTORE PUSH1 0xE PUSH1 0x20 MSTORE PUSH2 0xBF4 DUP4 PUSH1 0x40 PUSH1 0x0 KECCAK256 PUSH2 0x1B2E JUMP JUMPDEST PUSH2 0xC00 DUP5 PUSH1 0x8 SLOAD PUSH2 0x1B21 JUMP JUMPDEST PUSH1 0x8 SSTORE PUSH1 0x40 MLOAD SWAP4 DUP5 MSTORE PUSH1 0x0 PUSH1 0x20 DUP6 ADD MSTORE PUSH1 0x40 DUP5 ADD MSTORE PUSH1 0x60 DUP4 ADD MSTORE PUSH32 0x1D42C734A02CBB87AFC90F61E8AF2AD261CFCD62B567BFA805BC93BCD9CEEB95 PUSH1 0x80 CALLER SWAP4 LOG3 PUSH1 0x1 DUP1 SSTORE STOP JUMPDEST PUSH4 0x4E487B71 PUSH1 0xE0 SHL PUSH1 0x0 MSTORE PUSH1 0x11 PUSH1 0x4 MSTORE PUSH1 0x24 PUSH1 0x0 REVERT JUMPDEST PUSH1 0x40 MLOAD PUSH4 0xD70A0E3 PUSH1 0xE4 SHL DUP2 MSTORE PUSH1 0x4 SWAP1 REVERT JUMPDEST PUSH1 0x40 MLOAD PUSH4 0x1516309 PUSH1 0xE3 SHL DUP2 MSTORE PUSH1 0x4 SWAP1 REVERT JUMPDEST PUSH1 0x40 MLOAD PUSH4 0xE7E621D PUSH1 0xE0 SHL DUP2 MSTORE PUSH1 0x4 SWAP1 REVERT JUMPDEST CALLVALUE PUSH2 0x2AD JUMPI PUSH1 0x0 CALLDATASIZE PUSH1 0x3 NOT ADD SLT PUSH2 0x2AD JUMPI PUSH2 0xCAB PUSH2 0x2083 JUMP JUMPDEST PUSH2 0xCB3 PUSH2 0x20AF JUMP JUMPDEST PUSH1 0x1 PUSH1 0xFF NOT PUSH1 0x2 SLOAD AND OR PUSH1 0x2 SSTORE PUSH32 0x62E78CEA01BEE320CD4E420270B5EA74000D11B0C9F74754EBDBFC544B05A258 PUSH1 0x20 PUSH1 0x40 MLOAD CALLER DUP2 MSTORE LOG1 STOP JUMPDEST CALLVALUE PUSH2 0x2AD JUMPI PUSH1 0x0 CALLDATASIZE PUSH1 0x3 NOT ADD SLT PUSH2 0x2AD JUMPI PUSH1 0x20 PUSH1 0x40 MLOAD PUSH1 0xC8 DUP2 MSTORE RETURN JUMPDEST CALLVALUE PUSH2 0x2AD JUMPI PUSH1 0x20 CALLDATASIZE PUSH1 0x3 NOT ADD SLT PUSH2 0x2AD JUMPI PUSH2 0xD21 PUSH2 0x19F1 JUMP JUMPDEST PUSH2 0xD29 PUSH2 0x2083 JUMP JUMPDEST PUSH1 0x1 PUSH1 0x1 PUSH1 0xA0 SHL SUB AND PUSH2 0xD3D DUP2 ISZERO ISZERO PUSH2 0x1A97 JUMP JUMPDEST DUP1 PUSH1 0x0 MSTORE PUSH1 0xC PUSH1 0x20 MSTORE PUSH1 0x40 PUSH1 0x0 KECCAK256 PUSH1 0x1 PUSH1 0xFF NOT DUP3 SLOAD AND OR SWAP1 SSTORE PUSH32 0xEAFABA2A6F658AC7632689FD61982A1C5387C8437E5FF730560EB63D3C935ED1 PUSH1 0x0 DUP1 LOG2 STOP JUMPDEST CALLVALUE PUSH2 0x2AD JUMPI PUSH1 0x20 CALLDATASIZE PUSH1 0x3 NOT ADD SLT PUSH2 0x2AD JUMPI PUSH1 0x4 CALLDATALOAD PUSH1 0x0 MSTORE PUSH1 0xA PUSH1 0x20 MSTORE PUSH1 0x20 PUSH1 0x40 PUSH1 0x0 KECCAK256 PUSH2 0xE5B PUSH1 0x40 MLOAD PUSH2 0xDAF DUP2 PUSH2 0x1A58 JUMP JUMPDEST DUP3 SLOAD DUP2 MSTORE PUSH1 0x1 DUP4 ADD SLOAD PUSH1 0x1 PUSH1 0x1 PUSH1 0xA0 SHL SUB SWAP1 DUP2 AND DUP6 DUP4 ADD MSTORE PUSH1 0x2 DUP5 ADD SLOAD AND PUSH1 0x40 DUP3 ADD MSTORE PUSH1 0x3 DUP4 ADD SLOAD PUSH1 0x60 DUP3 ADD MSTORE PUSH1 0x4 DUP4 ADD SLOAD PUSH1 0x80 DUP3 ADD MSTORE PUSH1 0x5 DUP4 ADD SLOAD PUSH1 0xA0 DUP3 ADD MSTORE PUSH1 0x6 DUP4 ADD SLOAD PUSH1 0xC0 DUP3 ADD MSTORE PUSH1 0x7 DUP4 ADD SLOAD PUSH1 0xE0 DUP3 ADD MSTORE PUSH1 0x8 DUP4 ADD SLOAD PUSH2 0x100 DUP3 ADD MSTORE PUSH1 0x9 DUP4 ADD SLOAD PUSH2 0x120 DUP3 ADD MSTORE PUSH1 0xA DUP4 ADD SLOAD PUSH2 0x140 DUP3 ADD MSTORE PUSH1 0xB DUP4 ADD SLOAD PUSH2 0x160 DUP3 ADD MSTORE PUSH1 0xC DUP4 ADD SLOAD PUSH2 0x180 DUP3 ADD MSTORE PUSH1 0xD DUP4 ADD SLOAD PUSH2 0x1A0 DUP3 ADD SWAP1 DUP2 MSTORE PUSH1 0xE SWAP1 SWAP4 ADD SLOAD PUSH1 0xFF AND SWAP1 PUSH2 0x1C0 ADD PUSH2 0x1AD5 JUMP JUMPDEST MLOAD PUSH1 0x40 MLOAD SWAP1 DUP2 MSTORE RETURN JUMPDEST CALLVALUE PUSH2 0x2AD JUMPI PUSH1 0x20 CALLDATASIZE PUSH1 0x3 NOT ADD SLT PUSH2 0x2AD JUMPI PUSH1 0x20 PUSH2 0xE82 PUSH1 0x4 CALLDATALOAD PUSH2 0x1C35 JUMP JUMPDEST PUSH1 0x40 MLOAD SWAP1 ISZERO ISZERO DUP2 MSTORE RETURN JUMPDEST CALLVALUE PUSH2 0x2AD JUMPI PUSH1 0x0 CALLDATASIZE PUSH1 0x3 NOT ADD SLT PUSH2 0x2AD JUMPI PUSH1 0x60 PUSH1 0x1 DUP1 PUSH1 0xA0 SHL SUB DUP1 PUSH1 0x3 SLOAD AND SWAP1 DUP1 PUSH1 0x4 SLOAD AND SWAP1 PUSH1 0x5 SLOAD AND SWAP1 PUSH1 0x40 MLOAD SWAP3 DUP4 MSTORE PUSH1 0x20 DUP4 ADD MSTORE PUSH1 0x40 DUP3 ADD MSTORE RETURN JUMPDEST CALLVALUE PUSH2 0x2AD JUMPI PUSH1 0x0 CALLDATASIZE PUSH1 0x3 NOT ADD SLT PUSH2 0x2AD JUMPI PUSH2 0xEE2 PUSH2 0x2083 JUMP JUMPDEST PUSH1 0x0 DUP1 SLOAD PUSH1 0x1 PUSH1 0x1 PUSH1 0xA0 SHL SUB NOT DUP2 AND DUP3 SSTORE PUSH1 0x1 PUSH1 0x1 PUSH1 0xA0 SHL SUB AND PUSH32 0x8BE0079C531659141344CD1FD0A4F28419497F9722A3DAAFE3B4186F6B6457E0 DUP3 DUP1 LOG3 STOP JUMPDEST CALLVALUE PUSH2 0x2AD JUMPI PUSH1 0x0 CALLDATASIZE PUSH1 0x3 NOT ADD SLT PUSH2 0x2AD JUMPI PUSH1 0x20 PUSH1 0x8 SLOAD PUSH1 0x40 MLOAD SWAP1 DUP2 MSTORE RETURN JUMPDEST CALLVALUE PUSH2 0x2AD JUMPI PUSH1 0x20 CALLDATASIZE PUSH1 0x3 NOT ADD SLT PUSH2 0x2AD JUMPI PUSH1 0x1 PUSH1 0x1 PUSH1 0xA0 SHL SUB PUSH2 0xF61 PUSH2 0x19F1 JUMP JUMPDEST AND PUSH1 0x0 MSTORE PUSH1 0xB PUSH1 0x20 MSTORE PUSH1 0x20 PUSH1 0xFF PUSH1 0x40 PUSH1 0x0 KECCAK256 SLOAD AND PUSH1 0x40 MLOAD SWAP1 ISZERO ISZERO DUP2 MSTORE RETURN JUMPDEST CALLVALUE PUSH2 0x2AD JUMPI PUSH1 0x0 CALLDATASIZE PUSH1 0x3 NOT ADD SLT PUSH2 0x2AD JUMPI PUSH1 0x20 PUSH1 0xFF PUSH1 0x2 SLOAD AND PUSH1 0x40 MLOAD SWAP1 ISZERO ISZERO DUP2 MSTORE RETURN JUMPDEST CALLVALUE PUSH2 0x2AD JUMPI PUSH1 0x20 CALLDATASIZE PUSH1 0x3 NOT ADD SLT PUSH2 0x2AD JUMPI PUSH1 0x1 PUSH1 0x1 PUSH1 0xA0 SHL SUB PUSH2 0xFC3 PUSH2 0x19F1 JUMP JUMPDEST AND PUSH1 0x0 MSTORE PUSH1 0xC PUSH1 0x20 MSTORE PUSH1 0x20 PUSH1 0xFF PUSH1 0x40 PUSH1 0x0 KECCAK256 SLOAD AND PUSH1 0x40 MLOAD SWAP1 ISZERO ISZERO DUP2 MSTORE RETURN JUMPDEST CALLVALUE PUSH2 0x2AD JUMPI PUSH1 0x20 CALLDATASIZE PUSH1 0x3 NOT ADD SLT PUSH2 0x2AD JUMPI PUSH1 0x4 CALLDATALOAD PUSH2 0xFFD PUSH2 0x20AF JUMP JUMPDEST PUSH2 0x1005 PUSH2 0x20CD JUMP JUMPDEST DUP1 PUSH1 0x0 MSTORE PUSH1 0xA PUSH1 0x20 MSTORE PUSH1 0x40 PUSH1 0x0 KECCAK256 DUP1 SLOAD ISZERO PUSH2 0xC80 JUMPI PUSH1 0xE DUP2 ADD PUSH1 0xFF DUP2 SLOAD AND PUSH1 0x4 DUP2 LT ISZERO PUSH2 0x67A JUMPI PUSH1 0x1 SUB PUSH2 0x12A1 JUMPI PUSH1 0x1 DUP3 ADD SLOAD PUSH1 0x1 PUSH1 0x1 PUSH1 0xA0 SHL SUB SWAP2 SWAP1 DUP3 AND CALLER SUB PUSH2 0xA3D JUMPI PUSH1 0x8 DUP4 ADD SWAP1 DUP2 SLOAD DUP1 TIMESTAMP LT DUP1 PUSH2 0x1291 JUMPI JUMPDEST PUSH2 0x1266 JUMPI JUMPDEST POP PUSH1 0xD DUP5 ADD SLOAD SWAP3 PUSH1 0x3 DUP6 ADD SLOAD SWAP4 PUSH2 0x107C PUSH1 0x9 DUP8 ADD SWAP6 DUP7 SLOAD SWAP1 PUSH2 0x1AE1 JUMP JUMPDEST SWAP1 PUSH2 0x1086 DUP9 PUSH2 0x1C35 JUMP JUMPDEST ISZERO PUSH2 0x124E JUMPI POP SWAP1 JUMPDEST PUSH1 0xC8 DUP3 MUL SWAP1 DUP3 DUP3 DIV PUSH1 0xC8 EQ DUP4 ISZERO OR ISZERO PUSH2 0xC46 JUMPI PUSH2 0x2710 PUSH2 0x10EC SWAP3 DIV SWAP1 PUSH2 0x10B4 DUP3 DUP6 PUSH2 0x1B21 JUMP JUMPDEST SWAP1 PUSH2 0x10E2 PUSH32 0x0 SWAP3 ADDRESS CALLER DUP6 PUSH2 0x2142 JUMP JUMPDEST PUSH1 0x4 SLOAD AND SWAP1 PUSH2 0x20F0 JUMP JUMPDEST PUSH2 0x10F6 DUP2 DUP8 PUSH2 0x1F6E JUMP JUMPDEST PUSH2 0x1100 DUP2 DUP4 PUSH2 0x1AE1 JUMP JUMPDEST SWAP2 PUSH2 0x110C DUP2 DUP8 SLOAD PUSH2 0x1B21 JUMP JUMPDEST DUP7 SSTORE PUSH1 0xC PUSH1 0xA DUP9 ADD SWAP8 PUSH2 0x1120 DUP5 DUP11 SLOAD PUSH2 0x1B21 JUMP JUMPDEST DUP10 SSTORE TIMESTAMP PUSH1 0xB DUP3 ADD SSTORE ADD PUSH2 0x1134 DUP3 DUP3 SLOAD PUSH2 0x1B21 JUMP JUMPDEST SWAP1 SSTORE PUSH1 0x0 SWAP2 DUP6 SLOAD DUP1 TIMESTAMP GT PUSH2 0x1235 JUMPI JUMPDEST POP DUP9 PUSH1 0x0 MSTORE PUSH1 0xF PUSH1 0x20 MSTORE PUSH2 0x115B DUP3 PUSH1 0x40 PUSH1 0x0 KECCAK256 PUSH2 0x1B2E JUMP JUMPDEST PUSH2 0x1164 DUP10 PUSH2 0x1C35 JUMP JUMPDEST PUSH2 0x1212 JUMPI DUP6 SLOAD PUSH3 0x278D00 DUP2 ADD DUP1 SWAP2 GT PUSH2 0xC46 JUMPI PUSH1 0xFF SWAP7 SSTORE JUMPDEST PUSH1 0x40 MLOAD SWAP4 DUP5 MSTORE PUSH1 0x20 DUP5 ADD MSTORE PUSH1 0x40 DUP4 ADD MSTORE PUSH1 0x60 DUP3 ADD MSTORE TIMESTAMP PUSH1 0x80 DUP3 ADD MSTORE DUP6 PUSH32 0x156EFD898BF24C8C6AF5B216D47176074332F389713E96FEC4AF716703EDB637 PUSH1 0xA0 CALLER SWAP4 LOG3 SLOAD AND PUSH1 0x4 DUP2 LT ISZERO PUSH2 0x67A JUMPI PUSH1 0x2 EQ PUSH2 0x11D7 JUMPI JUMPDEST PUSH1 0x1 DUP1 SSTORE STOP JUMPDEST PUSH32 0xC4B7ADD031AEFECD453D38F80B897200B1ADDFF90E8202F136668B2C83F07901 SWAP2 PUSH1 0x40 SWAP2 SLOAD SWAP1 SLOAD DUP3 MLOAD SWAP2 DUP3 MSTORE PUSH1 0x20 DUP3 ADD MSTORE LOG2 DUP1 DUP1 DUP1 PUSH2 0x11D1 JUMP JUMPDEST PUSH1 0xFF SWAP6 POP PUSH1 0x2 DUP7 NOT DUP7 SLOAD AND OR DUP6 SSTORE PUSH2 0x122D DUP9 SLOAD PUSH1 0x9 SLOAD PUSH2 0x1B21 JUMP JUMPDEST PUSH1 0x9 SSTORE PUSH2 0x117C JUMP JUMPDEST PUSH3 0x15180 SWAP2 SWAP4 POP PUSH2 0x1246 SWAP1 TIMESTAMP PUSH2 0x1AE1 JUMP JUMPDEST DIV SWAP2 DUP10 PUSH2 0x1143 JUMP JUMPDEST SWAP1 DUP1 DUP3 LT ISZERO PUSH2 0x125F JUMPI POP JUMPDEST SWAP1 PUSH2 0x108E JUMP JUMPDEST SWAP1 POP PUSH2 0x1259 JUMP JUMPDEST PUSH2 0x1275 PUSH3 0x15180 SWAP2 TIMESTAMP SWAP1 PUSH2 0x1AE1 JUMP JUMPDEST GT PUSH2 0x1280 JUMPI DUP6 PUSH2 0x105F JUMP JUMPDEST PUSH1 0x40 MLOAD PUSH3 0xA71FBB PUSH1 0xE0 SHL DUP2 MSTORE PUSH1 0x4 SWAP1 REVERT JUMPDEST POP PUSH2 0x129B DUP7 PUSH2 0x1C35 JUMP JUMPDEST ISZERO PUSH2 0x105A JUMP JUMPDEST PUSH1 0x40 MLOAD PUSH4 0x417BC23 PUSH1 0xE1 SHL DUP2 MSTORE PUSH1 0x4 SWAP1 REVERT JUMPDEST CALLVALUE PUSH2 0x2AD JUMPI PUSH1 0x20 CALLDATASIZE PUSH1 0x3 NOT ADD SLT PUSH2 0x2AD JUMPI PUSH1 0x0 PUSH2 0x1C0 PUSH1 0x40 MLOAD PUSH2 0x12D5 DUP2 PUSH2 0x1A58 JUMP JUMPDEST DUP3 DUP2 MSTORE DUP3 PUSH1 0x20 DUP3 ADD MSTORE DUP3 PUSH1 0x40 DUP3 ADD MSTORE DUP3 PUSH1 0x60 DUP3 ADD MSTORE DUP3 PUSH1 0x80 DUP3 ADD MSTORE DUP3 PUSH1 0xA0 DUP3 ADD MSTORE DUP3 PUSH1 0xC0 DUP3 ADD MSTORE DUP3 PUSH1 0xE0 DUP3 ADD MSTORE DUP3 PUSH2 0x100 DUP3 ADD MSTORE DUP3 PUSH2 0x120 DUP3 ADD MSTORE DUP3 PUSH2 0x140 DUP3 ADD MSTORE DUP3 PUSH2 0x160 DUP3 ADD MSTORE DUP3 PUSH2 0x180 DUP3 ADD MSTORE DUP3 PUSH2 0x1A0 DUP3 ADD MSTORE ADD MSTORE PUSH1 0x4 CALLDATALOAD PUSH1 0x0 MSTORE PUSH1 0xA PUSH1 0x20 MSTORE PUSH2 0x1E0 PUSH1 0x40 PUSH1 0x0 KECCAK256 PUSH2 0x13FA PUSH1 0xFF PUSH1 0xE PUSH1 0x40 MLOAD SWAP4 PUSH2 0x1355 DUP6 PUSH2 0x1A58 JUMP JUMPDEST DUP1 SLOAD DUP6 MSTORE PUSH1 0x1 DUP2 ADD SLOAD PUSH1 0x1 PUSH1 0x1 PUSH1 0xA0 SHL SUB SWAP1 DUP2 AND PUSH1 0x20 DUP8 ADD MSTORE PUSH1 0x2 DUP3 ADD SLOAD AND PUSH1 0x40 DUP7 ADD MSTORE PUSH1 0x3 DUP2 ADD SLOAD PUSH1 0x60 DUP7 ADD MSTORE PUSH1 0x4 DUP2 ADD SLOAD PUSH1 0x80 DUP7 ADD MSTORE PUSH1 0x5 DUP2 ADD SLOAD PUSH1 0xA0 DUP7 ADD MSTORE PUSH1 0x6 DUP2 ADD SLOAD PUSH1 0xC0 DUP7 ADD MSTORE PUSH1 0x7 DUP2 ADD SLOAD PUSH1 0xE0 DUP7 ADD MSTORE PUSH1 0x8 DUP2 ADD SLOAD PUSH2 0x100 DUP7 ADD MSTORE PUSH1 0x9 DUP2 ADD SLOAD PUSH2 0x120 DUP7 ADD MSTORE PUSH1 0xA DUP2 ADD SLOAD PUSH2 0x140 DUP7 ADD MSTORE PUSH1 0xB DUP2 ADD SLOAD PUSH2 0x160 DUP7 ADD MSTORE PUSH1 0xC DUP2 ADD SLOAD PUSH2 0x180 DUP7 ADD MSTORE PUSH1 0xD DUP2 ADD SLOAD PUSH2 0x1A0 DUP7 ADD MSTORE ADD SLOAD AND PUSH2 0x1C0 DUP4 ADD PUSH2 0x1AD5 JUMP JUMPDEST PUSH2 0x14B3 PUSH2 0x1C0 PUSH1 0x40 MLOAD SWAP3 DUP1 MLOAD DUP5 MSTORE PUSH1 0x1 DUP1 PUSH1 0xA0 SHL SUB PUSH1 0x20 DUP3 ADD MLOAD AND PUSH1 0x20 DUP6 ADD MSTORE PUSH1 0x1 DUP1 PUSH1 0xA0 SHL SUB PUSH1 0x40 DUP3 ADD MLOAD AND PUSH1 0x40 DUP6 ADD MSTORE PUSH1 0x60 DUP2 ADD MLOAD PUSH1 0x60 DUP6 ADD MSTORE PUSH1 0x80 DUP2 ADD MLOAD PUSH1 0x80 DUP6 ADD MSTORE PUSH1 0xA0 DUP2 ADD MLOAD PUSH1 0xA0 DUP6 ADD MSTORE PUSH1 0xC0 DUP2 ADD MLOAD PUSH1 0xC0 DUP6 ADD MSTORE PUSH1 0xE0 DUP2 ADD MLOAD PUSH1 0xE0 DUP6 ADD MSTORE PUSH2 0x100 DUP2 ADD MLOAD PUSH2 0x100 DUP6 ADD MSTORE PUSH2 0x120 DUP2 ADD MLOAD PUSH2 0x120 DUP6 ADD MSTORE PUSH2 0x140 DUP2 ADD MLOAD PUSH2 0x140 DUP6 ADD MSTORE PUSH2 0x160 DUP2 ADD MLOAD PUSH2 0x160 DUP6 ADD MSTORE PUSH2 0x180 DUP2 ADD MLOAD PUSH2 0x180 DUP6 ADD MSTORE PUSH2 0x1A0 DUP2 ADD MLOAD PUSH2 0x1A0 DUP6 ADD MSTORE ADD MLOAD PUSH2 0x1C0 DUP4 ADD SWAP1 PUSH2 0x1A4B JUMP JUMPDEST RETURN JUMPDEST CALLVALUE PUSH2 0x2AD JUMPI PUSH1 0x20 CALLDATASIZE PUSH1 0x3 NOT ADD SLT PUSH2 0x2AD JUMPI PUSH2 0x14CE PUSH2 0x19F1 JUMP JUMPDEST PUSH2 0x14D6 PUSH2 0x2083 JUMP JUMPDEST PUSH1 0x1 PUSH1 0x1 PUSH1 0xA0 SHL SUB AND PUSH1 0x0 DUP2 DUP2 MSTORE PUSH1 0xB PUSH1 0x20 MSTORE PUSH1 0x40 DUP2 KECCAK256 DUP1 SLOAD PUSH1 0xFF NOT AND SWAP1 SSTORE PUSH32 0xEB31998799E9A09DF1E8E5FD968BFEB5519B82B1B88D59DEC8C860EAC0265864 SWAP1 DUP1 LOG2 STOP JUMPDEST CALLVALUE PUSH2 0x2AD JUMPI PUSH1 0x60 CALLDATASIZE PUSH1 0x3 NOT ADD SLT PUSH2 0x2AD JUMPI PUSH2 0x1534 PUSH2 0x19F1 JUMP JUMPDEST PUSH1 0x24 CALLDATALOAD PUSH1 0x1 PUSH1 0x1 PUSH1 0xA0 SHL SUB DUP2 DUP2 AND SWAP2 DUP3 SWAP1 SUB PUSH2 0x2AD JUMPI PUSH1 0x44 CALLDATALOAD SWAP3 DUP2 DUP5 AND DUP1 SWAP5 SUB PUSH2 0x2AD JUMPI PUSH2 0x1560 PUSH2 0x2083 JUMP JUMPDEST AND DUP1 ISZERO PUSH2 0x167C JUMPI DUP2 ISZERO PUSH2 0x1637 JUMPI DUP3 ISZERO PUSH2 0x15F2 JUMPI PUSH1 0x40 MLOAD PUSH8 0xFFFFFFFFFFFFFFFF PUSH1 0x60 DUP3 ADD SWAP2 DUP3 LT SWAP2 GT OR PUSH2 0x15DC JUMPI DUP3 PUSH1 0x1 PUSH1 0x1 PUSH1 0x60 SHL SUB PUSH1 0xA0 SHL DUP3 DUP2 PUSH1 0x3 SLOAD AND OR PUSH1 0x3 SSTORE DUP4 DUP2 PUSH1 0x4 SLOAD AND OR PUSH1 0x4 SSTORE PUSH1 0x5 SLOAD AND OR PUSH1 0x5 SSTORE PUSH32 0x1F63DE24E6765B53F3BF31B690265DC5373FCF3C359EAB0D14C3B303731C08C1 PUSH1 0x0 DUP1 LOG4 STOP JUMPDEST PUSH4 0x4E487B71 PUSH1 0xE0 SHL PUSH1 0x0 MSTORE PUSH1 0x41 PUSH1 0x4 MSTORE PUSH1 0x24 PUSH1 0x0 REVERT JUMPDEST PUSH1 0x40 MLOAD PUSH3 0x461BCD PUSH1 0xE5 SHL DUP2 MSTORE PUSH1 0x20 PUSH1 0x4 DUP3 ADD MSTORE PUSH1 0x17 PUSH1 0x24 DUP3 ADD MSTORE PUSH32 0x496E76616C6964206D61746368696E672077616C6C6574000000000000000000 PUSH1 0x44 DUP3 ADD MSTORE PUSH1 0x64 SWAP1 REVERT JUMPDEST PUSH1 0x40 MLOAD PUSH3 0x461BCD PUSH1 0xE5 SHL DUP2 MSTORE PUSH1 0x20 PUSH1 0x4 DUP3 ADD MSTORE PUSH1 0x18 PUSH1 0x24 DUP3 ADD MSTORE PUSH32 0x496E76616C696420696E737572616E63652077616C6C65740000000000000000 PUSH1 0x44 DUP3 ADD MSTORE PUSH1 0x64 SWAP1 REVERT JUMPDEST PUSH1 0x40 MLOAD PUSH3 0x461BCD PUSH1 0xE5 SHL DUP2 MSTORE PUSH1 0x20 PUSH1 0x4 DUP3 ADD MSTORE PUSH1 0x12 PUSH1 0x24 DUP3 ADD MSTORE PUSH18 0x125B9D985B1A5908199959481DD85B1B195D PUSH1 0x72 SHL PUSH1 0x44 DUP3 ADD MSTORE PUSH1 0x64 SWAP1 REVERT JUMPDEST CALLVALUE PUSH2 0x2AD JUMPI PUSH1 0x0 CALLDATASIZE PUSH1 0x3 NOT ADD SLT PUSH2 0x2AD JUMPI PUSH2 0x16CF PUSH2 0x2083 JUMP JUMPDEST PUSH1 0x2 SLOAD PUSH1 0xFF DUP2 AND ISZERO PUSH2 0x170E JUMPI PUSH1 0xFF NOT AND PUSH1 0x2 SSTORE PUSH32 0x5DB9EE0A495BF2E6FF9C91A7834C1BA4FDD244A5E8AA4E537BD38AEAE4B073AA PUSH1 0x20 PUSH1 0x40 MLOAD CALLER DUP2 MSTORE LOG1 STOP JUMPDEST PUSH1 0x40 MLOAD PUSH4 0x8DFC202B PUSH1 0xE0 SHL DUP2 MSTORE PUSH1 0x4 SWAP1 REVERT JUMPDEST CALLVALUE PUSH2 0x2AD JUMPI PUSH1 0x40 CALLDATASIZE PUSH1 0x3 NOT ADD SLT PUSH2 0x2AD JUMPI PUSH2 0x1739 PUSH2 0x19F1 JUMP JUMPDEST PUSH1 0x1 PUSH1 0x1 PUSH1 0xA0 SHL SUB AND PUSH1 0x0 SWAP1 DUP2 MSTORE PUSH1 0xE PUSH1 0x20 MSTORE PUSH1 0x40 SWAP1 KECCAK256 DUP1 SLOAD PUSH1 0x24 CALLDATALOAD SWAP2 SWAP1 DUP3 LT ISZERO PUSH2 0x2AD JUMPI PUSH1 0x20 SWAP2 PUSH2 0x428 SWAP2 PUSH2 0x1A1D JUMP JUMPDEST CALLVALUE PUSH2 0x2AD JUMPI PUSH1 0x0 CALLDATASIZE PUSH1 0x3 NOT ADD SLT PUSH2 0x2AD JUMPI PUSH1 0x20 PUSH1 0x6 SLOAD PUSH1 0x40 MLOAD SWAP1 DUP2 MSTORE RETURN JUMPDEST CALLVALUE PUSH2 0x2AD JUMPI PUSH1 0x20 CALLDATASIZE PUSH1 0x3 NOT ADD SLT PUSH2 0x2AD JUMPI PUSH1 0x4 CALLDATALOAD PUSH2 0x17A4 PUSH2 0x20AF JUMP JUMPDEST PUSH2 0x17AC PUSH2 0x20CD JUMP JUMPDEST DUP1 PUSH1 0x0 MSTORE PUSH1 0xA PUSH1 0x20 MSTORE PUSH1 0x40 PUSH1 0x0 KECCAK256 DUP1 SLOAD ISZERO PUSH2 0xC80 JUMPI PUSH1 0xFF PUSH1 0xE DUP3 ADD SLOAD AND PUSH1 0x4 DUP2 LT ISZERO PUSH2 0x67A JUMPI PUSH1 0x1 DUP2 EQ ISZERO SWAP1 DUP2 PUSH2 0x187D JUMPI JUMPDEST POP PUSH2 0x12A1 JUMPI PUSH1 0x2 DUP2 ADD SLOAD PUSH1 0x1 PUSH1 0x1 PUSH1 0xA0 SHL SUB AND CALLER SUB PUSH2 0xA3D JUMPI PUSH1 0xC ADD SWAP1 DUP2 SLOAD SWAP2 DUP3 ISZERO PUSH2 0x186B JUMPI PUSH1 0x0 SWAP1 SSTORE PUSH2 0x1833 DUP3 CALLER PUSH32 0x0 PUSH2 0x20F0 JUMP JUMPDEST PUSH1 0x40 MLOAD SWAP2 DUP3 MSTORE TIMESTAMP PUSH1 0x20 DUP4 ADD MSTORE PUSH32 0x94DB06301DC32995467BB8625D03E4DD74879E0CBEE91569723822A9030CF7D5 PUSH1 0x40 CALLER SWAP4 LOG3 PUSH1 0x1 DUP1 SSTORE STOP JUMPDEST PUSH1 0x40 MLOAD PUSH4 0xAAD5627B PUSH1 0xE0 SHL DUP2 MSTORE PUSH1 0x4 SWAP1 REVERT JUMPDEST PUSH1 0x2 SWAP2 POP EQ ISZERO DUP4 PUSH2 0x17DE JUMP JUMPDEST CALLVALUE PUSH2 0x2AD JUMPI PUSH2 0x1897 CALLDATASIZE PUSH2 0x1A07 JUMP JUMPDEST SWAP1 PUSH1 0x0 MSTORE PUSH1 0xF PUSH1 0x20 MSTORE PUSH1 0x40 PUSH1 0x0 KECCAK256 DUP1 SLOAD DUP3 LT ISZERO PUSH2 0x2AD JUMPI PUSH1 0x20 SWAP2 PUSH2 0x428 SWAP2 PUSH2 0x1A1D JUMP JUMPDEST CALLVALUE PUSH2 0x2AD JUMPI PUSH1 0x0 CALLDATASIZE PUSH1 0x3 NOT ADD SLT PUSH2 0x2AD JUMPI PUSH1 0x20 PUSH1 0x40 MLOAD PUSH1 0xA DUP2 MSTORE RETURN JUMPDEST CALLVALUE PUSH2 0x2AD JUMPI PUSH1 0x20 CALLDATASIZE PUSH1 0x3 NOT ADD SLT PUSH2 0x2AD JUMPI PUSH2 0x18EF PUSH2 0x19F1 JUMP JUMPDEST PUSH2 0x18F7 PUSH2 0x2083 JUMP JUMPDEST PUSH1 0x1 PUSH1 0x1 PUSH1 0xA0 SHL SUB AND PUSH2 0x190B DUP2 ISZERO ISZERO PUSH2 0x1A97 JUMP JUMPDEST DUP1 PUSH1 0x0 MSTORE PUSH1 0xB PUSH1 0x20 MSTORE PUSH1 0x40 PUSH1 0x0 KECCAK256 PUSH1 0x1 PUSH1 0xFF NOT DUP3 SLOAD AND OR SWAP1 SSTORE PUSH32 0x3DF9DD335CAE22B62876375E06362E2FBE8AB586F724F378560E1AAA06BC00D7 PUSH1 0x0 DUP1 LOG2 STOP JUMPDEST CALLVALUE PUSH2 0x2AD JUMPI PUSH1 0x20 SWAP1 PUSH1 0x20 PUSH1 0x3 NOT CALLDATASIZE ADD SLT PUSH2 0x2AD JUMPI PUSH1 0x4 CALLDATALOAD PUSH1 0x0 MSTORE PUSH1 0xF PUSH1 0x20 MSTORE PUSH1 0x40 PUSH1 0x0 KECCAK256 SWAP2 DUP3 SLOAD DUP1 DUP4 MSTORE PUSH1 0x20 DUP4 ADD SWAP4 PUSH1 0x0 MSTORE PUSH1 0x20 PUSH1 0x0 KECCAK256 SWAP2 PUSH1 0x0 SWAP1 JUMPDEST DUP3 DUP3 LT PUSH2 0x199E JUMPI PUSH2 0x348 DUP6 PUSH2 0x33C DUP2 DUP10 SUB DUP3 PUSH2 0x1A75 JUMP JUMPDEST DUP4 SLOAD DUP7 MSTORE SWAP5 DUP6 ADD SWAP5 PUSH1 0x1 SWAP4 DUP5 ADD SWAP4 SWAP1 SWAP2 ADD SWAP1 PUSH2 0x1987 JUMP JUMPDEST PUSH1 0x20 SWAP1 PUSH1 0x20 PUSH1 0x40 DUP2 DUP4 ADD SWAP3 DUP3 DUP2 MSTORE DUP6 MLOAD DUP1 SWAP5 MSTORE ADD SWAP4 ADD SWAP2 PUSH1 0x0 JUMPDEST DUP3 DUP2 LT PUSH2 0x19DD JUMPI POP POP POP POP SWAP1 JUMP JUMPDEST DUP4 MLOAD DUP6 MSTORE SWAP4 DUP2 ADD SWAP4 SWAP3 DUP2 ADD SWAP3 PUSH1 0x1 ADD PUSH2 0x19CF JUMP JUMPDEST PUSH1 0x4 CALLDATALOAD SWAP1 PUSH1 0x1 PUSH1 0x1 PUSH1 0xA0 SHL SUB DUP3 AND DUP3 SUB PUSH2 0x2AD JUMPI JUMP JUMPDEST PUSH1 0x40 SWAP1 PUSH1 0x3 NOT ADD SLT PUSH2 0x2AD JUMPI PUSH1 0x4 CALLDATALOAD SWAP1 PUSH1 0x24 CALLDATALOAD SWAP1 JUMP JUMPDEST DUP1 SLOAD DUP3 LT ISZERO PUSH2 0x1A35 JUMPI PUSH1 0x0 MSTORE PUSH1 0x20 PUSH1 0x0 KECCAK256 ADD SWAP1 PUSH1 0x0 SWAP1 JUMP JUMPDEST PUSH4 0x4E487B71 PUSH1 0xE0 SHL PUSH1 0x0 MSTORE PUSH1 0x32 PUSH1 0x4 MSTORE PUSH1 0x24 PUSH1 0x0 REVERT JUMPDEST SWAP1 PUSH1 0x4 DUP3 LT ISZERO PUSH2 0x67A JUMPI MSTORE JUMP JUMPDEST PUSH2 0x1E0 DUP2 ADD SWAP1 DUP2 LT PUSH8 0xFFFFFFFFFFFFFFFF DUP3 GT OR PUSH2 0x15DC JUMPI PUSH1 0x40 MSTORE JUMP JUMPDEST SWAP1 PUSH1 0x1F DUP1 NOT SWAP2 ADD AND DUP2 ADD SWAP1 DUP2 LT PUSH8 0xFFFFFFFFFFFFFFFF DUP3 GT OR PUSH2 0x15DC JUMPI PUSH1 0x40 MSTORE JUMP JUMPDEST ISZERO PUSH2 0x1A9E JUMPI JUMP JUMPDEST PUSH1 0x40 MLOAD PUSH3 0x461BCD PUSH1 0xE5 SHL DUP2 MSTORE PUSH1 0x20 PUSH1 0x4 DUP3 ADD MSTORE PUSH1 0xF PUSH1 0x24 DUP3 ADD MSTORE PUSH15 0x496E76616C69642061646472657373 PUSH1 0x88 SHL PUSH1 0x44 DUP3 ADD MSTORE PUSH1 0x64 SWAP1 REVERT JUMPDEST PUSH1 0x4 DUP3 LT ISZERO PUSH2 0x67A JUMPI MSTORE JUMP JUMPDEST SWAP2 SWAP1 DUP3 SUB SWAP2 DUP3 GT PUSH2 0xC46 JUMPI JUMP JUMPDEST DUP2 DUP2 MUL SWAP3 SWAP2 DUP2 ISZERO SWAP2 DUP5 DIV EQ OR ISZERO PUSH2 0xC46 JUMPI JUMP JUMPDEST DUP2 ISZERO PUSH2 0x1B0B JUMPI DIV SWAP1 JUMP JUMPDEST PUSH4 0x4E487B71 PUSH1 0xE0 SHL PUSH1 0x0 MSTORE PUSH1 0x12 PUSH1 0x4 MSTORE PUSH1 0x24 PUSH1 0x0 REVERT JUMPDEST SWAP2 SWAP1 DUP3 ADD DUP1 SWAP3 GT PUSH2 0xC46 JUMPI JUMP JUMPDEST DUP1 SLOAD PUSH9 0x10000000000000000 DUP2 LT ISZERO PUSH2 0x15DC JUMPI PUSH2 0x1B50 SWAP2 PUSH1 0x1 DUP3 ADD DUP2 SSTORE PUSH2 0x1A1D JUMP JUMPDEST DUP2 SWAP3 SWAP2 SLOAD SWAP1 PUSH1 0x3 SHL SWAP2 DUP3 SHL SWAP2 PUSH1 0x0 NOT SWAP1 SHL NOT AND OR SWAP1 SSTORE JUMP JUMPDEST PUSH1 0x0 MSTORE PUSH1 0xA PUSH1 0x20 MSTORE PUSH1 0x40 PUSH1 0x0 KECCAK256 PUSH2 0x1C31 PUSH1 0x40 MLOAD PUSH2 0x1B84 DUP2 PUSH2 0x1A58 JUMP JUMPDEST DUP3 SLOAD DUP2 MSTORE PUSH1 0x1 DUP4 ADD SLOAD PUSH1 0x1 PUSH1 0x1 PUSH1 0xA0 SHL SUB SWAP1 DUP2 AND PUSH1 0x20 DUP4 ADD MSTORE PUSH1 0x2 DUP5 ADD SLOAD AND PUSH1 0x40 DUP3 ADD MSTORE PUSH1 0x3 DUP4 ADD SLOAD PUSH1 0x60 DUP3 ADD MSTORE PUSH1 0x4 DUP4 ADD SLOAD PUSH1 0x80 DUP3 ADD MSTORE PUSH1 0x5 DUP4 ADD SLOAD PUSH1 0xA0 DUP3 ADD MSTORE PUSH1 0x6 DUP4 ADD SLOAD PUSH1 0xC0 DUP3 ADD MSTORE PUSH1 0x7 DUP4 ADD SLOAD PUSH1 0xE0 DUP3 ADD MSTORE PUSH1 0x8 DUP4 ADD SLOAD PUSH2 0x100 DUP3 ADD MSTORE PUSH1 0x9 DUP4 ADD SLOAD PUSH2 0x120 DUP3 ADD MSTORE PUSH1 0xA DUP4 ADD SLOAD PUSH2 0x140 DUP3 ADD MSTORE PUSH1 0xB DUP4 ADD SLOAD PUSH2 0x160 DUP3 ADD MSTORE PUSH1 0xC DUP4 ADD SLOAD PUSH2 0x180 DUP3 ADD SWAP1 DUP2 MSTORE PUSH1 0xD DUP5 ADD SLOAD PUSH2 0x1A0 DUP4 ADD MSTORE PUSH1 0xE SWAP1 SWAP4 ADD SLOAD PUSH1 0xFF AND SWAP1 PUSH2 0x1C0 ADD PUSH2 0x1AD5 JUMP JUMPDEST MLOAD SWAP1 JUMP JUMPDEST PUSH1 0x0 MSTORE PUSH1 0xA PUSH1 0x20 MSTORE PUSH1 0x40 PUSH1 0x0 KECCAK256 PUSH1 0x40 MLOAD SWAP1 PUSH2 0x1C4F DUP3 PUSH2 0x1A58 JUMP JUMPDEST DUP1 SLOAD DUP3 MSTORE PUSH1 0x1 DUP1 PUSH1 0xA0 SHL SUB DUP1 PUSH1 0x1 DUP4 ADD SLOAD AND PUSH1 0x20 DUP5 ADD MSTORE PUSH1 0x2 DUP3 ADD SLOAD AND PUSH1 0x40 DUP4 ADD MSTORE PUSH1 0x3 DUP2 ADD SLOAD PUSH1 0x60 DUP4 ADD MSTORE PUSH1 0x4 DUP2 ADD SLOAD PUSH1 0x80 DUP4 ADD MSTORE PUSH2 0x1CFF PUSH1 0x5 DUP3 ADD SLOAD SWAP3 PUSH1 0xA0 DUP2 ADD SWAP4 DUP5 MSTORE PUSH1 0x6 DUP4 ADD SLOAD PUSH1 0xC0 DUP3 ADD MSTORE PUSH2 0x1C0 PUSH1 0xFF PUSH1 0xE PUSH1 0x7 DUP7 ADD SLOAD SWAP6 PUSH1 0xE0 DUP6 ADD SWAP7 DUP8 MSTORE PUSH1 0x8 DUP2 ADD SLOAD PUSH2 0x100 DUP7 ADD MSTORE PUSH1 0x9 DUP2 ADD SLOAD PUSH2 0x120 DUP7 ADD MSTORE PUSH1 0xA DUP2 ADD SLOAD PUSH2 0x140 DUP7 ADD MSTORE PUSH1 0xB DUP2 ADD SLOAD PUSH2 0x160 DUP7 ADD MSTORE PUSH1 0xC DUP2 ADD SLOAD PUSH2 0x180 DUP7 ADD MSTORE PUSH1 0xD DUP2 ADD SLOAD PUSH2 0x1A0 DUP7 ADD MSTORE ADD SLOAD AND SWAP2 ADD PUSH2 0x1AD5 JUMP JUMPDEST MLOAD SWAP1 MLOAD PUSH3 0x278D00 SWAP1 DUP2 DUP2 MUL SWAP2 DUP2 DUP4 DIV EQ SWAP1 ISZERO OR ISZERO PUSH2 0xC46 JUMPI PUSH2 0x1D20 SWAP2 PUSH2 0x1B21 JUMP JUMPDEST TIMESTAMP LT ISZERO SWAP1 JUMP JUMPDEST PUSH4 0x3B9ACA00 DUP2 GT ISZERO PUSH2 0x1D86 JUMPI PUSH5 0x12A05F200 DUP2 GT ISZERO PUSH2 0x1D7F JUMPI PUSH5 0x2540BE400 DUP2 GT ISZERO PUSH2 0x1D78 JUMPI PUSH5 0x5D21DBA00 DUP2 GT ISZERO PUSH2 0x1D71 JUMPI PUSH5 0xBA43B7400 LT ISZERO PUSH2 0x1D6B JUMPI PUSH2 0x8CA SWAP1 JUMP JUMPDEST PUSH2 0x708 SWAP1 JUMP JUMPDEST POP PUSH2 0x5DC SWAP1 JUMP JUMPDEST POP PUSH2 0x4B0 SWAP1 JUMP JUMPDEST POP PUSH2 0x384 SWAP1 JUMP JUMPDEST POP PUSH2 0x258 SWAP1 JUMP JUMPDEST PUSH1 0x0 NOT DUP2 EQ PUSH2 0xC46 JUMPI PUSH1 0x1 ADD SWAP1 JUMP JUMPDEST SWAP2 SWAP1 DUP1 ISZERO PUSH2 0x1E8A JUMPI PUSH5 0xE8D4A51000 SWAP2 DUP3 DUP5 MUL SWAP2 DUP5 DUP4 DIV DUP5 EQ DUP6 ISZERO OR ISZERO PUSH2 0xC46 JUMPI PUSH1 0xC SWAP1 DIV PUSH8 0xDE0B6B3A7640000 SWAP1 DUP2 DUP2 MUL SWAP1 DUP1 DUP3 DIV DUP4 EQ SWAP1 ISZERO OR ISZERO PUSH2 0xC46 JUMPI PUSH2 0x2710 SWAP1 DIV DUP1 DUP3 ADD SWAP4 DUP5 DUP4 GT PUSH2 0xC46 JUMPI SWAP2 SWAP4 DUP5 SWAP3 DUP4 SWAP2 DUP6 DUP1 JUMPDEST PUSH2 0x1E47 JUMPI POP POP PUSH2 0x1E0C SWAP3 PUSH2 0x1E07 SWAP2 PUSH2 0x1AEE JUMP JUMPDEST PUSH2 0x1AEE JUMP JUMPDEST DIV SWAP1 PUSH8 0xDE0B6B3A763FFFF NOT DUP4 ADD SWAP3 DUP4 GT PUSH2 0xC46 JUMPI DUP3 ISZERO PUSH2 0x1E37 JUMPI POP PUSH2 0x1E33 SWAP3 SWAP4 POP PUSH2 0x1B01 JUMP JUMPDEST DIV SWAP1 JUMP JUMPDEST SWAP3 POP POP POP PUSH2 0x1E44 SWAP2 PUSH2 0x1B01 JUMP JUMPDEST SWAP1 JUMP JUMPDEST SWAP1 SWAP2 SWAP3 POP PUSH1 0x1 SWAP2 DUP3 DUP1 DUP4 AND EQ PUSH2 0x1E70 JUMPI JUMPDEST PUSH2 0x1E63 DUP2 DUP8 SWAP3 PUSH2 0x1AEE JUMP JUMPDEST DIV SWAP2 SHR SWAP1 DUP2 DUP8 SWAP4 SWAP3 PUSH2 0x1DF4 JUMP JUMPDEST SWAP7 PUSH2 0x1E63 DUP7 PUSH2 0x1E80 DUP11 DUP3 SWAP5 PUSH2 0x1AEE JUMP JUMPDEST DIV SWAP9 SWAP2 POP POP PUSH2 0x1E58 JUMP JUMPDEST POP PUSH2 0x1E44 SWAP2 PUSH2 0x1B01 JUMP JUMPDEST PUSH1 0x0 MSTORE PUSH1 0xA PUSH1 0x20 MSTORE PUSH2 0x1E44 PUSH1 0x40 PUSH1 0x0 KECCAK256 PUSH1 0x40 MLOAD SWAP1 PUSH2 0x1EB1 DUP3 PUSH2 0x1A58 JUMP JUMPDEST DUP1 SLOAD DUP3 MSTORE PUSH1 0x1 DUP1 PUSH1 0xA0 SHL SUB DUP1 PUSH1 0x1 DUP4 ADD SLOAD AND PUSH1 0x20 DUP5 ADD MSTORE PUSH1 0x2 DUP3 ADD SLOAD AND PUSH1 0x40 DUP4 ADD MSTORE PUSH1 0x3 DUP2 ADD SLOAD PUSH1 0x60 DUP4 ADD SWAP1 DUP2 MSTORE PUSH2 0x1F63 PUSH1 0x4 DUP4 ADD SLOAD SWAP4 PUSH1 0x80 DUP2 ADD SWAP5 DUP6 MSTORE PUSH2 0x1C0 PUSH1 0xFF PUSH1 0xE PUSH1 0x5 DUP8 ADD SLOAD SWAP7 PUSH1 0xA0 DUP6 ADD SWAP8 DUP9 MSTORE PUSH1 0x6 DUP2 ADD SLOAD PUSH1 0xC0 DUP7 ADD MSTORE PUSH1 0x7 DUP2 ADD SLOAD PUSH1 0xE0 DUP7 ADD MSTORE PUSH1 0x8 DUP2 ADD SLOAD PUSH2 0x100 DUP7 ADD MSTORE PUSH1 0x9 DUP2 ADD SLOAD PUSH2 0x120 DUP7 ADD MSTORE PUSH1 0xA DUP2 ADD SLOAD PUSH2 0x140 DUP7 ADD MSTORE PUSH1 0xB DUP2 ADD SLOAD PUSH2 0x160 DUP7 ADD MSTORE PUSH1 0xC DUP2 ADD SLOAD PUSH2 0x180 DUP7 ADD MSTORE PUSH1 0xD DUP2 ADD SLOAD PUSH2 0x1A0 DUP7 ADD MSTORE ADD SLOAD AND SWAP2 ADD PUSH2 0x1AD5 JUMP JUMPDEST MLOAD SWAP2 MLOAD SWAP1 MLOAD SWAP2 PUSH2 0x1D9C JUMP JUMPDEST PUSH1 0x0 MSTORE PUSH1 0xA PUSH1 0x20 MSTORE PUSH2 0x2710 PUSH2 0x2056 PUSH1 0x40 PUSH1 0x0 KECCAK256 PUSH1 0xC PUSH2 0x204D PUSH1 0x40 MLOAD SWAP3 PUSH2 0x1F93 DUP5 PUSH2 0x1A58 JUMP JUMPDEST DUP1 SLOAD DUP5 MSTORE PUSH1 0x1 DUP1 PUSH1 0xA0 SHL SUB DUP1 PUSH1 0x1 DUP4 ADD SLOAD AND PUSH1 0x20 DUP7 ADD MSTORE PUSH1 0x2 DUP3 ADD SLOAD AND PUSH1 0x40 DUP6 ADD MSTORE PUSH1 0x3 DUP2 ADD SLOAD PUSH1 0x60 DUP6 ADD SWAP1 DUP2 MSTORE PUSH2 0x2044 PUSH1 0x4 DUP4 ADD SLOAD SWAP6 PUSH1 0x80 DUP2 ADD SWAP7 DUP8 MSTORE PUSH1 0x5 DUP5 ADD SLOAD PUSH1 0xA0 DUP3 ADD MSTORE PUSH1 0x6 DUP5 ADD SLOAD PUSH1 0xC0 DUP3 ADD MSTORE PUSH1 0x7 DUP5 ADD SLOAD PUSH1 0xE0 DUP3 ADD MSTORE PUSH1 0x8 DUP5 ADD SLOAD PUSH2 0x100 DUP3 ADD MSTORE PUSH2 0x1C0 PUSH1 0xFF PUSH1 0xE PUSH1 0x9 DUP8 ADD SLOAD SWAP7 PUSH2 0x120 DUP6 ADD SWAP8 DUP9 MSTORE PUSH1 0xA DUP2 ADD SLOAD PUSH2 0x140 DUP7 ADD MSTORE PUSH1 0xB DUP2 ADD SLOAD PUSH2 0x160 DUP7 ADD MSTORE DUP10 DUP2 ADD SLOAD PUSH2 0x180 DUP7 ADD MSTORE PUSH1 0xD DUP2 ADD SLOAD PUSH2 0x1A0 DUP7 ADD MSTORE ADD SLOAD AND SWAP2 ADD PUSH2 0x1AD5 JUMP JUMPDEST MLOAD SWAP1 MLOAD SWAP1 PUSH2 0x1AE1 JUMP JUMPDEST SWAP2 MLOAD DIV SWAP1 PUSH2 0x1AEE JUMP JUMPDEST DIV DUP2 DUP2 GT ISZERO PUSH2 0x2063 JUMPI POP SWAP1 JUMP JUMPDEST SWAP1 POP SWAP1 JUMP JUMPDEST PUSH1 0x32 DUP2 MUL SWAP1 DUP1 DUP3 DIV PUSH1 0x32 EQ SWAP1 ISZERO OR ISZERO PUSH2 0xC46 JUMPI PUSH2 0x2710 SWAP1 DIV SWAP1 JUMP JUMPDEST PUSH1 0x0 SLOAD PUSH1 0x1 PUSH1 0x1 PUSH1 0xA0 SHL SUB AND CALLER SUB PUSH2 0x2097 JUMPI JUMP JUMPDEST PUSH1 0x40 MLOAD PUSH4 0x118CDAA7 PUSH1 0xE0 SHL DUP2 MSTORE CALLER PUSH1 0x4 DUP3 ADD MSTORE PUSH1 0x24 SWAP1 REVERT JUMPDEST PUSH1 0xFF PUSH1 0x2 SLOAD AND PUSH2 0x20BB JUMPI JUMP JUMPDEST PUSH1 0x40 MLOAD PUSH4 0xD93C0665 PUSH1 0xE0 SHL DUP2 MSTORE PUSH1 0x4 SWAP1 REVERT JUMPDEST PUSH1 0x2 PUSH1 0x1 SLOAD EQ PUSH2 0x20DE JUMPI PUSH1 0x2 PUSH1 0x1 SSTORE JUMP JUMPDEST PUSH1 0x40 MLOAD PUSH4 0x3EE5AEB5 PUSH1 0xE0 SHL DUP2 MSTORE PUSH1 0x4 SWAP1 REVERT JUMPDEST PUSH1 0x40 MLOAD PUSH4 0xA9059CBB PUSH1 0xE0 SHL PUSH1 0x20 DUP3 ADD MSTORE PUSH1 0x1 PUSH1 0x1 PUSH1 0xA0 SHL SUB SWAP1 SWAP3 AND PUSH1 0x24 DUP4 ADD MSTORE PUSH1 0x44 DUP1 DUP4 ADD SWAP4 SWAP1 SWAP4 MSTORE SWAP2 DUP2 MSTORE PUSH1 0x80 DUP2 ADD SWAP2 PUSH8 0xFFFFFFFFFFFFFFFF DUP4 GT DUP3 DUP5 LT OR PUSH2 0x15DC JUMPI PUSH2 0x2140 SWAP3 PUSH1 0x40 MSTORE PUSH2 0x2197 JUMP JUMPDEST JUMP JUMPDEST PUSH1 0x40 MLOAD PUSH4 0x23B872DD PUSH1 0xE0 SHL PUSH1 0x20 DUP3 ADD MSTORE PUSH1 0x1 PUSH1 0x1 PUSH1 0xA0 SHL SUB SWAP3 DUP4 AND PUSH1 0x24 DUP3 ADD MSTORE SWAP3 SWAP1 SWAP2 AND PUSH1 0x44 DUP4 ADD MSTORE PUSH1 0x64 DUP1 DUP4 ADD SWAP4 SWAP1 SWAP4 MSTORE SWAP2 DUP2 MSTORE PUSH1 0xA0 DUP2 ADD SWAP2 DUP2 DUP4 LT PUSH8 0xFFFFFFFFFFFFFFFF DUP5 GT OR PUSH2 0x15DC JUMPI PUSH2 0x2140 SWAP3 PUSH1 0x40 MSTORE JUMPDEST SWAP1 PUSH1 0x0 PUSH1 0x20 SWAP2 DUP3 DUP2 MLOAD SWAP2 ADD DUP3 DUP6 GAS CALL ISZERO PUSH2 0x21F3 JUMPI PUSH1 0x0 MLOAD RETURNDATASIZE PUSH2 0x21EA JUMPI POP PUSH1 0x1 PUSH1 0x1 PUSH1 0xA0 SHL SUB DUP2 AND EXTCODESIZE ISZERO JUMPDEST PUSH2 0x21C8 JUMPI POP JUMP JUMPDEST PUSH1 0x40 MLOAD PUSH4 0x5274AFE7 PUSH1 0xE0 SHL DUP2 MSTORE PUSH1 0x1 PUSH1 0x1 PUSH1 0xA0 SHL SUB SWAP1 SWAP2 AND PUSH1 0x4 DUP3 ADD MSTORE PUSH1 0x24 SWAP1 REVERT JUMPDEST PUSH1 0x1 EQ ISZERO PUSH2 0x21C1 JUMP JUMPDEST PUSH1 0x40 MLOAD RETURNDATASIZE PUSH1 0x0 DUP3 RETURNDATACOPY RETURNDATASIZE SWAP1 REVERT INVALID LOG2 PUSH5 0x6970667358 0x22 SLT KECCAK256 CALLCODE CODECOPY 0xAD PC 0xA5 TLOAD ADDMOD 0xA7 SWAP14 0xDA JUMPDEST 0xB4 SWAP1 0xCA JUMPI DUP2 0xCB 0x29 DUP13 0x26 STOP REVERT 0x4C EXTCODESIZE LOG4 COINBASE DUP8 GT LT DUP6 DUP16 0xC5 PUSH5 0x736F6C6343 STOP ADDMOD XOR STOP CALLER "},"methodIdentifiers":{"BASIS_POINTS()":"e1f1c4a7","INSURANCE_RATE()":"82626d6b","MATCHING_FEE_RATE()":"1892cdba","MAX_LOAN_AMOUNT()":"ceba1794","MIN_LOAN_AMOUNT()":"96fa212f","addBorrowerToWhitelist(address)":"16b1526c","addLenderToWhitelist(address)":"821fc0ac","borrowerLoans(address,uint256)":"e3ed1902","calculateAvailableInterest(uint256)":"655540b5","calculateEMI(uint256,uint256,uint256)":"b4dc9405","calculateInitiationFee(uint256)":"f0b08c15","calculateInterestFromEMI(uint256,uint256)":"bd7ea413","calculateInterestRate(uint256)":"90d3b379","calculateLoanEMI(uint256)":"bba55c20","calculateMonthlyInterest(uint256)":"59b6bf05","claimInterest(uint256)":"2eb375ea","companyWallets()":"727336ee","createLoan(uint256,uint256)":"98cd90b5","fundLoan(uint256)":"846b909a","getAvailableWithdrawal(uint256)":"ba510a33","getBorrowerLoans(address)":"eee8b7ff","getFixedEMI(uint256)":"7ad78254","getLenderLoans(address)":"eeeb0c17","getLoan(uint256)":"504006ca","getLoanPaymentHistory(uint256)":"07ac9d5a","getStats()":"c59d4847","isFinalPayment(uint256)":"734c7d0b","lenderLoans(address,uint256)":"3cdb72f1","loanCounter()":"34d9289e","loanPaymentHistory(uint256,uint256)":"28e202b1","loans(uint256)":"e1ec3c68","makePayment(uint256)":"5114cb52","owner()":"8da5cb5b","pause()":"8456cb59","paused()":"5c975abb","removeBorrowerFromWhitelist(address)":"47a2f669","removeLenderFromWhitelist(address)":"e2608855","renounceOwnership()":"715018a6","totalInterestEarned()":"b7d93f34","totalLoans()":"cc952b57","totalVolume()":"5f81a57c","transferOwnership(address)":"f2fde38b","unpause()":"3f4ba83a","updateCompanyWallets(address,address,address)":"3f506dd6","usdtToken()":"a98ad46c","whitelistedBorrowers(address)":"5dabc823","whitelistedLenders(address)":"5bc4c7b8"}}}}}